{"contracts/MyEpicGame.sol":{"MyEpicGame":{"abi":[{"inputs":[{"internalType":"string[]","name":"characterNames","type":"string[]"},{"internalType":"string[]","name":"characterImageURIs","type":"string[]"},{"internalType":"uint256[]","name":"characterHp","type":"uint256[]"},{"internalType":"uint256[]","name":"characterAttackDmg","type":"uint256[]"}],"stateMutability":"nonpayable","type":"constructor"},{"anonymous":false,"inputs":[{"indexed":true,"internalType":"address","name":"owner","type":"address"},{"indexed":true,"internalType":"address","name":"approved","type":"address"},{"indexed":true,"internalType":"uint256","name":"tokenId","type":"uint256"}],"name":"Approval","type":"event"},{"anonymous":false,"inputs":[{"indexed":true,"internalType":"address","name":"owner","type":"address"},{"indexed":true,"internalType":"address","name":"operator","type":"address"},{"indexed":false,"internalType":"bool","name":"approved","type":"bool"}],"name":"ApprovalForAll","type":"event"},{"anonymous":false,"inputs":[{"indexed":true,"internalType":"address","name":"from","type":"address"},{"indexed":true,"internalType":"address","name":"to","type":"address"},{"indexed":true,"internalType":"uint256","name":"tokenId","type":"uint256"}],"name":"Transfer","type":"event"},{"inputs":[{"internalType":"address","name":"to","type":"address"},{"internalType":"uint256","name":"tokenId","type":"uint256"}],"name":"approve","outputs":[],"stateMutability":"nonpayable","type":"function"},{"inputs":[{"internalType":"address","name":"owner","type":"address"}],"name":"balanceOf","outputs":[{"internalType":"uint256","name":"","type":"uint256"}],"stateMutability":"view","type":"function"},{"inputs":[{"internalType":"uint256","name":"tokenId","type":"uint256"}],"name":"getApproved","outputs":[{"internalType":"address","name":"","type":"address"}],"stateMutability":"view","type":"function"},{"inputs":[{"internalType":"address","name":"owner","type":"address"},{"internalType":"address","name":"operator","type":"address"}],"name":"isApprovedForAll","outputs":[{"internalType":"bool","name":"","type":"bool"}],"stateMutability":"view","type":"function"},{"inputs":[{"internalType":"uint256","name":"_characterIndex","type":"uint256"}],"name":"mintCharacterNFT","outputs":[],"stateMutability":"nonpayable","type":"function"},{"inputs":[],"name":"name","outputs":[{"internalType":"string","name":"","type":"string"}],"stateMutability":"view","type":"function"},{"inputs":[{"internalType":"uint256","name":"","type":"uint256"}],"name":"nftHolderAttributes","outputs":[{"internalType":"uint256","name":"characterIndex","type":"uint256"},{"internalType":"string","name":"name","type":"string"},{"internalType":"string","name":"imageURI","type":"string"},{"internalType":"uint256","name":"hp","type":"uint256"},{"internalType":"uint256","name":"maxHp","type":"uint256"},{"internalType":"uint256","name":"attackDamage","type":"uint256"}],"stateMutability":"view","type":"function"},{"inputs":[{"internalType":"address","name":"","type":"address"}],"name":"nftHolders","outputs":[{"internalType":"uint256","name":"","type":"uint256"}],"stateMutability":"view","type":"function"},{"inputs":[{"internalType":"uint256","name":"tokenId","type":"uint256"}],"name":"ownerOf","outputs":[{"internalType":"address","name":"","type":"address"}],"stateMutability":"view","type":"function"},{"inputs":[{"internalType":"address","name":"from","type":"address"},{"internalType":"address","name":"to","type":"address"},{"internalType":"uint256","name":"tokenId","type":"uint256"}],"name":"safeTransferFrom","outputs":[],"stateMutability":"nonpayable","type":"function"},{"inputs":[{"internalType":"address","name":"from","type":"address"},{"internalType":"address","name":"to","type":"address"},{"internalType":"uint256","name":"tokenId","type":"uint256"},{"internalType":"bytes","name":"data","type":"bytes"}],"name":"safeTransferFrom","outputs":[],"stateMutability":"nonpayable","type":"function"},{"inputs":[{"internalType":"address","name":"operator","type":"address"},{"internalType":"bool","name":"approved","type":"bool"}],"name":"setApprovalForAll","outputs":[],"stateMutability":"nonpayable","type":"function"},{"inputs":[{"internalType":"bytes4","name":"interfaceId","type":"bytes4"}],"name":"supportsInterface","outputs":[{"internalType":"bool","name":"","type":"bool"}],"stateMutability":"view","type":"function"},{"inputs":[],"name":"symbol","outputs":[{"internalType":"string","name":"","type":"string"}],"stateMutability":"view","type":"function"},{"inputs":[{"internalType":"uint256","name":"tokenId","type":"uint256"}],"name":"tokenURI","outputs":[{"internalType":"string","name":"","type":"string"}],"stateMutability":"view","type":"function"},{"inputs":[{"internalType":"address","name":"from","type":"address"},{"internalType":"address","name":"to","type":"address"},{"internalType":"uint256","name":"tokenId","type":"uint256"}],"name":"transferFrom","outputs":[],"stateMutability":"nonpayable","type":"function"}],"evm":{"bytecode":{"linkReferences":{},"object":"60806040523480156200001157600080fd5b5060405162003f1e38038062003f1e8339818101604052810190620000379190620008ab565b6040518060400160405280600681526020017f4865726f657300000000000000000000000000000000000000000000000000008152506040518060400160405280600481526020017f4845524f000000000000000000000000000000000000000000000000000000008152508160009081620000b4919062000bda565b508060019081620000c6919062000bda565b50505060005b8451811015620003fe5760076040518060c00160405280838152602001878481518110620000ff57620000fe62000cc1565b5b6020026020010151815260200186848151811062000122576200012162000cc1565b5b6020026020010151815260200185848151811062000145576200014462000cc1565b5b6020026020010151815260200185848151811062000168576200016762000cc1565b5b602002602001015181526020018484815181106200018b576200018a62000cc1565b5b60200260200101518152509080600181540180825580915050600190039060005260206000209060060201600090919091909150600082015181600001556020820151816001019081620001e0919062000bda565b506040820151816002019081620001f8919062000bda565b50606082015181600301556080820151816004015560a08201518160050155505060006007828154811062000232576200023162000cc1565b5b90600052602060002090600602016040518060c0016040529081600082015481526020016001820180546200026790620009d3565b80601f01602080910402602001604051908101604052809291908181526020018280546200029590620009d3565b8015620002e65780601f10620002ba57610100808354040283529160200191620002e6565b820191906000526020600020905b815481529060010190602001808311620002c857829003601f168201915b505050505081526020016002820180546200030190620009d3565b80601f01602080910402602001604051908101604052809291908181526020018280546200032f90620009d3565b8015620003805780601f10620003545761010080835404028352916020019162000380565b820191906000526020600020905b8154815290600101906020018083116200036257829003601f168201915b5050505050815260200160038201548152602001600482015481526020016005820154815250509050620003e760405180606001604052806025815260200162003ef9602591398260200151836060015184604001516200042060201b62000e531760201c565b508080620003f59062000d1f565b915050620000cc565b50620004166006620004cc60201b62000ef51760201c565b5050505062000e31565b620004c6848484846040516024016200043d949392919062000dcf565b6040516020818303038152906040527f5d1a971a000000000000000000000000000000000000000000000000000000007bffffffffffffffffffffffffffffffffffffffffffffffffffffffff19166020820180517bffffffffffffffffffffffffffffffffffffffffffffffffffffffff8381831617835250505050620004e260201b60201c565b50505050565b6001816000016000828254019250508190555050565b60008151905060006a636f6e736f6c652e6c6f679050602083016000808483855afa5050505050565b6000604051905090565b600080fd5b600080fd5b600080fd5b6000601f19601f8301169050919050565b7f4e487b7100000000000000000000000000000000000000000000000000000000600052604160045260246000fd5b6200056f8262000524565b810181811067ffffffffffffffff8211171562000591576200059062000535565b5b80604052505050565b6000620005a66200050b565b9050620005b4828262000564565b919050565b600067ffffffffffffffff821115620005d757620005d662000535565b5b602082029050602081019050919050565b600080fd5b600080fd5b600067ffffffffffffffff82111562000610576200060f62000535565b5b6200061b8262000524565b9050602081019050919050565b60005b83811015620006485780820151818401526020810190506200062b565b60008484015250505050565b60006200066b6200066584620005f2565b6200059a565b9050828152602081018484840111156200068a5762000689620005ed565b5b6200069784828562000628565b509392505050565b600082601f830112620006b757620006b66200051f565b5b8151620006c984826020860162000654565b91505092915050565b6000620006e9620006e384620005b9565b6200059a565b905080838252602082019050602084028301858111156200070f576200070e620005e8565b5b835b818110156200075d57805167ffffffffffffffff8111156200073857620007376200051f565b5b8086016200074789826200069f565b8552602085019450505060208101905062000711565b5050509392505050565b600082601f8301126200077f576200077e6200051f565b5b815162000791848260208601620006d2565b91505092915050565b600067ffffffffffffffff821115620007b857620007b762000535565b5b602082029050602081019050919050565b6000819050919050565b620007de81620007c9565b8114620007ea57600080fd5b50565b600081519050620007fe81620007d3565b92915050565b60006200081b62000815846200079a565b6200059a565b90508083825260208201905060208402830185811115620008415762000840620005e8565b5b835b818110156200086e5780620008598882620007ed565b84526020840193505060208101905062000843565b5050509392505050565b600082601f83011262000890576200088f6200051f565b5b8151620008a284826020860162000804565b91505092915050565b60008060008060808587031215620008c857620008c762000515565b5b600085015167ffffffffffffffff811115620008e957620008e86200051a565b5b620008f78782880162000767565b945050602085015167ffffffffffffffff8111156200091b576200091a6200051a565b5b620009298782880162000767565b935050604085015167ffffffffffffffff8111156200094d576200094c6200051a565b5b6200095b8782880162000878565b925050606085015167ffffffffffffffff8111156200097f576200097e6200051a565b5b6200098d8782880162000878565b91505092959194509250565b600081519050919050565b7f4e487b7100000000000000000000000000000000000000000000000000000000600052602260045260246000fd5b60006002820490506001821680620009ec57607f821691505b60208210810362000a025762000a01620009a4565b5b50919050565b60008190508160005260206000209050919050565b60006020601f8301049050919050565b600082821b905092915050565b60006008830262000a6c7fffffffffffffffffffffffffffffffffffffffffffffffffffffffffffffffff8262000a2d565b62000a78868362000a2d565b95508019841693508086168417925050509392505050565b6000819050919050565b600062000abb62000ab562000aaf84620007c9565b62000a90565b620007c9565b9050919050565b6000819050919050565b62000ad78362000a9a565b62000aef62000ae68262000ac2565b84845462000a3a565b825550505050565b600090565b62000b0662000af7565b62000b1381848462000acc565b505050565b5b8181101562000b3b5762000b2f60008262000afc565b60018101905062000b19565b5050565b601f82111562000b8a5762000b548162000a08565b62000b5f8462000a1d565b8101602085101562000b6f578190505b62000b8762000b7e8562000a1d565b83018262000b18565b50505b505050565b600082821c905092915050565b600062000baf6000198460080262000b8f565b1980831691505092915050565b600062000bca838362000b9c565b9150826002028217905092915050565b62000be58262000999565b67ffffffffffffffff81111562000c015762000c0062000535565b5b62000c0d8254620009d3565b62000c1a82828562000b3f565b600060209050601f83116001811462000c52576000841562000c3d578287015190505b62000c49858262000bbc565b86555062000cb9565b601f19841662000c628662000a08565b60005b8281101562000c8c5784890151825560018201915060208501945060208101905062000c65565b8683101562000cac578489015162000ca8601f89168262000b9c565b8355505b6001600288020188555050505b505050505050565b7f4e487b7100000000000000000000000000000000000000000000000000000000600052603260045260246000fd5b7f4e487b7100000000000000000000000000000000000000000000000000000000600052601160045260246000fd5b600062000d2c82620007c9565b91507fffffffffffffffffffffffffffffffffffffffffffffffffffffffffffffffff820362000d615762000d6062000cf0565b5b600182019050919050565b600082825260208201905092915050565b600062000d8a8262000999565b62000d96818562000d6c565b935062000da881856020860162000628565b62000db38162000524565b840191505092915050565b62000dc981620007c9565b82525050565b6000608082019050818103600083015262000deb818762000d7d565b9050818103602083015262000e01818662000d7d565b905062000e12604083018562000dbe565b818103606083015262000e26818462000d7d565b905095945050505050565b6130b88062000e416000396000f3fe608060405234801561001057600080fd5b50600436106101005760003560e01c80637df124a111610097578063b88d4fde11610066578063b88d4fde146102d6578063c87b56dd146102f2578063e985e9c514610322578063f8b81ef71461035257610100565b80637df124a11461023757806395d89b411461026757806398da4c9514610285578063a22cb465146102ba57610100565b806323b872dd116100d357806323b872dd1461019f57806342842e0e146101bb5780636352211e146101d757806370a082311461020757610100565b806301ffc9a71461010557806306fdde0314610135578063081812fc14610153578063095ea7b314610183575b600080fd5b61011f600480360381019061011a9190611f3b565b61036e565b60405161012c9190611f83565b60405180910390f35b61013d610450565b60405161014a919061202e565b60405180910390f35b61016d60048036038101906101689190612086565b6104e2565b60405161017a91906120f4565b60405180910390f35b61019d6004803603810190610198919061213b565b610528565b005b6101b960048036038101906101b4919061217b565b61063f565b005b6101d560048036038101906101d0919061217b565b61069f565b005b6101f160048036038101906101ec9190612086565b6106bf565b6040516101fe91906120f4565b60405180910390f35b610221600480360381019061021c91906121ce565b610745565b60405161022e919061220a565b60405180910390f35b610251600480360381019061024c91906121ce565b6107fc565b60405161025e919061220a565b60405180910390f35b61026f610814565b60405161027c919061202e565b60405180910390f35b61029f600480360381019061029a9190612086565b6108a6565b6040516102b196959493929190612225565b60405180910390f35b6102d460048036038101906102cf91906122c0565b6109f2565b005b6102f060048036038101906102eb9190612435565b610a08565b005b61030c60048036038101906103079190612086565b610a6a565b604051610319919061202e565b60405180910390f35b61033c600480360381019061033791906124b8565b610ad2565b6040516103499190611f83565b60405180910390f35b61036c60048036038101906103679190612086565b610b66565b005b60007f80ac58cd000000000000000000000000000000000000000000000000000000007bffffffffffffffffffffffffffffffffffffffffffffffffffffffff1916827bffffffffffffffffffffffffffffffffffffffffffffffffffffffff1916148061043957507f5b5e139f000000000000000000000000000000000000000000000000000000007bffffffffffffffffffffffffffffffffffffffffffffffffffffffff1916827bffffffffffffffffffffffffffffffffffffffffffffffffffffffff1916145b80610449575061044882610f0b565b5b9050919050565b60606000805461045f90612527565b80601f016020809104026020016040519081016040528092919081815260200182805461048b90612527565b80156104d85780601f106104ad576101008083540402835291602001916104d8565b820191906000526020600020905b8154815290600101906020018083116104bb57829003601f168201915b5050505050905090565b60006104ed82610f75565b6004600083815260200190815260200160002060009054906101000a900473ffffffffffffffffffffffffffffffffffffffff169050919050565b6000610533826106bf565b90508073ffffffffffffffffffffffffffffffffffffffff168373ffffffffffffffffffffffffffffffffffffffff16036105a3576040517f08c379a000000000000000000000000000000000000000000000000000000000815260040161059a906125ca565b60405180910390fd5b8073ffffffffffffffffffffffffffffffffffffffff166105c2610fc0565b73ffffffffffffffffffffffffffffffffffffffff1614806105f157506105f0816105eb610fc0565b610ad2565b5b610630576040517f08c379a00000000000000000000000000000000000000000000000000000000081526004016106279061265c565b60405180910390fd5b61063a8383610fc8565b505050565b61065061064a610fc0565b82611081565b61068f576040517f08c379a0000000000000000000000000000000000000000000000000000000008152600401610686906126ee565b60405180910390fd5b61069a838383611116565b505050565b6106ba83838360405180602001604052806000815250610a08565b505050565b6000806106cb8361140f565b9050600073ffffffffffffffffffffffffffffffffffffffff168173ffffffffffffffffffffffffffffffffffffffff160361073c576040517f08c379a00000000000000000000000000000000000000000000000000000000081526004016107339061275a565b60405180910390fd5b80915050919050565b60008073ffffffffffffffffffffffffffffffffffffffff168273ffffffffffffffffffffffffffffffffffffffff16036107b5576040517f08c379a00000000000000000000000000000000000000000000000000000000081526004016107ac906127ec565b60405180910390fd5b600360008373ffffffffffffffffffffffffffffffffffffffff1673ffffffffffffffffffffffffffffffffffffffff168152602001908152602001600020549050919050565b60096020528060005260406000206000915090505481565b60606001805461082390612527565b80601f016020809104026020016040519081016040528092919081815260200182805461084f90612527565b801561089c5780601f106108715761010080835404028352916020019161089c565b820191906000526020600020905b81548152906001019060200180831161087f57829003601f168201915b5050505050905090565b60086020528060005260406000206000915090508060000154908060010180546108cf90612527565b80601f01602080910402602001604051908101604052809291908181526020018280546108fb90612527565b80156109485780601f1061091d57610100808354040283529160200191610948565b820191906000526020600020905b81548152906001019060200180831161092b57829003601f168201915b50505050509080600201805461095d90612527565b80601f016020809104026020016040519081016040528092919081815260200182805461098990612527565b80156109d65780601f106109ab576101008083540402835291602001916109d6565b820191906000526020600020905b8154815290600101906020018083116109b957829003601f168201915b5050505050908060030154908060040154908060050154905086565b610a046109fd610fc0565b838361144c565b5050565b610a19610a13610fc0565b83611081565b610a58576040517f08c379a0000000000000000000000000000000000000000000000000000000008152600401610a4f906126ee565b60405180910390fd5b610a64848484846115b8565b50505050565b6060610a7582610f75565b6000610a7f611614565b90506000815111610a9f5760405180602001604052806000815250610aca565b80610aa98461162b565b604051602001610aba929190612848565b6040516020818303038152906040525b915050919050565b6000600560008473ffffffffffffffffffffffffffffffffffffffff1673ffffffffffffffffffffffffffffffffffffffff16815260200190815260200160002060008373ffffffffffffffffffffffffffffffffffffffff1673ffffffffffffffffffffffffffffffffffffffff16815260200190815260200160002060009054906101000a900460ff16905092915050565b6000610b7260066116f9565b9050610b7e3382611707565b6040518060c0016040528083815260200160078481548110610ba357610ba261286c565b5b90600052602060002090600602016001018054610bbf90612527565b80601f0160208091040260200160405190810160405280929190818152602001828054610beb90612527565b8015610c385780601f10610c0d57610100808354040283529160200191610c38565b820191906000526020600020905b815481529060010190602001808311610c1b57829003601f168201915b5050505050815260200160078481548110610c5657610c5561286c565b5b90600052602060002090600602016002018054610c7290612527565b80601f0160208091040260200160405190810160405280929190818152602001828054610c9e90612527565b8015610ceb5780601f10610cc057610100808354040283529160200191610ceb565b820191906000526020600020905b815481529060010190602001808311610cce57829003601f168201915b5050505050815260200160078481548110610d0957610d0861286c565b5b906000526020600020906006020160030154815260200160078481548110610d3457610d3361286c565b5b906000526020600020906006020160040154815260200160078481548110610d5f57610d5e61286c565b5b90600052602060002090600602016005015481525060086000838152602001908152602001600020600082015181600001556020820151816001019081610da69190612a47565b506040820151816002019081610dbc9190612a47565b50606082015181600301556080820151816004015560a08201518160050155905050610e016040518060600160405280602e8152602001613055602e91398284611725565b80600960003373ffffffffffffffffffffffffffffffffffffffff1673ffffffffffffffffffffffffffffffffffffffff16815260200190815260200160002081905550610e4f6006610ef5565b5050565b610eef84848484604051602401610e6d9493929190612b19565b6040516020818303038152906040527f5d1a971a000000000000000000000000000000000000000000000000000000007bffffffffffffffffffffffffffffffffffffffffffffffffffffffff19166020820180517bffffffffffffffffffffffffffffffffffffffffffffffffffffffff83818316178352505050506117c4565b50505050565b6001816000016000828254019250508190555050565b60007f01ffc9a7000000000000000000000000000000000000000000000000000000007bffffffffffffffffffffffffffffffffffffffffffffffffffffffff1916827bffffffffffffffffffffffffffffffffffffffffffffffffffffffff1916149050919050565b610f7e816117ed565b610fbd576040517f08c379a0000000000000000000000000000000000000000000000000000000008152600401610fb49061275a565b60405180910390fd5b50565b600033905090565b816004600083815260200190815260200160002060006101000a81548173ffffffffffffffffffffffffffffffffffffffff021916908373ffffffffffffffffffffffffffffffffffffffff160217905550808273ffffffffffffffffffffffffffffffffffffffff1661103b836106bf565b73ffffffffffffffffffffffffffffffffffffffff167f8c5be1e5ebec7d5bd14f71427d1e84f3dd0314c0f7b2291e5b200ac8c7c3b92560405160405180910390a45050565b60008061108d836106bf565b90508073ffffffffffffffffffffffffffffffffffffffff168473ffffffffffffffffffffffffffffffffffffffff1614806110cf57506110ce8185610ad2565b5b8061110d57508373ffffffffffffffffffffffffffffffffffffffff166110f5846104e2565b73ffffffffffffffffffffffffffffffffffffffff16145b91505092915050565b8273ffffffffffffffffffffffffffffffffffffffff16611136826106bf565b73ffffffffffffffffffffffffffffffffffffffff161461118c576040517f08c379a000000000000000000000000000000000000000000000000000000000815260040161118390612be5565b60405180910390fd5b600073ffffffffffffffffffffffffffffffffffffffff168273ffffffffffffffffffffffffffffffffffffffff16036111fb576040517f08c379a00000000000000000000000000000000000000000000000000000000081526004016111f290612c77565b60405180910390fd5b611208838383600161182e565b8273ffffffffffffffffffffffffffffffffffffffff16611228826106bf565b73ffffffffffffffffffffffffffffffffffffffff161461127e576040517f08c379a000000000000000000000000000000000000000000000000000000000815260040161127590612be5565b60405180910390fd5b6004600082815260200190815260200160002060006101000a81549073ffffffffffffffffffffffffffffffffffffffff02191690556001600360008573ffffffffffffffffffffffffffffffffffffffff1673ffffffffffffffffffffffffffffffffffffffff168152602001908152602001600020600082825403925050819055506001600360008473ffffffffffffffffffffffffffffffffffffffff1673ffffffffffffffffffffffffffffffffffffffff16815260200190815260200160002060008282540192505081905550816002600083815260200190815260200160002060006101000a81548173ffffffffffffffffffffffffffffffffffffffff021916908373ffffffffffffffffffffffffffffffffffffffff160217905550808273ffffffffffffffffffffffffffffffffffffffff168473ffffffffffffffffffffffffffffffffffffffff167fddf252ad1be2c89b69c2b068fc378daa952ba7f163c4a11628f55a4df523b3ef60405160405180910390a461140a8383836001611954565b505050565b60006002600083815260200190815260200160002060009054906101000a900473ffffffffffffffffffffffffffffffffffffffff169050919050565b8173ffffffffffffffffffffffffffffffffffffffff168373ffffffffffffffffffffffffffffffffffffffff16036114ba576040517f08c379a00000000000000000000000000000000000000000000000000000000081526004016114b190612ce3565b60405180910390fd5b80600560008573ffffffffffffffffffffffffffffffffffffffff1673ffffffffffffffffffffffffffffffffffffffff16815260200190815260200160002060008473ffffffffffffffffffffffffffffffffffffffff1673ffffffffffffffffffffffffffffffffffffffff16815260200190815260200160002060006101000a81548160ff0219169083151502179055508173ffffffffffffffffffffffffffffffffffffffff168373ffffffffffffffffffffffffffffffffffffffff167f17307eab39ab6107e8899845ad3d59bd9653f200f220920489ca2b5937696c31836040516115ab9190611f83565b60405180910390a3505050565b6115c3848484611116565b6115cf8484848461195a565b61160e576040517f08c379a000000000000000000000000000000000000000000000000000000000815260040161160590612d75565b60405180910390fd5b50505050565b606060405180602001604052806000815250905090565b60606000600161163a84611ae1565b01905060008167ffffffffffffffff8111156116595761165861230a565b5b6040519080825280601f01601f19166020018201604052801561168b5781602001600182028036833780820191505090505b509050600082602001820190505b6001156116ee578080600190039150507f3031323334353637383961626364656600000000000000000000000000000000600a86061a8153600a85816116e2576116e1612d95565b5b04945060008503611699575b819350505050919050565b600081600001549050919050565b611721828260405180602001604052806000815250611c34565b5050565b6117bf83838360405160240161173d93929190612dc4565b6040516020818303038152906040527fca47c4eb000000000000000000000000000000000000000000000000000000007bffffffffffffffffffffffffffffffffffffffffffffffffffffffff19166020820180517bffffffffffffffffffffffffffffffffffffffffffffffffffffffff83818316178352505050506117c4565b505050565b60008151905060006a636f6e736f6c652e6c6f679050602083016000808483855afa5050505050565b60008073ffffffffffffffffffffffffffffffffffffffff1661180f8361140f565b73ffffffffffffffffffffffffffffffffffffffff1614159050919050565b600181111561194e57600073ffffffffffffffffffffffffffffffffffffffff168473ffffffffffffffffffffffffffffffffffffffff16146118c25780600360008673ffffffffffffffffffffffffffffffffffffffff1673ffffffffffffffffffffffffffffffffffffffff16815260200190815260200160002060008282546118ba9190612e31565b925050819055505b600073ffffffffffffffffffffffffffffffffffffffff168373ffffffffffffffffffffffffffffffffffffffff161461194d5780600360008573ffffffffffffffffffffffffffffffffffffffff1673ffffffffffffffffffffffffffffffffffffffff16815260200190815260200160002060008282546119459190612e65565b925050819055505b5b50505050565b50505050565b600061197b8473ffffffffffffffffffffffffffffffffffffffff16611c8f565b15611ad4578373ffffffffffffffffffffffffffffffffffffffff1663150b7a026119a4610fc0565b8786866040518563ffffffff1660e01b81526004016119c69493929190612eee565b6020604051808303816000875af1925050508015611a0257506040513d601f19601f820116820180604052508101906119ff9190612f4f565b60015b611a84573d8060008114611a32576040519150601f19603f3d011682016040523d82523d6000602084013e611a37565b606091505b506000815103611a7c576040517f08c379a0000000000000000000000000000000000000000000000000000000008152600401611a7390612d75565b60405180910390fd5b805181602001fd5b63150b7a0260e01b7bffffffffffffffffffffffffffffffffffffffffffffffffffffffff1916817bffffffffffffffffffffffffffffffffffffffffffffffffffffffff191614915050611ad9565b600190505b949350505050565b600080600090507a184f03e93ff9f4daa797ed6e38ed64bf6a1f0100000000000000008310611b3f577a184f03e93ff9f4daa797ed6e38ed64bf6a1f0100000000000000008381611b3557611b34612d95565b5b0492506040810190505b6d04ee2d6d415b85acef81000000008310611b7c576d04ee2d6d415b85acef81000000008381611b7257611b71612d95565b5b0492506020810190505b662386f26fc100008310611bab57662386f26fc100008381611ba157611ba0612d95565b5b0492506010810190505b6305f5e1008310611bd4576305f5e1008381611bca57611bc9612d95565b5b0492506008810190505b6127108310611bf9576127108381611bef57611bee612d95565b5b0492506004810190505b60648310611c1c5760648381611c1257611c11612d95565b5b0492506002810190505b600a8310611c2b576001810190505b80915050919050565b611c3e8383611cb2565b611c4b600084848461195a565b611c8a576040517f08c379a0000000000000000000000000000000000000000000000000000000008152600401611c8190612d75565b60405180910390fd5b505050565b6000808273ffffffffffffffffffffffffffffffffffffffff163b119050919050565b600073ffffffffffffffffffffffffffffffffffffffff168273ffffffffffffffffffffffffffffffffffffffff1603611d21576040517f08c379a0000000000000000000000000000000000000000000000000000000008152600401611d1890612fc8565b60405180910390fd5b611d2a816117ed565b15611d6a576040517f08c379a0000000000000000000000000000000000000000000000000000000008152600401611d6190613034565b60405180910390fd5b611d7860008383600161182e565b611d81816117ed565b15611dc1576040517f08c379a0000000000000000000000000000000000000000000000000000000008152600401611db890613034565b60405180910390fd5b6001600360008473ffffffffffffffffffffffffffffffffffffffff1673ffffffffffffffffffffffffffffffffffffffff16815260200190815260200160002060008282540192505081905550816002600083815260200190815260200160002060006101000a81548173ffffffffffffffffffffffffffffffffffffffff021916908373ffffffffffffffffffffffffffffffffffffffff160217905550808273ffffffffffffffffffffffffffffffffffffffff16600073ffffffffffffffffffffffffffffffffffffffff167fddf252ad1be2c89b69c2b068fc378daa952ba7f163c4a11628f55a4df523b3ef60405160405180910390a4611ecb600083836001611954565b5050565b6000604051905090565b600080fd5b600080fd5b60007fffffffff0000000000000000000000000000000000000000000000000000000082169050919050565b611f1881611ee3565b8114611f2357600080fd5b50565b600081359050611f3581611f0f565b92915050565b600060208284031215611f5157611f50611ed9565b5b6000611f5f84828501611f26565b91505092915050565b60008115159050919050565b611f7d81611f68565b82525050565b6000602082019050611f986000830184611f74565b92915050565b600081519050919050565b600082825260208201905092915050565b60005b83811015611fd8578082015181840152602081019050611fbd565b60008484015250505050565b6000601f19601f8301169050919050565b600061200082611f9e565b61200a8185611fa9565b935061201a818560208601611fba565b61202381611fe4565b840191505092915050565b600060208201905081810360008301526120488184611ff5565b905092915050565b6000819050919050565b61206381612050565b811461206e57600080fd5b50565b6000813590506120808161205a565b92915050565b60006020828403121561209c5761209b611ed9565b5b60006120aa84828501612071565b91505092915050565b600073ffffffffffffffffffffffffffffffffffffffff82169050919050565b60006120de826120b3565b9050919050565b6120ee816120d3565b82525050565b600060208201905061210960008301846120e5565b92915050565b612118816120d3565b811461212357600080fd5b50565b6000813590506121358161210f565b92915050565b6000806040838503121561215257612151611ed9565b5b600061216085828601612126565b925050602061217185828601612071565b9150509250929050565b60008060006060848603121561219457612193611ed9565b5b60006121a286828701612126565b93505060206121b386828701612126565b92505060406121c486828701612071565b9150509250925092565b6000602082840312156121e4576121e3611ed9565b5b60006121f284828501612126565b91505092915050565b61220481612050565b82525050565b600060208201905061221f60008301846121fb565b92915050565b600060c08201905061223a60008301896121fb565b818103602083015261224c8188611ff5565b905081810360408301526122608187611ff5565b905061226f60608301866121fb565b61227c60808301856121fb565b61228960a08301846121fb565b979650505050505050565b61229d81611f68565b81146122a857600080fd5b50565b6000813590506122ba81612294565b92915050565b600080604083850312156122d7576122d6611ed9565b5b60006122e585828601612126565b92505060206122f6858286016122ab565b9150509250929050565b600080fd5b600080fd5b7f4e487b7100000000000000000000000000000000000000000000000000000000600052604160045260246000fd5b61234282611fe4565b810181811067ffffffffffffffff821117156123615761236061230a565b5b80604052505050565b6000612374611ecf565b90506123808282612339565b919050565b600067ffffffffffffffff8211156123a05761239f61230a565b5b6123a982611fe4565b9050602081019050919050565b82818337600083830152505050565b60006123d86123d384612385565b61236a565b9050828152602081018484840111156123f4576123f3612305565b5b6123ff8482856123b6565b509392505050565b600082601f83011261241c5761241b612300565b5b813561242c8482602086016123c5565b91505092915050565b6000806000806080858703121561244f5761244e611ed9565b5b600061245d87828801612126565b945050602061246e87828801612126565b935050604061247f87828801612071565b925050606085013567ffffffffffffffff8111156124a05761249f611ede565b5b6124ac87828801612407565b91505092959194509250565b600080604083850312156124cf576124ce611ed9565b5b60006124dd85828601612126565b92505060206124ee85828601612126565b9150509250929050565b7f4e487b7100000000000000000000000000000000000000000000000000000000600052602260045260246000fd5b6000600282049050600182168061253f57607f821691505b602082108103612552576125516124f8565b5b50919050565b7f4552433732313a20617070726f76616c20746f2063757272656e74206f776e6560008201527f7200000000000000000000000000000000000000000000000000000000000000602082015250565b60006125b4602183611fa9565b91506125bf82612558565b604082019050919050565b600060208201905081810360008301526125e3816125a7565b9050919050565b7f4552433732313a20617070726f76652063616c6c6572206973206e6f7420746f60008201527f6b656e206f776e6572206f7220617070726f76656420666f7220616c6c000000602082015250565b6000612646603d83611fa9565b9150612651826125ea565b604082019050919050565b6000602082019050818103600083015261267581612639565b9050919050565b7f4552433732313a2063616c6c6572206973206e6f7420746f6b656e206f776e6560008201527f72206f7220617070726f76656400000000000000000000000000000000000000602082015250565b60006126d8602d83611fa9565b91506126e38261267c565b604082019050919050565b60006020820190508181036000830152612707816126cb565b9050919050565b7f4552433732313a20696e76616c696420746f6b656e2049440000000000000000600082015250565b6000612744601883611fa9565b915061274f8261270e565b602082019050919050565b6000602082019050818103600083015261277381612737565b9050919050565b7f4552433732313a2061646472657373207a65726f206973206e6f74206120766160008201527f6c6964206f776e65720000000000000000000000000000000000000000000000602082015250565b60006127d6602983611fa9565b91506127e18261277a565b604082019050919050565b60006020820190508181036000830152612805816127c9565b9050919050565b600081905092915050565b600061282282611f9e565b61282c818561280c565b935061283c818560208601611fba565b80840191505092915050565b60006128548285612817565b91506128608284612817565b91508190509392505050565b7f4e487b7100000000000000000000000000000000000000000000000000000000600052603260045260246000fd5b60008190508160005260206000209050919050565b60006020601f8301049050919050565b600082821b905092915050565b6000600883026128fd7fffffffffffffffffffffffffffffffffffffffffffffffffffffffffffffffff826128c0565b61290786836128c0565b95508019841693508086168417925050509392505050565b6000819050919050565b600061294461293f61293a84612050565b61291f565b612050565b9050919050565b6000819050919050565b61295e83612929565b61297261296a8261294b565b8484546128cd565b825550505050565b600090565b61298761297a565b612992818484612955565b505050565b5b818110156129b6576129ab60008261297f565b600181019050612998565b5050565b601f8211156129fb576129cc8161289b565b6129d5846128b0565b810160208510156129e4578190505b6129f86129f0856128b0565b830182612997565b50505b505050565b600082821c905092915050565b6000612a1e60001984600802612a00565b1980831691505092915050565b6000612a378383612a0d565b9150826002028217905092915050565b612a5082611f9e565b67ffffffffffffffff811115612a6957612a6861230a565b5b612a738254612527565b612a7e8282856129ba565b600060209050601f831160018114612ab15760008415612a9f578287015190505b612aa98582612a2b565b865550612b11565b601f198416612abf8661289b565b60005b82811015612ae757848901518255600182019150602085019450602081019050612ac2565b86831015612b045784890151612b00601f891682612a0d565b8355505b6001600288020188555050505b505050505050565b60006080820190508181036000830152612b338187611ff5565b90508181036020830152612b478186611ff5565b9050612b5660408301856121fb565b8181036060830152612b688184611ff5565b905095945050505050565b7f4552433732313a207472616e736665722066726f6d20696e636f72726563742060008201527f6f776e6572000000000000000000000000000000000000000000000000000000602082015250565b6000612bcf602583611fa9565b9150612bda82612b73565b604082019050919050565b60006020820190508181036000830152612bfe81612bc2565b9050919050565b7f4552433732313a207472616e7366657220746f20746865207a65726f2061646460008201527f7265737300000000000000000000000000000000000000000000000000000000602082015250565b6000612c61602483611fa9565b9150612c6c82612c05565b604082019050919050565b60006020820190508181036000830152612c9081612c54565b9050919050565b7f4552433732313a20617070726f766520746f2063616c6c657200000000000000600082015250565b6000612ccd601983611fa9565b9150612cd882612c97565b602082019050919050565b60006020820190508181036000830152612cfc81612cc0565b9050919050565b7f4552433732313a207472616e7366657220746f206e6f6e20455243373231526560008201527f63656976657220696d706c656d656e7465720000000000000000000000000000602082015250565b6000612d5f603283611fa9565b9150612d6a82612d03565b604082019050919050565b60006020820190508181036000830152612d8e81612d52565b9050919050565b7f4e487b7100000000000000000000000000000000000000000000000000000000600052601260045260246000fd5b60006060820190508181036000830152612dde8186611ff5565b9050612ded60208301856121fb565b612dfa60408301846121fb565b949350505050565b7f4e487b7100000000000000000000000000000000000000000000000000000000600052601160045260246000fd5b6000612e3c82612050565b9150612e4783612050565b9250828203905081811115612e5f57612e5e612e02565b5b92915050565b6000612e7082612050565b9150612e7b83612050565b9250828201905080821115612e9357612e92612e02565b5b92915050565b600081519050919050565b600082825260208201905092915050565b6000612ec082612e99565b612eca8185612ea4565b9350612eda818560208601611fba565b612ee381611fe4565b840191505092915050565b6000608082019050612f0360008301876120e5565b612f1060208301866120e5565b612f1d60408301856121fb565b8181036060830152612f2f8184612eb5565b905095945050505050565b600081519050612f4981611f0f565b92915050565b600060208284031215612f6557612f64611ed9565b5b6000612f7384828501612f3a565b91505092915050565b7f4552433732313a206d696e7420746f20746865207a65726f2061646472657373600082015250565b6000612fb2602083611fa9565b9150612fbd82612f7c565b602082019050919050565b60006020820190508181036000830152612fe181612fa5565b9050919050565b7f4552433732313a20746f6b656e20616c7265616479206d696e74656400000000600082015250565b600061301e601c83611fa9565b915061302982612fe8565b602082019050919050565b6000602082019050818103600083015261304d81613011565b905091905056fe4d696e746564204e465420772f20746f6b656e496420257320616e6420636861726163746572496e646578202573a26469706673582212200fbfd159f51d31b4947f3486ed65d22278186f703ab7a5dad7c1c320cf1b8afc64736f6c63430008110033446f6e6520696e697469616c697a696e6720257320772f2048502025732c20696d67202573","opcodes":"PUSH1 0x80 PUSH1 0x40 MSTORE CALLVALUE DUP1 ISZERO PUSH3 0x11 JUMPI PUSH1 0x0 DUP1 REVERT JUMPDEST POP PUSH1 0x40 MLOAD PUSH3 0x3F1E CODESIZE SUB DUP1 PUSH3 0x3F1E DUP4 CODECOPY DUP2 DUP2 ADD PUSH1 0x40 MSTORE DUP2 ADD SWAP1 PUSH3 0x37 SWAP2 SWAP1 PUSH3 0x8AB JUMP JUMPDEST PUSH1 0x40 MLOAD DUP1 PUSH1 0x40 ADD PUSH1 0x40 MSTORE DUP1 PUSH1 0x6 DUP2 MSTORE PUSH1 0x20 ADD PUSH32 0x4865726F65730000000000000000000000000000000000000000000000000000 DUP2 MSTORE POP PUSH1 0x40 MLOAD DUP1 PUSH1 0x40 ADD PUSH1 0x40 MSTORE DUP1 PUSH1 0x4 DUP2 MSTORE PUSH1 0x20 ADD PUSH32 0x4845524F00000000000000000000000000000000000000000000000000000000 DUP2 MSTORE POP DUP2 PUSH1 0x0 SWAP1 DUP2 PUSH3 0xB4 SWAP2 SWAP1 PUSH3 0xBDA JUMP JUMPDEST POP DUP1 PUSH1 0x1 SWAP1 DUP2 PUSH3 0xC6 SWAP2 SWAP1 PUSH3 0xBDA JUMP JUMPDEST POP POP POP PUSH1 0x0 JUMPDEST DUP5 MLOAD DUP2 LT ISZERO PUSH3 0x3FE JUMPI PUSH1 0x7 PUSH1 0x40 MLOAD DUP1 PUSH1 0xC0 ADD PUSH1 0x40 MSTORE DUP1 DUP4 DUP2 MSTORE PUSH1 0x20 ADD DUP8 DUP5 DUP2 MLOAD DUP2 LT PUSH3 0xFF JUMPI PUSH3 0xFE PUSH3 0xCC1 JUMP JUMPDEST JUMPDEST PUSH1 0x20 MUL PUSH1 0x20 ADD ADD MLOAD DUP2 MSTORE PUSH1 0x20 ADD DUP7 DUP5 DUP2 MLOAD DUP2 LT PUSH3 0x122 JUMPI PUSH3 0x121 PUSH3 0xCC1 JUMP JUMPDEST JUMPDEST PUSH1 0x20 MUL PUSH1 0x20 ADD ADD MLOAD DUP2 MSTORE PUSH1 0x20 ADD DUP6 DUP5 DUP2 MLOAD DUP2 LT PUSH3 0x145 JUMPI PUSH3 0x144 PUSH3 0xCC1 JUMP JUMPDEST JUMPDEST PUSH1 0x20 MUL PUSH1 0x20 ADD ADD MLOAD DUP2 MSTORE PUSH1 0x20 ADD DUP6 DUP5 DUP2 MLOAD DUP2 LT PUSH3 0x168 JUMPI PUSH3 0x167 PUSH3 0xCC1 JUMP JUMPDEST JUMPDEST PUSH1 0x20 MUL PUSH1 0x20 ADD ADD MLOAD DUP2 MSTORE PUSH1 0x20 ADD DUP5 DUP5 DUP2 MLOAD DUP2 LT PUSH3 0x18B JUMPI PUSH3 0x18A PUSH3 0xCC1 JUMP JUMPDEST JUMPDEST PUSH1 0x20 MUL PUSH1 0x20 ADD ADD MLOAD DUP2 MSTORE POP SWAP1 DUP1 PUSH1 0x1 DUP2 SLOAD ADD DUP1 DUP3 SSTORE DUP1 SWAP2 POP POP PUSH1 0x1 SWAP1 SUB SWAP1 PUSH1 0x0 MSTORE PUSH1 0x20 PUSH1 0x0 KECCAK256 SWAP1 PUSH1 0x6 MUL ADD PUSH1 0x0 SWAP1 SWAP2 SWAP1 SWAP2 SWAP1 SWAP2 POP PUSH1 0x0 DUP3 ADD MLOAD DUP2 PUSH1 0x0 ADD SSTORE PUSH1 0x20 DUP3 ADD MLOAD DUP2 PUSH1 0x1 ADD SWAP1 DUP2 PUSH3 0x1E0 SWAP2 SWAP1 PUSH3 0xBDA JUMP JUMPDEST POP PUSH1 0x40 DUP3 ADD MLOAD DUP2 PUSH1 0x2 ADD SWAP1 DUP2 PUSH3 0x1F8 SWAP2 SWAP1 PUSH3 0xBDA JUMP JUMPDEST POP PUSH1 0x60 DUP3 ADD MLOAD DUP2 PUSH1 0x3 ADD SSTORE PUSH1 0x80 DUP3 ADD MLOAD DUP2 PUSH1 0x4 ADD SSTORE PUSH1 0xA0 DUP3 ADD MLOAD DUP2 PUSH1 0x5 ADD SSTORE POP POP PUSH1 0x0 PUSH1 0x7 DUP3 DUP2 SLOAD DUP2 LT PUSH3 0x232 JUMPI PUSH3 0x231 PUSH3 0xCC1 JUMP JUMPDEST JUMPDEST SWAP1 PUSH1 0x0 MSTORE PUSH1 0x20 PUSH1 0x0 KECCAK256 SWAP1 PUSH1 0x6 MUL ADD PUSH1 0x40 MLOAD DUP1 PUSH1 0xC0 ADD PUSH1 0x40 MSTORE SWAP1 DUP2 PUSH1 0x0 DUP3 ADD SLOAD DUP2 MSTORE PUSH1 0x20 ADD PUSH1 0x1 DUP3 ADD DUP1 SLOAD PUSH3 0x267 SWAP1 PUSH3 0x9D3 JUMP JUMPDEST DUP1 PUSH1 0x1F ADD PUSH1 0x20 DUP1 SWAP2 DIV MUL PUSH1 0x20 ADD PUSH1 0x40 MLOAD SWAP1 DUP2 ADD PUSH1 0x40 MSTORE DUP1 SWAP3 SWAP2 SWAP1 DUP2 DUP2 MSTORE PUSH1 0x20 ADD DUP3 DUP1 SLOAD PUSH3 0x295 SWAP1 PUSH3 0x9D3 JUMP JUMPDEST DUP1 ISZERO PUSH3 0x2E6 JUMPI DUP1 PUSH1 0x1F LT PUSH3 0x2BA JUMPI PUSH2 0x100 DUP1 DUP4 SLOAD DIV MUL DUP4 MSTORE SWAP2 PUSH1 0x20 ADD SWAP2 PUSH3 0x2E6 JUMP JUMPDEST DUP3 ADD SWAP2 SWAP1 PUSH1 0x0 MSTORE PUSH1 0x20 PUSH1 0x0 KECCAK256 SWAP1 JUMPDEST DUP2 SLOAD DUP2 MSTORE SWAP1 PUSH1 0x1 ADD SWAP1 PUSH1 0x20 ADD DUP1 DUP4 GT PUSH3 0x2C8 JUMPI DUP3 SWAP1 SUB PUSH1 0x1F AND DUP3 ADD SWAP2 JUMPDEST POP POP POP POP POP DUP2 MSTORE PUSH1 0x20 ADD PUSH1 0x2 DUP3 ADD DUP1 SLOAD PUSH3 0x301 SWAP1 PUSH3 0x9D3 JUMP JUMPDEST DUP1 PUSH1 0x1F ADD PUSH1 0x20 DUP1 SWAP2 DIV MUL PUSH1 0x20 ADD PUSH1 0x40 MLOAD SWAP1 DUP2 ADD PUSH1 0x40 MSTORE DUP1 SWAP3 SWAP2 SWAP1 DUP2 DUP2 MSTORE PUSH1 0x20 ADD DUP3 DUP1 SLOAD PUSH3 0x32F SWAP1 PUSH3 0x9D3 JUMP JUMPDEST DUP1 ISZERO PUSH3 0x380 JUMPI DUP1 PUSH1 0x1F LT PUSH3 0x354 JUMPI PUSH2 0x100 DUP1 DUP4 SLOAD DIV MUL DUP4 MSTORE SWAP2 PUSH1 0x20 ADD SWAP2 PUSH3 0x380 JUMP JUMPDEST DUP3 ADD SWAP2 SWAP1 PUSH1 0x0 MSTORE PUSH1 0x20 PUSH1 0x0 KECCAK256 SWAP1 JUMPDEST DUP2 SLOAD DUP2 MSTORE SWAP1 PUSH1 0x1 ADD SWAP1 PUSH1 0x20 ADD DUP1 DUP4 GT PUSH3 0x362 JUMPI DUP3 SWAP1 SUB PUSH1 0x1F AND DUP3 ADD SWAP2 JUMPDEST POP POP POP POP POP DUP2 MSTORE PUSH1 0x20 ADD PUSH1 0x3 DUP3 ADD SLOAD DUP2 MSTORE PUSH1 0x20 ADD PUSH1 0x4 DUP3 ADD SLOAD DUP2 MSTORE PUSH1 0x20 ADD PUSH1 0x5 DUP3 ADD SLOAD DUP2 MSTORE POP POP SWAP1 POP PUSH3 0x3E7 PUSH1 0x40 MLOAD DUP1 PUSH1 0x60 ADD PUSH1 0x40 MSTORE DUP1 PUSH1 0x25 DUP2 MSTORE PUSH1 0x20 ADD PUSH3 0x3EF9 PUSH1 0x25 SWAP2 CODECOPY DUP3 PUSH1 0x20 ADD MLOAD DUP4 PUSH1 0x60 ADD MLOAD DUP5 PUSH1 0x40 ADD MLOAD PUSH3 0x420 PUSH1 0x20 SHL PUSH3 0xE53 OR PUSH1 0x20 SHR JUMP JUMPDEST POP DUP1 DUP1 PUSH3 0x3F5 SWAP1 PUSH3 0xD1F JUMP JUMPDEST SWAP2 POP POP PUSH3 0xCC JUMP JUMPDEST POP PUSH3 0x416 PUSH1 0x6 PUSH3 0x4CC PUSH1 0x20 SHL PUSH3 0xEF5 OR PUSH1 0x20 SHR JUMP JUMPDEST POP POP POP POP PUSH3 0xE31 JUMP JUMPDEST PUSH3 0x4C6 DUP5 DUP5 DUP5 DUP5 PUSH1 0x40 MLOAD PUSH1 0x24 ADD PUSH3 0x43D SWAP5 SWAP4 SWAP3 SWAP2 SWAP1 PUSH3 0xDCF JUMP JUMPDEST PUSH1 0x40 MLOAD PUSH1 0x20 DUP2 DUP4 SUB SUB DUP2 MSTORE SWAP1 PUSH1 0x40 MSTORE PUSH32 0x5D1A971A00000000000000000000000000000000000000000000000000000000 PUSH28 0xFFFFFFFFFFFFFFFFFFFFFFFFFFFFFFFFFFFFFFFFFFFFFFFFFFFFFFFF NOT AND PUSH1 0x20 DUP3 ADD DUP1 MLOAD PUSH28 0xFFFFFFFFFFFFFFFFFFFFFFFFFFFFFFFFFFFFFFFFFFFFFFFFFFFFFFFF DUP4 DUP2 DUP4 AND OR DUP4 MSTORE POP POP POP POP PUSH3 0x4E2 PUSH1 0x20 SHL PUSH1 0x20 SHR JUMP JUMPDEST POP POP POP POP JUMP JUMPDEST PUSH1 0x1 DUP2 PUSH1 0x0 ADD PUSH1 0x0 DUP3 DUP3 SLOAD ADD SWAP3 POP POP DUP2 SWAP1 SSTORE POP POP JUMP JUMPDEST PUSH1 0x0 DUP2 MLOAD SWAP1 POP PUSH1 0x0 PUSH11 0x636F6E736F6C652E6C6F67 SWAP1 POP PUSH1 0x20 DUP4 ADD PUSH1 0x0 DUP1 DUP5 DUP4 DUP6 GAS STATICCALL POP POP POP POP POP JUMP JUMPDEST PUSH1 0x0 PUSH1 0x40 MLOAD SWAP1 POP SWAP1 JUMP JUMPDEST PUSH1 0x0 DUP1 REVERT JUMPDEST PUSH1 0x0 DUP1 REVERT JUMPDEST PUSH1 0x0 DUP1 REVERT JUMPDEST PUSH1 0x0 PUSH1 0x1F NOT PUSH1 0x1F DUP4 ADD AND SWAP1 POP SWAP2 SWAP1 POP JUMP JUMPDEST PUSH32 0x4E487B7100000000000000000000000000000000000000000000000000000000 PUSH1 0x0 MSTORE PUSH1 0x41 PUSH1 0x4 MSTORE PUSH1 0x24 PUSH1 0x0 REVERT JUMPDEST PUSH3 0x56F DUP3 PUSH3 0x524 JUMP JUMPDEST DUP2 ADD DUP2 DUP2 LT PUSH8 0xFFFFFFFFFFFFFFFF DUP3 GT OR ISZERO PUSH3 0x591 JUMPI PUSH3 0x590 PUSH3 0x535 JUMP JUMPDEST JUMPDEST DUP1 PUSH1 0x40 MSTORE POP POP POP JUMP JUMPDEST PUSH1 0x0 PUSH3 0x5A6 PUSH3 0x50B JUMP JUMPDEST SWAP1 POP PUSH3 0x5B4 DUP3 DUP3 PUSH3 0x564 JUMP JUMPDEST SWAP2 SWAP1 POP JUMP JUMPDEST PUSH1 0x0 PUSH8 0xFFFFFFFFFFFFFFFF DUP3 GT ISZERO PUSH3 0x5D7 JUMPI PUSH3 0x5D6 PUSH3 0x535 JUMP JUMPDEST JUMPDEST PUSH1 0x20 DUP3 MUL SWAP1 POP PUSH1 0x20 DUP2 ADD SWAP1 POP SWAP2 SWAP1 POP JUMP JUMPDEST PUSH1 0x0 DUP1 REVERT JUMPDEST PUSH1 0x0 DUP1 REVERT JUMPDEST PUSH1 0x0 PUSH8 0xFFFFFFFFFFFFFFFF DUP3 GT ISZERO PUSH3 0x610 JUMPI PUSH3 0x60F PUSH3 0x535 JUMP JUMPDEST JUMPDEST PUSH3 0x61B DUP3 PUSH3 0x524 JUMP JUMPDEST SWAP1 POP PUSH1 0x20 DUP2 ADD SWAP1 POP SWAP2 SWAP1 POP JUMP JUMPDEST PUSH1 0x0 JUMPDEST DUP4 DUP2 LT ISZERO PUSH3 0x648 JUMPI DUP1 DUP3 ADD MLOAD DUP2 DUP5 ADD MSTORE PUSH1 0x20 DUP2 ADD SWAP1 POP PUSH3 0x62B JUMP JUMPDEST PUSH1 0x0 DUP5 DUP5 ADD MSTORE POP POP POP POP JUMP JUMPDEST PUSH1 0x0 PUSH3 0x66B PUSH3 0x665 DUP5 PUSH3 0x5F2 JUMP JUMPDEST PUSH3 0x59A JUMP JUMPDEST SWAP1 POP DUP3 DUP2 MSTORE PUSH1 0x20 DUP2 ADD DUP5 DUP5 DUP5 ADD GT ISZERO PUSH3 0x68A JUMPI PUSH3 0x689 PUSH3 0x5ED JUMP JUMPDEST JUMPDEST PUSH3 0x697 DUP5 DUP3 DUP6 PUSH3 0x628 JUMP JUMPDEST POP SWAP4 SWAP3 POP POP POP JUMP JUMPDEST PUSH1 0x0 DUP3 PUSH1 0x1F DUP4 ADD SLT PUSH3 0x6B7 JUMPI PUSH3 0x6B6 PUSH3 0x51F JUMP JUMPDEST JUMPDEST DUP2 MLOAD PUSH3 0x6C9 DUP5 DUP3 PUSH1 0x20 DUP7 ADD PUSH3 0x654 JUMP JUMPDEST SWAP2 POP POP SWAP3 SWAP2 POP POP JUMP JUMPDEST PUSH1 0x0 PUSH3 0x6E9 PUSH3 0x6E3 DUP5 PUSH3 0x5B9 JUMP JUMPDEST PUSH3 0x59A JUMP JUMPDEST SWAP1 POP DUP1 DUP4 DUP3 MSTORE PUSH1 0x20 DUP3 ADD SWAP1 POP PUSH1 0x20 DUP5 MUL DUP4 ADD DUP6 DUP2 GT ISZERO PUSH3 0x70F JUMPI PUSH3 0x70E PUSH3 0x5E8 JUMP JUMPDEST JUMPDEST DUP4 JUMPDEST DUP2 DUP2 LT ISZERO PUSH3 0x75D JUMPI DUP1 MLOAD PUSH8 0xFFFFFFFFFFFFFFFF DUP2 GT ISZERO PUSH3 0x738 JUMPI PUSH3 0x737 PUSH3 0x51F JUMP JUMPDEST JUMPDEST DUP1 DUP7 ADD PUSH3 0x747 DUP10 DUP3 PUSH3 0x69F JUMP JUMPDEST DUP6 MSTORE PUSH1 0x20 DUP6 ADD SWAP5 POP POP POP PUSH1 0x20 DUP2 ADD SWAP1 POP PUSH3 0x711 JUMP JUMPDEST POP POP POP SWAP4 SWAP3 POP POP POP JUMP JUMPDEST PUSH1 0x0 DUP3 PUSH1 0x1F DUP4 ADD SLT PUSH3 0x77F JUMPI PUSH3 0x77E PUSH3 0x51F JUMP JUMPDEST JUMPDEST DUP2 MLOAD PUSH3 0x791 DUP5 DUP3 PUSH1 0x20 DUP7 ADD PUSH3 0x6D2 JUMP JUMPDEST SWAP2 POP POP SWAP3 SWAP2 POP POP JUMP JUMPDEST PUSH1 0x0 PUSH8 0xFFFFFFFFFFFFFFFF DUP3 GT ISZERO PUSH3 0x7B8 JUMPI PUSH3 0x7B7 PUSH3 0x535 JUMP JUMPDEST JUMPDEST PUSH1 0x20 DUP3 MUL SWAP1 POP PUSH1 0x20 DUP2 ADD SWAP1 POP SWAP2 SWAP1 POP JUMP JUMPDEST PUSH1 0x0 DUP2 SWAP1 POP SWAP2 SWAP1 POP JUMP JUMPDEST PUSH3 0x7DE DUP2 PUSH3 0x7C9 JUMP JUMPDEST DUP2 EQ PUSH3 0x7EA JUMPI PUSH1 0x0 DUP1 REVERT JUMPDEST POP JUMP JUMPDEST PUSH1 0x0 DUP2 MLOAD SWAP1 POP PUSH3 0x7FE DUP2 PUSH3 0x7D3 JUMP JUMPDEST SWAP3 SWAP2 POP POP JUMP JUMPDEST PUSH1 0x0 PUSH3 0x81B PUSH3 0x815 DUP5 PUSH3 0x79A JUMP JUMPDEST PUSH3 0x59A JUMP JUMPDEST SWAP1 POP DUP1 DUP4 DUP3 MSTORE PUSH1 0x20 DUP3 ADD SWAP1 POP PUSH1 0x20 DUP5 MUL DUP4 ADD DUP6 DUP2 GT ISZERO PUSH3 0x841 JUMPI PUSH3 0x840 PUSH3 0x5E8 JUMP JUMPDEST JUMPDEST DUP4 JUMPDEST DUP2 DUP2 LT ISZERO PUSH3 0x86E JUMPI DUP1 PUSH3 0x859 DUP9 DUP3 PUSH3 0x7ED JUMP JUMPDEST DUP5 MSTORE PUSH1 0x20 DUP5 ADD SWAP4 POP POP PUSH1 0x20 DUP2 ADD SWAP1 POP PUSH3 0x843 JUMP JUMPDEST POP POP POP SWAP4 SWAP3 POP POP POP JUMP JUMPDEST PUSH1 0x0 DUP3 PUSH1 0x1F DUP4 ADD SLT PUSH3 0x890 JUMPI PUSH3 0x88F PUSH3 0x51F JUMP JUMPDEST JUMPDEST DUP2 MLOAD PUSH3 0x8A2 DUP5 DUP3 PUSH1 0x20 DUP7 ADD PUSH3 0x804 JUMP JUMPDEST SWAP2 POP POP SWAP3 SWAP2 POP POP JUMP JUMPDEST PUSH1 0x0 DUP1 PUSH1 0x0 DUP1 PUSH1 0x80 DUP6 DUP8 SUB SLT ISZERO PUSH3 0x8C8 JUMPI PUSH3 0x8C7 PUSH3 0x515 JUMP JUMPDEST JUMPDEST PUSH1 0x0 DUP6 ADD MLOAD PUSH8 0xFFFFFFFFFFFFFFFF DUP2 GT ISZERO PUSH3 0x8E9 JUMPI PUSH3 0x8E8 PUSH3 0x51A JUMP JUMPDEST JUMPDEST PUSH3 0x8F7 DUP8 DUP3 DUP9 ADD PUSH3 0x767 JUMP JUMPDEST SWAP5 POP POP PUSH1 0x20 DUP6 ADD MLOAD PUSH8 0xFFFFFFFFFFFFFFFF DUP2 GT ISZERO PUSH3 0x91B JUMPI PUSH3 0x91A PUSH3 0x51A JUMP JUMPDEST JUMPDEST PUSH3 0x929 DUP8 DUP3 DUP9 ADD PUSH3 0x767 JUMP JUMPDEST SWAP4 POP POP PUSH1 0x40 DUP6 ADD MLOAD PUSH8 0xFFFFFFFFFFFFFFFF DUP2 GT ISZERO PUSH3 0x94D JUMPI PUSH3 0x94C PUSH3 0x51A JUMP JUMPDEST JUMPDEST PUSH3 0x95B DUP8 DUP3 DUP9 ADD PUSH3 0x878 JUMP JUMPDEST SWAP3 POP POP PUSH1 0x60 DUP6 ADD MLOAD PUSH8 0xFFFFFFFFFFFFFFFF DUP2 GT ISZERO PUSH3 0x97F JUMPI PUSH3 0x97E PUSH3 0x51A JUMP JUMPDEST JUMPDEST PUSH3 0x98D DUP8 DUP3 DUP9 ADD PUSH3 0x878 JUMP JUMPDEST SWAP2 POP POP SWAP3 SWAP6 SWAP2 SWAP5 POP SWAP3 POP JUMP JUMPDEST PUSH1 0x0 DUP2 MLOAD SWAP1 POP SWAP2 SWAP1 POP JUMP JUMPDEST PUSH32 0x4E487B7100000000000000000000000000000000000000000000000000000000 PUSH1 0x0 MSTORE PUSH1 0x22 PUSH1 0x4 MSTORE PUSH1 0x24 PUSH1 0x0 REVERT JUMPDEST PUSH1 0x0 PUSH1 0x2 DUP3 DIV SWAP1 POP PUSH1 0x1 DUP3 AND DUP1 PUSH3 0x9EC JUMPI PUSH1 0x7F DUP3 AND SWAP2 POP JUMPDEST PUSH1 0x20 DUP3 LT DUP2 SUB PUSH3 0xA02 JUMPI PUSH3 0xA01 PUSH3 0x9A4 JUMP JUMPDEST JUMPDEST POP SWAP2 SWAP1 POP JUMP JUMPDEST PUSH1 0x0 DUP2 SWAP1 POP DUP2 PUSH1 0x0 MSTORE PUSH1 0x20 PUSH1 0x0 KECCAK256 SWAP1 POP SWAP2 SWAP1 POP JUMP JUMPDEST PUSH1 0x0 PUSH1 0x20 PUSH1 0x1F DUP4 ADD DIV SWAP1 POP SWAP2 SWAP1 POP JUMP JUMPDEST PUSH1 0x0 DUP3 DUP3 SHL SWAP1 POP SWAP3 SWAP2 POP POP JUMP JUMPDEST PUSH1 0x0 PUSH1 0x8 DUP4 MUL PUSH3 0xA6C PUSH32 0xFFFFFFFFFFFFFFFFFFFFFFFFFFFFFFFFFFFFFFFFFFFFFFFFFFFFFFFFFFFFFFFF DUP3 PUSH3 0xA2D JUMP JUMPDEST PUSH3 0xA78 DUP7 DUP4 PUSH3 0xA2D JUMP JUMPDEST SWAP6 POP DUP1 NOT DUP5 AND SWAP4 POP DUP1 DUP7 AND DUP5 OR SWAP3 POP POP POP SWAP4 SWAP3 POP POP POP JUMP JUMPDEST PUSH1 0x0 DUP2 SWAP1 POP SWAP2 SWAP1 POP JUMP JUMPDEST PUSH1 0x0 PUSH3 0xABB PUSH3 0xAB5 PUSH3 0xAAF DUP5 PUSH3 0x7C9 JUMP JUMPDEST PUSH3 0xA90 JUMP JUMPDEST PUSH3 0x7C9 JUMP JUMPDEST SWAP1 POP SWAP2 SWAP1 POP JUMP JUMPDEST PUSH1 0x0 DUP2 SWAP1 POP SWAP2 SWAP1 POP JUMP JUMPDEST PUSH3 0xAD7 DUP4 PUSH3 0xA9A JUMP JUMPDEST PUSH3 0xAEF PUSH3 0xAE6 DUP3 PUSH3 0xAC2 JUMP JUMPDEST DUP5 DUP5 SLOAD PUSH3 0xA3A JUMP JUMPDEST DUP3 SSTORE POP POP POP POP JUMP JUMPDEST PUSH1 0x0 SWAP1 JUMP JUMPDEST PUSH3 0xB06 PUSH3 0xAF7 JUMP JUMPDEST PUSH3 0xB13 DUP2 DUP5 DUP5 PUSH3 0xACC JUMP JUMPDEST POP POP POP JUMP JUMPDEST JUMPDEST DUP2 DUP2 LT ISZERO PUSH3 0xB3B JUMPI PUSH3 0xB2F PUSH1 0x0 DUP3 PUSH3 0xAFC JUMP JUMPDEST PUSH1 0x1 DUP2 ADD SWAP1 POP PUSH3 0xB19 JUMP JUMPDEST POP POP JUMP JUMPDEST PUSH1 0x1F DUP3 GT ISZERO PUSH3 0xB8A JUMPI PUSH3 0xB54 DUP2 PUSH3 0xA08 JUMP JUMPDEST PUSH3 0xB5F DUP5 PUSH3 0xA1D JUMP JUMPDEST DUP2 ADD PUSH1 0x20 DUP6 LT ISZERO PUSH3 0xB6F JUMPI DUP2 SWAP1 POP JUMPDEST PUSH3 0xB87 PUSH3 0xB7E DUP6 PUSH3 0xA1D JUMP JUMPDEST DUP4 ADD DUP3 PUSH3 0xB18 JUMP JUMPDEST POP POP JUMPDEST POP POP POP JUMP JUMPDEST PUSH1 0x0 DUP3 DUP3 SHR SWAP1 POP SWAP3 SWAP2 POP POP JUMP JUMPDEST PUSH1 0x0 PUSH3 0xBAF PUSH1 0x0 NOT DUP5 PUSH1 0x8 MUL PUSH3 0xB8F JUMP JUMPDEST NOT DUP1 DUP4 AND SWAP2 POP POP SWAP3 SWAP2 POP POP JUMP JUMPDEST PUSH1 0x0 PUSH3 0xBCA DUP4 DUP4 PUSH3 0xB9C JUMP JUMPDEST SWAP2 POP DUP3 PUSH1 0x2 MUL DUP3 OR SWAP1 POP SWAP3 SWAP2 POP POP JUMP JUMPDEST PUSH3 0xBE5 DUP3 PUSH3 0x999 JUMP JUMPDEST PUSH8 0xFFFFFFFFFFFFFFFF DUP2 GT ISZERO PUSH3 0xC01 JUMPI PUSH3 0xC00 PUSH3 0x535 JUMP JUMPDEST JUMPDEST PUSH3 0xC0D DUP3 SLOAD PUSH3 0x9D3 JUMP JUMPDEST PUSH3 0xC1A DUP3 DUP3 DUP6 PUSH3 0xB3F JUMP JUMPDEST PUSH1 0x0 PUSH1 0x20 SWAP1 POP PUSH1 0x1F DUP4 GT PUSH1 0x1 DUP2 EQ PUSH3 0xC52 JUMPI PUSH1 0x0 DUP5 ISZERO PUSH3 0xC3D JUMPI DUP3 DUP8 ADD MLOAD SWAP1 POP JUMPDEST PUSH3 0xC49 DUP6 DUP3 PUSH3 0xBBC JUMP JUMPDEST DUP7 SSTORE POP PUSH3 0xCB9 JUMP JUMPDEST PUSH1 0x1F NOT DUP5 AND PUSH3 0xC62 DUP7 PUSH3 0xA08 JUMP JUMPDEST PUSH1 0x0 JUMPDEST DUP3 DUP2 LT ISZERO PUSH3 0xC8C JUMPI DUP5 DUP10 ADD MLOAD DUP3 SSTORE PUSH1 0x1 DUP3 ADD SWAP2 POP PUSH1 0x20 DUP6 ADD SWAP5 POP PUSH1 0x20 DUP2 ADD SWAP1 POP PUSH3 0xC65 JUMP JUMPDEST DUP7 DUP4 LT ISZERO PUSH3 0xCAC JUMPI DUP5 DUP10 ADD MLOAD PUSH3 0xCA8 PUSH1 0x1F DUP10 AND DUP3 PUSH3 0xB9C JUMP JUMPDEST DUP4 SSTORE POP JUMPDEST PUSH1 0x1 PUSH1 0x2 DUP9 MUL ADD DUP9 SSTORE POP POP POP JUMPDEST POP POP POP POP POP POP JUMP JUMPDEST PUSH32 0x4E487B7100000000000000000000000000000000000000000000000000000000 PUSH1 0x0 MSTORE PUSH1 0x32 PUSH1 0x4 MSTORE PUSH1 0x24 PUSH1 0x0 REVERT JUMPDEST PUSH32 0x4E487B7100000000000000000000000000000000000000000000000000000000 PUSH1 0x0 MSTORE PUSH1 0x11 PUSH1 0x4 MSTORE PUSH1 0x24 PUSH1 0x0 REVERT JUMPDEST PUSH1 0x0 PUSH3 0xD2C DUP3 PUSH3 0x7C9 JUMP JUMPDEST SWAP2 POP PUSH32 0xFFFFFFFFFFFFFFFFFFFFFFFFFFFFFFFFFFFFFFFFFFFFFFFFFFFFFFFFFFFFFFFF DUP3 SUB PUSH3 0xD61 JUMPI PUSH3 0xD60 PUSH3 0xCF0 JUMP JUMPDEST JUMPDEST PUSH1 0x1 DUP3 ADD SWAP1 POP SWAP2 SWAP1 POP JUMP JUMPDEST PUSH1 0x0 DUP3 DUP3 MSTORE PUSH1 0x20 DUP3 ADD SWAP1 POP SWAP3 SWAP2 POP POP JUMP JUMPDEST PUSH1 0x0 PUSH3 0xD8A DUP3 PUSH3 0x999 JUMP JUMPDEST PUSH3 0xD96 DUP2 DUP6 PUSH3 0xD6C JUMP JUMPDEST SWAP4 POP PUSH3 0xDA8 DUP2 DUP6 PUSH1 0x20 DUP7 ADD PUSH3 0x628 JUMP JUMPDEST PUSH3 0xDB3 DUP2 PUSH3 0x524 JUMP JUMPDEST DUP5 ADD SWAP2 POP POP SWAP3 SWAP2 POP POP JUMP JUMPDEST PUSH3 0xDC9 DUP2 PUSH3 0x7C9 JUMP JUMPDEST DUP3 MSTORE POP POP JUMP JUMPDEST PUSH1 0x0 PUSH1 0x80 DUP3 ADD SWAP1 POP DUP2 DUP2 SUB PUSH1 0x0 DUP4 ADD MSTORE PUSH3 0xDEB DUP2 DUP8 PUSH3 0xD7D JUMP JUMPDEST SWAP1 POP DUP2 DUP2 SUB PUSH1 0x20 DUP4 ADD MSTORE PUSH3 0xE01 DUP2 DUP7 PUSH3 0xD7D JUMP JUMPDEST SWAP1 POP PUSH3 0xE12 PUSH1 0x40 DUP4 ADD DUP6 PUSH3 0xDBE JUMP JUMPDEST DUP2 DUP2 SUB PUSH1 0x60 DUP4 ADD MSTORE PUSH3 0xE26 DUP2 DUP5 PUSH3 0xD7D JUMP JUMPDEST SWAP1 POP SWAP6 SWAP5 POP POP POP POP POP JUMP JUMPDEST PUSH2 0x30B8 DUP1 PUSH3 0xE41 PUSH1 0x0 CODECOPY PUSH1 0x0 RETURN INVALID PUSH1 0x80 PUSH1 0x40 MSTORE CALLVALUE DUP1 ISZERO PUSH2 0x10 JUMPI PUSH1 0x0 DUP1 REVERT JUMPDEST POP PUSH1 0x4 CALLDATASIZE LT PUSH2 0x100 JUMPI PUSH1 0x0 CALLDATALOAD PUSH1 0xE0 SHR DUP1 PUSH4 0x7DF124A1 GT PUSH2 0x97 JUMPI DUP1 PUSH4 0xB88D4FDE GT PUSH2 0x66 JUMPI DUP1 PUSH4 0xB88D4FDE EQ PUSH2 0x2D6 JUMPI DUP1 PUSH4 0xC87B56DD EQ PUSH2 0x2F2 JUMPI DUP1 PUSH4 0xE985E9C5 EQ PUSH2 0x322 JUMPI DUP1 PUSH4 0xF8B81EF7 EQ PUSH2 0x352 JUMPI PUSH2 0x100 JUMP JUMPDEST DUP1 PUSH4 0x7DF124A1 EQ PUSH2 0x237 JUMPI DUP1 PUSH4 0x95D89B41 EQ PUSH2 0x267 JUMPI DUP1 PUSH4 0x98DA4C95 EQ PUSH2 0x285 JUMPI DUP1 PUSH4 0xA22CB465 EQ PUSH2 0x2BA JUMPI PUSH2 0x100 JUMP JUMPDEST DUP1 PUSH4 0x23B872DD GT PUSH2 0xD3 JUMPI DUP1 PUSH4 0x23B872DD EQ PUSH2 0x19F JUMPI DUP1 PUSH4 0x42842E0E EQ PUSH2 0x1BB JUMPI DUP1 PUSH4 0x6352211E EQ PUSH2 0x1D7 JUMPI DUP1 PUSH4 0x70A08231 EQ PUSH2 0x207 JUMPI PUSH2 0x100 JUMP JUMPDEST DUP1 PUSH4 0x1FFC9A7 EQ PUSH2 0x105 JUMPI DUP1 PUSH4 0x6FDDE03 EQ PUSH2 0x135 JUMPI DUP1 PUSH4 0x81812FC EQ PUSH2 0x153 JUMPI DUP1 PUSH4 0x95EA7B3 EQ PUSH2 0x183 JUMPI JUMPDEST PUSH1 0x0 DUP1 REVERT JUMPDEST PUSH2 0x11F PUSH1 0x4 DUP1 CALLDATASIZE SUB DUP2 ADD SWAP1 PUSH2 0x11A SWAP2 SWAP1 PUSH2 0x1F3B JUMP JUMPDEST PUSH2 0x36E JUMP JUMPDEST PUSH1 0x40 MLOAD PUSH2 0x12C SWAP2 SWAP1 PUSH2 0x1F83 JUMP JUMPDEST PUSH1 0x40 MLOAD DUP1 SWAP2 SUB SWAP1 RETURN JUMPDEST PUSH2 0x13D PUSH2 0x450 JUMP JUMPDEST PUSH1 0x40 MLOAD PUSH2 0x14A SWAP2 SWAP1 PUSH2 0x202E JUMP JUMPDEST PUSH1 0x40 MLOAD DUP1 SWAP2 SUB SWAP1 RETURN JUMPDEST PUSH2 0x16D PUSH1 0x4 DUP1 CALLDATASIZE SUB DUP2 ADD SWAP1 PUSH2 0x168 SWAP2 SWAP1 PUSH2 0x2086 JUMP JUMPDEST PUSH2 0x4E2 JUMP JUMPDEST PUSH1 0x40 MLOAD PUSH2 0x17A SWAP2 SWAP1 PUSH2 0x20F4 JUMP JUMPDEST PUSH1 0x40 MLOAD DUP1 SWAP2 SUB SWAP1 RETURN JUMPDEST PUSH2 0x19D PUSH1 0x4 DUP1 CALLDATASIZE SUB DUP2 ADD SWAP1 PUSH2 0x198 SWAP2 SWAP1 PUSH2 0x213B JUMP JUMPDEST PUSH2 0x528 JUMP JUMPDEST STOP JUMPDEST PUSH2 0x1B9 PUSH1 0x4 DUP1 CALLDATASIZE SUB DUP2 ADD SWAP1 PUSH2 0x1B4 SWAP2 SWAP1 PUSH2 0x217B JUMP JUMPDEST PUSH2 0x63F JUMP JUMPDEST STOP JUMPDEST PUSH2 0x1D5 PUSH1 0x4 DUP1 CALLDATASIZE SUB DUP2 ADD SWAP1 PUSH2 0x1D0 SWAP2 SWAP1 PUSH2 0x217B JUMP JUMPDEST PUSH2 0x69F JUMP JUMPDEST STOP JUMPDEST PUSH2 0x1F1 PUSH1 0x4 DUP1 CALLDATASIZE SUB DUP2 ADD SWAP1 PUSH2 0x1EC SWAP2 SWAP1 PUSH2 0x2086 JUMP JUMPDEST PUSH2 0x6BF JUMP JUMPDEST PUSH1 0x40 MLOAD PUSH2 0x1FE SWAP2 SWAP1 PUSH2 0x20F4 JUMP JUMPDEST PUSH1 0x40 MLOAD DUP1 SWAP2 SUB SWAP1 RETURN JUMPDEST PUSH2 0x221 PUSH1 0x4 DUP1 CALLDATASIZE SUB DUP2 ADD SWAP1 PUSH2 0x21C SWAP2 SWAP1 PUSH2 0x21CE JUMP JUMPDEST PUSH2 0x745 JUMP JUMPDEST PUSH1 0x40 MLOAD PUSH2 0x22E SWAP2 SWAP1 PUSH2 0x220A JUMP JUMPDEST PUSH1 0x40 MLOAD DUP1 SWAP2 SUB SWAP1 RETURN JUMPDEST PUSH2 0x251 PUSH1 0x4 DUP1 CALLDATASIZE SUB DUP2 ADD SWAP1 PUSH2 0x24C SWAP2 SWAP1 PUSH2 0x21CE JUMP JUMPDEST PUSH2 0x7FC JUMP JUMPDEST PUSH1 0x40 MLOAD PUSH2 0x25E SWAP2 SWAP1 PUSH2 0x220A JUMP JUMPDEST PUSH1 0x40 MLOAD DUP1 SWAP2 SUB SWAP1 RETURN JUMPDEST PUSH2 0x26F PUSH2 0x814 JUMP JUMPDEST PUSH1 0x40 MLOAD PUSH2 0x27C SWAP2 SWAP1 PUSH2 0x202E JUMP JUMPDEST PUSH1 0x40 MLOAD DUP1 SWAP2 SUB SWAP1 RETURN JUMPDEST PUSH2 0x29F PUSH1 0x4 DUP1 CALLDATASIZE SUB DUP2 ADD SWAP1 PUSH2 0x29A SWAP2 SWAP1 PUSH2 0x2086 JUMP JUMPDEST PUSH2 0x8A6 JUMP JUMPDEST PUSH1 0x40 MLOAD PUSH2 0x2B1 SWAP7 SWAP6 SWAP5 SWAP4 SWAP3 SWAP2 SWAP1 PUSH2 0x2225 JUMP JUMPDEST PUSH1 0x40 MLOAD DUP1 SWAP2 SUB SWAP1 RETURN JUMPDEST PUSH2 0x2D4 PUSH1 0x4 DUP1 CALLDATASIZE SUB DUP2 ADD SWAP1 PUSH2 0x2CF SWAP2 SWAP1 PUSH2 0x22C0 JUMP JUMPDEST PUSH2 0x9F2 JUMP JUMPDEST STOP JUMPDEST PUSH2 0x2F0 PUSH1 0x4 DUP1 CALLDATASIZE SUB DUP2 ADD SWAP1 PUSH2 0x2EB SWAP2 SWAP1 PUSH2 0x2435 JUMP JUMPDEST PUSH2 0xA08 JUMP JUMPDEST STOP JUMPDEST PUSH2 0x30C PUSH1 0x4 DUP1 CALLDATASIZE SUB DUP2 ADD SWAP1 PUSH2 0x307 SWAP2 SWAP1 PUSH2 0x2086 JUMP JUMPDEST PUSH2 0xA6A JUMP JUMPDEST PUSH1 0x40 MLOAD PUSH2 0x319 SWAP2 SWAP1 PUSH2 0x202E JUMP JUMPDEST PUSH1 0x40 MLOAD DUP1 SWAP2 SUB SWAP1 RETURN JUMPDEST PUSH2 0x33C PUSH1 0x4 DUP1 CALLDATASIZE SUB DUP2 ADD SWAP1 PUSH2 0x337 SWAP2 SWAP1 PUSH2 0x24B8 JUMP JUMPDEST PUSH2 0xAD2 JUMP JUMPDEST PUSH1 0x40 MLOAD PUSH2 0x349 SWAP2 SWAP1 PUSH2 0x1F83 JUMP JUMPDEST PUSH1 0x40 MLOAD DUP1 SWAP2 SUB SWAP1 RETURN JUMPDEST PUSH2 0x36C PUSH1 0x4 DUP1 CALLDATASIZE SUB DUP2 ADD SWAP1 PUSH2 0x367 SWAP2 SWAP1 PUSH2 0x2086 JUMP JUMPDEST PUSH2 0xB66 JUMP JUMPDEST STOP JUMPDEST PUSH1 0x0 PUSH32 0x80AC58CD00000000000000000000000000000000000000000000000000000000 PUSH28 0xFFFFFFFFFFFFFFFFFFFFFFFFFFFFFFFFFFFFFFFFFFFFFFFFFFFFFFFF NOT AND DUP3 PUSH28 0xFFFFFFFFFFFFFFFFFFFFFFFFFFFFFFFFFFFFFFFFFFFFFFFFFFFFFFFF NOT AND EQ DUP1 PUSH2 0x439 JUMPI POP PUSH32 0x5B5E139F00000000000000000000000000000000000000000000000000000000 PUSH28 0xFFFFFFFFFFFFFFFFFFFFFFFFFFFFFFFFFFFFFFFFFFFFFFFFFFFFFFFF NOT AND DUP3 PUSH28 0xFFFFFFFFFFFFFFFFFFFFFFFFFFFFFFFFFFFFFFFFFFFFFFFFFFFFFFFF NOT AND EQ JUMPDEST DUP1 PUSH2 0x449 JUMPI POP PUSH2 0x448 DUP3 PUSH2 0xF0B JUMP JUMPDEST JUMPDEST SWAP1 POP SWAP2 SWAP1 POP JUMP JUMPDEST PUSH1 0x60 PUSH1 0x0 DUP1 SLOAD PUSH2 0x45F SWAP1 PUSH2 0x2527 JUMP JUMPDEST DUP1 PUSH1 0x1F ADD PUSH1 0x20 DUP1 SWAP2 DIV MUL PUSH1 0x20 ADD PUSH1 0x40 MLOAD SWAP1 DUP2 ADD PUSH1 0x40 MSTORE DUP1 SWAP3 SWAP2 SWAP1 DUP2 DUP2 MSTORE PUSH1 0x20 ADD DUP3 DUP1 SLOAD PUSH2 0x48B SWAP1 PUSH2 0x2527 JUMP JUMPDEST DUP1 ISZERO PUSH2 0x4D8 JUMPI DUP1 PUSH1 0x1F LT PUSH2 0x4AD JUMPI PUSH2 0x100 DUP1 DUP4 SLOAD DIV MUL DUP4 MSTORE SWAP2 PUSH1 0x20 ADD SWAP2 PUSH2 0x4D8 JUMP JUMPDEST DUP3 ADD SWAP2 SWAP1 PUSH1 0x0 MSTORE PUSH1 0x20 PUSH1 0x0 KECCAK256 SWAP1 JUMPDEST DUP2 SLOAD DUP2 MSTORE SWAP1 PUSH1 0x1 ADD SWAP1 PUSH1 0x20 ADD DUP1 DUP4 GT PUSH2 0x4BB JUMPI DUP3 SWAP1 SUB PUSH1 0x1F AND DUP3 ADD SWAP2 JUMPDEST POP POP POP POP POP SWAP1 POP SWAP1 JUMP JUMPDEST PUSH1 0x0 PUSH2 0x4ED DUP3 PUSH2 0xF75 JUMP JUMPDEST PUSH1 0x4 PUSH1 0x0 DUP4 DUP2 MSTORE PUSH1 0x20 ADD SWAP1 DUP2 MSTORE PUSH1 0x20 ADD PUSH1 0x0 KECCAK256 PUSH1 0x0 SWAP1 SLOAD SWAP1 PUSH2 0x100 EXP SWAP1 DIV PUSH20 0xFFFFFFFFFFFFFFFFFFFFFFFFFFFFFFFFFFFFFFFF AND SWAP1 POP SWAP2 SWAP1 POP JUMP JUMPDEST PUSH1 0x0 PUSH2 0x533 DUP3 PUSH2 0x6BF JUMP JUMPDEST SWAP1 POP DUP1 PUSH20 0xFFFFFFFFFFFFFFFFFFFFFFFFFFFFFFFFFFFFFFFF AND DUP4 PUSH20 0xFFFFFFFFFFFFFFFFFFFFFFFFFFFFFFFFFFFFFFFF AND SUB PUSH2 0x5A3 JUMPI PUSH1 0x40 MLOAD PUSH32 0x8C379A000000000000000000000000000000000000000000000000000000000 DUP2 MSTORE PUSH1 0x4 ADD PUSH2 0x59A SWAP1 PUSH2 0x25CA JUMP JUMPDEST PUSH1 0x40 MLOAD DUP1 SWAP2 SUB SWAP1 REVERT JUMPDEST DUP1 PUSH20 0xFFFFFFFFFFFFFFFFFFFFFFFFFFFFFFFFFFFFFFFF AND PUSH2 0x5C2 PUSH2 0xFC0 JUMP JUMPDEST PUSH20 0xFFFFFFFFFFFFFFFFFFFFFFFFFFFFFFFFFFFFFFFF AND EQ DUP1 PUSH2 0x5F1 JUMPI POP PUSH2 0x5F0 DUP2 PUSH2 0x5EB PUSH2 0xFC0 JUMP JUMPDEST PUSH2 0xAD2 JUMP JUMPDEST JUMPDEST PUSH2 0x630 JUMPI PUSH1 0x40 MLOAD PUSH32 0x8C379A000000000000000000000000000000000000000000000000000000000 DUP2 MSTORE PUSH1 0x4 ADD PUSH2 0x627 SWAP1 PUSH2 0x265C JUMP JUMPDEST PUSH1 0x40 MLOAD DUP1 SWAP2 SUB SWAP1 REVERT JUMPDEST PUSH2 0x63A DUP4 DUP4 PUSH2 0xFC8 JUMP JUMPDEST POP POP POP JUMP JUMPDEST PUSH2 0x650 PUSH2 0x64A PUSH2 0xFC0 JUMP JUMPDEST DUP3 PUSH2 0x1081 JUMP JUMPDEST PUSH2 0x68F JUMPI PUSH1 0x40 MLOAD PUSH32 0x8C379A000000000000000000000000000000000000000000000000000000000 DUP2 MSTORE PUSH1 0x4 ADD PUSH2 0x686 SWAP1 PUSH2 0x26EE JUMP JUMPDEST PUSH1 0x40 MLOAD DUP1 SWAP2 SUB SWAP1 REVERT JUMPDEST PUSH2 0x69A DUP4 DUP4 DUP4 PUSH2 0x1116 JUMP JUMPDEST POP POP POP JUMP JUMPDEST PUSH2 0x6BA DUP4 DUP4 DUP4 PUSH1 0x40 MLOAD DUP1 PUSH1 0x20 ADD PUSH1 0x40 MSTORE DUP1 PUSH1 0x0 DUP2 MSTORE POP PUSH2 0xA08 JUMP JUMPDEST POP POP POP JUMP JUMPDEST PUSH1 0x0 DUP1 PUSH2 0x6CB DUP4 PUSH2 0x140F JUMP JUMPDEST SWAP1 POP PUSH1 0x0 PUSH20 0xFFFFFFFFFFFFFFFFFFFFFFFFFFFFFFFFFFFFFFFF AND DUP2 PUSH20 0xFFFFFFFFFFFFFFFFFFFFFFFFFFFFFFFFFFFFFFFF AND SUB PUSH2 0x73C JUMPI PUSH1 0x40 MLOAD PUSH32 0x8C379A000000000000000000000000000000000000000000000000000000000 DUP2 MSTORE PUSH1 0x4 ADD PUSH2 0x733 SWAP1 PUSH2 0x275A JUMP JUMPDEST PUSH1 0x40 MLOAD DUP1 SWAP2 SUB SWAP1 REVERT JUMPDEST DUP1 SWAP2 POP POP SWAP2 SWAP1 POP JUMP JUMPDEST PUSH1 0x0 DUP1 PUSH20 0xFFFFFFFFFFFFFFFFFFFFFFFFFFFFFFFFFFFFFFFF AND DUP3 PUSH20 0xFFFFFFFFFFFFFFFFFFFFFFFFFFFFFFFFFFFFFFFF AND SUB PUSH2 0x7B5 JUMPI PUSH1 0x40 MLOAD PUSH32 0x8C379A000000000000000000000000000000000000000000000000000000000 DUP2 MSTORE PUSH1 0x4 ADD PUSH2 0x7AC SWAP1 PUSH2 0x27EC JUMP JUMPDEST PUSH1 0x40 MLOAD DUP1 SWAP2 SUB SWAP1 REVERT JUMPDEST PUSH1 0x3 PUSH1 0x0 DUP4 PUSH20 0xFFFFFFFFFFFFFFFFFFFFFFFFFFFFFFFFFFFFFFFF AND PUSH20 0xFFFFFFFFFFFFFFFFFFFFFFFFFFFFFFFFFFFFFFFF AND DUP2 MSTORE PUSH1 0x20 ADD SWAP1 DUP2 MSTORE PUSH1 0x20 ADD PUSH1 0x0 KECCAK256 SLOAD SWAP1 POP SWAP2 SWAP1 POP JUMP JUMPDEST PUSH1 0x9 PUSH1 0x20 MSTORE DUP1 PUSH1 0x0 MSTORE PUSH1 0x40 PUSH1 0x0 KECCAK256 PUSH1 0x0 SWAP2 POP SWAP1 POP SLOAD DUP2 JUMP JUMPDEST PUSH1 0x60 PUSH1 0x1 DUP1 SLOAD PUSH2 0x823 SWAP1 PUSH2 0x2527 JUMP JUMPDEST DUP1 PUSH1 0x1F ADD PUSH1 0x20 DUP1 SWAP2 DIV MUL PUSH1 0x20 ADD PUSH1 0x40 MLOAD SWAP1 DUP2 ADD PUSH1 0x40 MSTORE DUP1 SWAP3 SWAP2 SWAP1 DUP2 DUP2 MSTORE PUSH1 0x20 ADD DUP3 DUP1 SLOAD PUSH2 0x84F SWAP1 PUSH2 0x2527 JUMP JUMPDEST DUP1 ISZERO PUSH2 0x89C JUMPI DUP1 PUSH1 0x1F LT PUSH2 0x871 JUMPI PUSH2 0x100 DUP1 DUP4 SLOAD DIV MUL DUP4 MSTORE SWAP2 PUSH1 0x20 ADD SWAP2 PUSH2 0x89C JUMP JUMPDEST DUP3 ADD SWAP2 SWAP1 PUSH1 0x0 MSTORE PUSH1 0x20 PUSH1 0x0 KECCAK256 SWAP1 JUMPDEST DUP2 SLOAD DUP2 MSTORE SWAP1 PUSH1 0x1 ADD SWAP1 PUSH1 0x20 ADD DUP1 DUP4 GT PUSH2 0x87F JUMPI DUP3 SWAP1 SUB PUSH1 0x1F AND DUP3 ADD SWAP2 JUMPDEST POP POP POP POP POP SWAP1 POP SWAP1 JUMP JUMPDEST PUSH1 0x8 PUSH1 0x20 MSTORE DUP1 PUSH1 0x0 MSTORE PUSH1 0x40 PUSH1 0x0 KECCAK256 PUSH1 0x0 SWAP2 POP SWAP1 POP DUP1 PUSH1 0x0 ADD SLOAD SWAP1 DUP1 PUSH1 0x1 ADD DUP1 SLOAD PUSH2 0x8CF SWAP1 PUSH2 0x2527 JUMP JUMPDEST DUP1 PUSH1 0x1F ADD PUSH1 0x20 DUP1 SWAP2 DIV MUL PUSH1 0x20 ADD PUSH1 0x40 MLOAD SWAP1 DUP2 ADD PUSH1 0x40 MSTORE DUP1 SWAP3 SWAP2 SWAP1 DUP2 DUP2 MSTORE PUSH1 0x20 ADD DUP3 DUP1 SLOAD PUSH2 0x8FB SWAP1 PUSH2 0x2527 JUMP JUMPDEST DUP1 ISZERO PUSH2 0x948 JUMPI DUP1 PUSH1 0x1F LT PUSH2 0x91D JUMPI PUSH2 0x100 DUP1 DUP4 SLOAD DIV MUL DUP4 MSTORE SWAP2 PUSH1 0x20 ADD SWAP2 PUSH2 0x948 JUMP JUMPDEST DUP3 ADD SWAP2 SWAP1 PUSH1 0x0 MSTORE PUSH1 0x20 PUSH1 0x0 KECCAK256 SWAP1 JUMPDEST DUP2 SLOAD DUP2 MSTORE SWAP1 PUSH1 0x1 ADD SWAP1 PUSH1 0x20 ADD DUP1 DUP4 GT PUSH2 0x92B JUMPI DUP3 SWAP1 SUB PUSH1 0x1F AND DUP3 ADD SWAP2 JUMPDEST POP POP POP POP POP SWAP1 DUP1 PUSH1 0x2 ADD DUP1 SLOAD PUSH2 0x95D SWAP1 PUSH2 0x2527 JUMP JUMPDEST DUP1 PUSH1 0x1F ADD PUSH1 0x20 DUP1 SWAP2 DIV MUL PUSH1 0x20 ADD PUSH1 0x40 MLOAD SWAP1 DUP2 ADD PUSH1 0x40 MSTORE DUP1 SWAP3 SWAP2 SWAP1 DUP2 DUP2 MSTORE PUSH1 0x20 ADD DUP3 DUP1 SLOAD PUSH2 0x989 SWAP1 PUSH2 0x2527 JUMP JUMPDEST DUP1 ISZERO PUSH2 0x9D6 JUMPI DUP1 PUSH1 0x1F LT PUSH2 0x9AB JUMPI PUSH2 0x100 DUP1 DUP4 SLOAD DIV MUL DUP4 MSTORE SWAP2 PUSH1 0x20 ADD SWAP2 PUSH2 0x9D6 JUMP JUMPDEST DUP3 ADD SWAP2 SWAP1 PUSH1 0x0 MSTORE PUSH1 0x20 PUSH1 0x0 KECCAK256 SWAP1 JUMPDEST DUP2 SLOAD DUP2 MSTORE SWAP1 PUSH1 0x1 ADD SWAP1 PUSH1 0x20 ADD DUP1 DUP4 GT PUSH2 0x9B9 JUMPI DUP3 SWAP1 SUB PUSH1 0x1F AND DUP3 ADD SWAP2 JUMPDEST POP POP POP POP POP SWAP1 DUP1 PUSH1 0x3 ADD SLOAD SWAP1 DUP1 PUSH1 0x4 ADD SLOAD SWAP1 DUP1 PUSH1 0x5 ADD SLOAD SWAP1 POP DUP7 JUMP JUMPDEST PUSH2 0xA04 PUSH2 0x9FD PUSH2 0xFC0 JUMP JUMPDEST DUP4 DUP4 PUSH2 0x144C JUMP JUMPDEST POP POP JUMP JUMPDEST PUSH2 0xA19 PUSH2 0xA13 PUSH2 0xFC0 JUMP JUMPDEST DUP4 PUSH2 0x1081 JUMP JUMPDEST PUSH2 0xA58 JUMPI PUSH1 0x40 MLOAD PUSH32 0x8C379A000000000000000000000000000000000000000000000000000000000 DUP2 MSTORE PUSH1 0x4 ADD PUSH2 0xA4F SWAP1 PUSH2 0x26EE JUMP JUMPDEST PUSH1 0x40 MLOAD DUP1 SWAP2 SUB SWAP1 REVERT JUMPDEST PUSH2 0xA64 DUP5 DUP5 DUP5 DUP5 PUSH2 0x15B8 JUMP JUMPDEST POP POP POP POP JUMP JUMPDEST PUSH1 0x60 PUSH2 0xA75 DUP3 PUSH2 0xF75 JUMP JUMPDEST PUSH1 0x0 PUSH2 0xA7F PUSH2 0x1614 JUMP JUMPDEST SWAP1 POP PUSH1 0x0 DUP2 MLOAD GT PUSH2 0xA9F JUMPI PUSH1 0x40 MLOAD DUP1 PUSH1 0x20 ADD PUSH1 0x40 MSTORE DUP1 PUSH1 0x0 DUP2 MSTORE POP PUSH2 0xACA JUMP JUMPDEST DUP1 PUSH2 0xAA9 DUP5 PUSH2 0x162B JUMP JUMPDEST PUSH1 0x40 MLOAD PUSH1 0x20 ADD PUSH2 0xABA SWAP3 SWAP2 SWAP1 PUSH2 0x2848 JUMP JUMPDEST PUSH1 0x40 MLOAD PUSH1 0x20 DUP2 DUP4 SUB SUB DUP2 MSTORE SWAP1 PUSH1 0x40 MSTORE JUMPDEST SWAP2 POP POP SWAP2 SWAP1 POP JUMP JUMPDEST PUSH1 0x0 PUSH1 0x5 PUSH1 0x0 DUP5 PUSH20 0xFFFFFFFFFFFFFFFFFFFFFFFFFFFFFFFFFFFFFFFF AND PUSH20 0xFFFFFFFFFFFFFFFFFFFFFFFFFFFFFFFFFFFFFFFF AND DUP2 MSTORE PUSH1 0x20 ADD SWAP1 DUP2 MSTORE PUSH1 0x20 ADD PUSH1 0x0 KECCAK256 PUSH1 0x0 DUP4 PUSH20 0xFFFFFFFFFFFFFFFFFFFFFFFFFFFFFFFFFFFFFFFF AND PUSH20 0xFFFFFFFFFFFFFFFFFFFFFFFFFFFFFFFFFFFFFFFF AND DUP2 MSTORE PUSH1 0x20 ADD SWAP1 DUP2 MSTORE PUSH1 0x20 ADD PUSH1 0x0 KECCAK256 PUSH1 0x0 SWAP1 SLOAD SWAP1 PUSH2 0x100 EXP SWAP1 DIV PUSH1 0xFF AND SWAP1 POP SWAP3 SWAP2 POP POP JUMP JUMPDEST PUSH1 0x0 PUSH2 0xB72 PUSH1 0x6 PUSH2 0x16F9 JUMP JUMPDEST SWAP1 POP PUSH2 0xB7E CALLER DUP3 PUSH2 0x1707 JUMP JUMPDEST PUSH1 0x40 MLOAD DUP1 PUSH1 0xC0 ADD PUSH1 0x40 MSTORE DUP1 DUP4 DUP2 MSTORE PUSH1 0x20 ADD PUSH1 0x7 DUP5 DUP2 SLOAD DUP2 LT PUSH2 0xBA3 JUMPI PUSH2 0xBA2 PUSH2 0x286C JUMP JUMPDEST JUMPDEST SWAP1 PUSH1 0x0 MSTORE PUSH1 0x20 PUSH1 0x0 KECCAK256 SWAP1 PUSH1 0x6 MUL ADD PUSH1 0x1 ADD DUP1 SLOAD PUSH2 0xBBF SWAP1 PUSH2 0x2527 JUMP JUMPDEST DUP1 PUSH1 0x1F ADD PUSH1 0x20 DUP1 SWAP2 DIV MUL PUSH1 0x20 ADD PUSH1 0x40 MLOAD SWAP1 DUP2 ADD PUSH1 0x40 MSTORE DUP1 SWAP3 SWAP2 SWAP1 DUP2 DUP2 MSTORE PUSH1 0x20 ADD DUP3 DUP1 SLOAD PUSH2 0xBEB SWAP1 PUSH2 0x2527 JUMP JUMPDEST DUP1 ISZERO PUSH2 0xC38 JUMPI DUP1 PUSH1 0x1F LT PUSH2 0xC0D JUMPI PUSH2 0x100 DUP1 DUP4 SLOAD DIV MUL DUP4 MSTORE SWAP2 PUSH1 0x20 ADD SWAP2 PUSH2 0xC38 JUMP JUMPDEST DUP3 ADD SWAP2 SWAP1 PUSH1 0x0 MSTORE PUSH1 0x20 PUSH1 0x0 KECCAK256 SWAP1 JUMPDEST DUP2 SLOAD DUP2 MSTORE SWAP1 PUSH1 0x1 ADD SWAP1 PUSH1 0x20 ADD DUP1 DUP4 GT PUSH2 0xC1B JUMPI DUP3 SWAP1 SUB PUSH1 0x1F AND DUP3 ADD SWAP2 JUMPDEST POP POP POP POP POP DUP2 MSTORE PUSH1 0x20 ADD PUSH1 0x7 DUP5 DUP2 SLOAD DUP2 LT PUSH2 0xC56 JUMPI PUSH2 0xC55 PUSH2 0x286C JUMP JUMPDEST JUMPDEST SWAP1 PUSH1 0x0 MSTORE PUSH1 0x20 PUSH1 0x0 KECCAK256 SWAP1 PUSH1 0x6 MUL ADD PUSH1 0x2 ADD DUP1 SLOAD PUSH2 0xC72 SWAP1 PUSH2 0x2527 JUMP JUMPDEST DUP1 PUSH1 0x1F ADD PUSH1 0x20 DUP1 SWAP2 DIV MUL PUSH1 0x20 ADD PUSH1 0x40 MLOAD SWAP1 DUP2 ADD PUSH1 0x40 MSTORE DUP1 SWAP3 SWAP2 SWAP1 DUP2 DUP2 MSTORE PUSH1 0x20 ADD DUP3 DUP1 SLOAD PUSH2 0xC9E SWAP1 PUSH2 0x2527 JUMP JUMPDEST DUP1 ISZERO PUSH2 0xCEB JUMPI DUP1 PUSH1 0x1F LT PUSH2 0xCC0 JUMPI PUSH2 0x100 DUP1 DUP4 SLOAD DIV MUL DUP4 MSTORE SWAP2 PUSH1 0x20 ADD SWAP2 PUSH2 0xCEB JUMP JUMPDEST DUP3 ADD SWAP2 SWAP1 PUSH1 0x0 MSTORE PUSH1 0x20 PUSH1 0x0 KECCAK256 SWAP1 JUMPDEST DUP2 SLOAD DUP2 MSTORE SWAP1 PUSH1 0x1 ADD SWAP1 PUSH1 0x20 ADD DUP1 DUP4 GT PUSH2 0xCCE JUMPI DUP3 SWAP1 SUB PUSH1 0x1F AND DUP3 ADD SWAP2 JUMPDEST POP POP POP POP POP DUP2 MSTORE PUSH1 0x20 ADD PUSH1 0x7 DUP5 DUP2 SLOAD DUP2 LT PUSH2 0xD09 JUMPI PUSH2 0xD08 PUSH2 0x286C JUMP JUMPDEST JUMPDEST SWAP1 PUSH1 0x0 MSTORE PUSH1 0x20 PUSH1 0x0 KECCAK256 SWAP1 PUSH1 0x6 MUL ADD PUSH1 0x3 ADD SLOAD DUP2 MSTORE PUSH1 0x20 ADD PUSH1 0x7 DUP5 DUP2 SLOAD DUP2 LT PUSH2 0xD34 JUMPI PUSH2 0xD33 PUSH2 0x286C JUMP JUMPDEST JUMPDEST SWAP1 PUSH1 0x0 MSTORE PUSH1 0x20 PUSH1 0x0 KECCAK256 SWAP1 PUSH1 0x6 MUL ADD PUSH1 0x4 ADD SLOAD DUP2 MSTORE PUSH1 0x20 ADD PUSH1 0x7 DUP5 DUP2 SLOAD DUP2 LT PUSH2 0xD5F JUMPI PUSH2 0xD5E PUSH2 0x286C JUMP JUMPDEST JUMPDEST SWAP1 PUSH1 0x0 MSTORE PUSH1 0x20 PUSH1 0x0 KECCAK256 SWAP1 PUSH1 0x6 MUL ADD PUSH1 0x5 ADD SLOAD DUP2 MSTORE POP PUSH1 0x8 PUSH1 0x0 DUP4 DUP2 MSTORE PUSH1 0x20 ADD SWAP1 DUP2 MSTORE PUSH1 0x20 ADD PUSH1 0x0 KECCAK256 PUSH1 0x0 DUP3 ADD MLOAD DUP2 PUSH1 0x0 ADD SSTORE PUSH1 0x20 DUP3 ADD MLOAD DUP2 PUSH1 0x1 ADD SWAP1 DUP2 PUSH2 0xDA6 SWAP2 SWAP1 PUSH2 0x2A47 JUMP JUMPDEST POP PUSH1 0x40 DUP3 ADD MLOAD DUP2 PUSH1 0x2 ADD SWAP1 DUP2 PUSH2 0xDBC SWAP2 SWAP1 PUSH2 0x2A47 JUMP JUMPDEST POP PUSH1 0x60 DUP3 ADD MLOAD DUP2 PUSH1 0x3 ADD SSTORE PUSH1 0x80 DUP3 ADD MLOAD DUP2 PUSH1 0x4 ADD SSTORE PUSH1 0xA0 DUP3 ADD MLOAD DUP2 PUSH1 0x5 ADD SSTORE SWAP1 POP POP PUSH2 0xE01 PUSH1 0x40 MLOAD DUP1 PUSH1 0x60 ADD PUSH1 0x40 MSTORE DUP1 PUSH1 0x2E DUP2 MSTORE PUSH1 0x20 ADD PUSH2 0x3055 PUSH1 0x2E SWAP2 CODECOPY DUP3 DUP5 PUSH2 0x1725 JUMP JUMPDEST DUP1 PUSH1 0x9 PUSH1 0x0 CALLER PUSH20 0xFFFFFFFFFFFFFFFFFFFFFFFFFFFFFFFFFFFFFFFF AND PUSH20 0xFFFFFFFFFFFFFFFFFFFFFFFFFFFFFFFFFFFFFFFF AND DUP2 MSTORE PUSH1 0x20 ADD SWAP1 DUP2 MSTORE PUSH1 0x20 ADD PUSH1 0x0 KECCAK256 DUP2 SWAP1 SSTORE POP PUSH2 0xE4F PUSH1 0x6 PUSH2 0xEF5 JUMP JUMPDEST POP POP JUMP JUMPDEST PUSH2 0xEEF DUP5 DUP5 DUP5 DUP5 PUSH1 0x40 MLOAD PUSH1 0x24 ADD PUSH2 0xE6D SWAP5 SWAP4 SWAP3 SWAP2 SWAP1 PUSH2 0x2B19 JUMP JUMPDEST PUSH1 0x40 MLOAD PUSH1 0x20 DUP2 DUP4 SUB SUB DUP2 MSTORE SWAP1 PUSH1 0x40 MSTORE PUSH32 0x5D1A971A00000000000000000000000000000000000000000000000000000000 PUSH28 0xFFFFFFFFFFFFFFFFFFFFFFFFFFFFFFFFFFFFFFFFFFFFFFFFFFFFFFFF NOT AND PUSH1 0x20 DUP3 ADD DUP1 MLOAD PUSH28 0xFFFFFFFFFFFFFFFFFFFFFFFFFFFFFFFFFFFFFFFFFFFFFFFFFFFFFFFF DUP4 DUP2 DUP4 AND OR DUP4 MSTORE POP POP POP POP PUSH2 0x17C4 JUMP JUMPDEST POP POP POP POP JUMP JUMPDEST PUSH1 0x1 DUP2 PUSH1 0x0 ADD PUSH1 0x0 DUP3 DUP3 SLOAD ADD SWAP3 POP POP DUP2 SWAP1 SSTORE POP POP JUMP JUMPDEST PUSH1 0x0 PUSH32 0x1FFC9A700000000000000000000000000000000000000000000000000000000 PUSH28 0xFFFFFFFFFFFFFFFFFFFFFFFFFFFFFFFFFFFFFFFFFFFFFFFFFFFFFFFF NOT AND DUP3 PUSH28 0xFFFFFFFFFFFFFFFFFFFFFFFFFFFFFFFFFFFFFFFFFFFFFFFFFFFFFFFF NOT AND EQ SWAP1 POP SWAP2 SWAP1 POP JUMP JUMPDEST PUSH2 0xF7E DUP2 PUSH2 0x17ED JUMP JUMPDEST PUSH2 0xFBD JUMPI PUSH1 0x40 MLOAD PUSH32 0x8C379A000000000000000000000000000000000000000000000000000000000 DUP2 MSTORE PUSH1 0x4 ADD PUSH2 0xFB4 SWAP1 PUSH2 0x275A JUMP JUMPDEST PUSH1 0x40 MLOAD DUP1 SWAP2 SUB SWAP1 REVERT JUMPDEST POP JUMP JUMPDEST PUSH1 0x0 CALLER SWAP1 POP SWAP1 JUMP JUMPDEST DUP2 PUSH1 0x4 PUSH1 0x0 DUP4 DUP2 MSTORE PUSH1 0x20 ADD SWAP1 DUP2 MSTORE PUSH1 0x20 ADD PUSH1 0x0 KECCAK256 PUSH1 0x0 PUSH2 0x100 EXP DUP2 SLOAD DUP2 PUSH20 0xFFFFFFFFFFFFFFFFFFFFFFFFFFFFFFFFFFFFFFFF MUL NOT AND SWAP1 DUP4 PUSH20 0xFFFFFFFFFFFFFFFFFFFFFFFFFFFFFFFFFFFFFFFF AND MUL OR SWAP1 SSTORE POP DUP1 DUP3 PUSH20 0xFFFFFFFFFFFFFFFFFFFFFFFFFFFFFFFFFFFFFFFF AND PUSH2 0x103B DUP4 PUSH2 0x6BF JUMP JUMPDEST PUSH20 0xFFFFFFFFFFFFFFFFFFFFFFFFFFFFFFFFFFFFFFFF AND PUSH32 0x8C5BE1E5EBEC7D5BD14F71427D1E84F3DD0314C0F7B2291E5B200AC8C7C3B925 PUSH1 0x40 MLOAD PUSH1 0x40 MLOAD DUP1 SWAP2 SUB SWAP1 LOG4 POP POP JUMP JUMPDEST PUSH1 0x0 DUP1 PUSH2 0x108D DUP4 PUSH2 0x6BF JUMP JUMPDEST SWAP1 POP DUP1 PUSH20 0xFFFFFFFFFFFFFFFFFFFFFFFFFFFFFFFFFFFFFFFF AND DUP5 PUSH20 0xFFFFFFFFFFFFFFFFFFFFFFFFFFFFFFFFFFFFFFFF AND EQ DUP1 PUSH2 0x10CF JUMPI POP PUSH2 0x10CE DUP2 DUP6 PUSH2 0xAD2 JUMP JUMPDEST JUMPDEST DUP1 PUSH2 0x110D JUMPI POP DUP4 PUSH20 0xFFFFFFFFFFFFFFFFFFFFFFFFFFFFFFFFFFFFFFFF AND PUSH2 0x10F5 DUP5 PUSH2 0x4E2 JUMP JUMPDEST PUSH20 0xFFFFFFFFFFFFFFFFFFFFFFFFFFFFFFFFFFFFFFFF AND EQ JUMPDEST SWAP2 POP POP SWAP3 SWAP2 POP POP JUMP JUMPDEST DUP3 PUSH20 0xFFFFFFFFFFFFFFFFFFFFFFFFFFFFFFFFFFFFFFFF AND PUSH2 0x1136 DUP3 PUSH2 0x6BF JUMP JUMPDEST PUSH20 0xFFFFFFFFFFFFFFFFFFFFFFFFFFFFFFFFFFFFFFFF AND EQ PUSH2 0x118C JUMPI PUSH1 0x40 MLOAD PUSH32 0x8C379A000000000000000000000000000000000000000000000000000000000 DUP2 MSTORE PUSH1 0x4 ADD PUSH2 0x1183 SWAP1 PUSH2 0x2BE5 JUMP JUMPDEST PUSH1 0x40 MLOAD DUP1 SWAP2 SUB SWAP1 REVERT JUMPDEST PUSH1 0x0 PUSH20 0xFFFFFFFFFFFFFFFFFFFFFFFFFFFFFFFFFFFFFFFF AND DUP3 PUSH20 0xFFFFFFFFFFFFFFFFFFFFFFFFFFFFFFFFFFFFFFFF AND SUB PUSH2 0x11FB JUMPI PUSH1 0x40 MLOAD PUSH32 0x8C379A000000000000000000000000000000000000000000000000000000000 DUP2 MSTORE PUSH1 0x4 ADD PUSH2 0x11F2 SWAP1 PUSH2 0x2C77 JUMP JUMPDEST PUSH1 0x40 MLOAD DUP1 SWAP2 SUB SWAP1 REVERT JUMPDEST PUSH2 0x1208 DUP4 DUP4 DUP4 PUSH1 0x1 PUSH2 0x182E JUMP JUMPDEST DUP3 PUSH20 0xFFFFFFFFFFFFFFFFFFFFFFFFFFFFFFFFFFFFFFFF AND PUSH2 0x1228 DUP3 PUSH2 0x6BF JUMP JUMPDEST PUSH20 0xFFFFFFFFFFFFFFFFFFFFFFFFFFFFFFFFFFFFFFFF AND EQ PUSH2 0x127E JUMPI PUSH1 0x40 MLOAD PUSH32 0x8C379A000000000000000000000000000000000000000000000000000000000 DUP2 MSTORE PUSH1 0x4 ADD PUSH2 0x1275 SWAP1 PUSH2 0x2BE5 JUMP JUMPDEST PUSH1 0x40 MLOAD DUP1 SWAP2 SUB SWAP1 REVERT JUMPDEST PUSH1 0x4 PUSH1 0x0 DUP3 DUP2 MSTORE PUSH1 0x20 ADD SWAP1 DUP2 MSTORE PUSH1 0x20 ADD PUSH1 0x0 KECCAK256 PUSH1 0x0 PUSH2 0x100 EXP DUP2 SLOAD SWAP1 PUSH20 0xFFFFFFFFFFFFFFFFFFFFFFFFFFFFFFFFFFFFFFFF MUL NOT AND SWAP1 SSTORE PUSH1 0x1 PUSH1 0x3 PUSH1 0x0 DUP6 PUSH20 0xFFFFFFFFFFFFFFFFFFFFFFFFFFFFFFFFFFFFFFFF AND PUSH20 0xFFFFFFFFFFFFFFFFFFFFFFFFFFFFFFFFFFFFFFFF AND DUP2 MSTORE PUSH1 0x20 ADD SWAP1 DUP2 MSTORE PUSH1 0x20 ADD PUSH1 0x0 KECCAK256 PUSH1 0x0 DUP3 DUP3 SLOAD SUB SWAP3 POP POP DUP2 SWAP1 SSTORE POP PUSH1 0x1 PUSH1 0x3 PUSH1 0x0 DUP5 PUSH20 0xFFFFFFFFFFFFFFFFFFFFFFFFFFFFFFFFFFFFFFFF AND PUSH20 0xFFFFFFFFFFFFFFFFFFFFFFFFFFFFFFFFFFFFFFFF AND DUP2 MSTORE PUSH1 0x20 ADD SWAP1 DUP2 MSTORE PUSH1 0x20 ADD PUSH1 0x0 KECCAK256 PUSH1 0x0 DUP3 DUP3 SLOAD ADD SWAP3 POP POP DUP2 SWAP1 SSTORE POP DUP2 PUSH1 0x2 PUSH1 0x0 DUP4 DUP2 MSTORE PUSH1 0x20 ADD SWAP1 DUP2 MSTORE PUSH1 0x20 ADD PUSH1 0x0 KECCAK256 PUSH1 0x0 PUSH2 0x100 EXP DUP2 SLOAD DUP2 PUSH20 0xFFFFFFFFFFFFFFFFFFFFFFFFFFFFFFFFFFFFFFFF MUL NOT AND SWAP1 DUP4 PUSH20 0xFFFFFFFFFFFFFFFFFFFFFFFFFFFFFFFFFFFFFFFF AND MUL OR SWAP1 SSTORE POP DUP1 DUP3 PUSH20 0xFFFFFFFFFFFFFFFFFFFFFFFFFFFFFFFFFFFFFFFF AND DUP5 PUSH20 0xFFFFFFFFFFFFFFFFFFFFFFFFFFFFFFFFFFFFFFFF AND PUSH32 0xDDF252AD1BE2C89B69C2B068FC378DAA952BA7F163C4A11628F55A4DF523B3EF PUSH1 0x40 MLOAD PUSH1 0x40 MLOAD DUP1 SWAP2 SUB SWAP1 LOG4 PUSH2 0x140A DUP4 DUP4 DUP4 PUSH1 0x1 PUSH2 0x1954 JUMP JUMPDEST POP POP POP JUMP JUMPDEST PUSH1 0x0 PUSH1 0x2 PUSH1 0x0 DUP4 DUP2 MSTORE PUSH1 0x20 ADD SWAP1 DUP2 MSTORE PUSH1 0x20 ADD PUSH1 0x0 KECCAK256 PUSH1 0x0 SWAP1 SLOAD SWAP1 PUSH2 0x100 EXP SWAP1 DIV PUSH20 0xFFFFFFFFFFFFFFFFFFFFFFFFFFFFFFFFFFFFFFFF AND SWAP1 POP SWAP2 SWAP1 POP JUMP JUMPDEST DUP2 PUSH20 0xFFFFFFFFFFFFFFFFFFFFFFFFFFFFFFFFFFFFFFFF AND DUP4 PUSH20 0xFFFFFFFFFFFFFFFFFFFFFFFFFFFFFFFFFFFFFFFF AND SUB PUSH2 0x14BA JUMPI PUSH1 0x40 MLOAD PUSH32 0x8C379A000000000000000000000000000000000000000000000000000000000 DUP2 MSTORE PUSH1 0x4 ADD PUSH2 0x14B1 SWAP1 PUSH2 0x2CE3 JUMP JUMPDEST PUSH1 0x40 MLOAD DUP1 SWAP2 SUB SWAP1 REVERT JUMPDEST DUP1 PUSH1 0x5 PUSH1 0x0 DUP6 PUSH20 0xFFFFFFFFFFFFFFFFFFFFFFFFFFFFFFFFFFFFFFFF AND PUSH20 0xFFFFFFFFFFFFFFFFFFFFFFFFFFFFFFFFFFFFFFFF AND DUP2 MSTORE PUSH1 0x20 ADD SWAP1 DUP2 MSTORE PUSH1 0x20 ADD PUSH1 0x0 KECCAK256 PUSH1 0x0 DUP5 PUSH20 0xFFFFFFFFFFFFFFFFFFFFFFFFFFFFFFFFFFFFFFFF AND PUSH20 0xFFFFFFFFFFFFFFFFFFFFFFFFFFFFFFFFFFFFFFFF AND DUP2 MSTORE PUSH1 0x20 ADD SWAP1 DUP2 MSTORE PUSH1 0x20 ADD PUSH1 0x0 KECCAK256 PUSH1 0x0 PUSH2 0x100 EXP DUP2 SLOAD DUP2 PUSH1 0xFF MUL NOT AND SWAP1 DUP4 ISZERO ISZERO MUL OR SWAP1 SSTORE POP DUP2 PUSH20 0xFFFFFFFFFFFFFFFFFFFFFFFFFFFFFFFFFFFFFFFF AND DUP4 PUSH20 0xFFFFFFFFFFFFFFFFFFFFFFFFFFFFFFFFFFFFFFFF AND PUSH32 0x17307EAB39AB6107E8899845AD3D59BD9653F200F220920489CA2B5937696C31 DUP4 PUSH1 0x40 MLOAD PUSH2 0x15AB SWAP2 SWAP1 PUSH2 0x1F83 JUMP JUMPDEST PUSH1 0x40 MLOAD DUP1 SWAP2 SUB SWAP1 LOG3 POP POP POP JUMP JUMPDEST PUSH2 0x15C3 DUP5 DUP5 DUP5 PUSH2 0x1116 JUMP JUMPDEST PUSH2 0x15CF DUP5 DUP5 DUP5 DUP5 PUSH2 0x195A JUMP JUMPDEST PUSH2 0x160E JUMPI PUSH1 0x40 MLOAD PUSH32 0x8C379A000000000000000000000000000000000000000000000000000000000 DUP2 MSTORE PUSH1 0x4 ADD PUSH2 0x1605 SWAP1 PUSH2 0x2D75 JUMP JUMPDEST PUSH1 0x40 MLOAD DUP1 SWAP2 SUB SWAP1 REVERT JUMPDEST POP POP POP POP JUMP JUMPDEST PUSH1 0x60 PUSH1 0x40 MLOAD DUP1 PUSH1 0x20 ADD PUSH1 0x40 MSTORE DUP1 PUSH1 0x0 DUP2 MSTORE POP SWAP1 POP SWAP1 JUMP JUMPDEST PUSH1 0x60 PUSH1 0x0 PUSH1 0x1 PUSH2 0x163A DUP5 PUSH2 0x1AE1 JUMP JUMPDEST ADD SWAP1 POP PUSH1 0x0 DUP2 PUSH8 0xFFFFFFFFFFFFFFFF DUP2 GT ISZERO PUSH2 0x1659 JUMPI PUSH2 0x1658 PUSH2 0x230A JUMP JUMPDEST JUMPDEST PUSH1 0x40 MLOAD SWAP1 DUP1 DUP3 MSTORE DUP1 PUSH1 0x1F ADD PUSH1 0x1F NOT AND PUSH1 0x20 ADD DUP3 ADD PUSH1 0x40 MSTORE DUP1 ISZERO PUSH2 0x168B JUMPI DUP2 PUSH1 0x20 ADD PUSH1 0x1 DUP3 MUL DUP1 CALLDATASIZE DUP4 CALLDATACOPY DUP1 DUP3 ADD SWAP2 POP POP SWAP1 POP JUMPDEST POP SWAP1 POP PUSH1 0x0 DUP3 PUSH1 0x20 ADD DUP3 ADD SWAP1 POP JUMPDEST PUSH1 0x1 ISZERO PUSH2 0x16EE JUMPI DUP1 DUP1 PUSH1 0x1 SWAP1 SUB SWAP2 POP POP PUSH32 0x3031323334353637383961626364656600000000000000000000000000000000 PUSH1 0xA DUP7 MOD BYTE DUP2 MSTORE8 PUSH1 0xA DUP6 DUP2 PUSH2 0x16E2 JUMPI PUSH2 0x16E1 PUSH2 0x2D95 JUMP JUMPDEST JUMPDEST DIV SWAP5 POP PUSH1 0x0 DUP6 SUB PUSH2 0x1699 JUMPI JUMPDEST DUP2 SWAP4 POP POP POP POP SWAP2 SWAP1 POP JUMP JUMPDEST PUSH1 0x0 DUP2 PUSH1 0x0 ADD SLOAD SWAP1 POP SWAP2 SWAP1 POP JUMP JUMPDEST PUSH2 0x1721 DUP3 DUP3 PUSH1 0x40 MLOAD DUP1 PUSH1 0x20 ADD PUSH1 0x40 MSTORE DUP1 PUSH1 0x0 DUP2 MSTORE POP PUSH2 0x1C34 JUMP JUMPDEST POP POP JUMP JUMPDEST PUSH2 0x17BF DUP4 DUP4 DUP4 PUSH1 0x40 MLOAD PUSH1 0x24 ADD PUSH2 0x173D SWAP4 SWAP3 SWAP2 SWAP1 PUSH2 0x2DC4 JUMP JUMPDEST PUSH1 0x40 MLOAD PUSH1 0x20 DUP2 DUP4 SUB SUB DUP2 MSTORE SWAP1 PUSH1 0x40 MSTORE PUSH32 0xCA47C4EB00000000000000000000000000000000000000000000000000000000 PUSH28 0xFFFFFFFFFFFFFFFFFFFFFFFFFFFFFFFFFFFFFFFFFFFFFFFFFFFFFFFF NOT AND PUSH1 0x20 DUP3 ADD DUP1 MLOAD PUSH28 0xFFFFFFFFFFFFFFFFFFFFFFFFFFFFFFFFFFFFFFFFFFFFFFFFFFFFFFFF DUP4 DUP2 DUP4 AND OR DUP4 MSTORE POP POP POP POP PUSH2 0x17C4 JUMP JUMPDEST POP POP POP JUMP JUMPDEST PUSH1 0x0 DUP2 MLOAD SWAP1 POP PUSH1 0x0 PUSH11 0x636F6E736F6C652E6C6F67 SWAP1 POP PUSH1 0x20 DUP4 ADD PUSH1 0x0 DUP1 DUP5 DUP4 DUP6 GAS STATICCALL POP POP POP POP POP JUMP JUMPDEST PUSH1 0x0 DUP1 PUSH20 0xFFFFFFFFFFFFFFFFFFFFFFFFFFFFFFFFFFFFFFFF AND PUSH2 0x180F DUP4 PUSH2 0x140F JUMP JUMPDEST PUSH20 0xFFFFFFFFFFFFFFFFFFFFFFFFFFFFFFFFFFFFFFFF AND EQ ISZERO SWAP1 POP SWAP2 SWAP1 POP JUMP JUMPDEST PUSH1 0x1 DUP2 GT ISZERO PUSH2 0x194E JUMPI PUSH1 0x0 PUSH20 0xFFFFFFFFFFFFFFFFFFFFFFFFFFFFFFFFFFFFFFFF AND DUP5 PUSH20 0xFFFFFFFFFFFFFFFFFFFFFFFFFFFFFFFFFFFFFFFF AND EQ PUSH2 0x18C2 JUMPI DUP1 PUSH1 0x3 PUSH1 0x0 DUP7 PUSH20 0xFFFFFFFFFFFFFFFFFFFFFFFFFFFFFFFFFFFFFFFF AND PUSH20 0xFFFFFFFFFFFFFFFFFFFFFFFFFFFFFFFFFFFFFFFF AND DUP2 MSTORE PUSH1 0x20 ADD SWAP1 DUP2 MSTORE PUSH1 0x20 ADD PUSH1 0x0 KECCAK256 PUSH1 0x0 DUP3 DUP3 SLOAD PUSH2 0x18BA SWAP2 SWAP1 PUSH2 0x2E31 JUMP JUMPDEST SWAP3 POP POP DUP2 SWAP1 SSTORE POP JUMPDEST PUSH1 0x0 PUSH20 0xFFFFFFFFFFFFFFFFFFFFFFFFFFFFFFFFFFFFFFFF AND DUP4 PUSH20 0xFFFFFFFFFFFFFFFFFFFFFFFFFFFFFFFFFFFFFFFF AND EQ PUSH2 0x194D JUMPI DUP1 PUSH1 0x3 PUSH1 0x0 DUP6 PUSH20 0xFFFFFFFFFFFFFFFFFFFFFFFFFFFFFFFFFFFFFFFF AND PUSH20 0xFFFFFFFFFFFFFFFFFFFFFFFFFFFFFFFFFFFFFFFF AND DUP2 MSTORE PUSH1 0x20 ADD SWAP1 DUP2 MSTORE PUSH1 0x20 ADD PUSH1 0x0 KECCAK256 PUSH1 0x0 DUP3 DUP3 SLOAD PUSH2 0x1945 SWAP2 SWAP1 PUSH2 0x2E65 JUMP JUMPDEST SWAP3 POP POP DUP2 SWAP1 SSTORE POP JUMPDEST JUMPDEST POP POP POP POP JUMP JUMPDEST POP POP POP POP JUMP JUMPDEST PUSH1 0x0 PUSH2 0x197B DUP5 PUSH20 0xFFFFFFFFFFFFFFFFFFFFFFFFFFFFFFFFFFFFFFFF AND PUSH2 0x1C8F JUMP JUMPDEST ISZERO PUSH2 0x1AD4 JUMPI DUP4 PUSH20 0xFFFFFFFFFFFFFFFFFFFFFFFFFFFFFFFFFFFFFFFF AND PUSH4 0x150B7A02 PUSH2 0x19A4 PUSH2 0xFC0 JUMP JUMPDEST DUP8 DUP7 DUP7 PUSH1 0x40 MLOAD DUP6 PUSH4 0xFFFFFFFF AND PUSH1 0xE0 SHL DUP2 MSTORE PUSH1 0x4 ADD PUSH2 0x19C6 SWAP5 SWAP4 SWAP3 SWAP2 SWAP1 PUSH2 0x2EEE JUMP JUMPDEST PUSH1 0x20 PUSH1 0x40 MLOAD DUP1 DUP4 SUB DUP2 PUSH1 0x0 DUP8 GAS CALL SWAP3 POP POP POP DUP1 ISZERO PUSH2 0x1A02 JUMPI POP PUSH1 0x40 MLOAD RETURNDATASIZE PUSH1 0x1F NOT PUSH1 0x1F DUP3 ADD AND DUP3 ADD DUP1 PUSH1 0x40 MSTORE POP DUP2 ADD SWAP1 PUSH2 0x19FF SWAP2 SWAP1 PUSH2 0x2F4F JUMP JUMPDEST PUSH1 0x1 JUMPDEST PUSH2 0x1A84 JUMPI RETURNDATASIZE DUP1 PUSH1 0x0 DUP2 EQ PUSH2 0x1A32 JUMPI PUSH1 0x40 MLOAD SWAP2 POP PUSH1 0x1F NOT PUSH1 0x3F RETURNDATASIZE ADD AND DUP3 ADD PUSH1 0x40 MSTORE RETURNDATASIZE DUP3 MSTORE RETURNDATASIZE PUSH1 0x0 PUSH1 0x20 DUP5 ADD RETURNDATACOPY PUSH2 0x1A37 JUMP JUMPDEST PUSH1 0x60 SWAP2 POP JUMPDEST POP PUSH1 0x0 DUP2 MLOAD SUB PUSH2 0x1A7C JUMPI PUSH1 0x40 MLOAD PUSH32 0x8C379A000000000000000000000000000000000000000000000000000000000 DUP2 MSTORE PUSH1 0x4 ADD PUSH2 0x1A73 SWAP1 PUSH2 0x2D75 JUMP JUMPDEST PUSH1 0x40 MLOAD DUP1 SWAP2 SUB SWAP1 REVERT JUMPDEST DUP1 MLOAD DUP2 PUSH1 0x20 ADD REVERT JUMPDEST PUSH4 0x150B7A02 PUSH1 0xE0 SHL PUSH28 0xFFFFFFFFFFFFFFFFFFFFFFFFFFFFFFFFFFFFFFFFFFFFFFFFFFFFFFFF NOT AND DUP2 PUSH28 0xFFFFFFFFFFFFFFFFFFFFFFFFFFFFFFFFFFFFFFFFFFFFFFFFFFFFFFFF NOT AND EQ SWAP2 POP POP PUSH2 0x1AD9 JUMP JUMPDEST PUSH1 0x1 SWAP1 POP JUMPDEST SWAP5 SWAP4 POP POP POP POP JUMP JUMPDEST PUSH1 0x0 DUP1 PUSH1 0x0 SWAP1 POP PUSH27 0x184F03E93FF9F4DAA797ED6E38ED64BF6A1F010000000000000000 DUP4 LT PUSH2 0x1B3F JUMPI PUSH27 0x184F03E93FF9F4DAA797ED6E38ED64BF6A1F010000000000000000 DUP4 DUP2 PUSH2 0x1B35 JUMPI PUSH2 0x1B34 PUSH2 0x2D95 JUMP JUMPDEST JUMPDEST DIV SWAP3 POP PUSH1 0x40 DUP2 ADD SWAP1 POP JUMPDEST PUSH14 0x4EE2D6D415B85ACEF8100000000 DUP4 LT PUSH2 0x1B7C JUMPI PUSH14 0x4EE2D6D415B85ACEF8100000000 DUP4 DUP2 PUSH2 0x1B72 JUMPI PUSH2 0x1B71 PUSH2 0x2D95 JUMP JUMPDEST JUMPDEST DIV SWAP3 POP PUSH1 0x20 DUP2 ADD SWAP1 POP JUMPDEST PUSH7 0x2386F26FC10000 DUP4 LT PUSH2 0x1BAB JUMPI PUSH7 0x2386F26FC10000 DUP4 DUP2 PUSH2 0x1BA1 JUMPI PUSH2 0x1BA0 PUSH2 0x2D95 JUMP JUMPDEST JUMPDEST DIV SWAP3 POP PUSH1 0x10 DUP2 ADD SWAP1 POP JUMPDEST PUSH4 0x5F5E100 DUP4 LT PUSH2 0x1BD4 JUMPI PUSH4 0x5F5E100 DUP4 DUP2 PUSH2 0x1BCA JUMPI PUSH2 0x1BC9 PUSH2 0x2D95 JUMP JUMPDEST JUMPDEST DIV SWAP3 POP PUSH1 0x8 DUP2 ADD SWAP1 POP JUMPDEST PUSH2 0x2710 DUP4 LT PUSH2 0x1BF9 JUMPI PUSH2 0x2710 DUP4 DUP2 PUSH2 0x1BEF JUMPI PUSH2 0x1BEE PUSH2 0x2D95 JUMP JUMPDEST JUMPDEST DIV SWAP3 POP PUSH1 0x4 DUP2 ADD SWAP1 POP JUMPDEST PUSH1 0x64 DUP4 LT PUSH2 0x1C1C JUMPI PUSH1 0x64 DUP4 DUP2 PUSH2 0x1C12 JUMPI PUSH2 0x1C11 PUSH2 0x2D95 JUMP JUMPDEST JUMPDEST DIV SWAP3 POP PUSH1 0x2 DUP2 ADD SWAP1 POP JUMPDEST PUSH1 0xA DUP4 LT PUSH2 0x1C2B JUMPI PUSH1 0x1 DUP2 ADD SWAP1 POP JUMPDEST DUP1 SWAP2 POP POP SWAP2 SWAP1 POP JUMP JUMPDEST PUSH2 0x1C3E DUP4 DUP4 PUSH2 0x1CB2 JUMP JUMPDEST PUSH2 0x1C4B PUSH1 0x0 DUP5 DUP5 DUP5 PUSH2 0x195A JUMP JUMPDEST PUSH2 0x1C8A JUMPI PUSH1 0x40 MLOAD PUSH32 0x8C379A000000000000000000000000000000000000000000000000000000000 DUP2 MSTORE PUSH1 0x4 ADD PUSH2 0x1C81 SWAP1 PUSH2 0x2D75 JUMP JUMPDEST PUSH1 0x40 MLOAD DUP1 SWAP2 SUB SWAP1 REVERT JUMPDEST POP POP POP JUMP JUMPDEST PUSH1 0x0 DUP1 DUP3 PUSH20 0xFFFFFFFFFFFFFFFFFFFFFFFFFFFFFFFFFFFFFFFF AND EXTCODESIZE GT SWAP1 POP SWAP2 SWAP1 POP JUMP JUMPDEST PUSH1 0x0 PUSH20 0xFFFFFFFFFFFFFFFFFFFFFFFFFFFFFFFFFFFFFFFF AND DUP3 PUSH20 0xFFFFFFFFFFFFFFFFFFFFFFFFFFFFFFFFFFFFFFFF AND SUB PUSH2 0x1D21 JUMPI PUSH1 0x40 MLOAD PUSH32 0x8C379A000000000000000000000000000000000000000000000000000000000 DUP2 MSTORE PUSH1 0x4 ADD PUSH2 0x1D18 SWAP1 PUSH2 0x2FC8 JUMP JUMPDEST PUSH1 0x40 MLOAD DUP1 SWAP2 SUB SWAP1 REVERT JUMPDEST PUSH2 0x1D2A DUP2 PUSH2 0x17ED JUMP JUMPDEST ISZERO PUSH2 0x1D6A JUMPI PUSH1 0x40 MLOAD PUSH32 0x8C379A000000000000000000000000000000000000000000000000000000000 DUP2 MSTORE PUSH1 0x4 ADD PUSH2 0x1D61 SWAP1 PUSH2 0x3034 JUMP JUMPDEST PUSH1 0x40 MLOAD DUP1 SWAP2 SUB SWAP1 REVERT JUMPDEST PUSH2 0x1D78 PUSH1 0x0 DUP4 DUP4 PUSH1 0x1 PUSH2 0x182E JUMP JUMPDEST PUSH2 0x1D81 DUP2 PUSH2 0x17ED JUMP JUMPDEST ISZERO PUSH2 0x1DC1 JUMPI PUSH1 0x40 MLOAD PUSH32 0x8C379A000000000000000000000000000000000000000000000000000000000 DUP2 MSTORE PUSH1 0x4 ADD PUSH2 0x1DB8 SWAP1 PUSH2 0x3034 JUMP JUMPDEST PUSH1 0x40 MLOAD DUP1 SWAP2 SUB SWAP1 REVERT JUMPDEST PUSH1 0x1 PUSH1 0x3 PUSH1 0x0 DUP5 PUSH20 0xFFFFFFFFFFFFFFFFFFFFFFFFFFFFFFFFFFFFFFFF AND PUSH20 0xFFFFFFFFFFFFFFFFFFFFFFFFFFFFFFFFFFFFFFFF AND DUP2 MSTORE PUSH1 0x20 ADD SWAP1 DUP2 MSTORE PUSH1 0x20 ADD PUSH1 0x0 KECCAK256 PUSH1 0x0 DUP3 DUP3 SLOAD ADD SWAP3 POP POP DUP2 SWAP1 SSTORE POP DUP2 PUSH1 0x2 PUSH1 0x0 DUP4 DUP2 MSTORE PUSH1 0x20 ADD SWAP1 DUP2 MSTORE PUSH1 0x20 ADD PUSH1 0x0 KECCAK256 PUSH1 0x0 PUSH2 0x100 EXP DUP2 SLOAD DUP2 PUSH20 0xFFFFFFFFFFFFFFFFFFFFFFFFFFFFFFFFFFFFFFFF MUL NOT AND SWAP1 DUP4 PUSH20 0xFFFFFFFFFFFFFFFFFFFFFFFFFFFFFFFFFFFFFFFF AND MUL OR SWAP1 SSTORE POP DUP1 DUP3 PUSH20 0xFFFFFFFFFFFFFFFFFFFFFFFFFFFFFFFFFFFFFFFF AND PUSH1 0x0 PUSH20 0xFFFFFFFFFFFFFFFFFFFFFFFFFFFFFFFFFFFFFFFF AND PUSH32 0xDDF252AD1BE2C89B69C2B068FC378DAA952BA7F163C4A11628F55A4DF523B3EF PUSH1 0x40 MLOAD PUSH1 0x40 MLOAD DUP1 SWAP2 SUB SWAP1 LOG4 PUSH2 0x1ECB PUSH1 0x0 DUP4 DUP4 PUSH1 0x1 PUSH2 0x1954 JUMP JUMPDEST POP POP JUMP JUMPDEST PUSH1 0x0 PUSH1 0x40 MLOAD SWAP1 POP SWAP1 JUMP JUMPDEST PUSH1 0x0 DUP1 REVERT JUMPDEST PUSH1 0x0 DUP1 REVERT JUMPDEST PUSH1 0x0 PUSH32 0xFFFFFFFF00000000000000000000000000000000000000000000000000000000 DUP3 AND SWAP1 POP SWAP2 SWAP1 POP JUMP JUMPDEST PUSH2 0x1F18 DUP2 PUSH2 0x1EE3 JUMP JUMPDEST DUP2 EQ PUSH2 0x1F23 JUMPI PUSH1 0x0 DUP1 REVERT JUMPDEST POP JUMP JUMPDEST PUSH1 0x0 DUP2 CALLDATALOAD SWAP1 POP PUSH2 0x1F35 DUP2 PUSH2 0x1F0F JUMP JUMPDEST SWAP3 SWAP2 POP POP JUMP JUMPDEST PUSH1 0x0 PUSH1 0x20 DUP3 DUP5 SUB SLT ISZERO PUSH2 0x1F51 JUMPI PUSH2 0x1F50 PUSH2 0x1ED9 JUMP JUMPDEST JUMPDEST PUSH1 0x0 PUSH2 0x1F5F DUP5 DUP3 DUP6 ADD PUSH2 0x1F26 JUMP JUMPDEST SWAP2 POP POP SWAP3 SWAP2 POP POP JUMP JUMPDEST PUSH1 0x0 DUP2 ISZERO ISZERO SWAP1 POP SWAP2 SWAP1 POP JUMP JUMPDEST PUSH2 0x1F7D DUP2 PUSH2 0x1F68 JUMP JUMPDEST DUP3 MSTORE POP POP JUMP JUMPDEST PUSH1 0x0 PUSH1 0x20 DUP3 ADD SWAP1 POP PUSH2 0x1F98 PUSH1 0x0 DUP4 ADD DUP5 PUSH2 0x1F74 JUMP JUMPDEST SWAP3 SWAP2 POP POP JUMP JUMPDEST PUSH1 0x0 DUP2 MLOAD SWAP1 POP SWAP2 SWAP1 POP JUMP JUMPDEST PUSH1 0x0 DUP3 DUP3 MSTORE PUSH1 0x20 DUP3 ADD SWAP1 POP SWAP3 SWAP2 POP POP JUMP JUMPDEST PUSH1 0x0 JUMPDEST DUP4 DUP2 LT ISZERO PUSH2 0x1FD8 JUMPI DUP1 DUP3 ADD MLOAD DUP2 DUP5 ADD MSTORE PUSH1 0x20 DUP2 ADD SWAP1 POP PUSH2 0x1FBD JUMP JUMPDEST PUSH1 0x0 DUP5 DUP5 ADD MSTORE POP POP POP POP JUMP JUMPDEST PUSH1 0x0 PUSH1 0x1F NOT PUSH1 0x1F DUP4 ADD AND SWAP1 POP SWAP2 SWAP1 POP JUMP JUMPDEST PUSH1 0x0 PUSH2 0x2000 DUP3 PUSH2 0x1F9E JUMP JUMPDEST PUSH2 0x200A DUP2 DUP6 PUSH2 0x1FA9 JUMP JUMPDEST SWAP4 POP PUSH2 0x201A DUP2 DUP6 PUSH1 0x20 DUP7 ADD PUSH2 0x1FBA JUMP JUMPDEST PUSH2 0x2023 DUP2 PUSH2 0x1FE4 JUMP JUMPDEST DUP5 ADD SWAP2 POP POP SWAP3 SWAP2 POP POP JUMP JUMPDEST PUSH1 0x0 PUSH1 0x20 DUP3 ADD SWAP1 POP DUP2 DUP2 SUB PUSH1 0x0 DUP4 ADD MSTORE PUSH2 0x2048 DUP2 DUP5 PUSH2 0x1FF5 JUMP JUMPDEST SWAP1 POP SWAP3 SWAP2 POP POP JUMP JUMPDEST PUSH1 0x0 DUP2 SWAP1 POP SWAP2 SWAP1 POP JUMP JUMPDEST PUSH2 0x2063 DUP2 PUSH2 0x2050 JUMP JUMPDEST DUP2 EQ PUSH2 0x206E JUMPI PUSH1 0x0 DUP1 REVERT JUMPDEST POP JUMP JUMPDEST PUSH1 0x0 DUP2 CALLDATALOAD SWAP1 POP PUSH2 0x2080 DUP2 PUSH2 0x205A JUMP JUMPDEST SWAP3 SWAP2 POP POP JUMP JUMPDEST PUSH1 0x0 PUSH1 0x20 DUP3 DUP5 SUB SLT ISZERO PUSH2 0x209C JUMPI PUSH2 0x209B PUSH2 0x1ED9 JUMP JUMPDEST JUMPDEST PUSH1 0x0 PUSH2 0x20AA DUP5 DUP3 DUP6 ADD PUSH2 0x2071 JUMP JUMPDEST SWAP2 POP POP SWAP3 SWAP2 POP POP JUMP JUMPDEST PUSH1 0x0 PUSH20 0xFFFFFFFFFFFFFFFFFFFFFFFFFFFFFFFFFFFFFFFF DUP3 AND SWAP1 POP SWAP2 SWAP1 POP JUMP JUMPDEST PUSH1 0x0 PUSH2 0x20DE DUP3 PUSH2 0x20B3 JUMP JUMPDEST SWAP1 POP SWAP2 SWAP1 POP JUMP JUMPDEST PUSH2 0x20EE DUP2 PUSH2 0x20D3 JUMP JUMPDEST DUP3 MSTORE POP POP JUMP JUMPDEST PUSH1 0x0 PUSH1 0x20 DUP3 ADD SWAP1 POP PUSH2 0x2109 PUSH1 0x0 DUP4 ADD DUP5 PUSH2 0x20E5 JUMP JUMPDEST SWAP3 SWAP2 POP POP JUMP JUMPDEST PUSH2 0x2118 DUP2 PUSH2 0x20D3 JUMP JUMPDEST DUP2 EQ PUSH2 0x2123 JUMPI PUSH1 0x0 DUP1 REVERT JUMPDEST POP JUMP JUMPDEST PUSH1 0x0 DUP2 CALLDATALOAD SWAP1 POP PUSH2 0x2135 DUP2 PUSH2 0x210F JUMP JUMPDEST SWAP3 SWAP2 POP POP JUMP JUMPDEST PUSH1 0x0 DUP1 PUSH1 0x40 DUP4 DUP6 SUB SLT ISZERO PUSH2 0x2152 JUMPI PUSH2 0x2151 PUSH2 0x1ED9 JUMP JUMPDEST JUMPDEST PUSH1 0x0 PUSH2 0x2160 DUP6 DUP3 DUP7 ADD PUSH2 0x2126 JUMP JUMPDEST SWAP3 POP POP PUSH1 0x20 PUSH2 0x2171 DUP6 DUP3 DUP7 ADD PUSH2 0x2071 JUMP JUMPDEST SWAP2 POP POP SWAP3 POP SWAP3 SWAP1 POP JUMP JUMPDEST PUSH1 0x0 DUP1 PUSH1 0x0 PUSH1 0x60 DUP5 DUP7 SUB SLT ISZERO PUSH2 0x2194 JUMPI PUSH2 0x2193 PUSH2 0x1ED9 JUMP JUMPDEST JUMPDEST PUSH1 0x0 PUSH2 0x21A2 DUP7 DUP3 DUP8 ADD PUSH2 0x2126 JUMP JUMPDEST SWAP4 POP POP PUSH1 0x20 PUSH2 0x21B3 DUP7 DUP3 DUP8 ADD PUSH2 0x2126 JUMP JUMPDEST SWAP3 POP POP PUSH1 0x40 PUSH2 0x21C4 DUP7 DUP3 DUP8 ADD PUSH2 0x2071 JUMP JUMPDEST SWAP2 POP POP SWAP3 POP SWAP3 POP SWAP3 JUMP JUMPDEST PUSH1 0x0 PUSH1 0x20 DUP3 DUP5 SUB SLT ISZERO PUSH2 0x21E4 JUMPI PUSH2 0x21E3 PUSH2 0x1ED9 JUMP JUMPDEST JUMPDEST PUSH1 0x0 PUSH2 0x21F2 DUP5 DUP3 DUP6 ADD PUSH2 0x2126 JUMP JUMPDEST SWAP2 POP POP SWAP3 SWAP2 POP POP JUMP JUMPDEST PUSH2 0x2204 DUP2 PUSH2 0x2050 JUMP JUMPDEST DUP3 MSTORE POP POP JUMP JUMPDEST PUSH1 0x0 PUSH1 0x20 DUP3 ADD SWAP1 POP PUSH2 0x221F PUSH1 0x0 DUP4 ADD DUP5 PUSH2 0x21FB JUMP JUMPDEST SWAP3 SWAP2 POP POP JUMP JUMPDEST PUSH1 0x0 PUSH1 0xC0 DUP3 ADD SWAP1 POP PUSH2 0x223A PUSH1 0x0 DUP4 ADD DUP10 PUSH2 0x21FB JUMP JUMPDEST DUP2 DUP2 SUB PUSH1 0x20 DUP4 ADD MSTORE PUSH2 0x224C DUP2 DUP9 PUSH2 0x1FF5 JUMP JUMPDEST SWAP1 POP DUP2 DUP2 SUB PUSH1 0x40 DUP4 ADD MSTORE PUSH2 0x2260 DUP2 DUP8 PUSH2 0x1FF5 JUMP JUMPDEST SWAP1 POP PUSH2 0x226F PUSH1 0x60 DUP4 ADD DUP7 PUSH2 0x21FB JUMP JUMPDEST PUSH2 0x227C PUSH1 0x80 DUP4 ADD DUP6 PUSH2 0x21FB JUMP JUMPDEST PUSH2 0x2289 PUSH1 0xA0 DUP4 ADD DUP5 PUSH2 0x21FB JUMP JUMPDEST SWAP8 SWAP7 POP POP POP POP POP POP POP JUMP JUMPDEST PUSH2 0x229D DUP2 PUSH2 0x1F68 JUMP JUMPDEST DUP2 EQ PUSH2 0x22A8 JUMPI PUSH1 0x0 DUP1 REVERT JUMPDEST POP JUMP JUMPDEST PUSH1 0x0 DUP2 CALLDATALOAD SWAP1 POP PUSH2 0x22BA DUP2 PUSH2 0x2294 JUMP JUMPDEST SWAP3 SWAP2 POP POP JUMP JUMPDEST PUSH1 0x0 DUP1 PUSH1 0x40 DUP4 DUP6 SUB SLT ISZERO PUSH2 0x22D7 JUMPI PUSH2 0x22D6 PUSH2 0x1ED9 JUMP JUMPDEST JUMPDEST PUSH1 0x0 PUSH2 0x22E5 DUP6 DUP3 DUP7 ADD PUSH2 0x2126 JUMP JUMPDEST SWAP3 POP POP PUSH1 0x20 PUSH2 0x22F6 DUP6 DUP3 DUP7 ADD PUSH2 0x22AB JUMP JUMPDEST SWAP2 POP POP SWAP3 POP SWAP3 SWAP1 POP JUMP JUMPDEST PUSH1 0x0 DUP1 REVERT JUMPDEST PUSH1 0x0 DUP1 REVERT JUMPDEST PUSH32 0x4E487B7100000000000000000000000000000000000000000000000000000000 PUSH1 0x0 MSTORE PUSH1 0x41 PUSH1 0x4 MSTORE PUSH1 0x24 PUSH1 0x0 REVERT JUMPDEST PUSH2 0x2342 DUP3 PUSH2 0x1FE4 JUMP JUMPDEST DUP2 ADD DUP2 DUP2 LT PUSH8 0xFFFFFFFFFFFFFFFF DUP3 GT OR ISZERO PUSH2 0x2361 JUMPI PUSH2 0x2360 PUSH2 0x230A JUMP JUMPDEST JUMPDEST DUP1 PUSH1 0x40 MSTORE POP POP POP JUMP JUMPDEST PUSH1 0x0 PUSH2 0x2374 PUSH2 0x1ECF JUMP JUMPDEST SWAP1 POP PUSH2 0x2380 DUP3 DUP3 PUSH2 0x2339 JUMP JUMPDEST SWAP2 SWAP1 POP JUMP JUMPDEST PUSH1 0x0 PUSH8 0xFFFFFFFFFFFFFFFF DUP3 GT ISZERO PUSH2 0x23A0 JUMPI PUSH2 0x239F PUSH2 0x230A JUMP JUMPDEST JUMPDEST PUSH2 0x23A9 DUP3 PUSH2 0x1FE4 JUMP JUMPDEST SWAP1 POP PUSH1 0x20 DUP2 ADD SWAP1 POP SWAP2 SWAP1 POP JUMP JUMPDEST DUP3 DUP2 DUP4 CALLDATACOPY PUSH1 0x0 DUP4 DUP4 ADD MSTORE POP POP POP JUMP JUMPDEST PUSH1 0x0 PUSH2 0x23D8 PUSH2 0x23D3 DUP5 PUSH2 0x2385 JUMP JUMPDEST PUSH2 0x236A JUMP JUMPDEST SWAP1 POP DUP3 DUP2 MSTORE PUSH1 0x20 DUP2 ADD DUP5 DUP5 DUP5 ADD GT ISZERO PUSH2 0x23F4 JUMPI PUSH2 0x23F3 PUSH2 0x2305 JUMP JUMPDEST JUMPDEST PUSH2 0x23FF DUP5 DUP3 DUP6 PUSH2 0x23B6 JUMP JUMPDEST POP SWAP4 SWAP3 POP POP POP JUMP JUMPDEST PUSH1 0x0 DUP3 PUSH1 0x1F DUP4 ADD SLT PUSH2 0x241C JUMPI PUSH2 0x241B PUSH2 0x2300 JUMP JUMPDEST JUMPDEST DUP2 CALLDATALOAD PUSH2 0x242C DUP5 DUP3 PUSH1 0x20 DUP7 ADD PUSH2 0x23C5 JUMP JUMPDEST SWAP2 POP POP SWAP3 SWAP2 POP POP JUMP JUMPDEST PUSH1 0x0 DUP1 PUSH1 0x0 DUP1 PUSH1 0x80 DUP6 DUP8 SUB SLT ISZERO PUSH2 0x244F JUMPI PUSH2 0x244E PUSH2 0x1ED9 JUMP JUMPDEST JUMPDEST PUSH1 0x0 PUSH2 0x245D DUP8 DUP3 DUP9 ADD PUSH2 0x2126 JUMP JUMPDEST SWAP5 POP POP PUSH1 0x20 PUSH2 0x246E DUP8 DUP3 DUP9 ADD PUSH2 0x2126 JUMP JUMPDEST SWAP4 POP POP PUSH1 0x40 PUSH2 0x247F DUP8 DUP3 DUP9 ADD PUSH2 0x2071 JUMP JUMPDEST SWAP3 POP POP PUSH1 0x60 DUP6 ADD CALLDATALOAD PUSH8 0xFFFFFFFFFFFFFFFF DUP2 GT ISZERO PUSH2 0x24A0 JUMPI PUSH2 0x249F PUSH2 0x1EDE JUMP JUMPDEST JUMPDEST PUSH2 0x24AC DUP8 DUP3 DUP9 ADD PUSH2 0x2407 JUMP JUMPDEST SWAP2 POP POP SWAP3 SWAP6 SWAP2 SWAP5 POP SWAP3 POP JUMP JUMPDEST PUSH1 0x0 DUP1 PUSH1 0x40 DUP4 DUP6 SUB SLT ISZERO PUSH2 0x24CF JUMPI PUSH2 0x24CE PUSH2 0x1ED9 JUMP JUMPDEST JUMPDEST PUSH1 0x0 PUSH2 0x24DD DUP6 DUP3 DUP7 ADD PUSH2 0x2126 JUMP JUMPDEST SWAP3 POP POP PUSH1 0x20 PUSH2 0x24EE DUP6 DUP3 DUP7 ADD PUSH2 0x2126 JUMP JUMPDEST SWAP2 POP POP SWAP3 POP SWAP3 SWAP1 POP JUMP JUMPDEST PUSH32 0x4E487B7100000000000000000000000000000000000000000000000000000000 PUSH1 0x0 MSTORE PUSH1 0x22 PUSH1 0x4 MSTORE PUSH1 0x24 PUSH1 0x0 REVERT JUMPDEST PUSH1 0x0 PUSH1 0x2 DUP3 DIV SWAP1 POP PUSH1 0x1 DUP3 AND DUP1 PUSH2 0x253F JUMPI PUSH1 0x7F DUP3 AND SWAP2 POP JUMPDEST PUSH1 0x20 DUP3 LT DUP2 SUB PUSH2 0x2552 JUMPI PUSH2 0x2551 PUSH2 0x24F8 JUMP JUMPDEST JUMPDEST POP SWAP2 SWAP1 POP JUMP JUMPDEST PUSH32 0x4552433732313A20617070726F76616C20746F2063757272656E74206F776E65 PUSH1 0x0 DUP3 ADD MSTORE PUSH32 0x7200000000000000000000000000000000000000000000000000000000000000 PUSH1 0x20 DUP3 ADD MSTORE POP JUMP JUMPDEST PUSH1 0x0 PUSH2 0x25B4 PUSH1 0x21 DUP4 PUSH2 0x1FA9 JUMP JUMPDEST SWAP2 POP PUSH2 0x25BF DUP3 PUSH2 0x2558 JUMP JUMPDEST PUSH1 0x40 DUP3 ADD SWAP1 POP SWAP2 SWAP1 POP JUMP JUMPDEST PUSH1 0x0 PUSH1 0x20 DUP3 ADD SWAP1 POP DUP2 DUP2 SUB PUSH1 0x0 DUP4 ADD MSTORE PUSH2 0x25E3 DUP2 PUSH2 0x25A7 JUMP JUMPDEST SWAP1 POP SWAP2 SWAP1 POP JUMP JUMPDEST PUSH32 0x4552433732313A20617070726F76652063616C6C6572206973206E6F7420746F PUSH1 0x0 DUP3 ADD MSTORE PUSH32 0x6B656E206F776E6572206F7220617070726F76656420666F7220616C6C000000 PUSH1 0x20 DUP3 ADD MSTORE POP JUMP JUMPDEST PUSH1 0x0 PUSH2 0x2646 PUSH1 0x3D DUP4 PUSH2 0x1FA9 JUMP JUMPDEST SWAP2 POP PUSH2 0x2651 DUP3 PUSH2 0x25EA JUMP JUMPDEST PUSH1 0x40 DUP3 ADD SWAP1 POP SWAP2 SWAP1 POP JUMP JUMPDEST PUSH1 0x0 PUSH1 0x20 DUP3 ADD SWAP1 POP DUP2 DUP2 SUB PUSH1 0x0 DUP4 ADD MSTORE PUSH2 0x2675 DUP2 PUSH2 0x2639 JUMP JUMPDEST SWAP1 POP SWAP2 SWAP1 POP JUMP JUMPDEST PUSH32 0x4552433732313A2063616C6C6572206973206E6F7420746F6B656E206F776E65 PUSH1 0x0 DUP3 ADD MSTORE PUSH32 0x72206F7220617070726F76656400000000000000000000000000000000000000 PUSH1 0x20 DUP3 ADD MSTORE POP JUMP JUMPDEST PUSH1 0x0 PUSH2 0x26D8 PUSH1 0x2D DUP4 PUSH2 0x1FA9 JUMP JUMPDEST SWAP2 POP PUSH2 0x26E3 DUP3 PUSH2 0x267C JUMP JUMPDEST PUSH1 0x40 DUP3 ADD SWAP1 POP SWAP2 SWAP1 POP JUMP JUMPDEST PUSH1 0x0 PUSH1 0x20 DUP3 ADD SWAP1 POP DUP2 DUP2 SUB PUSH1 0x0 DUP4 ADD MSTORE PUSH2 0x2707 DUP2 PUSH2 0x26CB JUMP JUMPDEST SWAP1 POP SWAP2 SWAP1 POP JUMP JUMPDEST PUSH32 0x4552433732313A20696E76616C696420746F6B656E2049440000000000000000 PUSH1 0x0 DUP3 ADD MSTORE POP JUMP JUMPDEST PUSH1 0x0 PUSH2 0x2744 PUSH1 0x18 DUP4 PUSH2 0x1FA9 JUMP JUMPDEST SWAP2 POP PUSH2 0x274F DUP3 PUSH2 0x270E JUMP JUMPDEST PUSH1 0x20 DUP3 ADD SWAP1 POP SWAP2 SWAP1 POP JUMP JUMPDEST PUSH1 0x0 PUSH1 0x20 DUP3 ADD SWAP1 POP DUP2 DUP2 SUB PUSH1 0x0 DUP4 ADD MSTORE PUSH2 0x2773 DUP2 PUSH2 0x2737 JUMP JUMPDEST SWAP1 POP SWAP2 SWAP1 POP JUMP JUMPDEST PUSH32 0x4552433732313A2061646472657373207A65726F206973206E6F742061207661 PUSH1 0x0 DUP3 ADD MSTORE PUSH32 0x6C6964206F776E65720000000000000000000000000000000000000000000000 PUSH1 0x20 DUP3 ADD MSTORE POP JUMP JUMPDEST PUSH1 0x0 PUSH2 0x27D6 PUSH1 0x29 DUP4 PUSH2 0x1FA9 JUMP JUMPDEST SWAP2 POP PUSH2 0x27E1 DUP3 PUSH2 0x277A JUMP JUMPDEST PUSH1 0x40 DUP3 ADD SWAP1 POP SWAP2 SWAP1 POP JUMP JUMPDEST PUSH1 0x0 PUSH1 0x20 DUP3 ADD SWAP1 POP DUP2 DUP2 SUB PUSH1 0x0 DUP4 ADD MSTORE PUSH2 0x2805 DUP2 PUSH2 0x27C9 JUMP JUMPDEST SWAP1 POP SWAP2 SWAP1 POP JUMP JUMPDEST PUSH1 0x0 DUP2 SWAP1 POP SWAP3 SWAP2 POP POP JUMP JUMPDEST PUSH1 0x0 PUSH2 0x2822 DUP3 PUSH2 0x1F9E JUMP JUMPDEST PUSH2 0x282C DUP2 DUP6 PUSH2 0x280C JUMP JUMPDEST SWAP4 POP PUSH2 0x283C DUP2 DUP6 PUSH1 0x20 DUP7 ADD PUSH2 0x1FBA JUMP JUMPDEST DUP1 DUP5 ADD SWAP2 POP POP SWAP3 SWAP2 POP POP JUMP JUMPDEST PUSH1 0x0 PUSH2 0x2854 DUP3 DUP6 PUSH2 0x2817 JUMP JUMPDEST SWAP2 POP PUSH2 0x2860 DUP3 DUP5 PUSH2 0x2817 JUMP JUMPDEST SWAP2 POP DUP2 SWAP1 POP SWAP4 SWAP3 POP POP POP JUMP JUMPDEST PUSH32 0x4E487B7100000000000000000000000000000000000000000000000000000000 PUSH1 0x0 MSTORE PUSH1 0x32 PUSH1 0x4 MSTORE PUSH1 0x24 PUSH1 0x0 REVERT JUMPDEST PUSH1 0x0 DUP2 SWAP1 POP DUP2 PUSH1 0x0 MSTORE PUSH1 0x20 PUSH1 0x0 KECCAK256 SWAP1 POP SWAP2 SWAP1 POP JUMP JUMPDEST PUSH1 0x0 PUSH1 0x20 PUSH1 0x1F DUP4 ADD DIV SWAP1 POP SWAP2 SWAP1 POP JUMP JUMPDEST PUSH1 0x0 DUP3 DUP3 SHL SWAP1 POP SWAP3 SWAP2 POP POP JUMP JUMPDEST PUSH1 0x0 PUSH1 0x8 DUP4 MUL PUSH2 0x28FD PUSH32 0xFFFFFFFFFFFFFFFFFFFFFFFFFFFFFFFFFFFFFFFFFFFFFFFFFFFFFFFFFFFFFFFF DUP3 PUSH2 0x28C0 JUMP JUMPDEST PUSH2 0x2907 DUP7 DUP4 PUSH2 0x28C0 JUMP JUMPDEST SWAP6 POP DUP1 NOT DUP5 AND SWAP4 POP DUP1 DUP7 AND DUP5 OR SWAP3 POP POP POP SWAP4 SWAP3 POP POP POP JUMP JUMPDEST PUSH1 0x0 DUP2 SWAP1 POP SWAP2 SWAP1 POP JUMP JUMPDEST PUSH1 0x0 PUSH2 0x2944 PUSH2 0x293F PUSH2 0x293A DUP5 PUSH2 0x2050 JUMP JUMPDEST PUSH2 0x291F JUMP JUMPDEST PUSH2 0x2050 JUMP JUMPDEST SWAP1 POP SWAP2 SWAP1 POP JUMP JUMPDEST PUSH1 0x0 DUP2 SWAP1 POP SWAP2 SWAP1 POP JUMP JUMPDEST PUSH2 0x295E DUP4 PUSH2 0x2929 JUMP JUMPDEST PUSH2 0x2972 PUSH2 0x296A DUP3 PUSH2 0x294B JUMP JUMPDEST DUP5 DUP5 SLOAD PUSH2 0x28CD JUMP JUMPDEST DUP3 SSTORE POP POP POP POP JUMP JUMPDEST PUSH1 0x0 SWAP1 JUMP JUMPDEST PUSH2 0x2987 PUSH2 0x297A JUMP JUMPDEST PUSH2 0x2992 DUP2 DUP5 DUP5 PUSH2 0x2955 JUMP JUMPDEST POP POP POP JUMP JUMPDEST JUMPDEST DUP2 DUP2 LT ISZERO PUSH2 0x29B6 JUMPI PUSH2 0x29AB PUSH1 0x0 DUP3 PUSH2 0x297F JUMP JUMPDEST PUSH1 0x1 DUP2 ADD SWAP1 POP PUSH2 0x2998 JUMP JUMPDEST POP POP JUMP JUMPDEST PUSH1 0x1F DUP3 GT ISZERO PUSH2 0x29FB JUMPI PUSH2 0x29CC DUP2 PUSH2 0x289B JUMP JUMPDEST PUSH2 0x29D5 DUP5 PUSH2 0x28B0 JUMP JUMPDEST DUP2 ADD PUSH1 0x20 DUP6 LT ISZERO PUSH2 0x29E4 JUMPI DUP2 SWAP1 POP JUMPDEST PUSH2 0x29F8 PUSH2 0x29F0 DUP6 PUSH2 0x28B0 JUMP JUMPDEST DUP4 ADD DUP3 PUSH2 0x2997 JUMP JUMPDEST POP POP JUMPDEST POP POP POP JUMP JUMPDEST PUSH1 0x0 DUP3 DUP3 SHR SWAP1 POP SWAP3 SWAP2 POP POP JUMP JUMPDEST PUSH1 0x0 PUSH2 0x2A1E PUSH1 0x0 NOT DUP5 PUSH1 0x8 MUL PUSH2 0x2A00 JUMP JUMPDEST NOT DUP1 DUP4 AND SWAP2 POP POP SWAP3 SWAP2 POP POP JUMP JUMPDEST PUSH1 0x0 PUSH2 0x2A37 DUP4 DUP4 PUSH2 0x2A0D JUMP JUMPDEST SWAP2 POP DUP3 PUSH1 0x2 MUL DUP3 OR SWAP1 POP SWAP3 SWAP2 POP POP JUMP JUMPDEST PUSH2 0x2A50 DUP3 PUSH2 0x1F9E JUMP JUMPDEST PUSH8 0xFFFFFFFFFFFFFFFF DUP2 GT ISZERO PUSH2 0x2A69 JUMPI PUSH2 0x2A68 PUSH2 0x230A JUMP JUMPDEST JUMPDEST PUSH2 0x2A73 DUP3 SLOAD PUSH2 0x2527 JUMP JUMPDEST PUSH2 0x2A7E DUP3 DUP3 DUP6 PUSH2 0x29BA JUMP JUMPDEST PUSH1 0x0 PUSH1 0x20 SWAP1 POP PUSH1 0x1F DUP4 GT PUSH1 0x1 DUP2 EQ PUSH2 0x2AB1 JUMPI PUSH1 0x0 DUP5 ISZERO PUSH2 0x2A9F JUMPI DUP3 DUP8 ADD MLOAD SWAP1 POP JUMPDEST PUSH2 0x2AA9 DUP6 DUP3 PUSH2 0x2A2B JUMP JUMPDEST DUP7 SSTORE POP PUSH2 0x2B11 JUMP JUMPDEST PUSH1 0x1F NOT DUP5 AND PUSH2 0x2ABF DUP7 PUSH2 0x289B JUMP JUMPDEST PUSH1 0x0 JUMPDEST DUP3 DUP2 LT ISZERO PUSH2 0x2AE7 JUMPI DUP5 DUP10 ADD MLOAD DUP3 SSTORE PUSH1 0x1 DUP3 ADD SWAP2 POP PUSH1 0x20 DUP6 ADD SWAP5 POP PUSH1 0x20 DUP2 ADD SWAP1 POP PUSH2 0x2AC2 JUMP JUMPDEST DUP7 DUP4 LT ISZERO PUSH2 0x2B04 JUMPI DUP5 DUP10 ADD MLOAD PUSH2 0x2B00 PUSH1 0x1F DUP10 AND DUP3 PUSH2 0x2A0D JUMP JUMPDEST DUP4 SSTORE POP JUMPDEST PUSH1 0x1 PUSH1 0x2 DUP9 MUL ADD DUP9 SSTORE POP POP POP JUMPDEST POP POP POP POP POP POP JUMP JUMPDEST PUSH1 0x0 PUSH1 0x80 DUP3 ADD SWAP1 POP DUP2 DUP2 SUB PUSH1 0x0 DUP4 ADD MSTORE PUSH2 0x2B33 DUP2 DUP8 PUSH2 0x1FF5 JUMP JUMPDEST SWAP1 POP DUP2 DUP2 SUB PUSH1 0x20 DUP4 ADD MSTORE PUSH2 0x2B47 DUP2 DUP7 PUSH2 0x1FF5 JUMP JUMPDEST SWAP1 POP PUSH2 0x2B56 PUSH1 0x40 DUP4 ADD DUP6 PUSH2 0x21FB JUMP JUMPDEST DUP2 DUP2 SUB PUSH1 0x60 DUP4 ADD MSTORE PUSH2 0x2B68 DUP2 DUP5 PUSH2 0x1FF5 JUMP JUMPDEST SWAP1 POP SWAP6 SWAP5 POP POP POP POP POP JUMP JUMPDEST PUSH32 0x4552433732313A207472616E736665722066726F6D20696E636F727265637420 PUSH1 0x0 DUP3 ADD MSTORE PUSH32 0x6F776E6572000000000000000000000000000000000000000000000000000000 PUSH1 0x20 DUP3 ADD MSTORE POP JUMP JUMPDEST PUSH1 0x0 PUSH2 0x2BCF PUSH1 0x25 DUP4 PUSH2 0x1FA9 JUMP JUMPDEST SWAP2 POP PUSH2 0x2BDA DUP3 PUSH2 0x2B73 JUMP JUMPDEST PUSH1 0x40 DUP3 ADD SWAP1 POP SWAP2 SWAP1 POP JUMP JUMPDEST PUSH1 0x0 PUSH1 0x20 DUP3 ADD SWAP1 POP DUP2 DUP2 SUB PUSH1 0x0 DUP4 ADD MSTORE PUSH2 0x2BFE DUP2 PUSH2 0x2BC2 JUMP JUMPDEST SWAP1 POP SWAP2 SWAP1 POP JUMP JUMPDEST PUSH32 0x4552433732313A207472616E7366657220746F20746865207A65726F20616464 PUSH1 0x0 DUP3 ADD MSTORE PUSH32 0x7265737300000000000000000000000000000000000000000000000000000000 PUSH1 0x20 DUP3 ADD MSTORE POP JUMP JUMPDEST PUSH1 0x0 PUSH2 0x2C61 PUSH1 0x24 DUP4 PUSH2 0x1FA9 JUMP JUMPDEST SWAP2 POP PUSH2 0x2C6C DUP3 PUSH2 0x2C05 JUMP JUMPDEST PUSH1 0x40 DUP3 ADD SWAP1 POP SWAP2 SWAP1 POP JUMP JUMPDEST PUSH1 0x0 PUSH1 0x20 DUP3 ADD SWAP1 POP DUP2 DUP2 SUB PUSH1 0x0 DUP4 ADD MSTORE PUSH2 0x2C90 DUP2 PUSH2 0x2C54 JUMP JUMPDEST SWAP1 POP SWAP2 SWAP1 POP JUMP JUMPDEST PUSH32 0x4552433732313A20617070726F766520746F2063616C6C657200000000000000 PUSH1 0x0 DUP3 ADD MSTORE POP JUMP JUMPDEST PUSH1 0x0 PUSH2 0x2CCD PUSH1 0x19 DUP4 PUSH2 0x1FA9 JUMP JUMPDEST SWAP2 POP PUSH2 0x2CD8 DUP3 PUSH2 0x2C97 JUMP JUMPDEST PUSH1 0x20 DUP3 ADD SWAP1 POP SWAP2 SWAP1 POP JUMP JUMPDEST PUSH1 0x0 PUSH1 0x20 DUP3 ADD SWAP1 POP DUP2 DUP2 SUB PUSH1 0x0 DUP4 ADD MSTORE PUSH2 0x2CFC DUP2 PUSH2 0x2CC0 JUMP JUMPDEST SWAP1 POP SWAP2 SWAP1 POP JUMP JUMPDEST PUSH32 0x4552433732313A207472616E7366657220746F206E6F6E204552433732315265 PUSH1 0x0 DUP3 ADD MSTORE PUSH32 0x63656976657220696D706C656D656E7465720000000000000000000000000000 PUSH1 0x20 DUP3 ADD MSTORE POP JUMP JUMPDEST PUSH1 0x0 PUSH2 0x2D5F PUSH1 0x32 DUP4 PUSH2 0x1FA9 JUMP JUMPDEST SWAP2 POP PUSH2 0x2D6A DUP3 PUSH2 0x2D03 JUMP JUMPDEST PUSH1 0x40 DUP3 ADD SWAP1 POP SWAP2 SWAP1 POP JUMP JUMPDEST PUSH1 0x0 PUSH1 0x20 DUP3 ADD SWAP1 POP DUP2 DUP2 SUB PUSH1 0x0 DUP4 ADD MSTORE PUSH2 0x2D8E DUP2 PUSH2 0x2D52 JUMP JUMPDEST SWAP1 POP SWAP2 SWAP1 POP JUMP JUMPDEST PUSH32 0x4E487B7100000000000000000000000000000000000000000000000000000000 PUSH1 0x0 MSTORE PUSH1 0x12 PUSH1 0x4 MSTORE PUSH1 0x24 PUSH1 0x0 REVERT JUMPDEST PUSH1 0x0 PUSH1 0x60 DUP3 ADD SWAP1 POP DUP2 DUP2 SUB PUSH1 0x0 DUP4 ADD MSTORE PUSH2 0x2DDE DUP2 DUP7 PUSH2 0x1FF5 JUMP JUMPDEST SWAP1 POP PUSH2 0x2DED PUSH1 0x20 DUP4 ADD DUP6 PUSH2 0x21FB JUMP JUMPDEST PUSH2 0x2DFA PUSH1 0x40 DUP4 ADD DUP5 PUSH2 0x21FB JUMP JUMPDEST SWAP5 SWAP4 POP POP POP POP JUMP JUMPDEST PUSH32 0x4E487B7100000000000000000000000000000000000000000000000000000000 PUSH1 0x0 MSTORE PUSH1 0x11 PUSH1 0x4 MSTORE PUSH1 0x24 PUSH1 0x0 REVERT JUMPDEST PUSH1 0x0 PUSH2 0x2E3C DUP3 PUSH2 0x2050 JUMP JUMPDEST SWAP2 POP PUSH2 0x2E47 DUP4 PUSH2 0x2050 JUMP JUMPDEST SWAP3 POP DUP3 DUP3 SUB SWAP1 POP DUP2 DUP2 GT ISZERO PUSH2 0x2E5F JUMPI PUSH2 0x2E5E PUSH2 0x2E02 JUMP JUMPDEST JUMPDEST SWAP3 SWAP2 POP POP JUMP JUMPDEST PUSH1 0x0 PUSH2 0x2E70 DUP3 PUSH2 0x2050 JUMP JUMPDEST SWAP2 POP PUSH2 0x2E7B DUP4 PUSH2 0x2050 JUMP JUMPDEST SWAP3 POP DUP3 DUP3 ADD SWAP1 POP DUP1 DUP3 GT ISZERO PUSH2 0x2E93 JUMPI PUSH2 0x2E92 PUSH2 0x2E02 JUMP JUMPDEST JUMPDEST SWAP3 SWAP2 POP POP JUMP JUMPDEST PUSH1 0x0 DUP2 MLOAD SWAP1 POP SWAP2 SWAP1 POP JUMP JUMPDEST PUSH1 0x0 DUP3 DUP3 MSTORE PUSH1 0x20 DUP3 ADD SWAP1 POP SWAP3 SWAP2 POP POP JUMP JUMPDEST PUSH1 0x0 PUSH2 0x2EC0 DUP3 PUSH2 0x2E99 JUMP JUMPDEST PUSH2 0x2ECA DUP2 DUP6 PUSH2 0x2EA4 JUMP JUMPDEST SWAP4 POP PUSH2 0x2EDA DUP2 DUP6 PUSH1 0x20 DUP7 ADD PUSH2 0x1FBA JUMP JUMPDEST PUSH2 0x2EE3 DUP2 PUSH2 0x1FE4 JUMP JUMPDEST DUP5 ADD SWAP2 POP POP SWAP3 SWAP2 POP POP JUMP JUMPDEST PUSH1 0x0 PUSH1 0x80 DUP3 ADD SWAP1 POP PUSH2 0x2F03 PUSH1 0x0 DUP4 ADD DUP8 PUSH2 0x20E5 JUMP JUMPDEST PUSH2 0x2F10 PUSH1 0x20 DUP4 ADD DUP7 PUSH2 0x20E5 JUMP JUMPDEST PUSH2 0x2F1D PUSH1 0x40 DUP4 ADD DUP6 PUSH2 0x21FB JUMP JUMPDEST DUP2 DUP2 SUB PUSH1 0x60 DUP4 ADD MSTORE PUSH2 0x2F2F DUP2 DUP5 PUSH2 0x2EB5 JUMP JUMPDEST SWAP1 POP SWAP6 SWAP5 POP POP POP POP POP JUMP JUMPDEST PUSH1 0x0 DUP2 MLOAD SWAP1 POP PUSH2 0x2F49 DUP2 PUSH2 0x1F0F JUMP JUMPDEST SWAP3 SWAP2 POP POP JUMP JUMPDEST PUSH1 0x0 PUSH1 0x20 DUP3 DUP5 SUB SLT ISZERO PUSH2 0x2F65 JUMPI PUSH2 0x2F64 PUSH2 0x1ED9 JUMP JUMPDEST JUMPDEST PUSH1 0x0 PUSH2 0x2F73 DUP5 DUP3 DUP6 ADD PUSH2 0x2F3A JUMP JUMPDEST SWAP2 POP POP SWAP3 SWAP2 POP POP JUMP JUMPDEST PUSH32 0x4552433732313A206D696E7420746F20746865207A65726F2061646472657373 PUSH1 0x0 DUP3 ADD MSTORE POP JUMP JUMPDEST PUSH1 0x0 PUSH2 0x2FB2 PUSH1 0x20 DUP4 PUSH2 0x1FA9 JUMP JUMPDEST SWAP2 POP PUSH2 0x2FBD DUP3 PUSH2 0x2F7C JUMP JUMPDEST PUSH1 0x20 DUP3 ADD SWAP1 POP SWAP2 SWAP1 POP JUMP JUMPDEST PUSH1 0x0 PUSH1 0x20 DUP3 ADD SWAP1 POP DUP2 DUP2 SUB PUSH1 0x0 DUP4 ADD MSTORE PUSH2 0x2FE1 DUP2 PUSH2 0x2FA5 JUMP JUMPDEST SWAP1 POP SWAP2 SWAP1 POP JUMP JUMPDEST PUSH32 0x4552433732313A20746F6B656E20616C7265616479206D696E74656400000000 PUSH1 0x0 DUP3 ADD MSTORE POP JUMP JUMPDEST PUSH1 0x0 PUSH2 0x301E PUSH1 0x1C DUP4 PUSH2 0x1FA9 JUMP JUMPDEST SWAP2 POP PUSH2 0x3029 DUP3 PUSH2 0x2FE8 JUMP JUMPDEST PUSH1 0x20 DUP3 ADD SWAP1 POP SWAP2 SWAP1 POP JUMP JUMPDEST PUSH1 0x0 PUSH1 0x20 DUP3 ADD SWAP1 POP DUP2 DUP2 SUB PUSH1 0x0 DUP4 ADD MSTORE PUSH2 0x304D DUP2 PUSH2 0x3011 JUMP JUMPDEST SWAP1 POP SWAP2 SWAP1 POP JUMP INVALID 0x4D PUSH10 0x6E746564204E46542077 0x2F KECCAK256 PUSH21 0x6F6B656E496420257320616E642063686172616374 PUSH6 0x72496E646578 KECCAK256 0x25 PUSH20 0xA26469706673582212200FBFD159F51D31B4947F CALLVALUE DUP7 0xED PUSH6 0xD22278186F70 GASPRICE 0xB7 0xA5 0xDA 0xD7 0xC1 0xC3 KECCAK256 0xCF SHL DUP11 0xFC PUSH5 0x736F6C6343 STOP ADDMOD GT STOP CALLER DIFFICULTY PUSH16 0x6E6520696E697469616C697A696E6720 0x25 PUSH20 0x20772F2048502025732C20696D67202573000000 "},"methodIdentifiers":{"approve(address,uint256)":"095ea7b3","balanceOf(address)":"70a08231","getApproved(uint256)":"081812fc","isApprovedForAll(address,address)":"e985e9c5","mintCharacterNFT(uint256)":"f8b81ef7","name()":"06fdde03","nftHolderAttributes(uint256)":"98da4c95","nftHolders(address)":"7df124a1","ownerOf(uint256)":"6352211e","safeTransferFrom(address,address,uint256)":"42842e0e","safeTransferFrom(address,address,uint256,bytes)":"b88d4fde","setApprovalForAll(address,bool)":"a22cb465","supportsInterface(bytes4)":"01ffc9a7","symbol()":"95d89b41","tokenURI(uint256)":"c87b56dd","transferFrom(address,address,uint256)":"23b872dd"}}}}}