{"contracts/MyEpicGame.sol":{"MyEpicGame":{"abi":[{"inputs":[{"internalType":"string[]","name":"characterNames","type":"string[]"},{"internalType":"string[]","name":"characterImageURIs","type":"string[]"},{"internalType":"uint256[]","name":"characterHp","type":"uint256[]"},{"internalType":"uint256[]","name":"characterAttackDmg","type":"uint256[]"}],"stateMutability":"nonpayable","type":"constructor"},{"anonymous":false,"inputs":[{"indexed":true,"internalType":"address","name":"owner","type":"address"},{"indexed":true,"internalType":"address","name":"approved","type":"address"},{"indexed":true,"internalType":"uint256","name":"tokenId","type":"uint256"}],"name":"Approval","type":"event"},{"anonymous":false,"inputs":[{"indexed":true,"internalType":"address","name":"owner","type":"address"},{"indexed":true,"internalType":"address","name":"operator","type":"address"},{"indexed":false,"internalType":"bool","name":"approved","type":"bool"}],"name":"ApprovalForAll","type":"event"},{"anonymous":false,"inputs":[{"indexed":true,"internalType":"address","name":"from","type":"address"},{"indexed":true,"internalType":"address","name":"to","type":"address"},{"indexed":true,"internalType":"uint256","name":"tokenId","type":"uint256"}],"name":"Transfer","type":"event"},{"inputs":[{"internalType":"address","name":"to","type":"address"},{"internalType":"uint256","name":"tokenId","type":"uint256"}],"name":"approve","outputs":[],"stateMutability":"nonpayable","type":"function"},{"inputs":[{"internalType":"address","name":"owner","type":"address"}],"name":"balanceOf","outputs":[{"internalType":"uint256","name":"","type":"uint256"}],"stateMutability":"view","type":"function"},{"inputs":[{"internalType":"uint256","name":"tokenId","type":"uint256"}],"name":"getApproved","outputs":[{"internalType":"address","name":"","type":"address"}],"stateMutability":"view","type":"function"},{"inputs":[{"internalType":"address","name":"owner","type":"address"},{"internalType":"address","name":"operator","type":"address"}],"name":"isApprovedForAll","outputs":[{"internalType":"bool","name":"","type":"bool"}],"stateMutability":"view","type":"function"},{"inputs":[{"internalType":"uint256","name":"_characterIndex","type":"uint256"}],"name":"mintCharacterNFT","outputs":[],"stateMutability":"nonpayable","type":"function"},{"inputs":[],"name":"name","outputs":[{"internalType":"string","name":"","type":"string"}],"stateMutability":"view","type":"function"},{"inputs":[{"internalType":"uint256","name":"","type":"uint256"}],"name":"nftHolderAttributes","outputs":[{"internalType":"uint256","name":"characterIndex","type":"uint256"},{"internalType":"string","name":"name","type":"string"},{"internalType":"string","name":"imageURI","type":"string"},{"internalType":"uint256","name":"hp","type":"uint256"},{"internalType":"uint256","name":"maxHp","type":"uint256"},{"internalType":"uint256","name":"attackDamage","type":"uint256"}],"stateMutability":"view","type":"function"},{"inputs":[{"internalType":"address","name":"","type":"address"}],"name":"nftHolders","outputs":[{"internalType":"uint256","name":"","type":"uint256"}],"stateMutability":"view","type":"function"},{"inputs":[{"internalType":"uint256","name":"tokenId","type":"uint256"}],"name":"ownerOf","outputs":[{"internalType":"address","name":"","type":"address"}],"stateMutability":"view","type":"function"},{"inputs":[{"internalType":"address","name":"from","type":"address"},{"internalType":"address","name":"to","type":"address"},{"internalType":"uint256","name":"tokenId","type":"uint256"}],"name":"safeTransferFrom","outputs":[],"stateMutability":"nonpayable","type":"function"},{"inputs":[{"internalType":"address","name":"from","type":"address"},{"internalType":"address","name":"to","type":"address"},{"internalType":"uint256","name":"tokenId","type":"uint256"},{"internalType":"bytes","name":"data","type":"bytes"}],"name":"safeTransferFrom","outputs":[],"stateMutability":"nonpayable","type":"function"},{"inputs":[{"internalType":"address","name":"operator","type":"address"},{"internalType":"bool","name":"approved","type":"bool"}],"name":"setApprovalForAll","outputs":[],"stateMutability":"nonpayable","type":"function"},{"inputs":[{"internalType":"bytes4","name":"interfaceId","type":"bytes4"}],"name":"supportsInterface","outputs":[{"internalType":"bool","name":"","type":"bool"}],"stateMutability":"view","type":"function"},{"inputs":[],"name":"symbol","outputs":[{"internalType":"string","name":"","type":"string"}],"stateMutability":"view","type":"function"},{"inputs":[{"internalType":"uint256","name":"_tokenId","type":"uint256"}],"name":"tokenURI","outputs":[{"internalType":"string","name":"","type":"string"}],"stateMutability":"view","type":"function"},{"inputs":[{"internalType":"address","name":"from","type":"address"},{"internalType":"address","name":"to","type":"address"},{"internalType":"uint256","name":"tokenId","type":"uint256"}],"name":"transferFrom","outputs":[],"stateMutability":"nonpayable","type":"function"}],"evm":{"bytecode":{"linkReferences":{},"object":"60806040523480156200001157600080fd5b50604051620046c5380380620046c58339818101604052810190620000379190620008ab565b6040518060400160405280600681526020017f4865726f657300000000000000000000000000000000000000000000000000008152506040518060400160405280600481526020017f4845524f000000000000000000000000000000000000000000000000000000008152508160009081620000b4919062000bda565b508060019081620000c6919062000bda565b50505060005b8451811015620003fe5760076040518060c00160405280838152602001878481518110620000ff57620000fe62000cc1565b5b6020026020010151815260200186848151811062000122576200012162000cc1565b5b6020026020010151815260200185848151811062000145576200014462000cc1565b5b6020026020010151815260200185848151811062000168576200016762000cc1565b5b602002602001015181526020018484815181106200018b576200018a62000cc1565b5b60200260200101518152509080600181540180825580915050600190039060005260206000209060060201600090919091909150600082015181600001556020820151816001019081620001e0919062000bda565b506040820151816002019081620001f8919062000bda565b50606082015181600301556080820151816004015560a08201518160050155505060006007828154811062000232576200023162000cc1565b5b90600052602060002090600602016040518060c0016040529081600082015481526020016001820180546200026790620009d3565b80601f01602080910402602001604051908101604052809291908181526020018280546200029590620009d3565b8015620002e65780601f10620002ba57610100808354040283529160200191620002e6565b820191906000526020600020905b815481529060010190602001808311620002c857829003601f168201915b505050505081526020016002820180546200030190620009d3565b80601f01602080910402602001604051908101604052809291908181526020018280546200032f90620009d3565b8015620003805780601f10620003545761010080835404028352916020019162000380565b820191906000526020600020905b8154815290600101906020018083116200036257829003601f168201915b5050505050815260200160038201548152602001600482015481526020016005820154815250509050620003e7604051806060016040528060258152602001620046a0602591398260200151836060015184604001516200042060201b620010061760201c565b508080620003f59062000d1f565b915050620000cc565b50620004166006620004cc60201b620010a81760201c565b5050505062000e31565b620004c6848484846040516024016200043d949392919062000dcf565b6040516020818303038152906040527f5d1a971a000000000000000000000000000000000000000000000000000000007bffffffffffffffffffffffffffffffffffffffffffffffffffffffff19166020820180517bffffffffffffffffffffffffffffffffffffffffffffffffffffffff8381831617835250505050620004e260201b60201c565b50505050565b6001816000016000828254019250508190555050565b60008151905060006a636f6e736f6c652e6c6f679050602083016000808483855afa5050505050565b6000604051905090565b600080fd5b600080fd5b600080fd5b6000601f19601f8301169050919050565b7f4e487b7100000000000000000000000000000000000000000000000000000000600052604160045260246000fd5b6200056f8262000524565b810181811067ffffffffffffffff8211171562000591576200059062000535565b5b80604052505050565b6000620005a66200050b565b9050620005b4828262000564565b919050565b600067ffffffffffffffff821115620005d757620005d662000535565b5b602082029050602081019050919050565b600080fd5b600080fd5b600067ffffffffffffffff82111562000610576200060f62000535565b5b6200061b8262000524565b9050602081019050919050565b60005b83811015620006485780820151818401526020810190506200062b565b60008484015250505050565b60006200066b6200066584620005f2565b6200059a565b9050828152602081018484840111156200068a5762000689620005ed565b5b6200069784828562000628565b509392505050565b600082601f830112620006b757620006b66200051f565b5b8151620006c984826020860162000654565b91505092915050565b6000620006e9620006e384620005b9565b6200059a565b905080838252602082019050602084028301858111156200070f576200070e620005e8565b5b835b818110156200075d57805167ffffffffffffffff8111156200073857620007376200051f565b5b8086016200074789826200069f565b8552602085019450505060208101905062000711565b5050509392505050565b600082601f8301126200077f576200077e6200051f565b5b815162000791848260208601620006d2565b91505092915050565b600067ffffffffffffffff821115620007b857620007b762000535565b5b602082029050602081019050919050565b6000819050919050565b620007de81620007c9565b8114620007ea57600080fd5b50565b600081519050620007fe81620007d3565b92915050565b60006200081b62000815846200079a565b6200059a565b90508083825260208201905060208402830185811115620008415762000840620005e8565b5b835b818110156200086e5780620008598882620007ed565b84526020840193505060208101905062000843565b5050509392505050565b600082601f83011262000890576200088f6200051f565b5b8151620008a284826020860162000804565b91505092915050565b60008060008060808587031215620008c857620008c762000515565b5b600085015167ffffffffffffffff811115620008e957620008e86200051a565b5b620008f78782880162000767565b945050602085015167ffffffffffffffff8111156200091b576200091a6200051a565b5b620009298782880162000767565b935050604085015167ffffffffffffffff8111156200094d576200094c6200051a565b5b6200095b8782880162000878565b925050606085015167ffffffffffffffff8111156200097f576200097e6200051a565b5b6200098d8782880162000878565b91505092959194509250565b600081519050919050565b7f4e487b7100000000000000000000000000000000000000000000000000000000600052602260045260246000fd5b60006002820490506001821680620009ec57607f821691505b60208210810362000a025762000a01620009a4565b5b50919050565b60008190508160005260206000209050919050565b60006020601f8301049050919050565b600082821b905092915050565b60006008830262000a6c7fffffffffffffffffffffffffffffffffffffffffffffffffffffffffffffffff8262000a2d565b62000a78868362000a2d565b95508019841693508086168417925050509392505050565b6000819050919050565b600062000abb62000ab562000aaf84620007c9565b62000a90565b620007c9565b9050919050565b6000819050919050565b62000ad78362000a9a565b62000aef62000ae68262000ac2565b84845462000a3a565b825550505050565b600090565b62000b0662000af7565b62000b1381848462000acc565b505050565b5b8181101562000b3b5762000b2f60008262000afc565b60018101905062000b19565b5050565b601f82111562000b8a5762000b548162000a08565b62000b5f8462000a1d565b8101602085101562000b6f578190505b62000b8762000b7e8562000a1d565b83018262000b18565b50505b505050565b600082821c905092915050565b600062000baf6000198460080262000b8f565b1980831691505092915050565b600062000bca838362000b9c565b9150826002028217905092915050565b62000be58262000999565b67ffffffffffffffff81111562000c015762000c0062000535565b5b62000c0d8254620009d3565b62000c1a82828562000b3f565b600060209050601f83116001811462000c52576000841562000c3d578287015190505b62000c49858262000bbc565b86555062000cb9565b601f19841662000c628662000a08565b60005b8281101562000c8c5784890151825560018201915060208501945060208101905062000c65565b8683101562000cac578489015162000ca8601f89168262000b9c565b8355505b6001600288020188555050505b505050505050565b7f4e487b7100000000000000000000000000000000000000000000000000000000600052603260045260246000fd5b7f4e487b7100000000000000000000000000000000000000000000000000000000600052601160045260246000fd5b600062000d2c82620007c9565b91507fffffffffffffffffffffffffffffffffffffffffffffffffffffffffffffffff820362000d615762000d6062000cf0565b5b600182019050919050565b600082825260208201905092915050565b600062000d8a8262000999565b62000d96818562000d6c565b935062000da881856020860162000628565b62000db38162000524565b840191505092915050565b62000dc981620007c9565b82525050565b6000608082019050818103600083015262000deb818762000d7d565b9050818103602083015262000e01818662000d7d565b905062000e12604083018562000dbe565b818103606083015262000e26818462000d7d565b905095945050505050565b61385f8062000e416000396000f3fe608060405234801561001057600080fd5b50600436106101005760003560e01c80637df124a111610097578063b88d4fde11610066578063b88d4fde146102d6578063c87b56dd146102f2578063e985e9c514610322578063f8b81ef71461035257610100565b80637df124a11461023757806395d89b411461026757806398da4c9514610285578063a22cb465146102ba57610100565b806323b872dd116100d357806323b872dd1461019f57806342842e0e146101bb5780636352211e146101d757806370a082311461020757610100565b806301ffc9a71461010557806306fdde0314610135578063081812fc14610153578063095ea7b314610183575b600080fd5b61011f600480360381019061011a919061226e565b61036e565b60405161012c91906122b6565b60405180910390f35b61013d610450565b60405161014a9190612361565b60405180910390f35b61016d600480360381019061016891906123b9565b6104e2565b60405161017a9190612427565b60405180910390f35b61019d6004803603810190610198919061246e565b610528565b005b6101b960048036038101906101b491906124ae565b61063f565b005b6101d560048036038101906101d091906124ae565b61069f565b005b6101f160048036038101906101ec91906123b9565b6106bf565b6040516101fe9190612427565b60405180910390f35b610221600480360381019061021c9190612501565b610745565b60405161022e919061253d565b60405180910390f35b610251600480360381019061024c9190612501565b6107fc565b60405161025e919061253d565b60405180910390f35b61026f610814565b60405161027c9190612361565b60405180910390f35b61029f600480360381019061029a91906123b9565b6108a6565b6040516102b196959493929190612558565b60405180910390f35b6102d460048036038101906102cf91906125f3565b6109f2565b005b6102f060048036038101906102eb9190612768565b610a08565b005b61030c600480360381019061030791906123b9565b610a6a565b6040516103199190612361565b60405180910390f35b61033c600480360381019061033791906127eb565b610c85565b60405161034991906122b6565b60405180910390f35b61036c600480360381019061036791906123b9565b610d19565b005b60007f80ac58cd000000000000000000000000000000000000000000000000000000007bffffffffffffffffffffffffffffffffffffffffffffffffffffffff1916827bffffffffffffffffffffffffffffffffffffffffffffffffffffffff1916148061043957507f5b5e139f000000000000000000000000000000000000000000000000000000007bffffffffffffffffffffffffffffffffffffffffffffffffffffffff1916827bffffffffffffffffffffffffffffffffffffffffffffffffffffffff1916145b806104495750610448826110be565b5b9050919050565b60606000805461045f9061285a565b80601f016020809104026020016040519081016040528092919081815260200182805461048b9061285a565b80156104d85780601f106104ad576101008083540402835291602001916104d8565b820191906000526020600020905b8154815290600101906020018083116104bb57829003601f168201915b5050505050905090565b60006104ed82611128565b6004600083815260200190815260200160002060009054906101000a900473ffffffffffffffffffffffffffffffffffffffff169050919050565b6000610533826106bf565b90508073ffffffffffffffffffffffffffffffffffffffff168373ffffffffffffffffffffffffffffffffffffffff16036105a3576040517f08c379a000000000000000000000000000000000000000000000000000000000815260040161059a906128fd565b60405180910390fd5b8073ffffffffffffffffffffffffffffffffffffffff166105c2611173565b73ffffffffffffffffffffffffffffffffffffffff1614806105f157506105f0816105eb611173565b610c85565b5b610630576040517f08c379a00000000000000000000000000000000000000000000000000000000081526004016106279061298f565b60405180910390fd5b61063a838361117b565b505050565b61065061064a611173565b82611234565b61068f576040517f08c379a000000000000000000000000000000000000000000000000000000000815260040161068690612a21565b60405180910390fd5b61069a8383836112c9565b505050565b6106ba83838360405180602001604052806000815250610a08565b505050565b6000806106cb836115c2565b9050600073ffffffffffffffffffffffffffffffffffffffff168173ffffffffffffffffffffffffffffffffffffffff160361073c576040517f08c379a000000000000000000000000000000000000000000000000000000000815260040161073390612a8d565b60405180910390fd5b80915050919050565b60008073ffffffffffffffffffffffffffffffffffffffff168273ffffffffffffffffffffffffffffffffffffffff16036107b5576040517f08c379a00000000000000000000000000000000000000000000000000000000081526004016107ac90612b1f565b60405180910390fd5b600360008373ffffffffffffffffffffffffffffffffffffffff1673ffffffffffffffffffffffffffffffffffffffff168152602001908152602001600020549050919050565b60096020528060005260406000206000915090505481565b6060600180546108239061285a565b80601f016020809104026020016040519081016040528092919081815260200182805461084f9061285a565b801561089c5780601f106108715761010080835404028352916020019161089c565b820191906000526020600020905b81548152906001019060200180831161087f57829003601f168201915b5050505050905090565b60086020528060005260406000206000915090508060000154908060010180546108cf9061285a565b80601f01602080910402602001604051908101604052809291908181526020018280546108fb9061285a565b80156109485780601f1061091d57610100808354040283529160200191610948565b820191906000526020600020905b81548152906001019060200180831161092b57829003601f168201915b50505050509080600201805461095d9061285a565b80601f01602080910402602001604051908101604052809291908181526020018280546109899061285a565b80156109d65780601f106109ab576101008083540402835291602001916109d6565b820191906000526020600020905b8154815290600101906020018083116109b957829003601f168201915b5050505050908060030154908060040154908060050154905086565b610a046109fd611173565b83836115ff565b5050565b610a19610a13611173565b83611234565b610a58576040517f08c379a0000000000000000000000000000000000000000000000000000000008152600401610a4f90612a21565b60405180910390fd5b610a648484848461176b565b50505050565b60606000600860008481526020019081526020016000206040518060c001604052908160008201548152602001600182018054610aa69061285a565b80601f0160208091040260200160405190810160405280929190818152602001828054610ad29061285a565b8015610b1f5780601f10610af457610100808354040283529160200191610b1f565b820191906000526020600020905b815481529060010190602001808311610b0257829003601f168201915b50505050508152602001600282018054610b389061285a565b80601f0160208091040260200160405190810160405280929190818152602001828054610b649061285a565b8015610bb15780601f10610b8657610100808354040283529160200191610bb1565b820191906000526020600020905b815481529060010190602001808311610b9457829003601f168201915b50505050508152602001600382015481526020016004820154815260200160058201548152505090506000610be982606001516117c7565b90506000610bfa83608001516117c7565b90506000610c0b8460a001516117c7565b90506000610c518560200151610c20896117c7565b8760400151878787604051602001610c3d96959493929190612e4d565b604051602081830303815290604052611895565b9050600081604051602001610c669190612f3e565b6040516020818303038152906040529050809650505050505050919050565b6000600560008473ffffffffffffffffffffffffffffffffffffffff1673ffffffffffffffffffffffffffffffffffffffff16815260200190815260200160002060008373ffffffffffffffffffffffffffffffffffffffff1673ffffffffffffffffffffffffffffffffffffffff16815260200190815260200160002060009054906101000a900460ff16905092915050565b6000610d256006611a2c565b9050610d313382611a3a565b6040518060c0016040528083815260200160078481548110610d5657610d55612f60565b5b90600052602060002090600602016001018054610d729061285a565b80601f0160208091040260200160405190810160405280929190818152602001828054610d9e9061285a565b8015610deb5780601f10610dc057610100808354040283529160200191610deb565b820191906000526020600020905b815481529060010190602001808311610dce57829003601f168201915b5050505050815260200160078481548110610e0957610e08612f60565b5b90600052602060002090600602016002018054610e259061285a565b80601f0160208091040260200160405190810160405280929190818152602001828054610e519061285a565b8015610e9e5780601f10610e7357610100808354040283529160200191610e9e565b820191906000526020600020905b815481529060010190602001808311610e8157829003601f168201915b5050505050815260200160078481548110610ebc57610ebb612f60565b5b906000526020600020906006020160030154815260200160078481548110610ee757610ee6612f60565b5b906000526020600020906006020160040154815260200160078481548110610f1257610f11612f60565b5b90600052602060002090600602016005015481525060086000838152602001908152602001600020600082015181600001556020820151816001019081610f59919061313b565b506040820151816002019081610f6f919061313b565b50606082015181600301556080820151816004015560a08201518160050155905050610fb46040518060600160405280602e81526020016137fc602e91398284611a58565b80600960003373ffffffffffffffffffffffffffffffffffffffff1673ffffffffffffffffffffffffffffffffffffffff1681526020019081526020016000208190555061100260066110a8565b5050565b6110a284848484604051602401611020949392919061320d565b6040516020818303038152906040527f5d1a971a000000000000000000000000000000000000000000000000000000007bffffffffffffffffffffffffffffffffffffffffffffffffffffffff19166020820180517bffffffffffffffffffffffffffffffffffffffffffffffffffffffff8381831617835250505050611af7565b50505050565b6001816000016000828254019250508190555050565b60007f01ffc9a7000000000000000000000000000000000000000000000000000000007bffffffffffffffffffffffffffffffffffffffffffffffffffffffff1916827bffffffffffffffffffffffffffffffffffffffffffffffffffffffff1916149050919050565b61113181611b20565b611170576040517f08c379a000000000000000000000000000000000000000000000000000000000815260040161116790612a8d565b60405180910390fd5b50565b600033905090565b816004600083815260200190815260200160002060006101000a81548173ffffffffffffffffffffffffffffffffffffffff021916908373ffffffffffffffffffffffffffffffffffffffff160217905550808273ffffffffffffffffffffffffffffffffffffffff166111ee836106bf565b73ffffffffffffffffffffffffffffffffffffffff167f8c5be1e5ebec7d5bd14f71427d1e84f3dd0314c0f7b2291e5b200ac8c7c3b92560405160405180910390a45050565b600080611240836106bf565b90508073ffffffffffffffffffffffffffffffffffffffff168473ffffffffffffffffffffffffffffffffffffffff16148061128257506112818185610c85565b5b806112c057508373ffffffffffffffffffffffffffffffffffffffff166112a8846104e2565b73ffffffffffffffffffffffffffffffffffffffff16145b91505092915050565b8273ffffffffffffffffffffffffffffffffffffffff166112e9826106bf565b73ffffffffffffffffffffffffffffffffffffffff161461133f576040517f08c379a0000000000000000000000000000000000000000000000000000000008152600401611336906132d9565b60405180910390fd5b600073ffffffffffffffffffffffffffffffffffffffff168273ffffffffffffffffffffffffffffffffffffffff16036113ae576040517f08c379a00000000000000000000000000000000000000000000000000000000081526004016113a59061336b565b60405180910390fd5b6113bb8383836001611b61565b8273ffffffffffffffffffffffffffffffffffffffff166113db826106bf565b73ffffffffffffffffffffffffffffffffffffffff1614611431576040517f08c379a0000000000000000000000000000000000000000000000000000000008152600401611428906132d9565b60405180910390fd5b6004600082815260200190815260200160002060006101000a81549073ffffffffffffffffffffffffffffffffffffffff02191690556001600360008573ffffffffffffffffffffffffffffffffffffffff1673ffffffffffffffffffffffffffffffffffffffff168152602001908152602001600020600082825403925050819055506001600360008473ffffffffffffffffffffffffffffffffffffffff1673ffffffffffffffffffffffffffffffffffffffff16815260200190815260200160002060008282540192505081905550816002600083815260200190815260200160002060006101000a81548173ffffffffffffffffffffffffffffffffffffffff021916908373ffffffffffffffffffffffffffffffffffffffff160217905550808273ffffffffffffffffffffffffffffffffffffffff168473ffffffffffffffffffffffffffffffffffffffff167fddf252ad1be2c89b69c2b068fc378daa952ba7f163c4a11628f55a4df523b3ef60405160405180910390a46115bd8383836001611c87565b505050565b60006002600083815260200190815260200160002060009054906101000a900473ffffffffffffffffffffffffffffffffffffffff169050919050565b8173ffffffffffffffffffffffffffffffffffffffff168373ffffffffffffffffffffffffffffffffffffffff160361166d576040517f08c379a0000000000000000000000000000000000000000000000000000000008152600401611664906133d7565b60405180910390fd5b80600560008573ffffffffffffffffffffffffffffffffffffffff1673ffffffffffffffffffffffffffffffffffffffff16815260200190815260200160002060008473ffffffffffffffffffffffffffffffffffffffff1673ffffffffffffffffffffffffffffffffffffffff16815260200190815260200160002060006101000a81548160ff0219169083151502179055508173ffffffffffffffffffffffffffffffffffffffff168373ffffffffffffffffffffffffffffffffffffffff167f17307eab39ab6107e8899845ad3d59bd9653f200f220920489ca2b5937696c318360405161175e91906122b6565b60405180910390a3505050565b6117768484846112c9565b61178284848484611c8d565b6117c1576040517f08c379a00000000000000000000000000000000000000000000000000000000081526004016117b890613469565b60405180910390fd5b50505050565b6060600060016117d684611e14565b01905060008167ffffffffffffffff8111156117f5576117f461263d565b5b6040519080825280601f01601f1916602001820160405280156118275781602001600182028036833780820191505090505b509050600082602001820190505b60011561188a578080600190039150507f3031323334353637383961626364656600000000000000000000000000000000600a86061a8153600a858161187e5761187d613489565b5b04945060008503611835575b819350505050919050565b6060600082519050600081036118bd5760405180602001604052806000815250915050611a27565b600060036002836118ce91906134e7565b6118d8919061351b565b60046118e4919061354c565b905060006020826118f591906134e7565b67ffffffffffffffff81111561190e5761190d61263d565b5b6040519080825280601f01601f1916602001820160405280156119405781602001600182028036833780820191505090505b50905060006040518060600160405280604081526020016137bc604091399050600181016020830160005b868110156119e45760038101905062ffffff818a015116603f8160121c168401518060081b905060ff603f83600c1c1686015116810190508060081b905060ff603f8360061c1686015116810190508060081b905060ff603f831686015116810190508060e01b9050808452600484019350505061196b565b5060038606600181146119fe5760028114611a0e57611a19565b613d3d60f01b6002830352611a19565b603d60f81b60018303525b508484525050819450505050505b919050565b600081600001549050919050565b611a54828260405180602001604052806000815250611f67565b5050565b611af2838383604051602401611a709392919061358e565b6040516020818303038152906040527fca47c4eb000000000000000000000000000000000000000000000000000000007bffffffffffffffffffffffffffffffffffffffffffffffffffffffff19166020820180517bffffffffffffffffffffffffffffffffffffffffffffffffffffffff8381831617835250505050611af7565b505050565b60008151905060006a636f6e736f6c652e6c6f679050602083016000808483855afa5050505050565b60008073ffffffffffffffffffffffffffffffffffffffff16611b42836115c2565b73ffffffffffffffffffffffffffffffffffffffff1614159050919050565b6001811115611c8157600073ffffffffffffffffffffffffffffffffffffffff168473ffffffffffffffffffffffffffffffffffffffff1614611bf55780600360008673ffffffffffffffffffffffffffffffffffffffff1673ffffffffffffffffffffffffffffffffffffffff1681526020019081526020016000206000828254611bed91906135cc565b925050819055505b600073ffffffffffffffffffffffffffffffffffffffff168373ffffffffffffffffffffffffffffffffffffffff1614611c805780600360008573ffffffffffffffffffffffffffffffffffffffff1673ffffffffffffffffffffffffffffffffffffffff1681526020019081526020016000206000828254611c7891906134e7565b925050819055505b5b50505050565b50505050565b6000611cae8473ffffffffffffffffffffffffffffffffffffffff16611fc2565b15611e07578373ffffffffffffffffffffffffffffffffffffffff1663150b7a02611cd7611173565b8786866040518563ffffffff1660e01b8152600401611cf99493929190613655565b6020604051808303816000875af1925050508015611d3557506040513d601f19601f82011682018060405250810190611d3291906136b6565b60015b611db7573d8060008114611d65576040519150601f19603f3d011682016040523d82523d6000602084013e611d6a565b606091505b506000815103611daf576040517f08c379a0000000000000000000000000000000000000000000000000000000008152600401611da690613469565b60405180910390fd5b805181602001fd5b63150b7a0260e01b7bffffffffffffffffffffffffffffffffffffffffffffffffffffffff1916817bffffffffffffffffffffffffffffffffffffffffffffffffffffffff191614915050611e0c565b600190505b949350505050565b600080600090507a184f03e93ff9f4daa797ed6e38ed64bf6a1f0100000000000000008310611e72577a184f03e93ff9f4daa797ed6e38ed64bf6a1f0100000000000000008381611e6857611e67613489565b5b0492506040810190505b6d04ee2d6d415b85acef81000000008310611eaf576d04ee2d6d415b85acef81000000008381611ea557611ea4613489565b5b0492506020810190505b662386f26fc100008310611ede57662386f26fc100008381611ed457611ed3613489565b5b0492506010810190505b6305f5e1008310611f07576305f5e1008381611efd57611efc613489565b5b0492506008810190505b6127108310611f2c576127108381611f2257611f21613489565b5b0492506004810190505b60648310611f4f5760648381611f4557611f44613489565b5b0492506002810190505b600a8310611f5e576001810190505b80915050919050565b611f718383611fe5565b611f7e6000848484611c8d565b611fbd576040517f08c379a0000000000000000000000000000000000000000000000000000000008152600401611fb490613469565b60405180910390fd5b505050565b6000808273ffffffffffffffffffffffffffffffffffffffff163b119050919050565b600073ffffffffffffffffffffffffffffffffffffffff168273ffffffffffffffffffffffffffffffffffffffff1603612054576040517f08c379a000000000000000000000000000000000000000000000000000000000815260040161204b9061372f565b60405180910390fd5b61205d81611b20565b1561209d576040517f08c379a00000000000000000000000000000000000000000000000000000000081526004016120949061379b565b60405180910390fd5b6120ab600083836001611b61565b6120b481611b20565b156120f4576040517f08c379a00000000000000000000000000000000000000000000000000000000081526004016120eb9061379b565b60405180910390fd5b6001600360008473ffffffffffffffffffffffffffffffffffffffff1673ffffffffffffffffffffffffffffffffffffffff16815260200190815260200160002060008282540192505081905550816002600083815260200190815260200160002060006101000a81548173ffffffffffffffffffffffffffffffffffffffff021916908373ffffffffffffffffffffffffffffffffffffffff160217905550808273ffffffffffffffffffffffffffffffffffffffff16600073ffffffffffffffffffffffffffffffffffffffff167fddf252ad1be2c89b69c2b068fc378daa952ba7f163c4a11628f55a4df523b3ef60405160405180910390a46121fe600083836001611c87565b5050565b6000604051905090565b600080fd5b600080fd5b60007fffffffff0000000000000000000000000000000000000000000000000000000082169050919050565b61224b81612216565b811461225657600080fd5b50565b60008135905061226881612242565b92915050565b6000602082840312156122845761228361220c565b5b600061229284828501612259565b91505092915050565b60008115159050919050565b6122b08161229b565b82525050565b60006020820190506122cb60008301846122a7565b92915050565b600081519050919050565b600082825260208201905092915050565b60005b8381101561230b5780820151818401526020810190506122f0565b60008484015250505050565b6000601f19601f8301169050919050565b6000612333826122d1565b61233d81856122dc565b935061234d8185602086016122ed565b61235681612317565b840191505092915050565b6000602082019050818103600083015261237b8184612328565b905092915050565b6000819050919050565b61239681612383565b81146123a157600080fd5b50565b6000813590506123b38161238d565b92915050565b6000602082840312156123cf576123ce61220c565b5b60006123dd848285016123a4565b91505092915050565b600073ffffffffffffffffffffffffffffffffffffffff82169050919050565b6000612411826123e6565b9050919050565b61242181612406565b82525050565b600060208201905061243c6000830184612418565b92915050565b61244b81612406565b811461245657600080fd5b50565b60008135905061246881612442565b92915050565b600080604083850312156124855761248461220c565b5b600061249385828601612459565b92505060206124a4858286016123a4565b9150509250929050565b6000806000606084860312156124c7576124c661220c565b5b60006124d586828701612459565b93505060206124e686828701612459565b92505060406124f7868287016123a4565b9150509250925092565b6000602082840312156125175761251661220c565b5b600061252584828501612459565b91505092915050565b61253781612383565b82525050565b6000602082019050612552600083018461252e565b92915050565b600060c08201905061256d600083018961252e565b818103602083015261257f8188612328565b905081810360408301526125938187612328565b90506125a2606083018661252e565b6125af608083018561252e565b6125bc60a083018461252e565b979650505050505050565b6125d08161229b565b81146125db57600080fd5b50565b6000813590506125ed816125c7565b92915050565b6000806040838503121561260a5761260961220c565b5b600061261885828601612459565b9250506020612629858286016125de565b9150509250929050565b600080fd5b600080fd5b7f4e487b7100000000000000000000000000000000000000000000000000000000600052604160045260246000fd5b61267582612317565b810181811067ffffffffffffffff821117156126945761269361263d565b5b80604052505050565b60006126a7612202565b90506126b3828261266c565b919050565b600067ffffffffffffffff8211156126d3576126d261263d565b5b6126dc82612317565b9050602081019050919050565b82818337600083830152505050565b600061270b612706846126b8565b61269d565b90508281526020810184848401111561272757612726612638565b5b6127328482856126e9565b509392505050565b600082601f83011261274f5761274e612633565b5b813561275f8482602086016126f8565b91505092915050565b600080600080608085870312156127825761278161220c565b5b600061279087828801612459565b94505060206127a187828801612459565b93505060406127b2878288016123a4565b925050606085013567ffffffffffffffff8111156127d3576127d2612211565b5b6127df8782880161273a565b91505092959194509250565b600080604083850312156128025761280161220c565b5b600061281085828601612459565b925050602061282185828601612459565b9150509250929050565b7f4e487b7100000000000000000000000000000000000000000000000000000000600052602260045260246000fd5b6000600282049050600182168061287257607f821691505b6020821081036128855761288461282b565b5b50919050565b7f4552433732313a20617070726f76616c20746f2063757272656e74206f776e6560008201527f7200000000000000000000000000000000000000000000000000000000000000602082015250565b60006128e76021836122dc565b91506128f28261288b565b604082019050919050565b60006020820190508181036000830152612916816128da565b9050919050565b7f4552433732313a20617070726f76652063616c6c6572206973206e6f7420746f60008201527f6b656e206f776e6572206f7220617070726f76656420666f7220616c6c000000602082015250565b6000612979603d836122dc565b91506129848261291d565b604082019050919050565b600060208201905081810360008301526129a88161296c565b9050919050565b7f4552433732313a2063616c6c6572206973206e6f7420746f6b656e206f776e6560008201527f72206f7220617070726f76656400000000000000000000000000000000000000602082015250565b6000612a0b602d836122dc565b9150612a16826129af565b604082019050919050565b60006020820190508181036000830152612a3a816129fe565b9050919050565b7f4552433732313a20696e76616c696420746f6b656e2049440000000000000000600082015250565b6000612a776018836122dc565b9150612a8282612a41565b602082019050919050565b60006020820190508181036000830152612aa681612a6a565b9050919050565b7f4552433732313a2061646472657373207a65726f206973206e6f74206120766160008201527f6c6964206f776e65720000000000000000000000000000000000000000000000602082015250565b6000612b096029836122dc565b9150612b1482612aad565b604082019050919050565b60006020820190508181036000830152612b3881612afc565b9050919050565b600081905092915050565b7f7b226e616d65223a202200000000000000000000000000000000000000000000600082015250565b6000612b80600a83612b3f565b9150612b8b82612b4a565b600a82019050919050565b6000612ba1826122d1565b612bab8185612b3f565b9350612bbb8185602086016122ed565b80840191505092915050565b7f202d2d204e465420233a20000000000000000000000000000000000000000000600082015250565b6000612bfd600b83612b3f565b9150612c0882612bc7565b600b82019050919050565b7f222c20226465736372697074696f6e223a20225468697320697320616e204e4660008201527f542074686174206c6574732070656f706c6520706c617920696e20746865206760208201527f616d65204d657461766572736520536c6179657221222c2022696d616765223a60408201527f2022000000000000000000000000000000000000000000000000000000000000606082015250565b6000612cbb606283612b3f565b9150612cc682612c13565b606282019050919050565b7f222c202261747472696275746573223a205b207b202274726169745f7479706560008201527f223a20224865616c746820506f696e7473222c202276616c7565223a20000000602082015250565b6000612d2d603d83612b3f565b9150612d3882612cd1565b603d82019050919050565b7f2c20226d61785f76616c7565223a000000000000000000000000000000000000600082015250565b6000612d79600e83612b3f565b9150612d8482612d43565b600e82019050919050565b7f7d2c207b202274726169745f74797065223a202241747461636b2044616d616760008201527f65222c202276616c7565223a2000000000000000000000000000000000000000602082015250565b6000612deb602d83612b3f565b9150612df682612d8f565b602d82019050919050565b7f7d205d7d00000000000000000000000000000000000000000000000000000000600082015250565b6000612e37600483612b3f565b9150612e4282612e01565b600482019050919050565b6000612e5882612b73565b9150612e648289612b96565b9150612e6f82612bf0565b9150612e7b8288612b96565b9150612e8682612cae565b9150612e928287612b96565b9150612e9d82612d20565b9150612ea98286612b96565b9150612eb482612d6c565b9150612ec08285612b96565b9150612ecb82612dde565b9150612ed78284612b96565b9150612ee282612e2a565b9150819050979650505050505050565b7f646174613a6170706c69636174696f6e2f6a736f6e3b6261736536342c000000600082015250565b6000612f28601d83612b3f565b9150612f3382612ef2565b601d82019050919050565b6000612f4982612f1b565b9150612f558284612b96565b915081905092915050565b7f4e487b7100000000000000000000000000000000000000000000000000000000600052603260045260246000fd5b60008190508160005260206000209050919050565b60006020601f8301049050919050565b600082821b905092915050565b600060088302612ff17fffffffffffffffffffffffffffffffffffffffffffffffffffffffffffffffff82612fb4565b612ffb8683612fb4565b95508019841693508086168417925050509392505050565b6000819050919050565b600061303861303361302e84612383565b613013565b612383565b9050919050565b6000819050919050565b6130528361301d565b61306661305e8261303f565b848454612fc1565b825550505050565b600090565b61307b61306e565b613086818484613049565b505050565b5b818110156130aa5761309f600082613073565b60018101905061308c565b5050565b601f8211156130ef576130c081612f8f565b6130c984612fa4565b810160208510156130d8578190505b6130ec6130e485612fa4565b83018261308b565b50505b505050565b600082821c905092915050565b6000613112600019846008026130f4565b1980831691505092915050565b600061312b8383613101565b9150826002028217905092915050565b613144826122d1565b67ffffffffffffffff81111561315d5761315c61263d565b5b613167825461285a565b6131728282856130ae565b600060209050601f8311600181146131a55760008415613193578287015190505b61319d858261311f565b865550613205565b601f1984166131b386612f8f565b60005b828110156131db578489015182556001820191506020850194506020810190506131b6565b868310156131f857848901516131f4601f891682613101565b8355505b6001600288020188555050505b505050505050565b600060808201905081810360008301526132278187612328565b9050818103602083015261323b8186612328565b905061324a604083018561252e565b818103606083015261325c8184612328565b905095945050505050565b7f4552433732313a207472616e736665722066726f6d20696e636f72726563742060008201527f6f776e6572000000000000000000000000000000000000000000000000000000602082015250565b60006132c36025836122dc565b91506132ce82613267565b604082019050919050565b600060208201905081810360008301526132f2816132b6565b9050919050565b7f4552433732313a207472616e7366657220746f20746865207a65726f2061646460008201527f7265737300000000000000000000000000000000000000000000000000000000602082015250565b60006133556024836122dc565b9150613360826132f9565b604082019050919050565b6000602082019050818103600083015261338481613348565b9050919050565b7f4552433732313a20617070726f766520746f2063616c6c657200000000000000600082015250565b60006133c16019836122dc565b91506133cc8261338b565b602082019050919050565b600060208201905081810360008301526133f0816133b4565b9050919050565b7f4552433732313a207472616e7366657220746f206e6f6e20455243373231526560008201527f63656976657220696d706c656d656e7465720000000000000000000000000000602082015250565b60006134536032836122dc565b915061345e826133f7565b604082019050919050565b6000602082019050818103600083015261348281613446565b9050919050565b7f4e487b7100000000000000000000000000000000000000000000000000000000600052601260045260246000fd5b7f4e487b7100000000000000000000000000000000000000000000000000000000600052601160045260246000fd5b60006134f282612383565b91506134fd83612383565b9250828201905080821115613515576135146134b8565b5b92915050565b600061352682612383565b915061353183612383565b92508261354157613540613489565b5b828204905092915050565b600061355782612383565b915061356283612383565b925082820261357081612383565b91508282048414831517613587576135866134b8565b5b5092915050565b600060608201905081810360008301526135a88186612328565b90506135b7602083018561252e565b6135c4604083018461252e565b949350505050565b60006135d782612383565b91506135e283612383565b92508282039050818111156135fa576135f96134b8565b5b92915050565b600081519050919050565b600082825260208201905092915050565b600061362782613600565b613631818561360b565b93506136418185602086016122ed565b61364a81612317565b840191505092915050565b600060808201905061366a6000830187612418565b6136776020830186612418565b613684604083018561252e565b8181036060830152613696818461361c565b905095945050505050565b6000815190506136b081612242565b92915050565b6000602082840312156136cc576136cb61220c565b5b60006136da848285016136a1565b91505092915050565b7f4552433732313a206d696e7420746f20746865207a65726f2061646472657373600082015250565b60006137196020836122dc565b9150613724826136e3565b602082019050919050565b600060208201905081810360008301526137488161370c565b9050919050565b7f4552433732313a20746f6b656e20616c7265616479206d696e74656400000000600082015250565b6000613785601c836122dc565b91506137908261374f565b602082019050919050565b600060208201905081810360008301526137b481613778565b905091905056fe4142434445464748494a4b4c4d4e4f505152535455565758595a6162636465666768696a6b6c6d6e6f707172737475767778797a303132333435363738392b2f4d696e746564204e465420772f20746f6b656e496420257320616e6420636861726163746572496e646578202573a26469706673582212203e525b72005330a1c08f94a3aa50033a0827ff11fcf69f60a3a147d0759b8a7164736f6c63430008110033446f6e6520696e697469616c697a696e6720257320772f2048502025732c20696d67202573","opcodes":"PUSH1 0x80 PUSH1 0x40 MSTORE CALLVALUE DUP1 ISZERO PUSH3 0x11 JUMPI PUSH1 0x0 DUP1 REVERT JUMPDEST POP PUSH1 0x40 MLOAD PUSH3 0x46C5 CODESIZE SUB DUP1 PUSH3 0x46C5 DUP4 CODECOPY DUP2 DUP2 ADD PUSH1 0x40 MSTORE DUP2 ADD SWAP1 PUSH3 0x37 SWAP2 SWAP1 PUSH3 0x8AB JUMP JUMPDEST PUSH1 0x40 MLOAD DUP1 PUSH1 0x40 ADD PUSH1 0x40 MSTORE DUP1 PUSH1 0x6 DUP2 MSTORE PUSH1 0x20 ADD PUSH32 0x4865726F65730000000000000000000000000000000000000000000000000000 DUP2 MSTORE POP PUSH1 0x40 MLOAD DUP1 PUSH1 0x40 ADD PUSH1 0x40 MSTORE DUP1 PUSH1 0x4 DUP2 MSTORE PUSH1 0x20 ADD PUSH32 0x4845524F00000000000000000000000000000000000000000000000000000000 DUP2 MSTORE POP DUP2 PUSH1 0x0 SWAP1 DUP2 PUSH3 0xB4 SWAP2 SWAP1 PUSH3 0xBDA JUMP JUMPDEST POP DUP1 PUSH1 0x1 SWAP1 DUP2 PUSH3 0xC6 SWAP2 SWAP1 PUSH3 0xBDA JUMP JUMPDEST POP POP POP PUSH1 0x0 JUMPDEST DUP5 MLOAD DUP2 LT ISZERO PUSH3 0x3FE JUMPI PUSH1 0x7 PUSH1 0x40 MLOAD DUP1 PUSH1 0xC0 ADD PUSH1 0x40 MSTORE DUP1 DUP4 DUP2 MSTORE PUSH1 0x20 ADD DUP8 DUP5 DUP2 MLOAD DUP2 LT PUSH3 0xFF JUMPI PUSH3 0xFE PUSH3 0xCC1 JUMP JUMPDEST JUMPDEST PUSH1 0x20 MUL PUSH1 0x20 ADD ADD MLOAD DUP2 MSTORE PUSH1 0x20 ADD DUP7 DUP5 DUP2 MLOAD DUP2 LT PUSH3 0x122 JUMPI PUSH3 0x121 PUSH3 0xCC1 JUMP JUMPDEST JUMPDEST PUSH1 0x20 MUL PUSH1 0x20 ADD ADD MLOAD DUP2 MSTORE PUSH1 0x20 ADD DUP6 DUP5 DUP2 MLOAD DUP2 LT PUSH3 0x145 JUMPI PUSH3 0x144 PUSH3 0xCC1 JUMP JUMPDEST JUMPDEST PUSH1 0x20 MUL PUSH1 0x20 ADD ADD MLOAD DUP2 MSTORE PUSH1 0x20 ADD DUP6 DUP5 DUP2 MLOAD DUP2 LT PUSH3 0x168 JUMPI PUSH3 0x167 PUSH3 0xCC1 JUMP JUMPDEST JUMPDEST PUSH1 0x20 MUL PUSH1 0x20 ADD ADD MLOAD DUP2 MSTORE PUSH1 0x20 ADD DUP5 DUP5 DUP2 MLOAD DUP2 LT PUSH3 0x18B JUMPI PUSH3 0x18A PUSH3 0xCC1 JUMP JUMPDEST JUMPDEST PUSH1 0x20 MUL PUSH1 0x20 ADD ADD MLOAD DUP2 MSTORE POP SWAP1 DUP1 PUSH1 0x1 DUP2 SLOAD ADD DUP1 DUP3 SSTORE DUP1 SWAP2 POP POP PUSH1 0x1 SWAP1 SUB SWAP1 PUSH1 0x0 MSTORE PUSH1 0x20 PUSH1 0x0 KECCAK256 SWAP1 PUSH1 0x6 MUL ADD PUSH1 0x0 SWAP1 SWAP2 SWAP1 SWAP2 SWAP1 SWAP2 POP PUSH1 0x0 DUP3 ADD MLOAD DUP2 PUSH1 0x0 ADD SSTORE PUSH1 0x20 DUP3 ADD MLOAD DUP2 PUSH1 0x1 ADD SWAP1 DUP2 PUSH3 0x1E0 SWAP2 SWAP1 PUSH3 0xBDA JUMP JUMPDEST POP PUSH1 0x40 DUP3 ADD MLOAD DUP2 PUSH1 0x2 ADD SWAP1 DUP2 PUSH3 0x1F8 SWAP2 SWAP1 PUSH3 0xBDA JUMP JUMPDEST POP PUSH1 0x60 DUP3 ADD MLOAD DUP2 PUSH1 0x3 ADD SSTORE PUSH1 0x80 DUP3 ADD MLOAD DUP2 PUSH1 0x4 ADD SSTORE PUSH1 0xA0 DUP3 ADD MLOAD DUP2 PUSH1 0x5 ADD SSTORE POP POP PUSH1 0x0 PUSH1 0x7 DUP3 DUP2 SLOAD DUP2 LT PUSH3 0x232 JUMPI PUSH3 0x231 PUSH3 0xCC1 JUMP JUMPDEST JUMPDEST SWAP1 PUSH1 0x0 MSTORE PUSH1 0x20 PUSH1 0x0 KECCAK256 SWAP1 PUSH1 0x6 MUL ADD PUSH1 0x40 MLOAD DUP1 PUSH1 0xC0 ADD PUSH1 0x40 MSTORE SWAP1 DUP2 PUSH1 0x0 DUP3 ADD SLOAD DUP2 MSTORE PUSH1 0x20 ADD PUSH1 0x1 DUP3 ADD DUP1 SLOAD PUSH3 0x267 SWAP1 PUSH3 0x9D3 JUMP JUMPDEST DUP1 PUSH1 0x1F ADD PUSH1 0x20 DUP1 SWAP2 DIV MUL PUSH1 0x20 ADD PUSH1 0x40 MLOAD SWAP1 DUP2 ADD PUSH1 0x40 MSTORE DUP1 SWAP3 SWAP2 SWAP1 DUP2 DUP2 MSTORE PUSH1 0x20 ADD DUP3 DUP1 SLOAD PUSH3 0x295 SWAP1 PUSH3 0x9D3 JUMP JUMPDEST DUP1 ISZERO PUSH3 0x2E6 JUMPI DUP1 PUSH1 0x1F LT PUSH3 0x2BA JUMPI PUSH2 0x100 DUP1 DUP4 SLOAD DIV MUL DUP4 MSTORE SWAP2 PUSH1 0x20 ADD SWAP2 PUSH3 0x2E6 JUMP JUMPDEST DUP3 ADD SWAP2 SWAP1 PUSH1 0x0 MSTORE PUSH1 0x20 PUSH1 0x0 KECCAK256 SWAP1 JUMPDEST DUP2 SLOAD DUP2 MSTORE SWAP1 PUSH1 0x1 ADD SWAP1 PUSH1 0x20 ADD DUP1 DUP4 GT PUSH3 0x2C8 JUMPI DUP3 SWAP1 SUB PUSH1 0x1F AND DUP3 ADD SWAP2 JUMPDEST POP POP POP POP POP DUP2 MSTORE PUSH1 0x20 ADD PUSH1 0x2 DUP3 ADD DUP1 SLOAD PUSH3 0x301 SWAP1 PUSH3 0x9D3 JUMP JUMPDEST DUP1 PUSH1 0x1F ADD PUSH1 0x20 DUP1 SWAP2 DIV MUL PUSH1 0x20 ADD PUSH1 0x40 MLOAD SWAP1 DUP2 ADD PUSH1 0x40 MSTORE DUP1 SWAP3 SWAP2 SWAP1 DUP2 DUP2 MSTORE PUSH1 0x20 ADD DUP3 DUP1 SLOAD PUSH3 0x32F SWAP1 PUSH3 0x9D3 JUMP JUMPDEST DUP1 ISZERO PUSH3 0x380 JUMPI DUP1 PUSH1 0x1F LT PUSH3 0x354 JUMPI PUSH2 0x100 DUP1 DUP4 SLOAD DIV MUL DUP4 MSTORE SWAP2 PUSH1 0x20 ADD SWAP2 PUSH3 0x380 JUMP JUMPDEST DUP3 ADD SWAP2 SWAP1 PUSH1 0x0 MSTORE PUSH1 0x20 PUSH1 0x0 KECCAK256 SWAP1 JUMPDEST DUP2 SLOAD DUP2 MSTORE SWAP1 PUSH1 0x1 ADD SWAP1 PUSH1 0x20 ADD DUP1 DUP4 GT PUSH3 0x362 JUMPI DUP3 SWAP1 SUB PUSH1 0x1F AND DUP3 ADD SWAP2 JUMPDEST POP POP POP POP POP DUP2 MSTORE PUSH1 0x20 ADD PUSH1 0x3 DUP3 ADD SLOAD DUP2 MSTORE PUSH1 0x20 ADD PUSH1 0x4 DUP3 ADD SLOAD DUP2 MSTORE PUSH1 0x20 ADD PUSH1 0x5 DUP3 ADD SLOAD DUP2 MSTORE POP POP SWAP1 POP PUSH3 0x3E7 PUSH1 0x40 MLOAD DUP1 PUSH1 0x60 ADD PUSH1 0x40 MSTORE DUP1 PUSH1 0x25 DUP2 MSTORE PUSH1 0x20 ADD PUSH3 0x46A0 PUSH1 0x25 SWAP2 CODECOPY DUP3 PUSH1 0x20 ADD MLOAD DUP4 PUSH1 0x60 ADD MLOAD DUP5 PUSH1 0x40 ADD MLOAD PUSH3 0x420 PUSH1 0x20 SHL PUSH3 0x1006 OR PUSH1 0x20 SHR JUMP JUMPDEST POP DUP1 DUP1 PUSH3 0x3F5 SWAP1 PUSH3 0xD1F JUMP JUMPDEST SWAP2 POP POP PUSH3 0xCC JUMP JUMPDEST POP PUSH3 0x416 PUSH1 0x6 PUSH3 0x4CC PUSH1 0x20 SHL PUSH3 0x10A8 OR PUSH1 0x20 SHR JUMP JUMPDEST POP POP POP POP PUSH3 0xE31 JUMP JUMPDEST PUSH3 0x4C6 DUP5 DUP5 DUP5 DUP5 PUSH1 0x40 MLOAD PUSH1 0x24 ADD PUSH3 0x43D SWAP5 SWAP4 SWAP3 SWAP2 SWAP1 PUSH3 0xDCF JUMP JUMPDEST PUSH1 0x40 MLOAD PUSH1 0x20 DUP2 DUP4 SUB SUB DUP2 MSTORE SWAP1 PUSH1 0x40 MSTORE PUSH32 0x5D1A971A00000000000000000000000000000000000000000000000000000000 PUSH28 0xFFFFFFFFFFFFFFFFFFFFFFFFFFFFFFFFFFFFFFFFFFFFFFFFFFFFFFFF NOT AND PUSH1 0x20 DUP3 ADD DUP1 MLOAD PUSH28 0xFFFFFFFFFFFFFFFFFFFFFFFFFFFFFFFFFFFFFFFFFFFFFFFFFFFFFFFF DUP4 DUP2 DUP4 AND OR DUP4 MSTORE POP POP POP POP PUSH3 0x4E2 PUSH1 0x20 SHL PUSH1 0x20 SHR JUMP JUMPDEST POP POP POP POP JUMP JUMPDEST PUSH1 0x1 DUP2 PUSH1 0x0 ADD PUSH1 0x0 DUP3 DUP3 SLOAD ADD SWAP3 POP POP DUP2 SWAP1 SSTORE POP POP JUMP JUMPDEST PUSH1 0x0 DUP2 MLOAD SWAP1 POP PUSH1 0x0 PUSH11 0x636F6E736F6C652E6C6F67 SWAP1 POP PUSH1 0x20 DUP4 ADD PUSH1 0x0 DUP1 DUP5 DUP4 DUP6 GAS STATICCALL POP POP POP POP POP JUMP JUMPDEST PUSH1 0x0 PUSH1 0x40 MLOAD SWAP1 POP SWAP1 JUMP JUMPDEST PUSH1 0x0 DUP1 REVERT JUMPDEST PUSH1 0x0 DUP1 REVERT JUMPDEST PUSH1 0x0 DUP1 REVERT JUMPDEST PUSH1 0x0 PUSH1 0x1F NOT PUSH1 0x1F DUP4 ADD AND SWAP1 POP SWAP2 SWAP1 POP JUMP JUMPDEST PUSH32 0x4E487B7100000000000000000000000000000000000000000000000000000000 PUSH1 0x0 MSTORE PUSH1 0x41 PUSH1 0x4 MSTORE PUSH1 0x24 PUSH1 0x0 REVERT JUMPDEST PUSH3 0x56F DUP3 PUSH3 0x524 JUMP JUMPDEST DUP2 ADD DUP2 DUP2 LT PUSH8 0xFFFFFFFFFFFFFFFF DUP3 GT OR ISZERO PUSH3 0x591 JUMPI PUSH3 0x590 PUSH3 0x535 JUMP JUMPDEST JUMPDEST DUP1 PUSH1 0x40 MSTORE POP POP POP JUMP JUMPDEST PUSH1 0x0 PUSH3 0x5A6 PUSH3 0x50B JUMP JUMPDEST SWAP1 POP PUSH3 0x5B4 DUP3 DUP3 PUSH3 0x564 JUMP JUMPDEST SWAP2 SWAP1 POP JUMP JUMPDEST PUSH1 0x0 PUSH8 0xFFFFFFFFFFFFFFFF DUP3 GT ISZERO PUSH3 0x5D7 JUMPI PUSH3 0x5D6 PUSH3 0x535 JUMP JUMPDEST JUMPDEST PUSH1 0x20 DUP3 MUL SWAP1 POP PUSH1 0x20 DUP2 ADD SWAP1 POP SWAP2 SWAP1 POP JUMP JUMPDEST PUSH1 0x0 DUP1 REVERT JUMPDEST PUSH1 0x0 DUP1 REVERT JUMPDEST PUSH1 0x0 PUSH8 0xFFFFFFFFFFFFFFFF DUP3 GT ISZERO PUSH3 0x610 JUMPI PUSH3 0x60F PUSH3 0x535 JUMP JUMPDEST JUMPDEST PUSH3 0x61B DUP3 PUSH3 0x524 JUMP JUMPDEST SWAP1 POP PUSH1 0x20 DUP2 ADD SWAP1 POP SWAP2 SWAP1 POP JUMP JUMPDEST PUSH1 0x0 JUMPDEST DUP4 DUP2 LT ISZERO PUSH3 0x648 JUMPI DUP1 DUP3 ADD MLOAD DUP2 DUP5 ADD MSTORE PUSH1 0x20 DUP2 ADD SWAP1 POP PUSH3 0x62B JUMP JUMPDEST PUSH1 0x0 DUP5 DUP5 ADD MSTORE POP POP POP POP JUMP JUMPDEST PUSH1 0x0 PUSH3 0x66B PUSH3 0x665 DUP5 PUSH3 0x5F2 JUMP JUMPDEST PUSH3 0x59A JUMP JUMPDEST SWAP1 POP DUP3 DUP2 MSTORE PUSH1 0x20 DUP2 ADD DUP5 DUP5 DUP5 ADD GT ISZERO PUSH3 0x68A JUMPI PUSH3 0x689 PUSH3 0x5ED JUMP JUMPDEST JUMPDEST PUSH3 0x697 DUP5 DUP3 DUP6 PUSH3 0x628 JUMP JUMPDEST POP SWAP4 SWAP3 POP POP POP JUMP JUMPDEST PUSH1 0x0 DUP3 PUSH1 0x1F DUP4 ADD SLT PUSH3 0x6B7 JUMPI PUSH3 0x6B6 PUSH3 0x51F JUMP JUMPDEST JUMPDEST DUP2 MLOAD PUSH3 0x6C9 DUP5 DUP3 PUSH1 0x20 DUP7 ADD PUSH3 0x654 JUMP JUMPDEST SWAP2 POP POP SWAP3 SWAP2 POP POP JUMP JUMPDEST PUSH1 0x0 PUSH3 0x6E9 PUSH3 0x6E3 DUP5 PUSH3 0x5B9 JUMP JUMPDEST PUSH3 0x59A JUMP JUMPDEST SWAP1 POP DUP1 DUP4 DUP3 MSTORE PUSH1 0x20 DUP3 ADD SWAP1 POP PUSH1 0x20 DUP5 MUL DUP4 ADD DUP6 DUP2 GT ISZERO PUSH3 0x70F JUMPI PUSH3 0x70E PUSH3 0x5E8 JUMP JUMPDEST JUMPDEST DUP4 JUMPDEST DUP2 DUP2 LT ISZERO PUSH3 0x75D JUMPI DUP1 MLOAD PUSH8 0xFFFFFFFFFFFFFFFF DUP2 GT ISZERO PUSH3 0x738 JUMPI PUSH3 0x737 PUSH3 0x51F JUMP JUMPDEST JUMPDEST DUP1 DUP7 ADD PUSH3 0x747 DUP10 DUP3 PUSH3 0x69F JUMP JUMPDEST DUP6 MSTORE PUSH1 0x20 DUP6 ADD SWAP5 POP POP POP PUSH1 0x20 DUP2 ADD SWAP1 POP PUSH3 0x711 JUMP JUMPDEST POP POP POP SWAP4 SWAP3 POP POP POP JUMP JUMPDEST PUSH1 0x0 DUP3 PUSH1 0x1F DUP4 ADD SLT PUSH3 0x77F JUMPI PUSH3 0x77E PUSH3 0x51F JUMP JUMPDEST JUMPDEST DUP2 MLOAD PUSH3 0x791 DUP5 DUP3 PUSH1 0x20 DUP7 ADD PUSH3 0x6D2 JUMP JUMPDEST SWAP2 POP POP SWAP3 SWAP2 POP POP JUMP JUMPDEST PUSH1 0x0 PUSH8 0xFFFFFFFFFFFFFFFF DUP3 GT ISZERO PUSH3 0x7B8 JUMPI PUSH3 0x7B7 PUSH3 0x535 JUMP JUMPDEST JUMPDEST PUSH1 0x20 DUP3 MUL SWAP1 POP PUSH1 0x20 DUP2 ADD SWAP1 POP SWAP2 SWAP1 POP JUMP JUMPDEST PUSH1 0x0 DUP2 SWAP1 POP SWAP2 SWAP1 POP JUMP JUMPDEST PUSH3 0x7DE DUP2 PUSH3 0x7C9 JUMP JUMPDEST DUP2 EQ PUSH3 0x7EA JUMPI PUSH1 0x0 DUP1 REVERT JUMPDEST POP JUMP JUMPDEST PUSH1 0x0 DUP2 MLOAD SWAP1 POP PUSH3 0x7FE DUP2 PUSH3 0x7D3 JUMP JUMPDEST SWAP3 SWAP2 POP POP JUMP JUMPDEST PUSH1 0x0 PUSH3 0x81B PUSH3 0x815 DUP5 PUSH3 0x79A JUMP JUMPDEST PUSH3 0x59A JUMP JUMPDEST SWAP1 POP DUP1 DUP4 DUP3 MSTORE PUSH1 0x20 DUP3 ADD SWAP1 POP PUSH1 0x20 DUP5 MUL DUP4 ADD DUP6 DUP2 GT ISZERO PUSH3 0x841 JUMPI PUSH3 0x840 PUSH3 0x5E8 JUMP JUMPDEST JUMPDEST DUP4 JUMPDEST DUP2 DUP2 LT ISZERO PUSH3 0x86E JUMPI DUP1 PUSH3 0x859 DUP9 DUP3 PUSH3 0x7ED JUMP JUMPDEST DUP5 MSTORE PUSH1 0x20 DUP5 ADD SWAP4 POP POP PUSH1 0x20 DUP2 ADD SWAP1 POP PUSH3 0x843 JUMP JUMPDEST POP POP POP SWAP4 SWAP3 POP POP POP JUMP JUMPDEST PUSH1 0x0 DUP3 PUSH1 0x1F DUP4 ADD SLT PUSH3 0x890 JUMPI PUSH3 0x88F PUSH3 0x51F JUMP JUMPDEST JUMPDEST DUP2 MLOAD PUSH3 0x8A2 DUP5 DUP3 PUSH1 0x20 DUP7 ADD PUSH3 0x804 JUMP JUMPDEST SWAP2 POP POP SWAP3 SWAP2 POP POP JUMP JUMPDEST PUSH1 0x0 DUP1 PUSH1 0x0 DUP1 PUSH1 0x80 DUP6 DUP8 SUB SLT ISZERO PUSH3 0x8C8 JUMPI PUSH3 0x8C7 PUSH3 0x515 JUMP JUMPDEST JUMPDEST PUSH1 0x0 DUP6 ADD MLOAD PUSH8 0xFFFFFFFFFFFFFFFF DUP2 GT ISZERO PUSH3 0x8E9 JUMPI PUSH3 0x8E8 PUSH3 0x51A JUMP JUMPDEST JUMPDEST PUSH3 0x8F7 DUP8 DUP3 DUP9 ADD PUSH3 0x767 JUMP JUMPDEST SWAP5 POP POP PUSH1 0x20 DUP6 ADD MLOAD PUSH8 0xFFFFFFFFFFFFFFFF DUP2 GT ISZERO PUSH3 0x91B JUMPI PUSH3 0x91A PUSH3 0x51A JUMP JUMPDEST JUMPDEST PUSH3 0x929 DUP8 DUP3 DUP9 ADD PUSH3 0x767 JUMP JUMPDEST SWAP4 POP POP PUSH1 0x40 DUP6 ADD MLOAD PUSH8 0xFFFFFFFFFFFFFFFF DUP2 GT ISZERO PUSH3 0x94D JUMPI PUSH3 0x94C PUSH3 0x51A JUMP JUMPDEST JUMPDEST PUSH3 0x95B DUP8 DUP3 DUP9 ADD PUSH3 0x878 JUMP JUMPDEST SWAP3 POP POP PUSH1 0x60 DUP6 ADD MLOAD PUSH8 0xFFFFFFFFFFFFFFFF DUP2 GT ISZERO PUSH3 0x97F JUMPI PUSH3 0x97E PUSH3 0x51A JUMP JUMPDEST JUMPDEST PUSH3 0x98D DUP8 DUP3 DUP9 ADD PUSH3 0x878 JUMP JUMPDEST SWAP2 POP POP SWAP3 SWAP6 SWAP2 SWAP5 POP SWAP3 POP JUMP JUMPDEST PUSH1 0x0 DUP2 MLOAD SWAP1 POP SWAP2 SWAP1 POP JUMP JUMPDEST PUSH32 0x4E487B7100000000000000000000000000000000000000000000000000000000 PUSH1 0x0 MSTORE PUSH1 0x22 PUSH1 0x4 MSTORE PUSH1 0x24 PUSH1 0x0 REVERT JUMPDEST PUSH1 0x0 PUSH1 0x2 DUP3 DIV SWAP1 POP PUSH1 0x1 DUP3 AND DUP1 PUSH3 0x9EC JUMPI PUSH1 0x7F DUP3 AND SWAP2 POP JUMPDEST PUSH1 0x20 DUP3 LT DUP2 SUB PUSH3 0xA02 JUMPI PUSH3 0xA01 PUSH3 0x9A4 JUMP JUMPDEST JUMPDEST POP SWAP2 SWAP1 POP JUMP JUMPDEST PUSH1 0x0 DUP2 SWAP1 POP DUP2 PUSH1 0x0 MSTORE PUSH1 0x20 PUSH1 0x0 KECCAK256 SWAP1 POP SWAP2 SWAP1 POP JUMP JUMPDEST PUSH1 0x0 PUSH1 0x20 PUSH1 0x1F DUP4 ADD DIV SWAP1 POP SWAP2 SWAP1 POP JUMP JUMPDEST PUSH1 0x0 DUP3 DUP3 SHL SWAP1 POP SWAP3 SWAP2 POP POP JUMP JUMPDEST PUSH1 0x0 PUSH1 0x8 DUP4 MUL PUSH3 0xA6C PUSH32 0xFFFFFFFFFFFFFFFFFFFFFFFFFFFFFFFFFFFFFFFFFFFFFFFFFFFFFFFFFFFFFFFF DUP3 PUSH3 0xA2D JUMP JUMPDEST PUSH3 0xA78 DUP7 DUP4 PUSH3 0xA2D JUMP JUMPDEST SWAP6 POP DUP1 NOT DUP5 AND SWAP4 POP DUP1 DUP7 AND DUP5 OR SWAP3 POP POP POP SWAP4 SWAP3 POP POP POP JUMP JUMPDEST PUSH1 0x0 DUP2 SWAP1 POP SWAP2 SWAP1 POP JUMP JUMPDEST PUSH1 0x0 PUSH3 0xABB PUSH3 0xAB5 PUSH3 0xAAF DUP5 PUSH3 0x7C9 JUMP JUMPDEST PUSH3 0xA90 JUMP JUMPDEST PUSH3 0x7C9 JUMP JUMPDEST SWAP1 POP SWAP2 SWAP1 POP JUMP JUMPDEST PUSH1 0x0 DUP2 SWAP1 POP SWAP2 SWAP1 POP JUMP JUMPDEST PUSH3 0xAD7 DUP4 PUSH3 0xA9A JUMP JUMPDEST PUSH3 0xAEF PUSH3 0xAE6 DUP3 PUSH3 0xAC2 JUMP JUMPDEST DUP5 DUP5 SLOAD PUSH3 0xA3A JUMP JUMPDEST DUP3 SSTORE POP POP POP POP JUMP JUMPDEST PUSH1 0x0 SWAP1 JUMP JUMPDEST PUSH3 0xB06 PUSH3 0xAF7 JUMP JUMPDEST PUSH3 0xB13 DUP2 DUP5 DUP5 PUSH3 0xACC JUMP JUMPDEST POP POP POP JUMP JUMPDEST JUMPDEST DUP2 DUP2 LT ISZERO PUSH3 0xB3B JUMPI PUSH3 0xB2F PUSH1 0x0 DUP3 PUSH3 0xAFC JUMP JUMPDEST PUSH1 0x1 DUP2 ADD SWAP1 POP PUSH3 0xB19 JUMP JUMPDEST POP POP JUMP JUMPDEST PUSH1 0x1F DUP3 GT ISZERO PUSH3 0xB8A JUMPI PUSH3 0xB54 DUP2 PUSH3 0xA08 JUMP JUMPDEST PUSH3 0xB5F DUP5 PUSH3 0xA1D JUMP JUMPDEST DUP2 ADD PUSH1 0x20 DUP6 LT ISZERO PUSH3 0xB6F JUMPI DUP2 SWAP1 POP JUMPDEST PUSH3 0xB87 PUSH3 0xB7E DUP6 PUSH3 0xA1D JUMP JUMPDEST DUP4 ADD DUP3 PUSH3 0xB18 JUMP JUMPDEST POP POP JUMPDEST POP POP POP JUMP JUMPDEST PUSH1 0x0 DUP3 DUP3 SHR SWAP1 POP SWAP3 SWAP2 POP POP JUMP JUMPDEST PUSH1 0x0 PUSH3 0xBAF PUSH1 0x0 NOT DUP5 PUSH1 0x8 MUL PUSH3 0xB8F JUMP JUMPDEST NOT DUP1 DUP4 AND SWAP2 POP POP SWAP3 SWAP2 POP POP JUMP JUMPDEST PUSH1 0x0 PUSH3 0xBCA DUP4 DUP4 PUSH3 0xB9C JUMP JUMPDEST SWAP2 POP DUP3 PUSH1 0x2 MUL DUP3 OR SWAP1 POP SWAP3 SWAP2 POP POP JUMP JUMPDEST PUSH3 0xBE5 DUP3 PUSH3 0x999 JUMP JUMPDEST PUSH8 0xFFFFFFFFFFFFFFFF DUP2 GT ISZERO PUSH3 0xC01 JUMPI PUSH3 0xC00 PUSH3 0x535 JUMP JUMPDEST JUMPDEST PUSH3 0xC0D DUP3 SLOAD PUSH3 0x9D3 JUMP JUMPDEST PUSH3 0xC1A DUP3 DUP3 DUP6 PUSH3 0xB3F JUMP JUMPDEST PUSH1 0x0 PUSH1 0x20 SWAP1 POP PUSH1 0x1F DUP4 GT PUSH1 0x1 DUP2 EQ PUSH3 0xC52 JUMPI PUSH1 0x0 DUP5 ISZERO PUSH3 0xC3D JUMPI DUP3 DUP8 ADD MLOAD SWAP1 POP JUMPDEST PUSH3 0xC49 DUP6 DUP3 PUSH3 0xBBC JUMP JUMPDEST DUP7 SSTORE POP PUSH3 0xCB9 JUMP JUMPDEST PUSH1 0x1F NOT DUP5 AND PUSH3 0xC62 DUP7 PUSH3 0xA08 JUMP JUMPDEST PUSH1 0x0 JUMPDEST DUP3 DUP2 LT ISZERO PUSH3 0xC8C JUMPI DUP5 DUP10 ADD MLOAD DUP3 SSTORE PUSH1 0x1 DUP3 ADD SWAP2 POP PUSH1 0x20 DUP6 ADD SWAP5 POP PUSH1 0x20 DUP2 ADD SWAP1 POP PUSH3 0xC65 JUMP JUMPDEST DUP7 DUP4 LT ISZERO PUSH3 0xCAC JUMPI DUP5 DUP10 ADD MLOAD PUSH3 0xCA8 PUSH1 0x1F DUP10 AND DUP3 PUSH3 0xB9C JUMP JUMPDEST DUP4 SSTORE POP JUMPDEST PUSH1 0x1 PUSH1 0x2 DUP9 MUL ADD DUP9 SSTORE POP POP POP JUMPDEST POP POP POP POP POP POP JUMP JUMPDEST PUSH32 0x4E487B7100000000000000000000000000000000000000000000000000000000 PUSH1 0x0 MSTORE PUSH1 0x32 PUSH1 0x4 MSTORE PUSH1 0x24 PUSH1 0x0 REVERT JUMPDEST PUSH32 0x4E487B7100000000000000000000000000000000000000000000000000000000 PUSH1 0x0 MSTORE PUSH1 0x11 PUSH1 0x4 MSTORE PUSH1 0x24 PUSH1 0x0 REVERT JUMPDEST PUSH1 0x0 PUSH3 0xD2C DUP3 PUSH3 0x7C9 JUMP JUMPDEST SWAP2 POP PUSH32 0xFFFFFFFFFFFFFFFFFFFFFFFFFFFFFFFFFFFFFFFFFFFFFFFFFFFFFFFFFFFFFFFF DUP3 SUB PUSH3 0xD61 JUMPI PUSH3 0xD60 PUSH3 0xCF0 JUMP JUMPDEST JUMPDEST PUSH1 0x1 DUP3 ADD SWAP1 POP SWAP2 SWAP1 POP JUMP JUMPDEST PUSH1 0x0 DUP3 DUP3 MSTORE PUSH1 0x20 DUP3 ADD SWAP1 POP SWAP3 SWAP2 POP POP JUMP JUMPDEST PUSH1 0x0 PUSH3 0xD8A DUP3 PUSH3 0x999 JUMP JUMPDEST PUSH3 0xD96 DUP2 DUP6 PUSH3 0xD6C JUMP JUMPDEST SWAP4 POP PUSH3 0xDA8 DUP2 DUP6 PUSH1 0x20 DUP7 ADD PUSH3 0x628 JUMP JUMPDEST PUSH3 0xDB3 DUP2 PUSH3 0x524 JUMP JUMPDEST DUP5 ADD SWAP2 POP POP SWAP3 SWAP2 POP POP JUMP JUMPDEST PUSH3 0xDC9 DUP2 PUSH3 0x7C9 JUMP JUMPDEST DUP3 MSTORE POP POP JUMP JUMPDEST PUSH1 0x0 PUSH1 0x80 DUP3 ADD SWAP1 POP DUP2 DUP2 SUB PUSH1 0x0 DUP4 ADD MSTORE PUSH3 0xDEB DUP2 DUP8 PUSH3 0xD7D JUMP JUMPDEST SWAP1 POP DUP2 DUP2 SUB PUSH1 0x20 DUP4 ADD MSTORE PUSH3 0xE01 DUP2 DUP7 PUSH3 0xD7D JUMP JUMPDEST SWAP1 POP PUSH3 0xE12 PUSH1 0x40 DUP4 ADD DUP6 PUSH3 0xDBE JUMP JUMPDEST DUP2 DUP2 SUB PUSH1 0x60 DUP4 ADD MSTORE PUSH3 0xE26 DUP2 DUP5 PUSH3 0xD7D JUMP JUMPDEST SWAP1 POP SWAP6 SWAP5 POP POP POP POP POP JUMP JUMPDEST PUSH2 0x385F DUP1 PUSH3 0xE41 PUSH1 0x0 CODECOPY PUSH1 0x0 RETURN INVALID PUSH1 0x80 PUSH1 0x40 MSTORE CALLVALUE DUP1 ISZERO PUSH2 0x10 JUMPI PUSH1 0x0 DUP1 REVERT JUMPDEST POP PUSH1 0x4 CALLDATASIZE LT PUSH2 0x100 JUMPI PUSH1 0x0 CALLDATALOAD PUSH1 0xE0 SHR DUP1 PUSH4 0x7DF124A1 GT PUSH2 0x97 JUMPI DUP1 PUSH4 0xB88D4FDE GT PUSH2 0x66 JUMPI DUP1 PUSH4 0xB88D4FDE EQ PUSH2 0x2D6 JUMPI DUP1 PUSH4 0xC87B56DD EQ PUSH2 0x2F2 JUMPI DUP1 PUSH4 0xE985E9C5 EQ PUSH2 0x322 JUMPI DUP1 PUSH4 0xF8B81EF7 EQ PUSH2 0x352 JUMPI PUSH2 0x100 JUMP JUMPDEST DUP1 PUSH4 0x7DF124A1 EQ PUSH2 0x237 JUMPI DUP1 PUSH4 0x95D89B41 EQ PUSH2 0x267 JUMPI DUP1 PUSH4 0x98DA4C95 EQ PUSH2 0x285 JUMPI DUP1 PUSH4 0xA22CB465 EQ PUSH2 0x2BA JUMPI PUSH2 0x100 JUMP JUMPDEST DUP1 PUSH4 0x23B872DD GT PUSH2 0xD3 JUMPI DUP1 PUSH4 0x23B872DD EQ PUSH2 0x19F JUMPI DUP1 PUSH4 0x42842E0E EQ PUSH2 0x1BB JUMPI DUP1 PUSH4 0x6352211E EQ PUSH2 0x1D7 JUMPI DUP1 PUSH4 0x70A08231 EQ PUSH2 0x207 JUMPI PUSH2 0x100 JUMP JUMPDEST DUP1 PUSH4 0x1FFC9A7 EQ PUSH2 0x105 JUMPI DUP1 PUSH4 0x6FDDE03 EQ PUSH2 0x135 JUMPI DUP1 PUSH4 0x81812FC EQ PUSH2 0x153 JUMPI DUP1 PUSH4 0x95EA7B3 EQ PUSH2 0x183 JUMPI JUMPDEST PUSH1 0x0 DUP1 REVERT JUMPDEST PUSH2 0x11F PUSH1 0x4 DUP1 CALLDATASIZE SUB DUP2 ADD SWAP1 PUSH2 0x11A SWAP2 SWAP1 PUSH2 0x226E JUMP JUMPDEST PUSH2 0x36E JUMP JUMPDEST PUSH1 0x40 MLOAD PUSH2 0x12C SWAP2 SWAP1 PUSH2 0x22B6 JUMP JUMPDEST PUSH1 0x40 MLOAD DUP1 SWAP2 SUB SWAP1 RETURN JUMPDEST PUSH2 0x13D PUSH2 0x450 JUMP JUMPDEST PUSH1 0x40 MLOAD PUSH2 0x14A SWAP2 SWAP1 PUSH2 0x2361 JUMP JUMPDEST PUSH1 0x40 MLOAD DUP1 SWAP2 SUB SWAP1 RETURN JUMPDEST PUSH2 0x16D PUSH1 0x4 DUP1 CALLDATASIZE SUB DUP2 ADD SWAP1 PUSH2 0x168 SWAP2 SWAP1 PUSH2 0x23B9 JUMP JUMPDEST PUSH2 0x4E2 JUMP JUMPDEST PUSH1 0x40 MLOAD PUSH2 0x17A SWAP2 SWAP1 PUSH2 0x2427 JUMP JUMPDEST PUSH1 0x40 MLOAD DUP1 SWAP2 SUB SWAP1 RETURN JUMPDEST PUSH2 0x19D PUSH1 0x4 DUP1 CALLDATASIZE SUB DUP2 ADD SWAP1 PUSH2 0x198 SWAP2 SWAP1 PUSH2 0x246E JUMP JUMPDEST PUSH2 0x528 JUMP JUMPDEST STOP JUMPDEST PUSH2 0x1B9 PUSH1 0x4 DUP1 CALLDATASIZE SUB DUP2 ADD SWAP1 PUSH2 0x1B4 SWAP2 SWAP1 PUSH2 0x24AE JUMP JUMPDEST PUSH2 0x63F JUMP JUMPDEST STOP JUMPDEST PUSH2 0x1D5 PUSH1 0x4 DUP1 CALLDATASIZE SUB DUP2 ADD SWAP1 PUSH2 0x1D0 SWAP2 SWAP1 PUSH2 0x24AE JUMP JUMPDEST PUSH2 0x69F JUMP JUMPDEST STOP JUMPDEST PUSH2 0x1F1 PUSH1 0x4 DUP1 CALLDATASIZE SUB DUP2 ADD SWAP1 PUSH2 0x1EC SWAP2 SWAP1 PUSH2 0x23B9 JUMP JUMPDEST PUSH2 0x6BF JUMP JUMPDEST PUSH1 0x40 MLOAD PUSH2 0x1FE SWAP2 SWAP1 PUSH2 0x2427 JUMP JUMPDEST PUSH1 0x40 MLOAD DUP1 SWAP2 SUB SWAP1 RETURN JUMPDEST PUSH2 0x221 PUSH1 0x4 DUP1 CALLDATASIZE SUB DUP2 ADD SWAP1 PUSH2 0x21C SWAP2 SWAP1 PUSH2 0x2501 JUMP JUMPDEST PUSH2 0x745 JUMP JUMPDEST PUSH1 0x40 MLOAD PUSH2 0x22E SWAP2 SWAP1 PUSH2 0x253D JUMP JUMPDEST PUSH1 0x40 MLOAD DUP1 SWAP2 SUB SWAP1 RETURN JUMPDEST PUSH2 0x251 PUSH1 0x4 DUP1 CALLDATASIZE SUB DUP2 ADD SWAP1 PUSH2 0x24C SWAP2 SWAP1 PUSH2 0x2501 JUMP JUMPDEST PUSH2 0x7FC JUMP JUMPDEST PUSH1 0x40 MLOAD PUSH2 0x25E SWAP2 SWAP1 PUSH2 0x253D JUMP JUMPDEST PUSH1 0x40 MLOAD DUP1 SWAP2 SUB SWAP1 RETURN JUMPDEST PUSH2 0x26F PUSH2 0x814 JUMP JUMPDEST PUSH1 0x40 MLOAD PUSH2 0x27C SWAP2 SWAP1 PUSH2 0x2361 JUMP JUMPDEST PUSH1 0x40 MLOAD DUP1 SWAP2 SUB SWAP1 RETURN JUMPDEST PUSH2 0x29F PUSH1 0x4 DUP1 CALLDATASIZE SUB DUP2 ADD SWAP1 PUSH2 0x29A SWAP2 SWAP1 PUSH2 0x23B9 JUMP JUMPDEST PUSH2 0x8A6 JUMP JUMPDEST PUSH1 0x40 MLOAD PUSH2 0x2B1 SWAP7 SWAP6 SWAP5 SWAP4 SWAP3 SWAP2 SWAP1 PUSH2 0x2558 JUMP JUMPDEST PUSH1 0x40 MLOAD DUP1 SWAP2 SUB SWAP1 RETURN JUMPDEST PUSH2 0x2D4 PUSH1 0x4 DUP1 CALLDATASIZE SUB DUP2 ADD SWAP1 PUSH2 0x2CF SWAP2 SWAP1 PUSH2 0x25F3 JUMP JUMPDEST PUSH2 0x9F2 JUMP JUMPDEST STOP JUMPDEST PUSH2 0x2F0 PUSH1 0x4 DUP1 CALLDATASIZE SUB DUP2 ADD SWAP1 PUSH2 0x2EB SWAP2 SWAP1 PUSH2 0x2768 JUMP JUMPDEST PUSH2 0xA08 JUMP JUMPDEST STOP JUMPDEST PUSH2 0x30C PUSH1 0x4 DUP1 CALLDATASIZE SUB DUP2 ADD SWAP1 PUSH2 0x307 SWAP2 SWAP1 PUSH2 0x23B9 JUMP JUMPDEST PUSH2 0xA6A JUMP JUMPDEST PUSH1 0x40 MLOAD PUSH2 0x319 SWAP2 SWAP1 PUSH2 0x2361 JUMP JUMPDEST PUSH1 0x40 MLOAD DUP1 SWAP2 SUB SWAP1 RETURN JUMPDEST PUSH2 0x33C PUSH1 0x4 DUP1 CALLDATASIZE SUB DUP2 ADD SWAP1 PUSH2 0x337 SWAP2 SWAP1 PUSH2 0x27EB JUMP JUMPDEST PUSH2 0xC85 JUMP JUMPDEST PUSH1 0x40 MLOAD PUSH2 0x349 SWAP2 SWAP1 PUSH2 0x22B6 JUMP JUMPDEST PUSH1 0x40 MLOAD DUP1 SWAP2 SUB SWAP1 RETURN JUMPDEST PUSH2 0x36C PUSH1 0x4 DUP1 CALLDATASIZE SUB DUP2 ADD SWAP1 PUSH2 0x367 SWAP2 SWAP1 PUSH2 0x23B9 JUMP JUMPDEST PUSH2 0xD19 JUMP JUMPDEST STOP JUMPDEST PUSH1 0x0 PUSH32 0x80AC58CD00000000000000000000000000000000000000000000000000000000 PUSH28 0xFFFFFFFFFFFFFFFFFFFFFFFFFFFFFFFFFFFFFFFFFFFFFFFFFFFFFFFF NOT AND DUP3 PUSH28 0xFFFFFFFFFFFFFFFFFFFFFFFFFFFFFFFFFFFFFFFFFFFFFFFFFFFFFFFF NOT AND EQ DUP1 PUSH2 0x439 JUMPI POP PUSH32 0x5B5E139F00000000000000000000000000000000000000000000000000000000 PUSH28 0xFFFFFFFFFFFFFFFFFFFFFFFFFFFFFFFFFFFFFFFFFFFFFFFFFFFFFFFF NOT AND DUP3 PUSH28 0xFFFFFFFFFFFFFFFFFFFFFFFFFFFFFFFFFFFFFFFFFFFFFFFFFFFFFFFF NOT AND EQ JUMPDEST DUP1 PUSH2 0x449 JUMPI POP PUSH2 0x448 DUP3 PUSH2 0x10BE JUMP JUMPDEST JUMPDEST SWAP1 POP SWAP2 SWAP1 POP JUMP JUMPDEST PUSH1 0x60 PUSH1 0x0 DUP1 SLOAD PUSH2 0x45F SWAP1 PUSH2 0x285A JUMP JUMPDEST DUP1 PUSH1 0x1F ADD PUSH1 0x20 DUP1 SWAP2 DIV MUL PUSH1 0x20 ADD PUSH1 0x40 MLOAD SWAP1 DUP2 ADD PUSH1 0x40 MSTORE DUP1 SWAP3 SWAP2 SWAP1 DUP2 DUP2 MSTORE PUSH1 0x20 ADD DUP3 DUP1 SLOAD PUSH2 0x48B SWAP1 PUSH2 0x285A JUMP JUMPDEST DUP1 ISZERO PUSH2 0x4D8 JUMPI DUP1 PUSH1 0x1F LT PUSH2 0x4AD JUMPI PUSH2 0x100 DUP1 DUP4 SLOAD DIV MUL DUP4 MSTORE SWAP2 PUSH1 0x20 ADD SWAP2 PUSH2 0x4D8 JUMP JUMPDEST DUP3 ADD SWAP2 SWAP1 PUSH1 0x0 MSTORE PUSH1 0x20 PUSH1 0x0 KECCAK256 SWAP1 JUMPDEST DUP2 SLOAD DUP2 MSTORE SWAP1 PUSH1 0x1 ADD SWAP1 PUSH1 0x20 ADD DUP1 DUP4 GT PUSH2 0x4BB JUMPI DUP3 SWAP1 SUB PUSH1 0x1F AND DUP3 ADD SWAP2 JUMPDEST POP POP POP POP POP SWAP1 POP SWAP1 JUMP JUMPDEST PUSH1 0x0 PUSH2 0x4ED DUP3 PUSH2 0x1128 JUMP JUMPDEST PUSH1 0x4 PUSH1 0x0 DUP4 DUP2 MSTORE PUSH1 0x20 ADD SWAP1 DUP2 MSTORE PUSH1 0x20 ADD PUSH1 0x0 KECCAK256 PUSH1 0x0 SWAP1 SLOAD SWAP1 PUSH2 0x100 EXP SWAP1 DIV PUSH20 0xFFFFFFFFFFFFFFFFFFFFFFFFFFFFFFFFFFFFFFFF AND SWAP1 POP SWAP2 SWAP1 POP JUMP JUMPDEST PUSH1 0x0 PUSH2 0x533 DUP3 PUSH2 0x6BF JUMP JUMPDEST SWAP1 POP DUP1 PUSH20 0xFFFFFFFFFFFFFFFFFFFFFFFFFFFFFFFFFFFFFFFF AND DUP4 PUSH20 0xFFFFFFFFFFFFFFFFFFFFFFFFFFFFFFFFFFFFFFFF AND SUB PUSH2 0x5A3 JUMPI PUSH1 0x40 MLOAD PUSH32 0x8C379A000000000000000000000000000000000000000000000000000000000 DUP2 MSTORE PUSH1 0x4 ADD PUSH2 0x59A SWAP1 PUSH2 0x28FD JUMP JUMPDEST PUSH1 0x40 MLOAD DUP1 SWAP2 SUB SWAP1 REVERT JUMPDEST DUP1 PUSH20 0xFFFFFFFFFFFFFFFFFFFFFFFFFFFFFFFFFFFFFFFF AND PUSH2 0x5C2 PUSH2 0x1173 JUMP JUMPDEST PUSH20 0xFFFFFFFFFFFFFFFFFFFFFFFFFFFFFFFFFFFFFFFF AND EQ DUP1 PUSH2 0x5F1 JUMPI POP PUSH2 0x5F0 DUP2 PUSH2 0x5EB PUSH2 0x1173 JUMP JUMPDEST PUSH2 0xC85 JUMP JUMPDEST JUMPDEST PUSH2 0x630 JUMPI PUSH1 0x40 MLOAD PUSH32 0x8C379A000000000000000000000000000000000000000000000000000000000 DUP2 MSTORE PUSH1 0x4 ADD PUSH2 0x627 SWAP1 PUSH2 0x298F JUMP JUMPDEST PUSH1 0x40 MLOAD DUP1 SWAP2 SUB SWAP1 REVERT JUMPDEST PUSH2 0x63A DUP4 DUP4 PUSH2 0x117B JUMP JUMPDEST POP POP POP JUMP JUMPDEST PUSH2 0x650 PUSH2 0x64A PUSH2 0x1173 JUMP JUMPDEST DUP3 PUSH2 0x1234 JUMP JUMPDEST PUSH2 0x68F JUMPI PUSH1 0x40 MLOAD PUSH32 0x8C379A000000000000000000000000000000000000000000000000000000000 DUP2 MSTORE PUSH1 0x4 ADD PUSH2 0x686 SWAP1 PUSH2 0x2A21 JUMP JUMPDEST PUSH1 0x40 MLOAD DUP1 SWAP2 SUB SWAP1 REVERT JUMPDEST PUSH2 0x69A DUP4 DUP4 DUP4 PUSH2 0x12C9 JUMP JUMPDEST POP POP POP JUMP JUMPDEST PUSH2 0x6BA DUP4 DUP4 DUP4 PUSH1 0x40 MLOAD DUP1 PUSH1 0x20 ADD PUSH1 0x40 MSTORE DUP1 PUSH1 0x0 DUP2 MSTORE POP PUSH2 0xA08 JUMP JUMPDEST POP POP POP JUMP JUMPDEST PUSH1 0x0 DUP1 PUSH2 0x6CB DUP4 PUSH2 0x15C2 JUMP JUMPDEST SWAP1 POP PUSH1 0x0 PUSH20 0xFFFFFFFFFFFFFFFFFFFFFFFFFFFFFFFFFFFFFFFF AND DUP2 PUSH20 0xFFFFFFFFFFFFFFFFFFFFFFFFFFFFFFFFFFFFFFFF AND SUB PUSH2 0x73C JUMPI PUSH1 0x40 MLOAD PUSH32 0x8C379A000000000000000000000000000000000000000000000000000000000 DUP2 MSTORE PUSH1 0x4 ADD PUSH2 0x733 SWAP1 PUSH2 0x2A8D JUMP JUMPDEST PUSH1 0x40 MLOAD DUP1 SWAP2 SUB SWAP1 REVERT JUMPDEST DUP1 SWAP2 POP POP SWAP2 SWAP1 POP JUMP JUMPDEST PUSH1 0x0 DUP1 PUSH20 0xFFFFFFFFFFFFFFFFFFFFFFFFFFFFFFFFFFFFFFFF AND DUP3 PUSH20 0xFFFFFFFFFFFFFFFFFFFFFFFFFFFFFFFFFFFFFFFF AND SUB PUSH2 0x7B5 JUMPI PUSH1 0x40 MLOAD PUSH32 0x8C379A000000000000000000000000000000000000000000000000000000000 DUP2 MSTORE PUSH1 0x4 ADD PUSH2 0x7AC SWAP1 PUSH2 0x2B1F JUMP JUMPDEST PUSH1 0x40 MLOAD DUP1 SWAP2 SUB SWAP1 REVERT JUMPDEST PUSH1 0x3 PUSH1 0x0 DUP4 PUSH20 0xFFFFFFFFFFFFFFFFFFFFFFFFFFFFFFFFFFFFFFFF AND PUSH20 0xFFFFFFFFFFFFFFFFFFFFFFFFFFFFFFFFFFFFFFFF AND DUP2 MSTORE PUSH1 0x20 ADD SWAP1 DUP2 MSTORE PUSH1 0x20 ADD PUSH1 0x0 KECCAK256 SLOAD SWAP1 POP SWAP2 SWAP1 POP JUMP JUMPDEST PUSH1 0x9 PUSH1 0x20 MSTORE DUP1 PUSH1 0x0 MSTORE PUSH1 0x40 PUSH1 0x0 KECCAK256 PUSH1 0x0 SWAP2 POP SWAP1 POP SLOAD DUP2 JUMP JUMPDEST PUSH1 0x60 PUSH1 0x1 DUP1 SLOAD PUSH2 0x823 SWAP1 PUSH2 0x285A JUMP JUMPDEST DUP1 PUSH1 0x1F ADD PUSH1 0x20 DUP1 SWAP2 DIV MUL PUSH1 0x20 ADD PUSH1 0x40 MLOAD SWAP1 DUP2 ADD PUSH1 0x40 MSTORE DUP1 SWAP3 SWAP2 SWAP1 DUP2 DUP2 MSTORE PUSH1 0x20 ADD DUP3 DUP1 SLOAD PUSH2 0x84F SWAP1 PUSH2 0x285A JUMP JUMPDEST DUP1 ISZERO PUSH2 0x89C JUMPI DUP1 PUSH1 0x1F LT PUSH2 0x871 JUMPI PUSH2 0x100 DUP1 DUP4 SLOAD DIV MUL DUP4 MSTORE SWAP2 PUSH1 0x20 ADD SWAP2 PUSH2 0x89C JUMP JUMPDEST DUP3 ADD SWAP2 SWAP1 PUSH1 0x0 MSTORE PUSH1 0x20 PUSH1 0x0 KECCAK256 SWAP1 JUMPDEST DUP2 SLOAD DUP2 MSTORE SWAP1 PUSH1 0x1 ADD SWAP1 PUSH1 0x20 ADD DUP1 DUP4 GT PUSH2 0x87F JUMPI DUP3 SWAP1 SUB PUSH1 0x1F AND DUP3 ADD SWAP2 JUMPDEST POP POP POP POP POP SWAP1 POP SWAP1 JUMP JUMPDEST PUSH1 0x8 PUSH1 0x20 MSTORE DUP1 PUSH1 0x0 MSTORE PUSH1 0x40 PUSH1 0x0 KECCAK256 PUSH1 0x0 SWAP2 POP SWAP1 POP DUP1 PUSH1 0x0 ADD SLOAD SWAP1 DUP1 PUSH1 0x1 ADD DUP1 SLOAD PUSH2 0x8CF SWAP1 PUSH2 0x285A JUMP JUMPDEST DUP1 PUSH1 0x1F ADD PUSH1 0x20 DUP1 SWAP2 DIV MUL PUSH1 0x20 ADD PUSH1 0x40 MLOAD SWAP1 DUP2 ADD PUSH1 0x40 MSTORE DUP1 SWAP3 SWAP2 SWAP1 DUP2 DUP2 MSTORE PUSH1 0x20 ADD DUP3 DUP1 SLOAD PUSH2 0x8FB SWAP1 PUSH2 0x285A JUMP JUMPDEST DUP1 ISZERO PUSH2 0x948 JUMPI DUP1 PUSH1 0x1F LT PUSH2 0x91D JUMPI PUSH2 0x100 DUP1 DUP4 SLOAD DIV MUL DUP4 MSTORE SWAP2 PUSH1 0x20 ADD SWAP2 PUSH2 0x948 JUMP JUMPDEST DUP3 ADD SWAP2 SWAP1 PUSH1 0x0 MSTORE PUSH1 0x20 PUSH1 0x0 KECCAK256 SWAP1 JUMPDEST DUP2 SLOAD DUP2 MSTORE SWAP1 PUSH1 0x1 ADD SWAP1 PUSH1 0x20 ADD DUP1 DUP4 GT PUSH2 0x92B JUMPI DUP3 SWAP1 SUB PUSH1 0x1F AND DUP3 ADD SWAP2 JUMPDEST POP POP POP POP POP SWAP1 DUP1 PUSH1 0x2 ADD DUP1 SLOAD PUSH2 0x95D SWAP1 PUSH2 0x285A JUMP JUMPDEST DUP1 PUSH1 0x1F ADD PUSH1 0x20 DUP1 SWAP2 DIV MUL PUSH1 0x20 ADD PUSH1 0x40 MLOAD SWAP1 DUP2 ADD PUSH1 0x40 MSTORE DUP1 SWAP3 SWAP2 SWAP1 DUP2 DUP2 MSTORE PUSH1 0x20 ADD DUP3 DUP1 SLOAD PUSH2 0x989 SWAP1 PUSH2 0x285A JUMP JUMPDEST DUP1 ISZERO PUSH2 0x9D6 JUMPI DUP1 PUSH1 0x1F LT PUSH2 0x9AB JUMPI PUSH2 0x100 DUP1 DUP4 SLOAD DIV MUL DUP4 MSTORE SWAP2 PUSH1 0x20 ADD SWAP2 PUSH2 0x9D6 JUMP JUMPDEST DUP3 ADD SWAP2 SWAP1 PUSH1 0x0 MSTORE PUSH1 0x20 PUSH1 0x0 KECCAK256 SWAP1 JUMPDEST DUP2 SLOAD DUP2 MSTORE SWAP1 PUSH1 0x1 ADD SWAP1 PUSH1 0x20 ADD DUP1 DUP4 GT PUSH2 0x9B9 JUMPI DUP3 SWAP1 SUB PUSH1 0x1F AND DUP3 ADD SWAP2 JUMPDEST POP POP POP POP POP SWAP1 DUP1 PUSH1 0x3 ADD SLOAD SWAP1 DUP1 PUSH1 0x4 ADD SLOAD SWAP1 DUP1 PUSH1 0x5 ADD SLOAD SWAP1 POP DUP7 JUMP JUMPDEST PUSH2 0xA04 PUSH2 0x9FD PUSH2 0x1173 JUMP JUMPDEST DUP4 DUP4 PUSH2 0x15FF JUMP JUMPDEST POP POP JUMP JUMPDEST PUSH2 0xA19 PUSH2 0xA13 PUSH2 0x1173 JUMP JUMPDEST DUP4 PUSH2 0x1234 JUMP JUMPDEST PUSH2 0xA58 JUMPI PUSH1 0x40 MLOAD PUSH32 0x8C379A000000000000000000000000000000000000000000000000000000000 DUP2 MSTORE PUSH1 0x4 ADD PUSH2 0xA4F SWAP1 PUSH2 0x2A21 JUMP JUMPDEST PUSH1 0x40 MLOAD DUP1 SWAP2 SUB SWAP1 REVERT JUMPDEST PUSH2 0xA64 DUP5 DUP5 DUP5 DUP5 PUSH2 0x176B JUMP JUMPDEST POP POP POP POP JUMP JUMPDEST PUSH1 0x60 PUSH1 0x0 PUSH1 0x8 PUSH1 0x0 DUP5 DUP2 MSTORE PUSH1 0x20 ADD SWAP1 DUP2 MSTORE PUSH1 0x20 ADD PUSH1 0x0 KECCAK256 PUSH1 0x40 MLOAD DUP1 PUSH1 0xC0 ADD PUSH1 0x40 MSTORE SWAP1 DUP2 PUSH1 0x0 DUP3 ADD SLOAD DUP2 MSTORE PUSH1 0x20 ADD PUSH1 0x1 DUP3 ADD DUP1 SLOAD PUSH2 0xAA6 SWAP1 PUSH2 0x285A JUMP JUMPDEST DUP1 PUSH1 0x1F ADD PUSH1 0x20 DUP1 SWAP2 DIV MUL PUSH1 0x20 ADD PUSH1 0x40 MLOAD SWAP1 DUP2 ADD PUSH1 0x40 MSTORE DUP1 SWAP3 SWAP2 SWAP1 DUP2 DUP2 MSTORE PUSH1 0x20 ADD DUP3 DUP1 SLOAD PUSH2 0xAD2 SWAP1 PUSH2 0x285A JUMP JUMPDEST DUP1 ISZERO PUSH2 0xB1F JUMPI DUP1 PUSH1 0x1F LT PUSH2 0xAF4 JUMPI PUSH2 0x100 DUP1 DUP4 SLOAD DIV MUL DUP4 MSTORE SWAP2 PUSH1 0x20 ADD SWAP2 PUSH2 0xB1F JUMP JUMPDEST DUP3 ADD SWAP2 SWAP1 PUSH1 0x0 MSTORE PUSH1 0x20 PUSH1 0x0 KECCAK256 SWAP1 JUMPDEST DUP2 SLOAD DUP2 MSTORE SWAP1 PUSH1 0x1 ADD SWAP1 PUSH1 0x20 ADD DUP1 DUP4 GT PUSH2 0xB02 JUMPI DUP3 SWAP1 SUB PUSH1 0x1F AND DUP3 ADD SWAP2 JUMPDEST POP POP POP POP POP DUP2 MSTORE PUSH1 0x20 ADD PUSH1 0x2 DUP3 ADD DUP1 SLOAD PUSH2 0xB38 SWAP1 PUSH2 0x285A JUMP JUMPDEST DUP1 PUSH1 0x1F ADD PUSH1 0x20 DUP1 SWAP2 DIV MUL PUSH1 0x20 ADD PUSH1 0x40 MLOAD SWAP1 DUP2 ADD PUSH1 0x40 MSTORE DUP1 SWAP3 SWAP2 SWAP1 DUP2 DUP2 MSTORE PUSH1 0x20 ADD DUP3 DUP1 SLOAD PUSH2 0xB64 SWAP1 PUSH2 0x285A JUMP JUMPDEST DUP1 ISZERO PUSH2 0xBB1 JUMPI DUP1 PUSH1 0x1F LT PUSH2 0xB86 JUMPI PUSH2 0x100 DUP1 DUP4 SLOAD DIV MUL DUP4 MSTORE SWAP2 PUSH1 0x20 ADD SWAP2 PUSH2 0xBB1 JUMP JUMPDEST DUP3 ADD SWAP2 SWAP1 PUSH1 0x0 MSTORE PUSH1 0x20 PUSH1 0x0 KECCAK256 SWAP1 JUMPDEST DUP2 SLOAD DUP2 MSTORE SWAP1 PUSH1 0x1 ADD SWAP1 PUSH1 0x20 ADD DUP1 DUP4 GT PUSH2 0xB94 JUMPI DUP3 SWAP1 SUB PUSH1 0x1F AND DUP3 ADD SWAP2 JUMPDEST POP POP POP POP POP DUP2 MSTORE PUSH1 0x20 ADD PUSH1 0x3 DUP3 ADD SLOAD DUP2 MSTORE PUSH1 0x20 ADD PUSH1 0x4 DUP3 ADD SLOAD DUP2 MSTORE PUSH1 0x20 ADD PUSH1 0x5 DUP3 ADD SLOAD DUP2 MSTORE POP POP SWAP1 POP PUSH1 0x0 PUSH2 0xBE9 DUP3 PUSH1 0x60 ADD MLOAD PUSH2 0x17C7 JUMP JUMPDEST SWAP1 POP PUSH1 0x0 PUSH2 0xBFA DUP4 PUSH1 0x80 ADD MLOAD PUSH2 0x17C7 JUMP JUMPDEST SWAP1 POP PUSH1 0x0 PUSH2 0xC0B DUP5 PUSH1 0xA0 ADD MLOAD PUSH2 0x17C7 JUMP JUMPDEST SWAP1 POP PUSH1 0x0 PUSH2 0xC51 DUP6 PUSH1 0x20 ADD MLOAD PUSH2 0xC20 DUP10 PUSH2 0x17C7 JUMP JUMPDEST DUP8 PUSH1 0x40 ADD MLOAD DUP8 DUP8 DUP8 PUSH1 0x40 MLOAD PUSH1 0x20 ADD PUSH2 0xC3D SWAP7 SWAP6 SWAP5 SWAP4 SWAP3 SWAP2 SWAP1 PUSH2 0x2E4D JUMP JUMPDEST PUSH1 0x40 MLOAD PUSH1 0x20 DUP2 DUP4 SUB SUB DUP2 MSTORE SWAP1 PUSH1 0x40 MSTORE PUSH2 0x1895 JUMP JUMPDEST SWAP1 POP PUSH1 0x0 DUP2 PUSH1 0x40 MLOAD PUSH1 0x20 ADD PUSH2 0xC66 SWAP2 SWAP1 PUSH2 0x2F3E JUMP JUMPDEST PUSH1 0x40 MLOAD PUSH1 0x20 DUP2 DUP4 SUB SUB DUP2 MSTORE SWAP1 PUSH1 0x40 MSTORE SWAP1 POP DUP1 SWAP7 POP POP POP POP POP POP POP SWAP2 SWAP1 POP JUMP JUMPDEST PUSH1 0x0 PUSH1 0x5 PUSH1 0x0 DUP5 PUSH20 0xFFFFFFFFFFFFFFFFFFFFFFFFFFFFFFFFFFFFFFFF AND PUSH20 0xFFFFFFFFFFFFFFFFFFFFFFFFFFFFFFFFFFFFFFFF AND DUP2 MSTORE PUSH1 0x20 ADD SWAP1 DUP2 MSTORE PUSH1 0x20 ADD PUSH1 0x0 KECCAK256 PUSH1 0x0 DUP4 PUSH20 0xFFFFFFFFFFFFFFFFFFFFFFFFFFFFFFFFFFFFFFFF AND PUSH20 0xFFFFFFFFFFFFFFFFFFFFFFFFFFFFFFFFFFFFFFFF AND DUP2 MSTORE PUSH1 0x20 ADD SWAP1 DUP2 MSTORE PUSH1 0x20 ADD PUSH1 0x0 KECCAK256 PUSH1 0x0 SWAP1 SLOAD SWAP1 PUSH2 0x100 EXP SWAP1 DIV PUSH1 0xFF AND SWAP1 POP SWAP3 SWAP2 POP POP JUMP JUMPDEST PUSH1 0x0 PUSH2 0xD25 PUSH1 0x6 PUSH2 0x1A2C JUMP JUMPDEST SWAP1 POP PUSH2 0xD31 CALLER DUP3 PUSH2 0x1A3A JUMP JUMPDEST PUSH1 0x40 MLOAD DUP1 PUSH1 0xC0 ADD PUSH1 0x40 MSTORE DUP1 DUP4 DUP2 MSTORE PUSH1 0x20 ADD PUSH1 0x7 DUP5 DUP2 SLOAD DUP2 LT PUSH2 0xD56 JUMPI PUSH2 0xD55 PUSH2 0x2F60 JUMP JUMPDEST JUMPDEST SWAP1 PUSH1 0x0 MSTORE PUSH1 0x20 PUSH1 0x0 KECCAK256 SWAP1 PUSH1 0x6 MUL ADD PUSH1 0x1 ADD DUP1 SLOAD PUSH2 0xD72 SWAP1 PUSH2 0x285A JUMP JUMPDEST DUP1 PUSH1 0x1F ADD PUSH1 0x20 DUP1 SWAP2 DIV MUL PUSH1 0x20 ADD PUSH1 0x40 MLOAD SWAP1 DUP2 ADD PUSH1 0x40 MSTORE DUP1 SWAP3 SWAP2 SWAP1 DUP2 DUP2 MSTORE PUSH1 0x20 ADD DUP3 DUP1 SLOAD PUSH2 0xD9E SWAP1 PUSH2 0x285A JUMP JUMPDEST DUP1 ISZERO PUSH2 0xDEB JUMPI DUP1 PUSH1 0x1F LT PUSH2 0xDC0 JUMPI PUSH2 0x100 DUP1 DUP4 SLOAD DIV MUL DUP4 MSTORE SWAP2 PUSH1 0x20 ADD SWAP2 PUSH2 0xDEB JUMP JUMPDEST DUP3 ADD SWAP2 SWAP1 PUSH1 0x0 MSTORE PUSH1 0x20 PUSH1 0x0 KECCAK256 SWAP1 JUMPDEST DUP2 SLOAD DUP2 MSTORE SWAP1 PUSH1 0x1 ADD SWAP1 PUSH1 0x20 ADD DUP1 DUP4 GT PUSH2 0xDCE JUMPI DUP3 SWAP1 SUB PUSH1 0x1F AND DUP3 ADD SWAP2 JUMPDEST POP POP POP POP POP DUP2 MSTORE PUSH1 0x20 ADD PUSH1 0x7 DUP5 DUP2 SLOAD DUP2 LT PUSH2 0xE09 JUMPI PUSH2 0xE08 PUSH2 0x2F60 JUMP JUMPDEST JUMPDEST SWAP1 PUSH1 0x0 MSTORE PUSH1 0x20 PUSH1 0x0 KECCAK256 SWAP1 PUSH1 0x6 MUL ADD PUSH1 0x2 ADD DUP1 SLOAD PUSH2 0xE25 SWAP1 PUSH2 0x285A JUMP JUMPDEST DUP1 PUSH1 0x1F ADD PUSH1 0x20 DUP1 SWAP2 DIV MUL PUSH1 0x20 ADD PUSH1 0x40 MLOAD SWAP1 DUP2 ADD PUSH1 0x40 MSTORE DUP1 SWAP3 SWAP2 SWAP1 DUP2 DUP2 MSTORE PUSH1 0x20 ADD DUP3 DUP1 SLOAD PUSH2 0xE51 SWAP1 PUSH2 0x285A JUMP JUMPDEST DUP1 ISZERO PUSH2 0xE9E JUMPI DUP1 PUSH1 0x1F LT PUSH2 0xE73 JUMPI PUSH2 0x100 DUP1 DUP4 SLOAD DIV MUL DUP4 MSTORE SWAP2 PUSH1 0x20 ADD SWAP2 PUSH2 0xE9E JUMP JUMPDEST DUP3 ADD SWAP2 SWAP1 PUSH1 0x0 MSTORE PUSH1 0x20 PUSH1 0x0 KECCAK256 SWAP1 JUMPDEST DUP2 SLOAD DUP2 MSTORE SWAP1 PUSH1 0x1 ADD SWAP1 PUSH1 0x20 ADD DUP1 DUP4 GT PUSH2 0xE81 JUMPI DUP3 SWAP1 SUB PUSH1 0x1F AND DUP3 ADD SWAP2 JUMPDEST POP POP POP POP POP DUP2 MSTORE PUSH1 0x20 ADD PUSH1 0x7 DUP5 DUP2 SLOAD DUP2 LT PUSH2 0xEBC JUMPI PUSH2 0xEBB PUSH2 0x2F60 JUMP JUMPDEST JUMPDEST SWAP1 PUSH1 0x0 MSTORE PUSH1 0x20 PUSH1 0x0 KECCAK256 SWAP1 PUSH1 0x6 MUL ADD PUSH1 0x3 ADD SLOAD DUP2 MSTORE PUSH1 0x20 ADD PUSH1 0x7 DUP5 DUP2 SLOAD DUP2 LT PUSH2 0xEE7 JUMPI PUSH2 0xEE6 PUSH2 0x2F60 JUMP JUMPDEST JUMPDEST SWAP1 PUSH1 0x0 MSTORE PUSH1 0x20 PUSH1 0x0 KECCAK256 SWAP1 PUSH1 0x6 MUL ADD PUSH1 0x4 ADD SLOAD DUP2 MSTORE PUSH1 0x20 ADD PUSH1 0x7 DUP5 DUP2 SLOAD DUP2 LT PUSH2 0xF12 JUMPI PUSH2 0xF11 PUSH2 0x2F60 JUMP JUMPDEST JUMPDEST SWAP1 PUSH1 0x0 MSTORE PUSH1 0x20 PUSH1 0x0 KECCAK256 SWAP1 PUSH1 0x6 MUL ADD PUSH1 0x5 ADD SLOAD DUP2 MSTORE POP PUSH1 0x8 PUSH1 0x0 DUP4 DUP2 MSTORE PUSH1 0x20 ADD SWAP1 DUP2 MSTORE PUSH1 0x20 ADD PUSH1 0x0 KECCAK256 PUSH1 0x0 DUP3 ADD MLOAD DUP2 PUSH1 0x0 ADD SSTORE PUSH1 0x20 DUP3 ADD MLOAD DUP2 PUSH1 0x1 ADD SWAP1 DUP2 PUSH2 0xF59 SWAP2 SWAP1 PUSH2 0x313B JUMP JUMPDEST POP PUSH1 0x40 DUP3 ADD MLOAD DUP2 PUSH1 0x2 ADD SWAP1 DUP2 PUSH2 0xF6F SWAP2 SWAP1 PUSH2 0x313B JUMP JUMPDEST POP PUSH1 0x60 DUP3 ADD MLOAD DUP2 PUSH1 0x3 ADD SSTORE PUSH1 0x80 DUP3 ADD MLOAD DUP2 PUSH1 0x4 ADD SSTORE PUSH1 0xA0 DUP3 ADD MLOAD DUP2 PUSH1 0x5 ADD SSTORE SWAP1 POP POP PUSH2 0xFB4 PUSH1 0x40 MLOAD DUP1 PUSH1 0x60 ADD PUSH1 0x40 MSTORE DUP1 PUSH1 0x2E DUP2 MSTORE PUSH1 0x20 ADD PUSH2 0x37FC PUSH1 0x2E SWAP2 CODECOPY DUP3 DUP5 PUSH2 0x1A58 JUMP JUMPDEST DUP1 PUSH1 0x9 PUSH1 0x0 CALLER PUSH20 0xFFFFFFFFFFFFFFFFFFFFFFFFFFFFFFFFFFFFFFFF AND PUSH20 0xFFFFFFFFFFFFFFFFFFFFFFFFFFFFFFFFFFFFFFFF AND DUP2 MSTORE PUSH1 0x20 ADD SWAP1 DUP2 MSTORE PUSH1 0x20 ADD PUSH1 0x0 KECCAK256 DUP2 SWAP1 SSTORE POP PUSH2 0x1002 PUSH1 0x6 PUSH2 0x10A8 JUMP JUMPDEST POP POP JUMP JUMPDEST PUSH2 0x10A2 DUP5 DUP5 DUP5 DUP5 PUSH1 0x40 MLOAD PUSH1 0x24 ADD PUSH2 0x1020 SWAP5 SWAP4 SWAP3 SWAP2 SWAP1 PUSH2 0x320D JUMP JUMPDEST PUSH1 0x40 MLOAD PUSH1 0x20 DUP2 DUP4 SUB SUB DUP2 MSTORE SWAP1 PUSH1 0x40 MSTORE PUSH32 0x5D1A971A00000000000000000000000000000000000000000000000000000000 PUSH28 0xFFFFFFFFFFFFFFFFFFFFFFFFFFFFFFFFFFFFFFFFFFFFFFFFFFFFFFFF NOT AND PUSH1 0x20 DUP3 ADD DUP1 MLOAD PUSH28 0xFFFFFFFFFFFFFFFFFFFFFFFFFFFFFFFFFFFFFFFFFFFFFFFFFFFFFFFF DUP4 DUP2 DUP4 AND OR DUP4 MSTORE POP POP POP POP PUSH2 0x1AF7 JUMP JUMPDEST POP POP POP POP JUMP JUMPDEST PUSH1 0x1 DUP2 PUSH1 0x0 ADD PUSH1 0x0 DUP3 DUP3 SLOAD ADD SWAP3 POP POP DUP2 SWAP1 SSTORE POP POP JUMP JUMPDEST PUSH1 0x0 PUSH32 0x1FFC9A700000000000000000000000000000000000000000000000000000000 PUSH28 0xFFFFFFFFFFFFFFFFFFFFFFFFFFFFFFFFFFFFFFFFFFFFFFFFFFFFFFFF NOT AND DUP3 PUSH28 0xFFFFFFFFFFFFFFFFFFFFFFFFFFFFFFFFFFFFFFFFFFFFFFFFFFFFFFFF NOT AND EQ SWAP1 POP SWAP2 SWAP1 POP JUMP JUMPDEST PUSH2 0x1131 DUP2 PUSH2 0x1B20 JUMP JUMPDEST PUSH2 0x1170 JUMPI PUSH1 0x40 MLOAD PUSH32 0x8C379A000000000000000000000000000000000000000000000000000000000 DUP2 MSTORE PUSH1 0x4 ADD PUSH2 0x1167 SWAP1 PUSH2 0x2A8D JUMP JUMPDEST PUSH1 0x40 MLOAD DUP1 SWAP2 SUB SWAP1 REVERT JUMPDEST POP JUMP JUMPDEST PUSH1 0x0 CALLER SWAP1 POP SWAP1 JUMP JUMPDEST DUP2 PUSH1 0x4 PUSH1 0x0 DUP4 DUP2 MSTORE PUSH1 0x20 ADD SWAP1 DUP2 MSTORE PUSH1 0x20 ADD PUSH1 0x0 KECCAK256 PUSH1 0x0 PUSH2 0x100 EXP DUP2 SLOAD DUP2 PUSH20 0xFFFFFFFFFFFFFFFFFFFFFFFFFFFFFFFFFFFFFFFF MUL NOT AND SWAP1 DUP4 PUSH20 0xFFFFFFFFFFFFFFFFFFFFFFFFFFFFFFFFFFFFFFFF AND MUL OR SWAP1 SSTORE POP DUP1 DUP3 PUSH20 0xFFFFFFFFFFFFFFFFFFFFFFFFFFFFFFFFFFFFFFFF AND PUSH2 0x11EE DUP4 PUSH2 0x6BF JUMP JUMPDEST PUSH20 0xFFFFFFFFFFFFFFFFFFFFFFFFFFFFFFFFFFFFFFFF AND PUSH32 0x8C5BE1E5EBEC7D5BD14F71427D1E84F3DD0314C0F7B2291E5B200AC8C7C3B925 PUSH1 0x40 MLOAD PUSH1 0x40 MLOAD DUP1 SWAP2 SUB SWAP1 LOG4 POP POP JUMP JUMPDEST PUSH1 0x0 DUP1 PUSH2 0x1240 DUP4 PUSH2 0x6BF JUMP JUMPDEST SWAP1 POP DUP1 PUSH20 0xFFFFFFFFFFFFFFFFFFFFFFFFFFFFFFFFFFFFFFFF AND DUP5 PUSH20 0xFFFFFFFFFFFFFFFFFFFFFFFFFFFFFFFFFFFFFFFF AND EQ DUP1 PUSH2 0x1282 JUMPI POP PUSH2 0x1281 DUP2 DUP6 PUSH2 0xC85 JUMP JUMPDEST JUMPDEST DUP1 PUSH2 0x12C0 JUMPI POP DUP4 PUSH20 0xFFFFFFFFFFFFFFFFFFFFFFFFFFFFFFFFFFFFFFFF AND PUSH2 0x12A8 DUP5 PUSH2 0x4E2 JUMP JUMPDEST PUSH20 0xFFFFFFFFFFFFFFFFFFFFFFFFFFFFFFFFFFFFFFFF AND EQ JUMPDEST SWAP2 POP POP SWAP3 SWAP2 POP POP JUMP JUMPDEST DUP3 PUSH20 0xFFFFFFFFFFFFFFFFFFFFFFFFFFFFFFFFFFFFFFFF AND PUSH2 0x12E9 DUP3 PUSH2 0x6BF JUMP JUMPDEST PUSH20 0xFFFFFFFFFFFFFFFFFFFFFFFFFFFFFFFFFFFFFFFF AND EQ PUSH2 0x133F JUMPI PUSH1 0x40 MLOAD PUSH32 0x8C379A000000000000000000000000000000000000000000000000000000000 DUP2 MSTORE PUSH1 0x4 ADD PUSH2 0x1336 SWAP1 PUSH2 0x32D9 JUMP JUMPDEST PUSH1 0x40 MLOAD DUP1 SWAP2 SUB SWAP1 REVERT JUMPDEST PUSH1 0x0 PUSH20 0xFFFFFFFFFFFFFFFFFFFFFFFFFFFFFFFFFFFFFFFF AND DUP3 PUSH20 0xFFFFFFFFFFFFFFFFFFFFFFFFFFFFFFFFFFFFFFFF AND SUB PUSH2 0x13AE JUMPI PUSH1 0x40 MLOAD PUSH32 0x8C379A000000000000000000000000000000000000000000000000000000000 DUP2 MSTORE PUSH1 0x4 ADD PUSH2 0x13A5 SWAP1 PUSH2 0x336B JUMP JUMPDEST PUSH1 0x40 MLOAD DUP1 SWAP2 SUB SWAP1 REVERT JUMPDEST PUSH2 0x13BB DUP4 DUP4 DUP4 PUSH1 0x1 PUSH2 0x1B61 JUMP JUMPDEST DUP3 PUSH20 0xFFFFFFFFFFFFFFFFFFFFFFFFFFFFFFFFFFFFFFFF AND PUSH2 0x13DB DUP3 PUSH2 0x6BF JUMP JUMPDEST PUSH20 0xFFFFFFFFFFFFFFFFFFFFFFFFFFFFFFFFFFFFFFFF AND EQ PUSH2 0x1431 JUMPI PUSH1 0x40 MLOAD PUSH32 0x8C379A000000000000000000000000000000000000000000000000000000000 DUP2 MSTORE PUSH1 0x4 ADD PUSH2 0x1428 SWAP1 PUSH2 0x32D9 JUMP JUMPDEST PUSH1 0x40 MLOAD DUP1 SWAP2 SUB SWAP1 REVERT JUMPDEST PUSH1 0x4 PUSH1 0x0 DUP3 DUP2 MSTORE PUSH1 0x20 ADD SWAP1 DUP2 MSTORE PUSH1 0x20 ADD PUSH1 0x0 KECCAK256 PUSH1 0x0 PUSH2 0x100 EXP DUP2 SLOAD SWAP1 PUSH20 0xFFFFFFFFFFFFFFFFFFFFFFFFFFFFFFFFFFFFFFFF MUL NOT AND SWAP1 SSTORE PUSH1 0x1 PUSH1 0x3 PUSH1 0x0 DUP6 PUSH20 0xFFFFFFFFFFFFFFFFFFFFFFFFFFFFFFFFFFFFFFFF AND PUSH20 0xFFFFFFFFFFFFFFFFFFFFFFFFFFFFFFFFFFFFFFFF AND DUP2 MSTORE PUSH1 0x20 ADD SWAP1 DUP2 MSTORE PUSH1 0x20 ADD PUSH1 0x0 KECCAK256 PUSH1 0x0 DUP3 DUP3 SLOAD SUB SWAP3 POP POP DUP2 SWAP1 SSTORE POP PUSH1 0x1 PUSH1 0x3 PUSH1 0x0 DUP5 PUSH20 0xFFFFFFFFFFFFFFFFFFFFFFFFFFFFFFFFFFFFFFFF AND PUSH20 0xFFFFFFFFFFFFFFFFFFFFFFFFFFFFFFFFFFFFFFFF AND DUP2 MSTORE PUSH1 0x20 ADD SWAP1 DUP2 MSTORE PUSH1 0x20 ADD PUSH1 0x0 KECCAK256 PUSH1 0x0 DUP3 DUP3 SLOAD ADD SWAP3 POP POP DUP2 SWAP1 SSTORE POP DUP2 PUSH1 0x2 PUSH1 0x0 DUP4 DUP2 MSTORE PUSH1 0x20 ADD SWAP1 DUP2 MSTORE PUSH1 0x20 ADD PUSH1 0x0 KECCAK256 PUSH1 0x0 PUSH2 0x100 EXP DUP2 SLOAD DUP2 PUSH20 0xFFFFFFFFFFFFFFFFFFFFFFFFFFFFFFFFFFFFFFFF MUL NOT AND SWAP1 DUP4 PUSH20 0xFFFFFFFFFFFFFFFFFFFFFFFFFFFFFFFFFFFFFFFF AND MUL OR SWAP1 SSTORE POP DUP1 DUP3 PUSH20 0xFFFFFFFFFFFFFFFFFFFFFFFFFFFFFFFFFFFFFFFF AND DUP5 PUSH20 0xFFFFFFFFFFFFFFFFFFFFFFFFFFFFFFFFFFFFFFFF AND PUSH32 0xDDF252AD1BE2C89B69C2B068FC378DAA952BA7F163C4A11628F55A4DF523B3EF PUSH1 0x40 MLOAD PUSH1 0x40 MLOAD DUP1 SWAP2 SUB SWAP1 LOG4 PUSH2 0x15BD DUP4 DUP4 DUP4 PUSH1 0x1 PUSH2 0x1C87 JUMP JUMPDEST POP POP POP JUMP JUMPDEST PUSH1 0x0 PUSH1 0x2 PUSH1 0x0 DUP4 DUP2 MSTORE PUSH1 0x20 ADD SWAP1 DUP2 MSTORE PUSH1 0x20 ADD PUSH1 0x0 KECCAK256 PUSH1 0x0 SWAP1 SLOAD SWAP1 PUSH2 0x100 EXP SWAP1 DIV PUSH20 0xFFFFFFFFFFFFFFFFFFFFFFFFFFFFFFFFFFFFFFFF AND SWAP1 POP SWAP2 SWAP1 POP JUMP JUMPDEST DUP2 PUSH20 0xFFFFFFFFFFFFFFFFFFFFFFFFFFFFFFFFFFFFFFFF AND DUP4 PUSH20 0xFFFFFFFFFFFFFFFFFFFFFFFFFFFFFFFFFFFFFFFF AND SUB PUSH2 0x166D JUMPI PUSH1 0x40 MLOAD PUSH32 0x8C379A000000000000000000000000000000000000000000000000000000000 DUP2 MSTORE PUSH1 0x4 ADD PUSH2 0x1664 SWAP1 PUSH2 0x33D7 JUMP JUMPDEST PUSH1 0x40 MLOAD DUP1 SWAP2 SUB SWAP1 REVERT JUMPDEST DUP1 PUSH1 0x5 PUSH1 0x0 DUP6 PUSH20 0xFFFFFFFFFFFFFFFFFFFFFFFFFFFFFFFFFFFFFFFF AND PUSH20 0xFFFFFFFFFFFFFFFFFFFFFFFFFFFFFFFFFFFFFFFF AND DUP2 MSTORE PUSH1 0x20 ADD SWAP1 DUP2 MSTORE PUSH1 0x20 ADD PUSH1 0x0 KECCAK256 PUSH1 0x0 DUP5 PUSH20 0xFFFFFFFFFFFFFFFFFFFFFFFFFFFFFFFFFFFFFFFF AND PUSH20 0xFFFFFFFFFFFFFFFFFFFFFFFFFFFFFFFFFFFFFFFF AND DUP2 MSTORE PUSH1 0x20 ADD SWAP1 DUP2 MSTORE PUSH1 0x20 ADD PUSH1 0x0 KECCAK256 PUSH1 0x0 PUSH2 0x100 EXP DUP2 SLOAD DUP2 PUSH1 0xFF MUL NOT AND SWAP1 DUP4 ISZERO ISZERO MUL OR SWAP1 SSTORE POP DUP2 PUSH20 0xFFFFFFFFFFFFFFFFFFFFFFFFFFFFFFFFFFFFFFFF AND DUP4 PUSH20 0xFFFFFFFFFFFFFFFFFFFFFFFFFFFFFFFFFFFFFFFF AND PUSH32 0x17307EAB39AB6107E8899845AD3D59BD9653F200F220920489CA2B5937696C31 DUP4 PUSH1 0x40 MLOAD PUSH2 0x175E SWAP2 SWAP1 PUSH2 0x22B6 JUMP JUMPDEST PUSH1 0x40 MLOAD DUP1 SWAP2 SUB SWAP1 LOG3 POP POP POP JUMP JUMPDEST PUSH2 0x1776 DUP5 DUP5 DUP5 PUSH2 0x12C9 JUMP JUMPDEST PUSH2 0x1782 DUP5 DUP5 DUP5 DUP5 PUSH2 0x1C8D JUMP JUMPDEST PUSH2 0x17C1 JUMPI PUSH1 0x40 MLOAD PUSH32 0x8C379A000000000000000000000000000000000000000000000000000000000 DUP2 MSTORE PUSH1 0x4 ADD PUSH2 0x17B8 SWAP1 PUSH2 0x3469 JUMP JUMPDEST PUSH1 0x40 MLOAD DUP1 SWAP2 SUB SWAP1 REVERT JUMPDEST POP POP POP POP JUMP JUMPDEST PUSH1 0x60 PUSH1 0x0 PUSH1 0x1 PUSH2 0x17D6 DUP5 PUSH2 0x1E14 JUMP JUMPDEST ADD SWAP1 POP PUSH1 0x0 DUP2 PUSH8 0xFFFFFFFFFFFFFFFF DUP2 GT ISZERO PUSH2 0x17F5 JUMPI PUSH2 0x17F4 PUSH2 0x263D JUMP JUMPDEST JUMPDEST PUSH1 0x40 MLOAD SWAP1 DUP1 DUP3 MSTORE DUP1 PUSH1 0x1F ADD PUSH1 0x1F NOT AND PUSH1 0x20 ADD DUP3 ADD PUSH1 0x40 MSTORE DUP1 ISZERO PUSH2 0x1827 JUMPI DUP2 PUSH1 0x20 ADD PUSH1 0x1 DUP3 MUL DUP1 CALLDATASIZE DUP4 CALLDATACOPY DUP1 DUP3 ADD SWAP2 POP POP SWAP1 POP JUMPDEST POP SWAP1 POP PUSH1 0x0 DUP3 PUSH1 0x20 ADD DUP3 ADD SWAP1 POP JUMPDEST PUSH1 0x1 ISZERO PUSH2 0x188A JUMPI DUP1 DUP1 PUSH1 0x1 SWAP1 SUB SWAP2 POP POP PUSH32 0x3031323334353637383961626364656600000000000000000000000000000000 PUSH1 0xA DUP7 MOD BYTE DUP2 MSTORE8 PUSH1 0xA DUP6 DUP2 PUSH2 0x187E JUMPI PUSH2 0x187D PUSH2 0x3489 JUMP JUMPDEST JUMPDEST DIV SWAP5 POP PUSH1 0x0 DUP6 SUB PUSH2 0x1835 JUMPI JUMPDEST DUP2 SWAP4 POP POP POP POP SWAP2 SWAP1 POP JUMP JUMPDEST PUSH1 0x60 PUSH1 0x0 DUP3 MLOAD SWAP1 POP PUSH1 0x0 DUP2 SUB PUSH2 0x18BD JUMPI PUSH1 0x40 MLOAD DUP1 PUSH1 0x20 ADD PUSH1 0x40 MSTORE DUP1 PUSH1 0x0 DUP2 MSTORE POP SWAP2 POP POP PUSH2 0x1A27 JUMP JUMPDEST PUSH1 0x0 PUSH1 0x3 PUSH1 0x2 DUP4 PUSH2 0x18CE SWAP2 SWAP1 PUSH2 0x34E7 JUMP JUMPDEST PUSH2 0x18D8 SWAP2 SWAP1 PUSH2 0x351B JUMP JUMPDEST PUSH1 0x4 PUSH2 0x18E4 SWAP2 SWAP1 PUSH2 0x354C JUMP JUMPDEST SWAP1 POP PUSH1 0x0 PUSH1 0x20 DUP3 PUSH2 0x18F5 SWAP2 SWAP1 PUSH2 0x34E7 JUMP JUMPDEST PUSH8 0xFFFFFFFFFFFFFFFF DUP2 GT ISZERO PUSH2 0x190E JUMPI PUSH2 0x190D PUSH2 0x263D JUMP JUMPDEST JUMPDEST PUSH1 0x40 MLOAD SWAP1 DUP1 DUP3 MSTORE DUP1 PUSH1 0x1F ADD PUSH1 0x1F NOT AND PUSH1 0x20 ADD DUP3 ADD PUSH1 0x40 MSTORE DUP1 ISZERO PUSH2 0x1940 JUMPI DUP2 PUSH1 0x20 ADD PUSH1 0x1 DUP3 MUL DUP1 CALLDATASIZE DUP4 CALLDATACOPY DUP1 DUP3 ADD SWAP2 POP POP SWAP1 POP JUMPDEST POP SWAP1 POP PUSH1 0x0 PUSH1 0x40 MLOAD DUP1 PUSH1 0x60 ADD PUSH1 0x40 MSTORE DUP1 PUSH1 0x40 DUP2 MSTORE PUSH1 0x20 ADD PUSH2 0x37BC PUSH1 0x40 SWAP2 CODECOPY SWAP1 POP PUSH1 0x1 DUP2 ADD PUSH1 0x20 DUP4 ADD PUSH1 0x0 JUMPDEST DUP7 DUP2 LT ISZERO PUSH2 0x19E4 JUMPI PUSH1 0x3 DUP2 ADD SWAP1 POP PUSH3 0xFFFFFF DUP2 DUP11 ADD MLOAD AND PUSH1 0x3F DUP2 PUSH1 0x12 SHR AND DUP5 ADD MLOAD DUP1 PUSH1 0x8 SHL SWAP1 POP PUSH1 0xFF PUSH1 0x3F DUP4 PUSH1 0xC SHR AND DUP7 ADD MLOAD AND DUP2 ADD SWAP1 POP DUP1 PUSH1 0x8 SHL SWAP1 POP PUSH1 0xFF PUSH1 0x3F DUP4 PUSH1 0x6 SHR AND DUP7 ADD MLOAD AND DUP2 ADD SWAP1 POP DUP1 PUSH1 0x8 SHL SWAP1 POP PUSH1 0xFF PUSH1 0x3F DUP4 AND DUP7 ADD MLOAD AND DUP2 ADD SWAP1 POP DUP1 PUSH1 0xE0 SHL SWAP1 POP DUP1 DUP5 MSTORE PUSH1 0x4 DUP5 ADD SWAP4 POP POP POP PUSH2 0x196B JUMP JUMPDEST POP PUSH1 0x3 DUP7 MOD PUSH1 0x1 DUP2 EQ PUSH2 0x19FE JUMPI PUSH1 0x2 DUP2 EQ PUSH2 0x1A0E JUMPI PUSH2 0x1A19 JUMP JUMPDEST PUSH2 0x3D3D PUSH1 0xF0 SHL PUSH1 0x2 DUP4 SUB MSTORE PUSH2 0x1A19 JUMP JUMPDEST PUSH1 0x3D PUSH1 0xF8 SHL PUSH1 0x1 DUP4 SUB MSTORE JUMPDEST POP DUP5 DUP5 MSTORE POP POP DUP2 SWAP5 POP POP POP POP POP JUMPDEST SWAP2 SWAP1 POP JUMP JUMPDEST PUSH1 0x0 DUP2 PUSH1 0x0 ADD SLOAD SWAP1 POP SWAP2 SWAP1 POP JUMP JUMPDEST PUSH2 0x1A54 DUP3 DUP3 PUSH1 0x40 MLOAD DUP1 PUSH1 0x20 ADD PUSH1 0x40 MSTORE DUP1 PUSH1 0x0 DUP2 MSTORE POP PUSH2 0x1F67 JUMP JUMPDEST POP POP JUMP JUMPDEST PUSH2 0x1AF2 DUP4 DUP4 DUP4 PUSH1 0x40 MLOAD PUSH1 0x24 ADD PUSH2 0x1A70 SWAP4 SWAP3 SWAP2 SWAP1 PUSH2 0x358E JUMP JUMPDEST PUSH1 0x40 MLOAD PUSH1 0x20 DUP2 DUP4 SUB SUB DUP2 MSTORE SWAP1 PUSH1 0x40 MSTORE PUSH32 0xCA47C4EB00000000000000000000000000000000000000000000000000000000 PUSH28 0xFFFFFFFFFFFFFFFFFFFFFFFFFFFFFFFFFFFFFFFFFFFFFFFFFFFFFFFF NOT AND PUSH1 0x20 DUP3 ADD DUP1 MLOAD PUSH28 0xFFFFFFFFFFFFFFFFFFFFFFFFFFFFFFFFFFFFFFFFFFFFFFFFFFFFFFFF DUP4 DUP2 DUP4 AND OR DUP4 MSTORE POP POP POP POP PUSH2 0x1AF7 JUMP JUMPDEST POP POP POP JUMP JUMPDEST PUSH1 0x0 DUP2 MLOAD SWAP1 POP PUSH1 0x0 PUSH11 0x636F6E736F6C652E6C6F67 SWAP1 POP PUSH1 0x20 DUP4 ADD PUSH1 0x0 DUP1 DUP5 DUP4 DUP6 GAS STATICCALL POP POP POP POP POP JUMP JUMPDEST PUSH1 0x0 DUP1 PUSH20 0xFFFFFFFFFFFFFFFFFFFFFFFFFFFFFFFFFFFFFFFF AND PUSH2 0x1B42 DUP4 PUSH2 0x15C2 JUMP JUMPDEST PUSH20 0xFFFFFFFFFFFFFFFFFFFFFFFFFFFFFFFFFFFFFFFF AND EQ ISZERO SWAP1 POP SWAP2 SWAP1 POP JUMP JUMPDEST PUSH1 0x1 DUP2 GT ISZERO PUSH2 0x1C81 JUMPI PUSH1 0x0 PUSH20 0xFFFFFFFFFFFFFFFFFFFFFFFFFFFFFFFFFFFFFFFF AND DUP5 PUSH20 0xFFFFFFFFFFFFFFFFFFFFFFFFFFFFFFFFFFFFFFFF AND EQ PUSH2 0x1BF5 JUMPI DUP1 PUSH1 0x3 PUSH1 0x0 DUP7 PUSH20 0xFFFFFFFFFFFFFFFFFFFFFFFFFFFFFFFFFFFFFFFF AND PUSH20 0xFFFFFFFFFFFFFFFFFFFFFFFFFFFFFFFFFFFFFFFF AND DUP2 MSTORE PUSH1 0x20 ADD SWAP1 DUP2 MSTORE PUSH1 0x20 ADD PUSH1 0x0 KECCAK256 PUSH1 0x0 DUP3 DUP3 SLOAD PUSH2 0x1BED SWAP2 SWAP1 PUSH2 0x35CC JUMP JUMPDEST SWAP3 POP POP DUP2 SWAP1 SSTORE POP JUMPDEST PUSH1 0x0 PUSH20 0xFFFFFFFFFFFFFFFFFFFFFFFFFFFFFFFFFFFFFFFF AND DUP4 PUSH20 0xFFFFFFFFFFFFFFFFFFFFFFFFFFFFFFFFFFFFFFFF AND EQ PUSH2 0x1C80 JUMPI DUP1 PUSH1 0x3 PUSH1 0x0 DUP6 PUSH20 0xFFFFFFFFFFFFFFFFFFFFFFFFFFFFFFFFFFFFFFFF AND PUSH20 0xFFFFFFFFFFFFFFFFFFFFFFFFFFFFFFFFFFFFFFFF AND DUP2 MSTORE PUSH1 0x20 ADD SWAP1 DUP2 MSTORE PUSH1 0x20 ADD PUSH1 0x0 KECCAK256 PUSH1 0x0 DUP3 DUP3 SLOAD PUSH2 0x1C78 SWAP2 SWAP1 PUSH2 0x34E7 JUMP JUMPDEST SWAP3 POP POP DUP2 SWAP1 SSTORE POP JUMPDEST JUMPDEST POP POP POP POP JUMP JUMPDEST POP POP POP POP JUMP JUMPDEST PUSH1 0x0 PUSH2 0x1CAE DUP5 PUSH20 0xFFFFFFFFFFFFFFFFFFFFFFFFFFFFFFFFFFFFFFFF AND PUSH2 0x1FC2 JUMP JUMPDEST ISZERO PUSH2 0x1E07 JUMPI DUP4 PUSH20 0xFFFFFFFFFFFFFFFFFFFFFFFFFFFFFFFFFFFFFFFF AND PUSH4 0x150B7A02 PUSH2 0x1CD7 PUSH2 0x1173 JUMP JUMPDEST DUP8 DUP7 DUP7 PUSH1 0x40 MLOAD DUP6 PUSH4 0xFFFFFFFF AND PUSH1 0xE0 SHL DUP2 MSTORE PUSH1 0x4 ADD PUSH2 0x1CF9 SWAP5 SWAP4 SWAP3 SWAP2 SWAP1 PUSH2 0x3655 JUMP JUMPDEST PUSH1 0x20 PUSH1 0x40 MLOAD DUP1 DUP4 SUB DUP2 PUSH1 0x0 DUP8 GAS CALL SWAP3 POP POP POP DUP1 ISZERO PUSH2 0x1D35 JUMPI POP PUSH1 0x40 MLOAD RETURNDATASIZE PUSH1 0x1F NOT PUSH1 0x1F DUP3 ADD AND DUP3 ADD DUP1 PUSH1 0x40 MSTORE POP DUP2 ADD SWAP1 PUSH2 0x1D32 SWAP2 SWAP1 PUSH2 0x36B6 JUMP JUMPDEST PUSH1 0x1 JUMPDEST PUSH2 0x1DB7 JUMPI RETURNDATASIZE DUP1 PUSH1 0x0 DUP2 EQ PUSH2 0x1D65 JUMPI PUSH1 0x40 MLOAD SWAP2 POP PUSH1 0x1F NOT PUSH1 0x3F RETURNDATASIZE ADD AND DUP3 ADD PUSH1 0x40 MSTORE RETURNDATASIZE DUP3 MSTORE RETURNDATASIZE PUSH1 0x0 PUSH1 0x20 DUP5 ADD RETURNDATACOPY PUSH2 0x1D6A JUMP JUMPDEST PUSH1 0x60 SWAP2 POP JUMPDEST POP PUSH1 0x0 DUP2 MLOAD SUB PUSH2 0x1DAF JUMPI PUSH1 0x40 MLOAD PUSH32 0x8C379A000000000000000000000000000000000000000000000000000000000 DUP2 MSTORE PUSH1 0x4 ADD PUSH2 0x1DA6 SWAP1 PUSH2 0x3469 JUMP JUMPDEST PUSH1 0x40 MLOAD DUP1 SWAP2 SUB SWAP1 REVERT JUMPDEST DUP1 MLOAD DUP2 PUSH1 0x20 ADD REVERT JUMPDEST PUSH4 0x150B7A02 PUSH1 0xE0 SHL PUSH28 0xFFFFFFFFFFFFFFFFFFFFFFFFFFFFFFFFFFFFFFFFFFFFFFFFFFFFFFFF NOT AND DUP2 PUSH28 0xFFFFFFFFFFFFFFFFFFFFFFFFFFFFFFFFFFFFFFFFFFFFFFFFFFFFFFFF NOT AND EQ SWAP2 POP POP PUSH2 0x1E0C JUMP JUMPDEST PUSH1 0x1 SWAP1 POP JUMPDEST SWAP5 SWAP4 POP POP POP POP JUMP JUMPDEST PUSH1 0x0 DUP1 PUSH1 0x0 SWAP1 POP PUSH27 0x184F03E93FF9F4DAA797ED6E38ED64BF6A1F010000000000000000 DUP4 LT PUSH2 0x1E72 JUMPI PUSH27 0x184F03E93FF9F4DAA797ED6E38ED64BF6A1F010000000000000000 DUP4 DUP2 PUSH2 0x1E68 JUMPI PUSH2 0x1E67 PUSH2 0x3489 JUMP JUMPDEST JUMPDEST DIV SWAP3 POP PUSH1 0x40 DUP2 ADD SWAP1 POP JUMPDEST PUSH14 0x4EE2D6D415B85ACEF8100000000 DUP4 LT PUSH2 0x1EAF JUMPI PUSH14 0x4EE2D6D415B85ACEF8100000000 DUP4 DUP2 PUSH2 0x1EA5 JUMPI PUSH2 0x1EA4 PUSH2 0x3489 JUMP JUMPDEST JUMPDEST DIV SWAP3 POP PUSH1 0x20 DUP2 ADD SWAP1 POP JUMPDEST PUSH7 0x2386F26FC10000 DUP4 LT PUSH2 0x1EDE JUMPI PUSH7 0x2386F26FC10000 DUP4 DUP2 PUSH2 0x1ED4 JUMPI PUSH2 0x1ED3 PUSH2 0x3489 JUMP JUMPDEST JUMPDEST DIV SWAP3 POP PUSH1 0x10 DUP2 ADD SWAP1 POP JUMPDEST PUSH4 0x5F5E100 DUP4 LT PUSH2 0x1F07 JUMPI PUSH4 0x5F5E100 DUP4 DUP2 PUSH2 0x1EFD JUMPI PUSH2 0x1EFC PUSH2 0x3489 JUMP JUMPDEST JUMPDEST DIV SWAP3 POP PUSH1 0x8 DUP2 ADD SWAP1 POP JUMPDEST PUSH2 0x2710 DUP4 LT PUSH2 0x1F2C JUMPI PUSH2 0x2710 DUP4 DUP2 PUSH2 0x1F22 JUMPI PUSH2 0x1F21 PUSH2 0x3489 JUMP JUMPDEST JUMPDEST DIV SWAP3 POP PUSH1 0x4 DUP2 ADD SWAP1 POP JUMPDEST PUSH1 0x64 DUP4 LT PUSH2 0x1F4F JUMPI PUSH1 0x64 DUP4 DUP2 PUSH2 0x1F45 JUMPI PUSH2 0x1F44 PUSH2 0x3489 JUMP JUMPDEST JUMPDEST DIV SWAP3 POP PUSH1 0x2 DUP2 ADD SWAP1 POP JUMPDEST PUSH1 0xA DUP4 LT PUSH2 0x1F5E JUMPI PUSH1 0x1 DUP2 ADD SWAP1 POP JUMPDEST DUP1 SWAP2 POP POP SWAP2 SWAP1 POP JUMP JUMPDEST PUSH2 0x1F71 DUP4 DUP4 PUSH2 0x1FE5 JUMP JUMPDEST PUSH2 0x1F7E PUSH1 0x0 DUP5 DUP5 DUP5 PUSH2 0x1C8D JUMP JUMPDEST PUSH2 0x1FBD JUMPI PUSH1 0x40 MLOAD PUSH32 0x8C379A000000000000000000000000000000000000000000000000000000000 DUP2 MSTORE PUSH1 0x4 ADD PUSH2 0x1FB4 SWAP1 PUSH2 0x3469 JUMP JUMPDEST PUSH1 0x40 MLOAD DUP1 SWAP2 SUB SWAP1 REVERT JUMPDEST POP POP POP JUMP JUMPDEST PUSH1 0x0 DUP1 DUP3 PUSH20 0xFFFFFFFFFFFFFFFFFFFFFFFFFFFFFFFFFFFFFFFF AND EXTCODESIZE GT SWAP1 POP SWAP2 SWAP1 POP JUMP JUMPDEST PUSH1 0x0 PUSH20 0xFFFFFFFFFFFFFFFFFFFFFFFFFFFFFFFFFFFFFFFF AND DUP3 PUSH20 0xFFFFFFFFFFFFFFFFFFFFFFFFFFFFFFFFFFFFFFFF AND SUB PUSH2 0x2054 JUMPI PUSH1 0x40 MLOAD PUSH32 0x8C379A000000000000000000000000000000000000000000000000000000000 DUP2 MSTORE PUSH1 0x4 ADD PUSH2 0x204B SWAP1 PUSH2 0x372F JUMP JUMPDEST PUSH1 0x40 MLOAD DUP1 SWAP2 SUB SWAP1 REVERT JUMPDEST PUSH2 0x205D DUP2 PUSH2 0x1B20 JUMP JUMPDEST ISZERO PUSH2 0x209D JUMPI PUSH1 0x40 MLOAD PUSH32 0x8C379A000000000000000000000000000000000000000000000000000000000 DUP2 MSTORE PUSH1 0x4 ADD PUSH2 0x2094 SWAP1 PUSH2 0x379B JUMP JUMPDEST PUSH1 0x40 MLOAD DUP1 SWAP2 SUB SWAP1 REVERT JUMPDEST PUSH2 0x20AB PUSH1 0x0 DUP4 DUP4 PUSH1 0x1 PUSH2 0x1B61 JUMP JUMPDEST PUSH2 0x20B4 DUP2 PUSH2 0x1B20 JUMP JUMPDEST ISZERO PUSH2 0x20F4 JUMPI PUSH1 0x40 MLOAD PUSH32 0x8C379A000000000000000000000000000000000000000000000000000000000 DUP2 MSTORE PUSH1 0x4 ADD PUSH2 0x20EB SWAP1 PUSH2 0x379B JUMP JUMPDEST PUSH1 0x40 MLOAD DUP1 SWAP2 SUB SWAP1 REVERT JUMPDEST PUSH1 0x1 PUSH1 0x3 PUSH1 0x0 DUP5 PUSH20 0xFFFFFFFFFFFFFFFFFFFFFFFFFFFFFFFFFFFFFFFF AND PUSH20 0xFFFFFFFFFFFFFFFFFFFFFFFFFFFFFFFFFFFFFFFF AND DUP2 MSTORE PUSH1 0x20 ADD SWAP1 DUP2 MSTORE PUSH1 0x20 ADD PUSH1 0x0 KECCAK256 PUSH1 0x0 DUP3 DUP3 SLOAD ADD SWAP3 POP POP DUP2 SWAP1 SSTORE POP DUP2 PUSH1 0x2 PUSH1 0x0 DUP4 DUP2 MSTORE PUSH1 0x20 ADD SWAP1 DUP2 MSTORE PUSH1 0x20 ADD PUSH1 0x0 KECCAK256 PUSH1 0x0 PUSH2 0x100 EXP DUP2 SLOAD DUP2 PUSH20 0xFFFFFFFFFFFFFFFFFFFFFFFFFFFFFFFFFFFFFFFF MUL NOT AND SWAP1 DUP4 PUSH20 0xFFFFFFFFFFFFFFFFFFFFFFFFFFFFFFFFFFFFFFFF AND MUL OR SWAP1 SSTORE POP DUP1 DUP3 PUSH20 0xFFFFFFFFFFFFFFFFFFFFFFFFFFFFFFFFFFFFFFFF AND PUSH1 0x0 PUSH20 0xFFFFFFFFFFFFFFFFFFFFFFFFFFFFFFFFFFFFFFFF AND PUSH32 0xDDF252AD1BE2C89B69C2B068FC378DAA952BA7F163C4A11628F55A4DF523B3EF PUSH1 0x40 MLOAD PUSH1 0x40 MLOAD DUP1 SWAP2 SUB SWAP1 LOG4 PUSH2 0x21FE PUSH1 0x0 DUP4 DUP4 PUSH1 0x1 PUSH2 0x1C87 JUMP JUMPDEST POP POP JUMP JUMPDEST PUSH1 0x0 PUSH1 0x40 MLOAD SWAP1 POP SWAP1 JUMP JUMPDEST PUSH1 0x0 DUP1 REVERT JUMPDEST PUSH1 0x0 DUP1 REVERT JUMPDEST PUSH1 0x0 PUSH32 0xFFFFFFFF00000000000000000000000000000000000000000000000000000000 DUP3 AND SWAP1 POP SWAP2 SWAP1 POP JUMP JUMPDEST PUSH2 0x224B DUP2 PUSH2 0x2216 JUMP JUMPDEST DUP2 EQ PUSH2 0x2256 JUMPI PUSH1 0x0 DUP1 REVERT JUMPDEST POP JUMP JUMPDEST PUSH1 0x0 DUP2 CALLDATALOAD SWAP1 POP PUSH2 0x2268 DUP2 PUSH2 0x2242 JUMP JUMPDEST SWAP3 SWAP2 POP POP JUMP JUMPDEST PUSH1 0x0 PUSH1 0x20 DUP3 DUP5 SUB SLT ISZERO PUSH2 0x2284 JUMPI PUSH2 0x2283 PUSH2 0x220C JUMP JUMPDEST JUMPDEST PUSH1 0x0 PUSH2 0x2292 DUP5 DUP3 DUP6 ADD PUSH2 0x2259 JUMP JUMPDEST SWAP2 POP POP SWAP3 SWAP2 POP POP JUMP JUMPDEST PUSH1 0x0 DUP2 ISZERO ISZERO SWAP1 POP SWAP2 SWAP1 POP JUMP JUMPDEST PUSH2 0x22B0 DUP2 PUSH2 0x229B JUMP JUMPDEST DUP3 MSTORE POP POP JUMP JUMPDEST PUSH1 0x0 PUSH1 0x20 DUP3 ADD SWAP1 POP PUSH2 0x22CB PUSH1 0x0 DUP4 ADD DUP5 PUSH2 0x22A7 JUMP JUMPDEST SWAP3 SWAP2 POP POP JUMP JUMPDEST PUSH1 0x0 DUP2 MLOAD SWAP1 POP SWAP2 SWAP1 POP JUMP JUMPDEST PUSH1 0x0 DUP3 DUP3 MSTORE PUSH1 0x20 DUP3 ADD SWAP1 POP SWAP3 SWAP2 POP POP JUMP JUMPDEST PUSH1 0x0 JUMPDEST DUP4 DUP2 LT ISZERO PUSH2 0x230B JUMPI DUP1 DUP3 ADD MLOAD DUP2 DUP5 ADD MSTORE PUSH1 0x20 DUP2 ADD SWAP1 POP PUSH2 0x22F0 JUMP JUMPDEST PUSH1 0x0 DUP5 DUP5 ADD MSTORE POP POP POP POP JUMP JUMPDEST PUSH1 0x0 PUSH1 0x1F NOT PUSH1 0x1F DUP4 ADD AND SWAP1 POP SWAP2 SWAP1 POP JUMP JUMPDEST PUSH1 0x0 PUSH2 0x2333 DUP3 PUSH2 0x22D1 JUMP JUMPDEST PUSH2 0x233D DUP2 DUP6 PUSH2 0x22DC JUMP JUMPDEST SWAP4 POP PUSH2 0x234D DUP2 DUP6 PUSH1 0x20 DUP7 ADD PUSH2 0x22ED JUMP JUMPDEST PUSH2 0x2356 DUP2 PUSH2 0x2317 JUMP JUMPDEST DUP5 ADD SWAP2 POP POP SWAP3 SWAP2 POP POP JUMP JUMPDEST PUSH1 0x0 PUSH1 0x20 DUP3 ADD SWAP1 POP DUP2 DUP2 SUB PUSH1 0x0 DUP4 ADD MSTORE PUSH2 0x237B DUP2 DUP5 PUSH2 0x2328 JUMP JUMPDEST SWAP1 POP SWAP3 SWAP2 POP POP JUMP JUMPDEST PUSH1 0x0 DUP2 SWAP1 POP SWAP2 SWAP1 POP JUMP JUMPDEST PUSH2 0x2396 DUP2 PUSH2 0x2383 JUMP JUMPDEST DUP2 EQ PUSH2 0x23A1 JUMPI PUSH1 0x0 DUP1 REVERT JUMPDEST POP JUMP JUMPDEST PUSH1 0x0 DUP2 CALLDATALOAD SWAP1 POP PUSH2 0x23B3 DUP2 PUSH2 0x238D JUMP JUMPDEST SWAP3 SWAP2 POP POP JUMP JUMPDEST PUSH1 0x0 PUSH1 0x20 DUP3 DUP5 SUB SLT ISZERO PUSH2 0x23CF JUMPI PUSH2 0x23CE PUSH2 0x220C JUMP JUMPDEST JUMPDEST PUSH1 0x0 PUSH2 0x23DD DUP5 DUP3 DUP6 ADD PUSH2 0x23A4 JUMP JUMPDEST SWAP2 POP POP SWAP3 SWAP2 POP POP JUMP JUMPDEST PUSH1 0x0 PUSH20 0xFFFFFFFFFFFFFFFFFFFFFFFFFFFFFFFFFFFFFFFF DUP3 AND SWAP1 POP SWAP2 SWAP1 POP JUMP JUMPDEST PUSH1 0x0 PUSH2 0x2411 DUP3 PUSH2 0x23E6 JUMP JUMPDEST SWAP1 POP SWAP2 SWAP1 POP JUMP JUMPDEST PUSH2 0x2421 DUP2 PUSH2 0x2406 JUMP JUMPDEST DUP3 MSTORE POP POP JUMP JUMPDEST PUSH1 0x0 PUSH1 0x20 DUP3 ADD SWAP1 POP PUSH2 0x243C PUSH1 0x0 DUP4 ADD DUP5 PUSH2 0x2418 JUMP JUMPDEST SWAP3 SWAP2 POP POP JUMP JUMPDEST PUSH2 0x244B DUP2 PUSH2 0x2406 JUMP JUMPDEST DUP2 EQ PUSH2 0x2456 JUMPI PUSH1 0x0 DUP1 REVERT JUMPDEST POP JUMP JUMPDEST PUSH1 0x0 DUP2 CALLDATALOAD SWAP1 POP PUSH2 0x2468 DUP2 PUSH2 0x2442 JUMP JUMPDEST SWAP3 SWAP2 POP POP JUMP JUMPDEST PUSH1 0x0 DUP1 PUSH1 0x40 DUP4 DUP6 SUB SLT ISZERO PUSH2 0x2485 JUMPI PUSH2 0x2484 PUSH2 0x220C JUMP JUMPDEST JUMPDEST PUSH1 0x0 PUSH2 0x2493 DUP6 DUP3 DUP7 ADD PUSH2 0x2459 JUMP JUMPDEST SWAP3 POP POP PUSH1 0x20 PUSH2 0x24A4 DUP6 DUP3 DUP7 ADD PUSH2 0x23A4 JUMP JUMPDEST SWAP2 POP POP SWAP3 POP SWAP3 SWAP1 POP JUMP JUMPDEST PUSH1 0x0 DUP1 PUSH1 0x0 PUSH1 0x60 DUP5 DUP7 SUB SLT ISZERO PUSH2 0x24C7 JUMPI PUSH2 0x24C6 PUSH2 0x220C JUMP JUMPDEST JUMPDEST PUSH1 0x0 PUSH2 0x24D5 DUP7 DUP3 DUP8 ADD PUSH2 0x2459 JUMP JUMPDEST SWAP4 POP POP PUSH1 0x20 PUSH2 0x24E6 DUP7 DUP3 DUP8 ADD PUSH2 0x2459 JUMP JUMPDEST SWAP3 POP POP PUSH1 0x40 PUSH2 0x24F7 DUP7 DUP3 DUP8 ADD PUSH2 0x23A4 JUMP JUMPDEST SWAP2 POP POP SWAP3 POP SWAP3 POP SWAP3 JUMP JUMPDEST PUSH1 0x0 PUSH1 0x20 DUP3 DUP5 SUB SLT ISZERO PUSH2 0x2517 JUMPI PUSH2 0x2516 PUSH2 0x220C JUMP JUMPDEST JUMPDEST PUSH1 0x0 PUSH2 0x2525 DUP5 DUP3 DUP6 ADD PUSH2 0x2459 JUMP JUMPDEST SWAP2 POP POP SWAP3 SWAP2 POP POP JUMP JUMPDEST PUSH2 0x2537 DUP2 PUSH2 0x2383 JUMP JUMPDEST DUP3 MSTORE POP POP JUMP JUMPDEST PUSH1 0x0 PUSH1 0x20 DUP3 ADD SWAP1 POP PUSH2 0x2552 PUSH1 0x0 DUP4 ADD DUP5 PUSH2 0x252E JUMP JUMPDEST SWAP3 SWAP2 POP POP JUMP JUMPDEST PUSH1 0x0 PUSH1 0xC0 DUP3 ADD SWAP1 POP PUSH2 0x256D PUSH1 0x0 DUP4 ADD DUP10 PUSH2 0x252E JUMP JUMPDEST DUP2 DUP2 SUB PUSH1 0x20 DUP4 ADD MSTORE PUSH2 0x257F DUP2 DUP9 PUSH2 0x2328 JUMP JUMPDEST SWAP1 POP DUP2 DUP2 SUB PUSH1 0x40 DUP4 ADD MSTORE PUSH2 0x2593 DUP2 DUP8 PUSH2 0x2328 JUMP JUMPDEST SWAP1 POP PUSH2 0x25A2 PUSH1 0x60 DUP4 ADD DUP7 PUSH2 0x252E JUMP JUMPDEST PUSH2 0x25AF PUSH1 0x80 DUP4 ADD DUP6 PUSH2 0x252E JUMP JUMPDEST PUSH2 0x25BC PUSH1 0xA0 DUP4 ADD DUP5 PUSH2 0x252E JUMP JUMPDEST SWAP8 SWAP7 POP POP POP POP POP POP POP JUMP JUMPDEST PUSH2 0x25D0 DUP2 PUSH2 0x229B JUMP JUMPDEST DUP2 EQ PUSH2 0x25DB JUMPI PUSH1 0x0 DUP1 REVERT JUMPDEST POP JUMP JUMPDEST PUSH1 0x0 DUP2 CALLDATALOAD SWAP1 POP PUSH2 0x25ED DUP2 PUSH2 0x25C7 JUMP JUMPDEST SWAP3 SWAP2 POP POP JUMP JUMPDEST PUSH1 0x0 DUP1 PUSH1 0x40 DUP4 DUP6 SUB SLT ISZERO PUSH2 0x260A JUMPI PUSH2 0x2609 PUSH2 0x220C JUMP JUMPDEST JUMPDEST PUSH1 0x0 PUSH2 0x2618 DUP6 DUP3 DUP7 ADD PUSH2 0x2459 JUMP JUMPDEST SWAP3 POP POP PUSH1 0x20 PUSH2 0x2629 DUP6 DUP3 DUP7 ADD PUSH2 0x25DE JUMP JUMPDEST SWAP2 POP POP SWAP3 POP SWAP3 SWAP1 POP JUMP JUMPDEST PUSH1 0x0 DUP1 REVERT JUMPDEST PUSH1 0x0 DUP1 REVERT JUMPDEST PUSH32 0x4E487B7100000000000000000000000000000000000000000000000000000000 PUSH1 0x0 MSTORE PUSH1 0x41 PUSH1 0x4 MSTORE PUSH1 0x24 PUSH1 0x0 REVERT JUMPDEST PUSH2 0x2675 DUP3 PUSH2 0x2317 JUMP JUMPDEST DUP2 ADD DUP2 DUP2 LT PUSH8 0xFFFFFFFFFFFFFFFF DUP3 GT OR ISZERO PUSH2 0x2694 JUMPI PUSH2 0x2693 PUSH2 0x263D JUMP JUMPDEST JUMPDEST DUP1 PUSH1 0x40 MSTORE POP POP POP JUMP JUMPDEST PUSH1 0x0 PUSH2 0x26A7 PUSH2 0x2202 JUMP JUMPDEST SWAP1 POP PUSH2 0x26B3 DUP3 DUP3 PUSH2 0x266C JUMP JUMPDEST SWAP2 SWAP1 POP JUMP JUMPDEST PUSH1 0x0 PUSH8 0xFFFFFFFFFFFFFFFF DUP3 GT ISZERO PUSH2 0x26D3 JUMPI PUSH2 0x26D2 PUSH2 0x263D JUMP JUMPDEST JUMPDEST PUSH2 0x26DC DUP3 PUSH2 0x2317 JUMP JUMPDEST SWAP1 POP PUSH1 0x20 DUP2 ADD SWAP1 POP SWAP2 SWAP1 POP JUMP JUMPDEST DUP3 DUP2 DUP4 CALLDATACOPY PUSH1 0x0 DUP4 DUP4 ADD MSTORE POP POP POP JUMP JUMPDEST PUSH1 0x0 PUSH2 0x270B PUSH2 0x2706 DUP5 PUSH2 0x26B8 JUMP JUMPDEST PUSH2 0x269D JUMP JUMPDEST SWAP1 POP DUP3 DUP2 MSTORE PUSH1 0x20 DUP2 ADD DUP5 DUP5 DUP5 ADD GT ISZERO PUSH2 0x2727 JUMPI PUSH2 0x2726 PUSH2 0x2638 JUMP JUMPDEST JUMPDEST PUSH2 0x2732 DUP5 DUP3 DUP6 PUSH2 0x26E9 JUMP JUMPDEST POP SWAP4 SWAP3 POP POP POP JUMP JUMPDEST PUSH1 0x0 DUP3 PUSH1 0x1F DUP4 ADD SLT PUSH2 0x274F JUMPI PUSH2 0x274E PUSH2 0x2633 JUMP JUMPDEST JUMPDEST DUP2 CALLDATALOAD PUSH2 0x275F DUP5 DUP3 PUSH1 0x20 DUP7 ADD PUSH2 0x26F8 JUMP JUMPDEST SWAP2 POP POP SWAP3 SWAP2 POP POP JUMP JUMPDEST PUSH1 0x0 DUP1 PUSH1 0x0 DUP1 PUSH1 0x80 DUP6 DUP8 SUB SLT ISZERO PUSH2 0x2782 JUMPI PUSH2 0x2781 PUSH2 0x220C JUMP JUMPDEST JUMPDEST PUSH1 0x0 PUSH2 0x2790 DUP8 DUP3 DUP9 ADD PUSH2 0x2459 JUMP JUMPDEST SWAP5 POP POP PUSH1 0x20 PUSH2 0x27A1 DUP8 DUP3 DUP9 ADD PUSH2 0x2459 JUMP JUMPDEST SWAP4 POP POP PUSH1 0x40 PUSH2 0x27B2 DUP8 DUP3 DUP9 ADD PUSH2 0x23A4 JUMP JUMPDEST SWAP3 POP POP PUSH1 0x60 DUP6 ADD CALLDATALOAD PUSH8 0xFFFFFFFFFFFFFFFF DUP2 GT ISZERO PUSH2 0x27D3 JUMPI PUSH2 0x27D2 PUSH2 0x2211 JUMP JUMPDEST JUMPDEST PUSH2 0x27DF DUP8 DUP3 DUP9 ADD PUSH2 0x273A JUMP JUMPDEST SWAP2 POP POP SWAP3 SWAP6 SWAP2 SWAP5 POP SWAP3 POP JUMP JUMPDEST PUSH1 0x0 DUP1 PUSH1 0x40 DUP4 DUP6 SUB SLT ISZERO PUSH2 0x2802 JUMPI PUSH2 0x2801 PUSH2 0x220C JUMP JUMPDEST JUMPDEST PUSH1 0x0 PUSH2 0x2810 DUP6 DUP3 DUP7 ADD PUSH2 0x2459 JUMP JUMPDEST SWAP3 POP POP PUSH1 0x20 PUSH2 0x2821 DUP6 DUP3 DUP7 ADD PUSH2 0x2459 JUMP JUMPDEST SWAP2 POP POP SWAP3 POP SWAP3 SWAP1 POP JUMP JUMPDEST PUSH32 0x4E487B7100000000000000000000000000000000000000000000000000000000 PUSH1 0x0 MSTORE PUSH1 0x22 PUSH1 0x4 MSTORE PUSH1 0x24 PUSH1 0x0 REVERT JUMPDEST PUSH1 0x0 PUSH1 0x2 DUP3 DIV SWAP1 POP PUSH1 0x1 DUP3 AND DUP1 PUSH2 0x2872 JUMPI PUSH1 0x7F DUP3 AND SWAP2 POP JUMPDEST PUSH1 0x20 DUP3 LT DUP2 SUB PUSH2 0x2885 JUMPI PUSH2 0x2884 PUSH2 0x282B JUMP JUMPDEST JUMPDEST POP SWAP2 SWAP1 POP JUMP JUMPDEST PUSH32 0x4552433732313A20617070726F76616C20746F2063757272656E74206F776E65 PUSH1 0x0 DUP3 ADD MSTORE PUSH32 0x7200000000000000000000000000000000000000000000000000000000000000 PUSH1 0x20 DUP3 ADD MSTORE POP JUMP JUMPDEST PUSH1 0x0 PUSH2 0x28E7 PUSH1 0x21 DUP4 PUSH2 0x22DC JUMP JUMPDEST SWAP2 POP PUSH2 0x28F2 DUP3 PUSH2 0x288B JUMP JUMPDEST PUSH1 0x40 DUP3 ADD SWAP1 POP SWAP2 SWAP1 POP JUMP JUMPDEST PUSH1 0x0 PUSH1 0x20 DUP3 ADD SWAP1 POP DUP2 DUP2 SUB PUSH1 0x0 DUP4 ADD MSTORE PUSH2 0x2916 DUP2 PUSH2 0x28DA JUMP JUMPDEST SWAP1 POP SWAP2 SWAP1 POP JUMP JUMPDEST PUSH32 0x4552433732313A20617070726F76652063616C6C6572206973206E6F7420746F PUSH1 0x0 DUP3 ADD MSTORE PUSH32 0x6B656E206F776E6572206F7220617070726F76656420666F7220616C6C000000 PUSH1 0x20 DUP3 ADD MSTORE POP JUMP JUMPDEST PUSH1 0x0 PUSH2 0x2979 PUSH1 0x3D DUP4 PUSH2 0x22DC JUMP JUMPDEST SWAP2 POP PUSH2 0x2984 DUP3 PUSH2 0x291D JUMP JUMPDEST PUSH1 0x40 DUP3 ADD SWAP1 POP SWAP2 SWAP1 POP JUMP JUMPDEST PUSH1 0x0 PUSH1 0x20 DUP3 ADD SWAP1 POP DUP2 DUP2 SUB PUSH1 0x0 DUP4 ADD MSTORE PUSH2 0x29A8 DUP2 PUSH2 0x296C JUMP JUMPDEST SWAP1 POP SWAP2 SWAP1 POP JUMP JUMPDEST PUSH32 0x4552433732313A2063616C6C6572206973206E6F7420746F6B656E206F776E65 PUSH1 0x0 DUP3 ADD MSTORE PUSH32 0x72206F7220617070726F76656400000000000000000000000000000000000000 PUSH1 0x20 DUP3 ADD MSTORE POP JUMP JUMPDEST PUSH1 0x0 PUSH2 0x2A0B PUSH1 0x2D DUP4 PUSH2 0x22DC JUMP JUMPDEST SWAP2 POP PUSH2 0x2A16 DUP3 PUSH2 0x29AF JUMP JUMPDEST PUSH1 0x40 DUP3 ADD SWAP1 POP SWAP2 SWAP1 POP JUMP JUMPDEST PUSH1 0x0 PUSH1 0x20 DUP3 ADD SWAP1 POP DUP2 DUP2 SUB PUSH1 0x0 DUP4 ADD MSTORE PUSH2 0x2A3A DUP2 PUSH2 0x29FE JUMP JUMPDEST SWAP1 POP SWAP2 SWAP1 POP JUMP JUMPDEST PUSH32 0x4552433732313A20696E76616C696420746F6B656E2049440000000000000000 PUSH1 0x0 DUP3 ADD MSTORE POP JUMP JUMPDEST PUSH1 0x0 PUSH2 0x2A77 PUSH1 0x18 DUP4 PUSH2 0x22DC JUMP JUMPDEST SWAP2 POP PUSH2 0x2A82 DUP3 PUSH2 0x2A41 JUMP JUMPDEST PUSH1 0x20 DUP3 ADD SWAP1 POP SWAP2 SWAP1 POP JUMP JUMPDEST PUSH1 0x0 PUSH1 0x20 DUP3 ADD SWAP1 POP DUP2 DUP2 SUB PUSH1 0x0 DUP4 ADD MSTORE PUSH2 0x2AA6 DUP2 PUSH2 0x2A6A JUMP JUMPDEST SWAP1 POP SWAP2 SWAP1 POP JUMP JUMPDEST PUSH32 0x4552433732313A2061646472657373207A65726F206973206E6F742061207661 PUSH1 0x0 DUP3 ADD MSTORE PUSH32 0x6C6964206F776E65720000000000000000000000000000000000000000000000 PUSH1 0x20 DUP3 ADD MSTORE POP JUMP JUMPDEST PUSH1 0x0 PUSH2 0x2B09 PUSH1 0x29 DUP4 PUSH2 0x22DC JUMP JUMPDEST SWAP2 POP PUSH2 0x2B14 DUP3 PUSH2 0x2AAD JUMP JUMPDEST PUSH1 0x40 DUP3 ADD SWAP1 POP SWAP2 SWAP1 POP JUMP JUMPDEST PUSH1 0x0 PUSH1 0x20 DUP3 ADD SWAP1 POP DUP2 DUP2 SUB PUSH1 0x0 DUP4 ADD MSTORE PUSH2 0x2B38 DUP2 PUSH2 0x2AFC JUMP JUMPDEST SWAP1 POP SWAP2 SWAP1 POP JUMP JUMPDEST PUSH1 0x0 DUP2 SWAP1 POP SWAP3 SWAP2 POP POP JUMP JUMPDEST PUSH32 0x7B226E616D65223A202200000000000000000000000000000000000000000000 PUSH1 0x0 DUP3 ADD MSTORE POP JUMP JUMPDEST PUSH1 0x0 PUSH2 0x2B80 PUSH1 0xA DUP4 PUSH2 0x2B3F JUMP JUMPDEST SWAP2 POP PUSH2 0x2B8B DUP3 PUSH2 0x2B4A JUMP JUMPDEST PUSH1 0xA DUP3 ADD SWAP1 POP SWAP2 SWAP1 POP JUMP JUMPDEST PUSH1 0x0 PUSH2 0x2BA1 DUP3 PUSH2 0x22D1 JUMP JUMPDEST PUSH2 0x2BAB DUP2 DUP6 PUSH2 0x2B3F JUMP JUMPDEST SWAP4 POP PUSH2 0x2BBB DUP2 DUP6 PUSH1 0x20 DUP7 ADD PUSH2 0x22ED JUMP JUMPDEST DUP1 DUP5 ADD SWAP2 POP POP SWAP3 SWAP2 POP POP JUMP JUMPDEST PUSH32 0x202D2D204E465420233A20000000000000000000000000000000000000000000 PUSH1 0x0 DUP3 ADD MSTORE POP JUMP JUMPDEST PUSH1 0x0 PUSH2 0x2BFD PUSH1 0xB DUP4 PUSH2 0x2B3F JUMP JUMPDEST SWAP2 POP PUSH2 0x2C08 DUP3 PUSH2 0x2BC7 JUMP JUMPDEST PUSH1 0xB DUP3 ADD SWAP1 POP SWAP2 SWAP1 POP JUMP JUMPDEST PUSH32 0x222C20226465736372697074696F6E223A20225468697320697320616E204E46 PUSH1 0x0 DUP3 ADD MSTORE PUSH32 0x542074686174206C6574732070656F706C6520706C617920696E207468652067 PUSH1 0x20 DUP3 ADD MSTORE PUSH32 0x616D65204D657461766572736520536C6179657221222C2022696D616765223A PUSH1 0x40 DUP3 ADD MSTORE PUSH32 0x2022000000000000000000000000000000000000000000000000000000000000 PUSH1 0x60 DUP3 ADD MSTORE POP JUMP JUMPDEST PUSH1 0x0 PUSH2 0x2CBB PUSH1 0x62 DUP4 PUSH2 0x2B3F JUMP JUMPDEST SWAP2 POP PUSH2 0x2CC6 DUP3 PUSH2 0x2C13 JUMP JUMPDEST PUSH1 0x62 DUP3 ADD SWAP1 POP SWAP2 SWAP1 POP JUMP JUMPDEST PUSH32 0x222C202261747472696275746573223A205B207B202274726169745F74797065 PUSH1 0x0 DUP3 ADD MSTORE PUSH32 0x223A20224865616C746820506F696E7473222C202276616C7565223A20000000 PUSH1 0x20 DUP3 ADD MSTORE POP JUMP JUMPDEST PUSH1 0x0 PUSH2 0x2D2D PUSH1 0x3D DUP4 PUSH2 0x2B3F JUMP JUMPDEST SWAP2 POP PUSH2 0x2D38 DUP3 PUSH2 0x2CD1 JUMP JUMPDEST PUSH1 0x3D DUP3 ADD SWAP1 POP SWAP2 SWAP1 POP JUMP JUMPDEST PUSH32 0x2C20226D61785F76616C7565223A000000000000000000000000000000000000 PUSH1 0x0 DUP3 ADD MSTORE POP JUMP JUMPDEST PUSH1 0x0 PUSH2 0x2D79 PUSH1 0xE DUP4 PUSH2 0x2B3F JUMP JUMPDEST SWAP2 POP PUSH2 0x2D84 DUP3 PUSH2 0x2D43 JUMP JUMPDEST PUSH1 0xE DUP3 ADD SWAP1 POP SWAP2 SWAP1 POP JUMP JUMPDEST PUSH32 0x7D2C207B202274726169745F74797065223A202241747461636B2044616D6167 PUSH1 0x0 DUP3 ADD MSTORE PUSH32 0x65222C202276616C7565223A2000000000000000000000000000000000000000 PUSH1 0x20 DUP3 ADD MSTORE POP JUMP JUMPDEST PUSH1 0x0 PUSH2 0x2DEB PUSH1 0x2D DUP4 PUSH2 0x2B3F JUMP JUMPDEST SWAP2 POP PUSH2 0x2DF6 DUP3 PUSH2 0x2D8F JUMP JUMPDEST PUSH1 0x2D DUP3 ADD SWAP1 POP SWAP2 SWAP1 POP JUMP JUMPDEST PUSH32 0x7D205D7D00000000000000000000000000000000000000000000000000000000 PUSH1 0x0 DUP3 ADD MSTORE POP JUMP JUMPDEST PUSH1 0x0 PUSH2 0x2E37 PUSH1 0x4 DUP4 PUSH2 0x2B3F JUMP JUMPDEST SWAP2 POP PUSH2 0x2E42 DUP3 PUSH2 0x2E01 JUMP JUMPDEST PUSH1 0x4 DUP3 ADD SWAP1 POP SWAP2 SWAP1 POP JUMP JUMPDEST PUSH1 0x0 PUSH2 0x2E58 DUP3 PUSH2 0x2B73 JUMP JUMPDEST SWAP2 POP PUSH2 0x2E64 DUP3 DUP10 PUSH2 0x2B96 JUMP JUMPDEST SWAP2 POP PUSH2 0x2E6F DUP3 PUSH2 0x2BF0 JUMP JUMPDEST SWAP2 POP PUSH2 0x2E7B DUP3 DUP9 PUSH2 0x2B96 JUMP JUMPDEST SWAP2 POP PUSH2 0x2E86 DUP3 PUSH2 0x2CAE JUMP JUMPDEST SWAP2 POP PUSH2 0x2E92 DUP3 DUP8 PUSH2 0x2B96 JUMP JUMPDEST SWAP2 POP PUSH2 0x2E9D DUP3 PUSH2 0x2D20 JUMP JUMPDEST SWAP2 POP PUSH2 0x2EA9 DUP3 DUP7 PUSH2 0x2B96 JUMP JUMPDEST SWAP2 POP PUSH2 0x2EB4 DUP3 PUSH2 0x2D6C JUMP JUMPDEST SWAP2 POP PUSH2 0x2EC0 DUP3 DUP6 PUSH2 0x2B96 JUMP JUMPDEST SWAP2 POP PUSH2 0x2ECB DUP3 PUSH2 0x2DDE JUMP JUMPDEST SWAP2 POP PUSH2 0x2ED7 DUP3 DUP5 PUSH2 0x2B96 JUMP JUMPDEST SWAP2 POP PUSH2 0x2EE2 DUP3 PUSH2 0x2E2A JUMP JUMPDEST SWAP2 POP DUP2 SWAP1 POP SWAP8 SWAP7 POP POP POP POP POP POP POP JUMP JUMPDEST PUSH32 0x646174613A6170706C69636174696F6E2F6A736F6E3B6261736536342C000000 PUSH1 0x0 DUP3 ADD MSTORE POP JUMP JUMPDEST PUSH1 0x0 PUSH2 0x2F28 PUSH1 0x1D DUP4 PUSH2 0x2B3F JUMP JUMPDEST SWAP2 POP PUSH2 0x2F33 DUP3 PUSH2 0x2EF2 JUMP JUMPDEST PUSH1 0x1D DUP3 ADD SWAP1 POP SWAP2 SWAP1 POP JUMP JUMPDEST PUSH1 0x0 PUSH2 0x2F49 DUP3 PUSH2 0x2F1B JUMP JUMPDEST SWAP2 POP PUSH2 0x2F55 DUP3 DUP5 PUSH2 0x2B96 JUMP JUMPDEST SWAP2 POP DUP2 SWAP1 POP SWAP3 SWAP2 POP POP JUMP JUMPDEST PUSH32 0x4E487B7100000000000000000000000000000000000000000000000000000000 PUSH1 0x0 MSTORE PUSH1 0x32 PUSH1 0x4 MSTORE PUSH1 0x24 PUSH1 0x0 REVERT JUMPDEST PUSH1 0x0 DUP2 SWAP1 POP DUP2 PUSH1 0x0 MSTORE PUSH1 0x20 PUSH1 0x0 KECCAK256 SWAP1 POP SWAP2 SWAP1 POP JUMP JUMPDEST PUSH1 0x0 PUSH1 0x20 PUSH1 0x1F DUP4 ADD DIV SWAP1 POP SWAP2 SWAP1 POP JUMP JUMPDEST PUSH1 0x0 DUP3 DUP3 SHL SWAP1 POP SWAP3 SWAP2 POP POP JUMP JUMPDEST PUSH1 0x0 PUSH1 0x8 DUP4 MUL PUSH2 0x2FF1 PUSH32 0xFFFFFFFFFFFFFFFFFFFFFFFFFFFFFFFFFFFFFFFFFFFFFFFFFFFFFFFFFFFFFFFF DUP3 PUSH2 0x2FB4 JUMP JUMPDEST PUSH2 0x2FFB DUP7 DUP4 PUSH2 0x2FB4 JUMP JUMPDEST SWAP6 POP DUP1 NOT DUP5 AND SWAP4 POP DUP1 DUP7 AND DUP5 OR SWAP3 POP POP POP SWAP4 SWAP3 POP POP POP JUMP JUMPDEST PUSH1 0x0 DUP2 SWAP1 POP SWAP2 SWAP1 POP JUMP JUMPDEST PUSH1 0x0 PUSH2 0x3038 PUSH2 0x3033 PUSH2 0x302E DUP5 PUSH2 0x2383 JUMP JUMPDEST PUSH2 0x3013 JUMP JUMPDEST PUSH2 0x2383 JUMP JUMPDEST SWAP1 POP SWAP2 SWAP1 POP JUMP JUMPDEST PUSH1 0x0 DUP2 SWAP1 POP SWAP2 SWAP1 POP JUMP JUMPDEST PUSH2 0x3052 DUP4 PUSH2 0x301D JUMP JUMPDEST PUSH2 0x3066 PUSH2 0x305E DUP3 PUSH2 0x303F JUMP JUMPDEST DUP5 DUP5 SLOAD PUSH2 0x2FC1 JUMP JUMPDEST DUP3 SSTORE POP POP POP POP JUMP JUMPDEST PUSH1 0x0 SWAP1 JUMP JUMPDEST PUSH2 0x307B PUSH2 0x306E JUMP JUMPDEST PUSH2 0x3086 DUP2 DUP5 DUP5 PUSH2 0x3049 JUMP JUMPDEST POP POP POP JUMP JUMPDEST JUMPDEST DUP2 DUP2 LT ISZERO PUSH2 0x30AA JUMPI PUSH2 0x309F PUSH1 0x0 DUP3 PUSH2 0x3073 JUMP JUMPDEST PUSH1 0x1 DUP2 ADD SWAP1 POP PUSH2 0x308C JUMP JUMPDEST POP POP JUMP JUMPDEST PUSH1 0x1F DUP3 GT ISZERO PUSH2 0x30EF JUMPI PUSH2 0x30C0 DUP2 PUSH2 0x2F8F JUMP JUMPDEST PUSH2 0x30C9 DUP5 PUSH2 0x2FA4 JUMP JUMPDEST DUP2 ADD PUSH1 0x20 DUP6 LT ISZERO PUSH2 0x30D8 JUMPI DUP2 SWAP1 POP JUMPDEST PUSH2 0x30EC PUSH2 0x30E4 DUP6 PUSH2 0x2FA4 JUMP JUMPDEST DUP4 ADD DUP3 PUSH2 0x308B JUMP JUMPDEST POP POP JUMPDEST POP POP POP JUMP JUMPDEST PUSH1 0x0 DUP3 DUP3 SHR SWAP1 POP SWAP3 SWAP2 POP POP JUMP JUMPDEST PUSH1 0x0 PUSH2 0x3112 PUSH1 0x0 NOT DUP5 PUSH1 0x8 MUL PUSH2 0x30F4 JUMP JUMPDEST NOT DUP1 DUP4 AND SWAP2 POP POP SWAP3 SWAP2 POP POP JUMP JUMPDEST PUSH1 0x0 PUSH2 0x312B DUP4 DUP4 PUSH2 0x3101 JUMP JUMPDEST SWAP2 POP DUP3 PUSH1 0x2 MUL DUP3 OR SWAP1 POP SWAP3 SWAP2 POP POP JUMP JUMPDEST PUSH2 0x3144 DUP3 PUSH2 0x22D1 JUMP JUMPDEST PUSH8 0xFFFFFFFFFFFFFFFF DUP2 GT ISZERO PUSH2 0x315D JUMPI PUSH2 0x315C PUSH2 0x263D JUMP JUMPDEST JUMPDEST PUSH2 0x3167 DUP3 SLOAD PUSH2 0x285A JUMP JUMPDEST PUSH2 0x3172 DUP3 DUP3 DUP6 PUSH2 0x30AE JUMP JUMPDEST PUSH1 0x0 PUSH1 0x20 SWAP1 POP PUSH1 0x1F DUP4 GT PUSH1 0x1 DUP2 EQ PUSH2 0x31A5 JUMPI PUSH1 0x0 DUP5 ISZERO PUSH2 0x3193 JUMPI DUP3 DUP8 ADD MLOAD SWAP1 POP JUMPDEST PUSH2 0x319D DUP6 DUP3 PUSH2 0x311F JUMP JUMPDEST DUP7 SSTORE POP PUSH2 0x3205 JUMP JUMPDEST PUSH1 0x1F NOT DUP5 AND PUSH2 0x31B3 DUP7 PUSH2 0x2F8F JUMP JUMPDEST PUSH1 0x0 JUMPDEST DUP3 DUP2 LT ISZERO PUSH2 0x31DB JUMPI DUP5 DUP10 ADD MLOAD DUP3 SSTORE PUSH1 0x1 DUP3 ADD SWAP2 POP PUSH1 0x20 DUP6 ADD SWAP5 POP PUSH1 0x20 DUP2 ADD SWAP1 POP PUSH2 0x31B6 JUMP JUMPDEST DUP7 DUP4 LT ISZERO PUSH2 0x31F8 JUMPI DUP5 DUP10 ADD MLOAD PUSH2 0x31F4 PUSH1 0x1F DUP10 AND DUP3 PUSH2 0x3101 JUMP JUMPDEST DUP4 SSTORE POP JUMPDEST PUSH1 0x1 PUSH1 0x2 DUP9 MUL ADD DUP9 SSTORE POP POP POP JUMPDEST POP POP POP POP POP POP JUMP JUMPDEST PUSH1 0x0 PUSH1 0x80 DUP3 ADD SWAP1 POP DUP2 DUP2 SUB PUSH1 0x0 DUP4 ADD MSTORE PUSH2 0x3227 DUP2 DUP8 PUSH2 0x2328 JUMP JUMPDEST SWAP1 POP DUP2 DUP2 SUB PUSH1 0x20 DUP4 ADD MSTORE PUSH2 0x323B DUP2 DUP7 PUSH2 0x2328 JUMP JUMPDEST SWAP1 POP PUSH2 0x324A PUSH1 0x40 DUP4 ADD DUP6 PUSH2 0x252E JUMP JUMPDEST DUP2 DUP2 SUB PUSH1 0x60 DUP4 ADD MSTORE PUSH2 0x325C DUP2 DUP5 PUSH2 0x2328 JUMP JUMPDEST SWAP1 POP SWAP6 SWAP5 POP POP POP POP POP JUMP JUMPDEST PUSH32 0x4552433732313A207472616E736665722066726F6D20696E636F727265637420 PUSH1 0x0 DUP3 ADD MSTORE PUSH32 0x6F776E6572000000000000000000000000000000000000000000000000000000 PUSH1 0x20 DUP3 ADD MSTORE POP JUMP JUMPDEST PUSH1 0x0 PUSH2 0x32C3 PUSH1 0x25 DUP4 PUSH2 0x22DC JUMP JUMPDEST SWAP2 POP PUSH2 0x32CE DUP3 PUSH2 0x3267 JUMP JUMPDEST PUSH1 0x40 DUP3 ADD SWAP1 POP SWAP2 SWAP1 POP JUMP JUMPDEST PUSH1 0x0 PUSH1 0x20 DUP3 ADD SWAP1 POP DUP2 DUP2 SUB PUSH1 0x0 DUP4 ADD MSTORE PUSH2 0x32F2 DUP2 PUSH2 0x32B6 JUMP JUMPDEST SWAP1 POP SWAP2 SWAP1 POP JUMP JUMPDEST PUSH32 0x4552433732313A207472616E7366657220746F20746865207A65726F20616464 PUSH1 0x0 DUP3 ADD MSTORE PUSH32 0x7265737300000000000000000000000000000000000000000000000000000000 PUSH1 0x20 DUP3 ADD MSTORE POP JUMP JUMPDEST PUSH1 0x0 PUSH2 0x3355 PUSH1 0x24 DUP4 PUSH2 0x22DC JUMP JUMPDEST SWAP2 POP PUSH2 0x3360 DUP3 PUSH2 0x32F9 JUMP JUMPDEST PUSH1 0x40 DUP3 ADD SWAP1 POP SWAP2 SWAP1 POP JUMP JUMPDEST PUSH1 0x0 PUSH1 0x20 DUP3 ADD SWAP1 POP DUP2 DUP2 SUB PUSH1 0x0 DUP4 ADD MSTORE PUSH2 0x3384 DUP2 PUSH2 0x3348 JUMP JUMPDEST SWAP1 POP SWAP2 SWAP1 POP JUMP JUMPDEST PUSH32 0x4552433732313A20617070726F766520746F2063616C6C657200000000000000 PUSH1 0x0 DUP3 ADD MSTORE POP JUMP JUMPDEST PUSH1 0x0 PUSH2 0x33C1 PUSH1 0x19 DUP4 PUSH2 0x22DC JUMP JUMPDEST SWAP2 POP PUSH2 0x33CC DUP3 PUSH2 0x338B JUMP JUMPDEST PUSH1 0x20 DUP3 ADD SWAP1 POP SWAP2 SWAP1 POP JUMP JUMPDEST PUSH1 0x0 PUSH1 0x20 DUP3 ADD SWAP1 POP DUP2 DUP2 SUB PUSH1 0x0 DUP4 ADD MSTORE PUSH2 0x33F0 DUP2 PUSH2 0x33B4 JUMP JUMPDEST SWAP1 POP SWAP2 SWAP1 POP JUMP JUMPDEST PUSH32 0x4552433732313A207472616E7366657220746F206E6F6E204552433732315265 PUSH1 0x0 DUP3 ADD MSTORE PUSH32 0x63656976657220696D706C656D656E7465720000000000000000000000000000 PUSH1 0x20 DUP3 ADD MSTORE POP JUMP JUMPDEST PUSH1 0x0 PUSH2 0x3453 PUSH1 0x32 DUP4 PUSH2 0x22DC JUMP JUMPDEST SWAP2 POP PUSH2 0x345E DUP3 PUSH2 0x33F7 JUMP JUMPDEST PUSH1 0x40 DUP3 ADD SWAP1 POP SWAP2 SWAP1 POP JUMP JUMPDEST PUSH1 0x0 PUSH1 0x20 DUP3 ADD SWAP1 POP DUP2 DUP2 SUB PUSH1 0x0 DUP4 ADD MSTORE PUSH2 0x3482 DUP2 PUSH2 0x3446 JUMP JUMPDEST SWAP1 POP SWAP2 SWAP1 POP JUMP JUMPDEST PUSH32 0x4E487B7100000000000000000000000000000000000000000000000000000000 PUSH1 0x0 MSTORE PUSH1 0x12 PUSH1 0x4 MSTORE PUSH1 0x24 PUSH1 0x0 REVERT JUMPDEST PUSH32 0x4E487B7100000000000000000000000000000000000000000000000000000000 PUSH1 0x0 MSTORE PUSH1 0x11 PUSH1 0x4 MSTORE PUSH1 0x24 PUSH1 0x0 REVERT JUMPDEST PUSH1 0x0 PUSH2 0x34F2 DUP3 PUSH2 0x2383 JUMP JUMPDEST SWAP2 POP PUSH2 0x34FD DUP4 PUSH2 0x2383 JUMP JUMPDEST SWAP3 POP DUP3 DUP3 ADD SWAP1 POP DUP1 DUP3 GT ISZERO PUSH2 0x3515 JUMPI PUSH2 0x3514 PUSH2 0x34B8 JUMP JUMPDEST JUMPDEST SWAP3 SWAP2 POP POP JUMP JUMPDEST PUSH1 0x0 PUSH2 0x3526 DUP3 PUSH2 0x2383 JUMP JUMPDEST SWAP2 POP PUSH2 0x3531 DUP4 PUSH2 0x2383 JUMP JUMPDEST SWAP3 POP DUP3 PUSH2 0x3541 JUMPI PUSH2 0x3540 PUSH2 0x3489 JUMP JUMPDEST JUMPDEST DUP3 DUP3 DIV SWAP1 POP SWAP3 SWAP2 POP POP JUMP JUMPDEST PUSH1 0x0 PUSH2 0x3557 DUP3 PUSH2 0x2383 JUMP JUMPDEST SWAP2 POP PUSH2 0x3562 DUP4 PUSH2 0x2383 JUMP JUMPDEST SWAP3 POP DUP3 DUP3 MUL PUSH2 0x3570 DUP2 PUSH2 0x2383 JUMP JUMPDEST SWAP2 POP DUP3 DUP3 DIV DUP5 EQ DUP4 ISZERO OR PUSH2 0x3587 JUMPI PUSH2 0x3586 PUSH2 0x34B8 JUMP JUMPDEST JUMPDEST POP SWAP3 SWAP2 POP POP JUMP JUMPDEST PUSH1 0x0 PUSH1 0x60 DUP3 ADD SWAP1 POP DUP2 DUP2 SUB PUSH1 0x0 DUP4 ADD MSTORE PUSH2 0x35A8 DUP2 DUP7 PUSH2 0x2328 JUMP JUMPDEST SWAP1 POP PUSH2 0x35B7 PUSH1 0x20 DUP4 ADD DUP6 PUSH2 0x252E JUMP JUMPDEST PUSH2 0x35C4 PUSH1 0x40 DUP4 ADD DUP5 PUSH2 0x252E JUMP JUMPDEST SWAP5 SWAP4 POP POP POP POP JUMP JUMPDEST PUSH1 0x0 PUSH2 0x35D7 DUP3 PUSH2 0x2383 JUMP JUMPDEST SWAP2 POP PUSH2 0x35E2 DUP4 PUSH2 0x2383 JUMP JUMPDEST SWAP3 POP DUP3 DUP3 SUB SWAP1 POP DUP2 DUP2 GT ISZERO PUSH2 0x35FA JUMPI PUSH2 0x35F9 PUSH2 0x34B8 JUMP JUMPDEST JUMPDEST SWAP3 SWAP2 POP POP JUMP JUMPDEST PUSH1 0x0 DUP2 MLOAD SWAP1 POP SWAP2 SWAP1 POP JUMP JUMPDEST PUSH1 0x0 DUP3 DUP3 MSTORE PUSH1 0x20 DUP3 ADD SWAP1 POP SWAP3 SWAP2 POP POP JUMP JUMPDEST PUSH1 0x0 PUSH2 0x3627 DUP3 PUSH2 0x3600 JUMP JUMPDEST PUSH2 0x3631 DUP2 DUP6 PUSH2 0x360B JUMP JUMPDEST SWAP4 POP PUSH2 0x3641 DUP2 DUP6 PUSH1 0x20 DUP7 ADD PUSH2 0x22ED JUMP JUMPDEST PUSH2 0x364A DUP2 PUSH2 0x2317 JUMP JUMPDEST DUP5 ADD SWAP2 POP POP SWAP3 SWAP2 POP POP JUMP JUMPDEST PUSH1 0x0 PUSH1 0x80 DUP3 ADD SWAP1 POP PUSH2 0x366A PUSH1 0x0 DUP4 ADD DUP8 PUSH2 0x2418 JUMP JUMPDEST PUSH2 0x3677 PUSH1 0x20 DUP4 ADD DUP7 PUSH2 0x2418 JUMP JUMPDEST PUSH2 0x3684 PUSH1 0x40 DUP4 ADD DUP6 PUSH2 0x252E JUMP JUMPDEST DUP2 DUP2 SUB PUSH1 0x60 DUP4 ADD MSTORE PUSH2 0x3696 DUP2 DUP5 PUSH2 0x361C JUMP JUMPDEST SWAP1 POP SWAP6 SWAP5 POP POP POP POP POP JUMP JUMPDEST PUSH1 0x0 DUP2 MLOAD SWAP1 POP PUSH2 0x36B0 DUP2 PUSH2 0x2242 JUMP JUMPDEST SWAP3 SWAP2 POP POP JUMP JUMPDEST PUSH1 0x0 PUSH1 0x20 DUP3 DUP5 SUB SLT ISZERO PUSH2 0x36CC JUMPI PUSH2 0x36CB PUSH2 0x220C JUMP JUMPDEST JUMPDEST PUSH1 0x0 PUSH2 0x36DA DUP5 DUP3 DUP6 ADD PUSH2 0x36A1 JUMP JUMPDEST SWAP2 POP POP SWAP3 SWAP2 POP POP JUMP JUMPDEST PUSH32 0x4552433732313A206D696E7420746F20746865207A65726F2061646472657373 PUSH1 0x0 DUP3 ADD MSTORE POP JUMP JUMPDEST PUSH1 0x0 PUSH2 0x3719 PUSH1 0x20 DUP4 PUSH2 0x22DC JUMP JUMPDEST SWAP2 POP PUSH2 0x3724 DUP3 PUSH2 0x36E3 JUMP JUMPDEST PUSH1 0x20 DUP3 ADD SWAP1 POP SWAP2 SWAP1 POP JUMP JUMPDEST PUSH1 0x0 PUSH1 0x20 DUP3 ADD SWAP1 POP DUP2 DUP2 SUB PUSH1 0x0 DUP4 ADD MSTORE PUSH2 0x3748 DUP2 PUSH2 0x370C JUMP JUMPDEST SWAP1 POP SWAP2 SWAP1 POP JUMP JUMPDEST PUSH32 0x4552433732313A20746F6B656E20616C7265616479206D696E74656400000000 PUSH1 0x0 DUP3 ADD MSTORE POP JUMP JUMPDEST PUSH1 0x0 PUSH2 0x3785 PUSH1 0x1C DUP4 PUSH2 0x22DC JUMP JUMPDEST SWAP2 POP PUSH2 0x3790 DUP3 PUSH2 0x374F JUMP JUMPDEST PUSH1 0x20 DUP3 ADD SWAP1 POP SWAP2 SWAP1 POP JUMP JUMPDEST PUSH1 0x0 PUSH1 0x20 DUP3 ADD SWAP1 POP DUP2 DUP2 SUB PUSH1 0x0 DUP4 ADD MSTORE PUSH2 0x37B4 DUP2 PUSH2 0x3778 JUMP JUMPDEST SWAP1 POP SWAP2 SWAP1 POP JUMP INVALID COINBASE TIMESTAMP NUMBER DIFFICULTY GASLIMIT CHAINID SELFBALANCE BASEFEE 0x49 0x4A 0x4B 0x4C 0x4D 0x4E 0x4F POP MLOAD MSTORE MSTORE8 SLOAD SSTORE JUMP JUMPI PC MSIZE GAS PUSH2 0x6263 PUSH5 0x6566676869 PUSH11 0x6B6C6D6E6F707172737475 PUSH23 0x7778797A303132333435363738392B2F4D696E74656420 0x4E CHAINID SLOAD KECCAK256 PUSH24 0x2F20746F6B656E496420257320616E642063686172616374 PUSH6 0x72496E646578 KECCAK256 0x25 PUSH20 0xA26469706673582212203E525B72005330A1C08F SWAP5 LOG3 0xAA POP SUB GASPRICE ADDMOD 0x27 SELFDESTRUCT GT 0xFC 0xF6 SWAP16 PUSH1 0xA3 LOG1 SELFBALANCE 0xD0 PUSH22 0x9B8A7164736F6C63430008110033446F6E6520696E69 PUSH21 0x69616C697A696E6720257320772F2048502025732C KECCAK256 PUSH10 0x6D672025730000000000 "},"methodIdentifiers":{"approve(address,uint256)":"095ea7b3","balanceOf(address)":"70a08231","getApproved(uint256)":"081812fc","isApprovedForAll(address,address)":"e985e9c5","mintCharacterNFT(uint256)":"f8b81ef7","name()":"06fdde03","nftHolderAttributes(uint256)":"98da4c95","nftHolders(address)":"7df124a1","ownerOf(uint256)":"6352211e","safeTransferFrom(address,address,uint256)":"42842e0e","safeTransferFrom(address,address,uint256,bytes)":"b88d4fde","setApprovalForAll(address,bool)":"a22cb465","supportsInterface(bytes4)":"01ffc9a7","symbol()":"95d89b41","tokenURI(uint256)":"c87b56dd","transferFrom(address,address,uint256)":"23b872dd"}}}}}