{
  "_format": "hh-sol-artifact-1",
  "contractName": "MyEpicGame",
  "sourceName": "contracts/MyEpicGame.sol",
  "abi": [
    {
      "inputs": [
        {
          "internalType": "string[]",
          "name": "characterNames",
          "type": "string[]"
        },
        {
          "internalType": "string[]",
          "name": "characterImageURIs",
          "type": "string[]"
        },
        {
          "internalType": "uint256[]",
          "name": "characterHp",
          "type": "uint256[]"
        },
        {
          "internalType": "uint256[]",
          "name": "characterAttackDmg",
          "type": "uint256[]"
        },
        {
          "internalType": "string",
          "name": "bossName",
          "type": "string"
        },
        {
          "internalType": "string",
          "name": "bossImageURI",
          "type": "string"
        },
        {
          "internalType": "uint256",
          "name": "bossHp",
          "type": "uint256"
        },
        {
          "internalType": "uint256",
          "name": "bossAttackDamage",
          "type": "uint256"
        }
      ],
      "stateMutability": "nonpayable",
      "type": "constructor"
    },
    {
      "anonymous": false,
      "inputs": [
        {
          "indexed": true,
          "internalType": "address",
          "name": "owner",
          "type": "address"
        },
        {
          "indexed": true,
          "internalType": "address",
          "name": "approved",
          "type": "address"
        },
        {
          "indexed": true,
          "internalType": "uint256",
          "name": "tokenId",
          "type": "uint256"
        }
      ],
      "name": "Approval",
      "type": "event"
    },
    {
      "anonymous": false,
      "inputs": [
        {
          "indexed": true,
          "internalType": "address",
          "name": "owner",
          "type": "address"
        },
        {
          "indexed": true,
          "internalType": "address",
          "name": "operator",
          "type": "address"
        },
        {
          "indexed": false,
          "internalType": "bool",
          "name": "approved",
          "type": "bool"
        }
      ],
      "name": "ApprovalForAll",
      "type": "event"
    },
    {
      "anonymous": false,
      "inputs": [
        {
          "indexed": false,
          "internalType": "address",
          "name": "sender",
          "type": "address"
        },
        {
          "indexed": false,
          "internalType": "uint256",
          "name": "newBossHp",
          "type": "uint256"
        },
        {
          "indexed": false,
          "internalType": "uint256",
          "name": "newPlayerHp",
          "type": "uint256"
        }
      ],
      "name": "AttackComplete",
      "type": "event"
    },
    {
      "anonymous": false,
      "inputs": [
        {
          "indexed": false,
          "internalType": "address",
          "name": "sender",
          "type": "address"
        },
        {
          "indexed": false,
          "internalType": "uint256",
          "name": "tokenId",
          "type": "uint256"
        },
        {
          "indexed": false,
          "internalType": "uint256",
          "name": "characterIndex",
          "type": "uint256"
        }
      ],
      "name": "CharacterNFTMinted",
      "type": "event"
    },
    {
      "anonymous": false,
      "inputs": [
        {
          "indexed": true,
          "internalType": "address",
          "name": "from",
          "type": "address"
        },
        {
          "indexed": true,
          "internalType": "address",
          "name": "to",
          "type": "address"
        },
        {
          "indexed": true,
          "internalType": "uint256",
          "name": "tokenId",
          "type": "uint256"
        }
      ],
      "name": "Transfer",
      "type": "event"
    },
    {
      "inputs": [
        {
          "internalType": "address",
          "name": "to",
          "type": "address"
        },
        {
          "internalType": "uint256",
          "name": "tokenId",
          "type": "uint256"
        }
      ],
      "name": "approve",
      "outputs": [],
      "stateMutability": "nonpayable",
      "type": "function"
    },
    {
      "inputs": [],
      "name": "attackBoss",
      "outputs": [],
      "stateMutability": "nonpayable",
      "type": "function"
    },
    {
      "inputs": [
        {
          "internalType": "address",
          "name": "owner",
          "type": "address"
        }
      ],
      "name": "balanceOf",
      "outputs": [
        {
          "internalType": "uint256",
          "name": "",
          "type": "uint256"
        }
      ],
      "stateMutability": "view",
      "type": "function"
    },
    {
      "inputs": [],
      "name": "bigBoss",
      "outputs": [
        {
          "internalType": "string",
          "name": "name",
          "type": "string"
        },
        {
          "internalType": "string",
          "name": "imageURI",
          "type": "string"
        },
        {
          "internalType": "uint256",
          "name": "hp",
          "type": "uint256"
        },
        {
          "internalType": "uint256",
          "name": "maxHp",
          "type": "uint256"
        },
        {
          "internalType": "uint256",
          "name": "attackDamage",
          "type": "uint256"
        }
      ],
      "stateMutability": "view",
      "type": "function"
    },
    {
      "inputs": [],
      "name": "checkIfUserHasNFT",
      "outputs": [
        {
          "components": [
            {
              "internalType": "uint256",
              "name": "characterIndex",
              "type": "uint256"
            },
            {
              "internalType": "string",
              "name": "name",
              "type": "string"
            },
            {
              "internalType": "string",
              "name": "imageURI",
              "type": "string"
            },
            {
              "internalType": "uint256",
              "name": "hp",
              "type": "uint256"
            },
            {
              "internalType": "uint256",
              "name": "maxHp",
              "type": "uint256"
            },
            {
              "internalType": "uint256",
              "name": "attackDamage",
              "type": "uint256"
            }
          ],
          "internalType": "struct MyEpicGame.CharacterAttributes",
          "name": "",
          "type": "tuple"
        }
      ],
      "stateMutability": "view",
      "type": "function"
    },
    {
      "inputs": [],
      "name": "getAllDefaultCharacters",
      "outputs": [
        {
          "components": [
            {
              "internalType": "uint256",
              "name": "characterIndex",
              "type": "uint256"
            },
            {
              "internalType": "string",
              "name": "name",
              "type": "string"
            },
            {
              "internalType": "string",
              "name": "imageURI",
              "type": "string"
            },
            {
              "internalType": "uint256",
              "name": "hp",
              "type": "uint256"
            },
            {
              "internalType": "uint256",
              "name": "maxHp",
              "type": "uint256"
            },
            {
              "internalType": "uint256",
              "name": "attackDamage",
              "type": "uint256"
            }
          ],
          "internalType": "struct MyEpicGame.CharacterAttributes[]",
          "name": "",
          "type": "tuple[]"
        }
      ],
      "stateMutability": "view",
      "type": "function"
    },
    {
      "inputs": [
        {
          "internalType": "uint256",
          "name": "tokenId",
          "type": "uint256"
        }
      ],
      "name": "getApproved",
      "outputs": [
        {
          "internalType": "address",
          "name": "",
          "type": "address"
        }
      ],
      "stateMutability": "view",
      "type": "function"
    },
    {
      "inputs": [],
      "name": "getBigBosss",
      "outputs": [
        {
          "components": [
            {
              "internalType": "string",
              "name": "name",
              "type": "string"
            },
            {
              "internalType": "string",
              "name": "imageURI",
              "type": "string"
            },
            {
              "internalType": "uint256",
              "name": "hp",
              "type": "uint256"
            },
            {
              "internalType": "uint256",
              "name": "maxHp",
              "type": "uint256"
            },
            {
              "internalType": "uint256",
              "name": "attackDamage",
              "type": "uint256"
            }
          ],
          "internalType": "struct MyEpicGame.BigBoss",
          "name": "",
          "type": "tuple"
        }
      ],
      "stateMutability": "view",
      "type": "function"
    },
    {
      "inputs": [
        {
          "internalType": "address",
          "name": "owner",
          "type": "address"
        },
        {
          "internalType": "address",
          "name": "operator",
          "type": "address"
        }
      ],
      "name": "isApprovedForAll",
      "outputs": [
        {
          "internalType": "bool",
          "name": "",
          "type": "bool"
        }
      ],
      "stateMutability": "view",
      "type": "function"
    },
    {
      "inputs": [
        {
          "internalType": "uint256",
          "name": "_characterIndex",
          "type": "uint256"
        }
      ],
      "name": "mintCharacterNFT",
      "outputs": [],
      "stateMutability": "nonpayable",
      "type": "function"
    },
    {
      "inputs": [],
      "name": "name",
      "outputs": [
        {
          "internalType": "string",
          "name": "",
          "type": "string"
        }
      ],
      "stateMutability": "view",
      "type": "function"
    },
    {
      "inputs": [
        {
          "internalType": "uint256",
          "name": "",
          "type": "uint256"
        }
      ],
      "name": "nftHolderAttributes",
      "outputs": [
        {
          "internalType": "uint256",
          "name": "characterIndex",
          "type": "uint256"
        },
        {
          "internalType": "string",
          "name": "name",
          "type": "string"
        },
        {
          "internalType": "string",
          "name": "imageURI",
          "type": "string"
        },
        {
          "internalType": "uint256",
          "name": "hp",
          "type": "uint256"
        },
        {
          "internalType": "uint256",
          "name": "maxHp",
          "type": "uint256"
        },
        {
          "internalType": "uint256",
          "name": "attackDamage",
          "type": "uint256"
        }
      ],
      "stateMutability": "view",
      "type": "function"
    },
    {
      "inputs": [
        {
          "internalType": "address",
          "name": "",
          "type": "address"
        }
      ],
      "name": "nftHolders",
      "outputs": [
        {
          "internalType": "uint256",
          "name": "",
          "type": "uint256"
        }
      ],
      "stateMutability": "view",
      "type": "function"
    },
    {
      "inputs": [
        {
          "internalType": "uint256",
          "name": "tokenId",
          "type": "uint256"
        }
      ],
      "name": "ownerOf",
      "outputs": [
        {
          "internalType": "address",
          "name": "",
          "type": "address"
        }
      ],
      "stateMutability": "view",
      "type": "function"
    },
    {
      "inputs": [
        {
          "internalType": "address",
          "name": "from",
          "type": "address"
        },
        {
          "internalType": "address",
          "name": "to",
          "type": "address"
        },
        {
          "internalType": "uint256",
          "name": "tokenId",
          "type": "uint256"
        }
      ],
      "name": "safeTransferFrom",
      "outputs": [],
      "stateMutability": "nonpayable",
      "type": "function"
    },
    {
      "inputs": [
        {
          "internalType": "address",
          "name": "from",
          "type": "address"
        },
        {
          "internalType": "address",
          "name": "to",
          "type": "address"
        },
        {
          "internalType": "uint256",
          "name": "tokenId",
          "type": "uint256"
        },
        {
          "internalType": "bytes",
          "name": "data",
          "type": "bytes"
        }
      ],
      "name": "safeTransferFrom",
      "outputs": [],
      "stateMutability": "nonpayable",
      "type": "function"
    },
    {
      "inputs": [
        {
          "internalType": "address",
          "name": "operator",
          "type": "address"
        },
        {
          "internalType": "bool",
          "name": "approved",
          "type": "bool"
        }
      ],
      "name": "setApprovalForAll",
      "outputs": [],
      "stateMutability": "nonpayable",
      "type": "function"
    },
    {
      "inputs": [
        {
          "internalType": "bytes4",
          "name": "interfaceId",
          "type": "bytes4"
        }
      ],
      "name": "supportsInterface",
      "outputs": [
        {
          "internalType": "bool",
          "name": "",
          "type": "bool"
        }
      ],
      "stateMutability": "view",
      "type": "function"
    },
    {
      "inputs": [],
      "name": "symbol",
      "outputs": [
        {
          "internalType": "string",
          "name": "",
          "type": "string"
        }
      ],
      "stateMutability": "view",
      "type": "function"
    },
    {
      "inputs": [
        {
          "internalType": "uint256",
          "name": "_tokenId",
          "type": "uint256"
        }
      ],
      "name": "tokenURI",
      "outputs": [
        {
          "internalType": "string",
          "name": "",
          "type": "string"
        }
      ],
      "stateMutability": "view",
      "type": "function"
    },
    {
      "inputs": [
        {
          "internalType": "address",
          "name": "from",
          "type": "address"
        },
        {
          "internalType": "address",
          "name": "to",
          "type": "address"
        },
        {
          "internalType": "uint256",
          "name": "tokenId",
          "type": "uint256"
        }
      ],
      "name": "transferFrom",
      "outputs": [],
      "stateMutability": "nonpayable",
      "type": "function"
    }
  ],
  "bytecode": "0x608060405260006006553480156200001657600080fd5b5060405162005f2638038062005f2683398181016040528101906200003c919062000a8f565b6040518060400160405280600681526020017f4865726f657300000000000000000000000000000000000000000000000000008152506040518060400160405280600481526020017f4845524f000000000000000000000000000000000000000000000000000000008152508160009081620000b9919062000e53565b508060019081620000cb919062000e53565b5050506040518060a0016040528085815260200184815260200183815260200183815260200182815250600a60008201518160000190816200010e919062000e53565b50602082015181600101908162000126919062000e53565b50604082015181600201556060820151816003015560808201518160040155905050620002a96040518060600160405280602a815260200162005efc602a9139600a6000018054620001789062000c4c565b80601f0160208091040260200160405190810160405280929190818152602001828054620001a69062000c4c565b8015620001f75780601f10620001cb57610100808354040283529160200191620001f7565b820191906000526020600020905b815481529060010190602001808311620001d957829003601f168201915b5050505050600a60020154600a6001018054620002149062000c4c565b80601f0160208091040260200160405190810160405280929190818152602001828054620002429062000c4c565b8015620002935780601f10620002675761010080835404028352916020019162000293565b820191906000526020600020905b8154815290600101906020018083116200027557829003601f168201915b50505050506200060460201b62001d501760201c565b60005b8851811015620005de5760086040518060c001604052808381526020018b8481518110620002df57620002de62000f3a565b5b602002602001015181526020018a848151811062000302576200030162000f3a565b5b6020026020010151815260200189848151811062000325576200032462000f3a565b5b6020026020010151815260200189848151811062000348576200034762000f3a565b5b602002602001015181526020018884815181106200036b576200036a62000f3a565b5b60200260200101518152509080600181540180825580915050600190039060005260206000209060060201600090919091909150600082015181600001556020820151816001019081620003c0919062000e53565b506040820151816002019081620003d8919062000e53565b50606082015181600301556080820151816004015560a08201518160050155505060006008828154811062000412576200041162000f3a565b5b90600052602060002090600602016040518060c001604052908160008201548152602001600182018054620004479062000c4c565b80601f0160208091040260200160405190810160405280929190818152602001828054620004759062000c4c565b8015620004c65780601f106200049a57610100808354040283529160200191620004c6565b820191906000526020600020905b815481529060010190602001808311620004a857829003601f168201915b50505050508152602001600282018054620004e19062000c4c565b80601f01602080910402602001604051908101604052809291908181526020018280546200050f9062000c4c565b8015620005605780601f10620005345761010080835404028352916020019162000560565b820191906000526020600020905b8154815290600101906020018083116200054257829003601f168201915b5050505050815260200160038201548152602001600482015481526020016005820154815250509050620005c760405180606001604052806025815260200162005ed7602591398260200151836060015184604001516200060460201b62001d501760201c565b508080620005d59062000f98565b915050620002ac565b50620005f66007620006b060201b62001df21760201c565b5050505050505050620010aa565b620006aa8484848460405160240162000621949392919062001048565b6040516020818303038152906040527f5d1a971a000000000000000000000000000000000000000000000000000000007bffffffffffffffffffffffffffffffffffffffffffffffffffffffff19166020820180517bffffffffffffffffffffffffffffffffffffffffffffffffffffffff8381831617835250505050620006c660201b60201c565b50505050565b6001816000016000828254019250508190555050565b60008151905060006a636f6e736f6c652e6c6f679050602083016000808483855afa5050505050565b6000604051905090565b600080fd5b600080fd5b600080fd5b6000601f19601f8301169050919050565b7f4e487b7100000000000000000000000000000000000000000000000000000000600052604160045260246000fd5b620007538262000708565b810181811067ffffffffffffffff8211171562000775576200077462000719565b5b80604052505050565b60006200078a620006ef565b905062000798828262000748565b919050565b600067ffffffffffffffff821115620007bb57620007ba62000719565b5b602082029050602081019050919050565b600080fd5b600080fd5b600067ffffffffffffffff821115620007f457620007f362000719565b5b620007ff8262000708565b9050602081019050919050565b60005b838110156200082c5780820151818401526020810190506200080f565b60008484015250505050565b60006200084f6200084984620007d6565b6200077e565b9050828152602081018484840111156200086e576200086d620007d1565b5b6200087b8482856200080c565b509392505050565b600082601f8301126200089b576200089a62000703565b5b8151620008ad84826020860162000838565b91505092915050565b6000620008cd620008c7846200079d565b6200077e565b90508083825260208201905060208402830185811115620008f357620008f2620007cc565b5b835b818110156200094157805167ffffffffffffffff8111156200091c576200091b62000703565b5b8086016200092b898262000883565b85526020850194505050602081019050620008f5565b5050509392505050565b600082601f83011262000963576200096262000703565b5b815162000975848260208601620008b6565b91505092915050565b600067ffffffffffffffff8211156200099c576200099b62000719565b5b602082029050602081019050919050565b6000819050919050565b620009c281620009ad565b8114620009ce57600080fd5b50565b600081519050620009e281620009b7565b92915050565b6000620009ff620009f9846200097e565b6200077e565b9050808382526020820190506020840283018581111562000a255762000a24620007cc565b5b835b8181101562000a52578062000a3d8882620009d1565b84526020840193505060208101905062000a27565b5050509392505050565b600082601f83011262000a745762000a7362000703565b5b815162000a86848260208601620009e8565b91505092915050565b600080600080600080600080610100898b03121562000ab35762000ab2620006f9565b5b600089015167ffffffffffffffff81111562000ad45762000ad3620006fe565b5b62000ae28b828c016200094b565b985050602089015167ffffffffffffffff81111562000b065762000b05620006fe565b5b62000b148b828c016200094b565b975050604089015167ffffffffffffffff81111562000b385762000b37620006fe565b5b62000b468b828c0162000a5c565b965050606089015167ffffffffffffffff81111562000b6a5762000b69620006fe565b5b62000b788b828c0162000a5c565b955050608089015167ffffffffffffffff81111562000b9c5762000b9b620006fe565b5b62000baa8b828c0162000883565b94505060a089015167ffffffffffffffff81111562000bce5762000bcd620006fe565b5b62000bdc8b828c0162000883565b93505060c062000bef8b828c01620009d1565b92505060e062000c028b828c01620009d1565b9150509295985092959890939650565b600081519050919050565b7f4e487b7100000000000000000000000000000000000000000000000000000000600052602260045260246000fd5b6000600282049050600182168062000c6557607f821691505b60208210810362000c7b5762000c7a62000c1d565b5b50919050565b60008190508160005260206000209050919050565b60006020601f8301049050919050565b600082821b905092915050565b60006008830262000ce57fffffffffffffffffffffffffffffffffffffffffffffffffffffffffffffffff8262000ca6565b62000cf1868362000ca6565b95508019841693508086168417925050509392505050565b6000819050919050565b600062000d3462000d2e62000d2884620009ad565b62000d09565b620009ad565b9050919050565b6000819050919050565b62000d508362000d13565b62000d6862000d5f8262000d3b565b84845462000cb3565b825550505050565b600090565b62000d7f62000d70565b62000d8c81848462000d45565b505050565b5b8181101562000db45762000da860008262000d75565b60018101905062000d92565b5050565b601f82111562000e035762000dcd8162000c81565b62000dd88462000c96565b8101602085101562000de8578190505b62000e0062000df78562000c96565b83018262000d91565b50505b505050565b600082821c905092915050565b600062000e286000198460080262000e08565b1980831691505092915050565b600062000e43838362000e15565b9150826002028217905092915050565b62000e5e8262000c12565b67ffffffffffffffff81111562000e7a5762000e7962000719565b5b62000e86825462000c4c565b62000e9382828562000db8565b600060209050601f83116001811462000ecb576000841562000eb6578287015190505b62000ec2858262000e35565b86555062000f32565b601f19841662000edb8662000c81565b60005b8281101562000f055784890151825560018201915060208501945060208101905062000ede565b8683101562000f25578489015162000f21601f89168262000e15565b8355505b6001600288020188555050505b505050505050565b7f4e487b7100000000000000000000000000000000000000000000000000000000600052603260045260246000fd5b7f4e487b7100000000000000000000000000000000000000000000000000000000600052601160045260246000fd5b600062000fa582620009ad565b91507fffffffffffffffffffffffffffffffffffffffffffffffffffffffffffffffff820362000fda5762000fd962000f69565b5b600182019050919050565b600082825260208201905092915050565b6000620010038262000c12565b6200100f818562000fe5565b9350620010218185602086016200080c565b6200102c8162000708565b840191505092915050565b6200104281620009ad565b82525050565b6000608082019050818103600083015262001064818762000ff6565b905081810360208301526200107a818662000ff6565b90506200108b604083018562001037565b81810360608301526200109f818462000ff6565b905095945050505050565b614e1d80620010ba6000396000f3fe608060405234801561001057600080fd5b50600436106101375760003560e01c806398da4c95116100b8578063b953084e1161007c578063b953084e14610369578063c87b56dd14610387578063c8cf27f4146103b7578063d4f24c5b146103d5578063e985e9c5146103df578063f8b81ef71461040f57610137565b806398da4c95146102bc578063a22cb465146102f1578063a9c326791461030d578063aae09f6c1461032f578063b88d4fde1461034d57610137565b806342842e0e116100ff57806342842e0e146101f25780636352211e1461020e57806370a082311461023e5780637df124a11461026e57806395d89b411461029e57610137565b806301ffc9a71461013c57806306fdde031461016c578063081812fc1461018a578063095ea7b3146101ba57806323b872dd146101d6575b600080fd5b610156600480360381019061015191906131fa565b61042b565b6040516101639190613242565b60405180910390f35b61017461050d565b60405161018191906132ed565b60405180910390f35b6101a4600480360381019061019f9190613345565b61059f565b6040516101b191906133b3565b60405180910390f35b6101d460048036038101906101cf91906133fa565b6105e5565b005b6101f060048036038101906101eb919061343a565b6106fc565b005b61020c6004803603810190610207919061343a565b61075c565b005b61022860048036038101906102239190613345565b61077c565b60405161023591906133b3565b60405180910390f35b6102586004803603810190610253919061348d565b610802565b60405161026591906134c9565b60405180910390f35b6102886004803603810190610283919061348d565b6108b9565b60405161029591906134c9565b60405180910390f35b6102a66108d1565b6040516102b391906132ed565b60405180910390f35b6102d660048036038101906102d19190613345565b610963565b6040516102e8969594939291906134e4565b60405180910390f35b61030b6004803603810190610306919061357f565b610aaf565b005b610315610ac5565b6040516103269594939291906135bf565b60405180910390f35b610337610bf9565b60405161034491906136f6565b60405180910390f35b6103676004803603810190610362919061384d565b610d55565b005b610371610db7565b60405161037e9190613a22565b60405180910390f35b6103a1600480360381019061039c9190613345565b610f62565b6040516103ae91906132ed565b60405180910390f35b6103bf61117d565b6040516103cc9190613ad4565b60405180910390f35b6103dd611355565b005b6103f960048036038101906103f49190613af6565b611994565b6040516104069190613242565b60405180910390f35b61042960048036038101906104249190613345565b611a28565b005b60007f80ac58cd000000000000000000000000000000000000000000000000000000007bffffffffffffffffffffffffffffffffffffffffffffffffffffffff1916827bffffffffffffffffffffffffffffffffffffffffffffffffffffffff191614806104f657507f5b5e139f000000000000000000000000000000000000000000000000000000007bffffffffffffffffffffffffffffffffffffffffffffffffffffffff1916827bffffffffffffffffffffffffffffffffffffffffffffffffffffffff1916145b80610506575061050582611e08565b5b9050919050565b60606000805461051c90613b65565b80601f016020809104026020016040519081016040528092919081815260200182805461054890613b65565b80156105955780601f1061056a57610100808354040283529160200191610595565b820191906000526020600020905b81548152906001019060200180831161057857829003601f168201915b5050505050905090565b60006105aa82611e72565b6004600083815260200190815260200160002060009054906101000a900473ffffffffffffffffffffffffffffffffffffffff169050919050565b60006105f08261077c565b90508073ffffffffffffffffffffffffffffffffffffffff168373ffffffffffffffffffffffffffffffffffffffff1603610660576040517f08c379a000000000000000000000000000000000000000000000000000000000815260040161065790613c08565b60405180910390fd5b8073ffffffffffffffffffffffffffffffffffffffff1661067f611ebd565b73ffffffffffffffffffffffffffffffffffffffff1614806106ae57506106ad816106a8611ebd565b611994565b5b6106ed576040517f08c379a00000000000000000000000000000000000000000000000000000000081526004016106e490613c9a565b60405180910390fd5b6106f78383611ec5565b505050565b61070d610707611ebd565b82611f7e565b61074c576040517f08c379a000000000000000000000000000000000000000000000000000000000815260040161074390613d2c565b60405180910390fd5b610757838383612013565b505050565b61077783838360405180602001604052806000815250610d55565b505050565b6000806107888361230c565b9050600073ffffffffffffffffffffffffffffffffffffffff168173ffffffffffffffffffffffffffffffffffffffff16036107f9576040517f08c379a00000000000000000000000000000000000000000000000000000000081526004016107f090613d98565b60405180910390fd5b80915050919050565b60008073ffffffffffffffffffffffffffffffffffffffff168273ffffffffffffffffffffffffffffffffffffffff1603610872576040517f08c379a000000000000000000000000000000000000000000000000000000000815260040161086990613e2a565b60405180910390fd5b600360008373ffffffffffffffffffffffffffffffffffffffff1673ffffffffffffffffffffffffffffffffffffffff168152602001908152602001600020549050919050565b600f6020528060005260406000206000915090505481565b6060600180546108e090613b65565b80601f016020809104026020016040519081016040528092919081815260200182805461090c90613b65565b80156109595780601f1061092e57610100808354040283529160200191610959565b820191906000526020600020905b81548152906001019060200180831161093c57829003601f168201915b5050505050905090565b600960205280600052604060002060009150905080600001549080600101805461098c90613b65565b80601f01602080910402602001604051908101604052809291908181526020018280546109b890613b65565b8015610a055780601f106109da57610100808354040283529160200191610a05565b820191906000526020600020905b8154815290600101906020018083116109e857829003601f168201915b505050505090806002018054610a1a90613b65565b80601f0160208091040260200160405190810160405280929190818152602001828054610a4690613b65565b8015610a935780601f10610a6857610100808354040283529160200191610a93565b820191906000526020600020905b815481529060010190602001808311610a7657829003601f168201915b5050505050908060030154908060040154908060050154905086565b610ac1610aba611ebd565b8383612349565b5050565b600a806000018054610ad690613b65565b80601f0160208091040260200160405190810160405280929190818152602001828054610b0290613b65565b8015610b4f5780601f10610b2457610100808354040283529160200191610b4f565b820191906000526020600020905b815481529060010190602001808311610b3257829003601f168201915b505050505090806001018054610b6490613b65565b80601f0160208091040260200160405190810160405280929190818152602001828054610b9090613b65565b8015610bdd5780601f10610bb257610100808354040283529160200191610bdd565b820191906000526020600020905b815481529060010190602001808311610bc057829003601f168201915b5050505050908060020154908060030154908060040154905085565b610c01613129565b600a6040518060a0016040529081600082018054610c1e90613b65565b80601f0160208091040260200160405190810160405280929190818152602001828054610c4a90613b65565b8015610c975780601f10610c6c57610100808354040283529160200191610c97565b820191906000526020600020905b815481529060010190602001808311610c7a57829003601f168201915b50505050508152602001600182018054610cb090613b65565b80601f0160208091040260200160405190810160405280929190818152602001828054610cdc90613b65565b8015610d295780601f10610cfe57610100808354040283529160200191610d29565b820191906000526020600020905b815481529060010190602001808311610d0c57829003601f168201915b505050505081526020016002820154815260200160038201548152602001600482015481525050905090565b610d66610d60611ebd565b83611f7e565b610da5576040517f08c379a0000000000000000000000000000000000000000000000000000000008152600401610d9c90613d2c565b60405180910390fd5b610db1848484846124b5565b50505050565b60606008805480602002602001604051908101604052809291908181526020016000905b82821015610f5957838290600052602060002090600602016040518060c001604052908160008201548152602001600182018054610e1890613b65565b80601f0160208091040260200160405190810160405280929190818152602001828054610e4490613b65565b8015610e915780601f10610e6657610100808354040283529160200191610e91565b820191906000526020600020905b815481529060010190602001808311610e7457829003601f168201915b50505050508152602001600282018054610eaa90613b65565b80601f0160208091040260200160405190810160405280929190818152602001828054610ed690613b65565b8015610f235780601f10610ef857610100808354040283529160200191610f23565b820191906000526020600020905b815481529060010190602001808311610f0657829003601f168201915b50505050508152602001600382015481526020016004820154815260200160058201548152505081526020019060010190610ddb565b50505050905090565b60606000600960008481526020019081526020016000206040518060c001604052908160008201548152602001600182018054610f9e90613b65565b80601f0160208091040260200160405190810160405280929190818152602001828054610fca90613b65565b80156110175780601f10610fec57610100808354040283529160200191611017565b820191906000526020600020905b815481529060010190602001808311610ffa57829003601f168201915b5050505050815260200160028201805461103090613b65565b80601f016020809104026020016040519081016040528092919081815260200182805461105c90613b65565b80156110a95780601f1061107e576101008083540402835291602001916110a9565b820191906000526020600020905b81548152906001019060200180831161108c57829003601f168201915b505050505081526020016003820154815260200160048201548152602001600582015481525050905060006110e18260600151612511565b905060006110f28360800151612511565b905060006111038460a00151612511565b90506000611149856020015161111889612511565b876040015187878760405160200161113596959493929190614158565b6040516020818303038152906040526125df565b905060008160405160200161115e9190614249565b6040516020818303038152906040529050809650505050505050919050565b611185613158565b6000600f60003373ffffffffffffffffffffffffffffffffffffffff1673ffffffffffffffffffffffffffffffffffffffff168152602001908152602001600020549050600081111561134457600960008281526020019081526020016000206040518060c00160405290816000820154815260200160018201805461120a90613b65565b80601f016020809104026020016040519081016040528092919081815260200182805461123690613b65565b80156112835780601f1061125857610100808354040283529160200191611283565b820191906000526020600020905b81548152906001019060200180831161126657829003601f168201915b5050505050815260200160028201805461129c90613b65565b80601f01602080910402602001604051908101604052809291908181526020018280546112c890613b65565b80156113155780601f106112ea57610100808354040283529160200191611315565b820191906000526020600020905b8154815290600101906020018083116112f857829003601f168201915b505050505081526020016003820154815260200160048201548152602001600582015481525050915050611352565b61134c613158565b80925050505b90565b6000600f60003373ffffffffffffffffffffffffffffffffffffffff1673ffffffffffffffffffffffffffffffffffffffff16815260200190815260200160002054905060006009600083815260200190815260200160002090506114686040518060600160405280603c8152602001614dac603c91398260010180546113db90613b65565b80601f016020809104026020016040519081016040528092919081815260200182805461140790613b65565b80156114545780601f1061142957610100808354040283529160200191611454565b820191906000526020600020905b81548152906001019060200180831161143757829003601f168201915b505050505083600301548460050154612776565b6115406040518060400160405280601b81526020017f426f73732025732068617320257320485020616e642025732041440000000000815250600a60000180546114b190613b65565b80601f01602080910402602001604051908101604052809291908181526020018280546114dd90613b65565b801561152a5780601f106114ff5761010080835404028352916020019161152a565b820191906000526020600020905b81548152906001019060200180831161150d57829003601f168201915b5050505050600a60020154600a60040154612776565b6000816003015411611587576040517f08c379a000000000000000000000000000000000000000000000000000000000815260040161157e906142dd565b60405180910390fd5b6000600a60020154116115cf576040517f08c379a00000000000000000000000000000000000000000000000000000000081526004016115c69061436f565b60405180910390fd5b6117286040518060400160405280601281526020017f2573207377696e67732061742025732e2e2e000000000000000000000000000081525082600101805461161790613b65565b80601f016020809104026020016040519081016040528092919081815260200182805461164390613b65565b80156116905780601f1061166557610100808354040283529160200191611690565b820191906000526020600020905b81548152906001019060200180831161167357829003601f168201915b5050505050600a60000180546116a590613b65565b80601f01602080910402602001604051908101604052809291908181526020018280546116d190613b65565b801561171e5780601f106116f35761010080835404028352916020019161171e565b820191906000526020600020905b81548152906001019060200180831161170157829003601f168201915b5050505050612818565b8060050154600a600201541015611749576000600a60020181905550611768565b8060050154600a6002015461175e91906143be565b600a600201819055505b6118c16040518060400160405280601281526020017f2573207377696e67732061742025732e2e2e0000000000000000000000000000815250600a60000180546117b190613b65565b80601f01602080910402602001604051908101604052809291908181526020018280546117dd90613b65565b801561182a5780601f106117ff5761010080835404028352916020019161182a565b820191906000526020600020905b81548152906001019060200180831161180d57829003601f168201915b505050505083600101805461183e90613b65565b80601f016020809104026020016040519081016040528092919081815260200182805461186a90613b65565b80156118b75780601f1061188c576101008083540402835291602001916118b7565b820191906000526020600020905b81548152906001019060200180831161189a57829003601f168201915b5050505050612818565b600a60040154816003015410156118e157600081600301819055506118ff565b600a6004015481600301546118f691906143be565b81600301819055505b611926604051806060016040528060258152602001614cf160259139600a600201546128b7565b61194c604051806060016040528060288152602001614d566028913982600301546128b7565b7f32bd565ee3f2cb5ddd742bbecd6048d3e9abe90b3827a40c2b72d232e71e3c9d33600a600201548360030154604051611988939291906143f2565b60405180910390a15050565b6000600560008473ffffffffffffffffffffffffffffffffffffffff1673ffffffffffffffffffffffffffffffffffffffff16815260200190815260200160002060008373ffffffffffffffffffffffffffffffffffffffff1673ffffffffffffffffffffffffffffffffffffffff16815260200190815260200160002060009054906101000a900460ff16905092915050565b6000611a346007612953565b9050611a403382612961565b6040518060c0016040528083815260200160088481548110611a6557611a64614429565b5b90600052602060002090600602016001018054611a8190613b65565b80601f0160208091040260200160405190810160405280929190818152602001828054611aad90613b65565b8015611afa5780601f10611acf57610100808354040283529160200191611afa565b820191906000526020600020905b815481529060010190602001808311611add57829003601f168201915b5050505050815260200160088481548110611b1857611b17614429565b5b90600052602060002090600602016002018054611b3490613b65565b80601f0160208091040260200160405190810160405280929190818152602001828054611b6090613b65565b8015611bad5780601f10611b8257610100808354040283529160200191611bad565b820191906000526020600020905b815481529060010190602001808311611b9057829003601f168201915b5050505050815260200160088481548110611bcb57611bca614429565b5b906000526020600020906006020160030154815260200160088481548110611bf657611bf5614429565b5b906000526020600020906006020160040154815260200160088481548110611c2157611c20614429565b5b90600052602060002090600602016005015481525060096000838152602001908152602001600020600082015181600001556020820151816001019081611c689190614604565b506040820151816002019081611c7e9190614604565b50606082015181600301556080820151816004015560a08201518160050155905050611cc36040518060600160405280602e8152602001614d7e602e9139828461297f565b80600f60003373ffffffffffffffffffffffffffffffffffffffff1673ffffffffffffffffffffffffffffffffffffffff16815260200190815260200160002081905550611d116007611df2565b7f4bc303fd457a97b4691b9af582ce71868a3d258638c8d4f8c60988a0f0bfb8cd338284604051611d44939291906143f2565b60405180910390a15050565b611dec84848484604051602401611d6a94939291906146d6565b6040516020818303038152906040527f5d1a971a000000000000000000000000000000000000000000000000000000007bffffffffffffffffffffffffffffffffffffffffffffffffffffffff19166020820180517bffffffffffffffffffffffffffffffffffffffffffffffffffffffff8381831617835250505050612a1e565b50505050565b6001816000016000828254019250508190555050565b60007f01ffc9a7000000000000000000000000000000000000000000000000000000007bffffffffffffffffffffffffffffffffffffffffffffffffffffffff1916827bffffffffffffffffffffffffffffffffffffffffffffffffffffffff1916149050919050565b611e7b81612a47565b611eba576040517f08c379a0000000000000000000000000000000000000000000000000000000008152600401611eb190613d98565b60405180910390fd5b50565b600033905090565b816004600083815260200190815260200160002060006101000a81548173ffffffffffffffffffffffffffffffffffffffff021916908373ffffffffffffffffffffffffffffffffffffffff160217905550808273ffffffffffffffffffffffffffffffffffffffff16611f388361077c565b73ffffffffffffffffffffffffffffffffffffffff167f8c5be1e5ebec7d5bd14f71427d1e84f3dd0314c0f7b2291e5b200ac8c7c3b92560405160405180910390a45050565b600080611f8a8361077c565b90508073ffffffffffffffffffffffffffffffffffffffff168473ffffffffffffffffffffffffffffffffffffffff161480611fcc5750611fcb8185611994565b5b8061200a57508373ffffffffffffffffffffffffffffffffffffffff16611ff28461059f565b73ffffffffffffffffffffffffffffffffffffffff16145b91505092915050565b8273ffffffffffffffffffffffffffffffffffffffff166120338261077c565b73ffffffffffffffffffffffffffffffffffffffff1614612089576040517f08c379a0000000000000000000000000000000000000000000000000000000008152600401612080906147a2565b60405180910390fd5b600073ffffffffffffffffffffffffffffffffffffffff168273ffffffffffffffffffffffffffffffffffffffff16036120f8576040517f08c379a00000000000000000000000000000000000000000000000000000000081526004016120ef90614834565b60405180910390fd5b6121058383836001612a88565b8273ffffffffffffffffffffffffffffffffffffffff166121258261077c565b73ffffffffffffffffffffffffffffffffffffffff161461217b576040517f08c379a0000000000000000000000000000000000000000000000000000000008152600401612172906147a2565b60405180910390fd5b6004600082815260200190815260200160002060006101000a81549073ffffffffffffffffffffffffffffffffffffffff02191690556001600360008573ffffffffffffffffffffffffffffffffffffffff1673ffffffffffffffffffffffffffffffffffffffff168152602001908152602001600020600082825403925050819055506001600360008473ffffffffffffffffffffffffffffffffffffffff1673ffffffffffffffffffffffffffffffffffffffff16815260200190815260200160002060008282540192505081905550816002600083815260200190815260200160002060006101000a81548173ffffffffffffffffffffffffffffffffffffffff021916908373ffffffffffffffffffffffffffffffffffffffff160217905550808273ffffffffffffffffffffffffffffffffffffffff168473ffffffffffffffffffffffffffffffffffffffff167fddf252ad1be2c89b69c2b068fc378daa952ba7f163c4a11628f55a4df523b3ef60405160405180910390a46123078383836001612bae565b505050565b60006002600083815260200190815260200160002060009054906101000a900473ffffffffffffffffffffffffffffffffffffffff169050919050565b8173ffffffffffffffffffffffffffffffffffffffff168373ffffffffffffffffffffffffffffffffffffffff16036123b7576040517f08c379a00000000000000000000000000000000000000000000000000000000081526004016123ae906148a0565b60405180910390fd5b80600560008573ffffffffffffffffffffffffffffffffffffffff1673ffffffffffffffffffffffffffffffffffffffff16815260200190815260200160002060008473ffffffffffffffffffffffffffffffffffffffff1673ffffffffffffffffffffffffffffffffffffffff16815260200190815260200160002060006101000a81548160ff0219169083151502179055508173ffffffffffffffffffffffffffffffffffffffff168373ffffffffffffffffffffffffffffffffffffffff167f17307eab39ab6107e8899845ad3d59bd9653f200f220920489ca2b5937696c31836040516124a89190613242565b60405180910390a3505050565b6124c0848484612013565b6124cc84848484612bb4565b61250b576040517f08c379a000000000000000000000000000000000000000000000000000000000815260040161250290614932565b60405180910390fd5b50505050565b60606000600161252084612d3b565b01905060008167ffffffffffffffff81111561253f5761253e613722565b5b6040519080825280601f01601f1916602001820160405280156125715781602001600182028036833780820191505090505b509050600082602001820190505b6001156125d4578080600190039150507f3031323334353637383961626364656600000000000000000000000000000000600a86061a8153600a85816125c8576125c7614952565b5b0494506000850361257f575b819350505050919050565b6060600082519050600081036126075760405180602001604052806000815250915050612771565b600060036002836126189190614981565b61262291906149b5565b600461262e91906149e6565b9050600060208261263f9190614981565b67ffffffffffffffff81111561265857612657613722565b5b6040519080825280601f01601f19166020018201604052801561268a5781602001600182028036833780820191505090505b5090506000604051806060016040528060408152602001614d16604091399050600181016020830160005b8681101561272e5760038101905062ffffff818a015116603f8160121c168401518060081b905060ff603f83600c1c1686015116810190508060081b905060ff603f8360061c1686015116810190508060081b905060ff603f831686015116810190508060e01b905080845260048401935050506126b5565b506003860660018114612748576002811461275857612763565b613d3d60f01b6002830352612763565b603d60f81b60018303525b508484525050819450505050505b919050565b612812848484846040516024016127909493929190614a28565b6040516020818303038152906040527ff45d7d2c000000000000000000000000000000000000000000000000000000007bffffffffffffffffffffffffffffffffffffffffffffffffffffffff19166020820180517bffffffffffffffffffffffffffffffffffffffffffffffffffffffff8381831617835250505050612a1e565b50505050565b6128b283838360405160240161283093929190614a7b565b6040516020818303038152906040527f2ced7cef000000000000000000000000000000000000000000000000000000007bffffffffffffffffffffffffffffffffffffffffffffffffffffffff19166020820180517bffffffffffffffffffffffffffffffffffffffffffffffffffffffff8381831617835250505050612a1e565b505050565b61294f82826040516024016128cd929190614ac7565b6040516020818303038152906040527fb60e72cc000000000000000000000000000000000000000000000000000000007bffffffffffffffffffffffffffffffffffffffffffffffffffffffff19166020820180517bffffffffffffffffffffffffffffffffffffffffffffffffffffffff8381831617835250505050612a1e565b5050565b600081600001549050919050565b61297b828260405180602001604052806000815250612e8e565b5050565b612a1983838360405160240161299793929190614af7565b6040516020818303038152906040527fca47c4eb000000000000000000000000000000000000000000000000000000007bffffffffffffffffffffffffffffffffffffffffffffffffffffffff19166020820180517bffffffffffffffffffffffffffffffffffffffffffffffffffffffff8381831617835250505050612a1e565b505050565b60008151905060006a636f6e736f6c652e6c6f679050602083016000808483855afa5050505050565b60008073ffffffffffffffffffffffffffffffffffffffff16612a698361230c565b73ffffffffffffffffffffffffffffffffffffffff1614159050919050565b6001811115612ba857600073ffffffffffffffffffffffffffffffffffffffff168473ffffffffffffffffffffffffffffffffffffffff1614612b1c5780600360008673ffffffffffffffffffffffffffffffffffffffff1673ffffffffffffffffffffffffffffffffffffffff1681526020019081526020016000206000828254612b1491906143be565b925050819055505b600073ffffffffffffffffffffffffffffffffffffffff168373ffffffffffffffffffffffffffffffffffffffff1614612ba75780600360008573ffffffffffffffffffffffffffffffffffffffff1673ffffffffffffffffffffffffffffffffffffffff1681526020019081526020016000206000828254612b9f9190614981565b925050819055505b5b50505050565b50505050565b6000612bd58473ffffffffffffffffffffffffffffffffffffffff16612ee9565b15612d2e578373ffffffffffffffffffffffffffffffffffffffff1663150b7a02612bfe611ebd565b8786866040518563ffffffff1660e01b8152600401612c209493929190614b8a565b6020604051808303816000875af1925050508015612c5c57506040513d601f19601f82011682018060405250810190612c599190614beb565b60015b612cde573d8060008114612c8c576040519150601f19603f3d011682016040523d82523d6000602084013e612c91565b606091505b506000815103612cd6576040517f08c379a0000000000000000000000000000000000000000000000000000000008152600401612ccd90614932565b60405180910390fd5b805181602001fd5b63150b7a0260e01b7bffffffffffffffffffffffffffffffffffffffffffffffffffffffff1916817bffffffffffffffffffffffffffffffffffffffffffffffffffffffff191614915050612d33565b600190505b949350505050565b600080600090507a184f03e93ff9f4daa797ed6e38ed64bf6a1f0100000000000000008310612d99577a184f03e93ff9f4daa797ed6e38ed64bf6a1f0100000000000000008381612d8f57612d8e614952565b5b0492506040810190505b6d04ee2d6d415b85acef81000000008310612dd6576d04ee2d6d415b85acef81000000008381612dcc57612dcb614952565b5b0492506020810190505b662386f26fc100008310612e0557662386f26fc100008381612dfb57612dfa614952565b5b0492506010810190505b6305f5e1008310612e2e576305f5e1008381612e2457612e23614952565b5b0492506008810190505b6127108310612e53576127108381612e4957612e48614952565b5b0492506004810190505b60648310612e765760648381612e6c57612e6b614952565b5b0492506002810190505b600a8310612e85576001810190505b80915050919050565b612e988383612f0c565b612ea56000848484612bb4565b612ee4576040517f08c379a0000000000000000000000000000000000000000000000000000000008152600401612edb90614932565b60405180910390fd5b505050565b6000808273ffffffffffffffffffffffffffffffffffffffff163b119050919050565b600073ffffffffffffffffffffffffffffffffffffffff168273ffffffffffffffffffffffffffffffffffffffff1603612f7b576040517f08c379a0000000000000000000000000000000000000000000000000000000008152600401612f7290614c64565b60405180910390fd5b612f8481612a47565b15612fc4576040517f08c379a0000000000000000000000000000000000000000000000000000000008152600401612fbb90614cd0565b60405180910390fd5b612fd2600083836001612a88565b612fdb81612a47565b1561301b576040517f08c379a000000000000000000000000000000000000000000000000000000000815260040161301290614cd0565b60405180910390fd5b6001600360008473ffffffffffffffffffffffffffffffffffffffff1673ffffffffffffffffffffffffffffffffffffffff16815260200190815260200160002060008282540192505081905550816002600083815260200190815260200160002060006101000a81548173ffffffffffffffffffffffffffffffffffffffff021916908373ffffffffffffffffffffffffffffffffffffffff160217905550808273ffffffffffffffffffffffffffffffffffffffff16600073ffffffffffffffffffffffffffffffffffffffff167fddf252ad1be2c89b69c2b068fc378daa952ba7f163c4a11628f55a4df523b3ef60405160405180910390a4613125600083836001612bae565b5050565b6040518060a0016040528060608152602001606081526020016000815260200160008152602001600081525090565b6040518060c001604052806000815260200160608152602001606081526020016000815260200160008152602001600081525090565b6000604051905090565b600080fd5b600080fd5b60007fffffffff0000000000000000000000000000000000000000000000000000000082169050919050565b6131d7816131a2565b81146131e257600080fd5b50565b6000813590506131f4816131ce565b92915050565b6000602082840312156132105761320f613198565b5b600061321e848285016131e5565b91505092915050565b60008115159050919050565b61323c81613227565b82525050565b60006020820190506132576000830184613233565b92915050565b600081519050919050565b600082825260208201905092915050565b60005b8381101561329757808201518184015260208101905061327c565b60008484015250505050565b6000601f19601f8301169050919050565b60006132bf8261325d565b6132c98185613268565b93506132d9818560208601613279565b6132e2816132a3565b840191505092915050565b6000602082019050818103600083015261330781846132b4565b905092915050565b6000819050919050565b6133228161330f565b811461332d57600080fd5b50565b60008135905061333f81613319565b92915050565b60006020828403121561335b5761335a613198565b5b600061336984828501613330565b91505092915050565b600073ffffffffffffffffffffffffffffffffffffffff82169050919050565b600061339d82613372565b9050919050565b6133ad81613392565b82525050565b60006020820190506133c860008301846133a4565b92915050565b6133d781613392565b81146133e257600080fd5b50565b6000813590506133f4816133ce565b92915050565b6000806040838503121561341157613410613198565b5b600061341f858286016133e5565b925050602061343085828601613330565b9150509250929050565b60008060006060848603121561345357613452613198565b5b6000613461868287016133e5565b9350506020613472868287016133e5565b925050604061348386828701613330565b9150509250925092565b6000602082840312156134a3576134a2613198565b5b60006134b1848285016133e5565b91505092915050565b6134c38161330f565b82525050565b60006020820190506134de60008301846134ba565b92915050565b600060c0820190506134f960008301896134ba565b818103602083015261350b81886132b4565b9050818103604083015261351f81876132b4565b905061352e60608301866134ba565b61353b60808301856134ba565b61354860a08301846134ba565b979650505050505050565b61355c81613227565b811461356757600080fd5b50565b60008135905061357981613553565b92915050565b6000806040838503121561359657613595613198565b5b60006135a4858286016133e5565b92505060206135b58582860161356a565b9150509250929050565b600060a08201905081810360008301526135d981886132b4565b905081810360208301526135ed81876132b4565b90506135fc60408301866134ba565b61360960608301856134ba565b61361660808301846134ba565b9695505050505050565b600082825260208201905092915050565b600061363c8261325d565b6136468185613620565b9350613656818560208601613279565b61365f816132a3565b840191505092915050565b6136738161330f565b82525050565b600060a08301600083015184820360008601526136968282613631565b915050602083015184820360208601526136b08282613631565b91505060408301516136c5604086018261366a565b5060608301516136d8606086018261366a565b5060808301516136eb608086018261366a565b508091505092915050565b600060208201905081810360008301526137108184613679565b905092915050565b600080fd5b600080fd5b7f4e487b7100000000000000000000000000000000000000000000000000000000600052604160045260246000fd5b61375a826132a3565b810181811067ffffffffffffffff8211171561377957613778613722565b5b80604052505050565b600061378c61318e565b90506137988282613751565b919050565b600067ffffffffffffffff8211156137b8576137b7613722565b5b6137c1826132a3565b9050602081019050919050565b82818337600083830152505050565b60006137f06137eb8461379d565b613782565b90508281526020810184848401111561380c5761380b61371d565b5b6138178482856137ce565b509392505050565b600082601f83011261383457613833613718565b5b81356138448482602086016137dd565b91505092915050565b6000806000806080858703121561386757613866613198565b5b6000613875878288016133e5565b9450506020613886878288016133e5565b935050604061389787828801613330565b925050606085013567ffffffffffffffff8111156138b8576138b761319d565b5b6138c48782880161381f565b91505092959194509250565b600081519050919050565b600082825260208201905092915050565b6000819050602082019050919050565b600060c083016000830151613914600086018261366a565b506020830151848203602086015261392c8282613631565b915050604083015184820360408601526139468282613631565b915050606083015161395b606086018261366a565b50608083015161396e608086018261366a565b5060a083015161398160a086018261366a565b508091505092915050565b600061399883836138fc565b905092915050565b6000602082019050919050565b60006139b8826138d0565b6139c281856138db565b9350836020820285016139d4856138ec565b8060005b85811015613a1057848403895281516139f1858261398c565b94506139fc836139a0565b925060208a019950506001810190506139d8565b50829750879550505050505092915050565b60006020820190508181036000830152613a3c81846139ad565b905092915050565b600060c083016000830151613a5c600086018261366a565b5060208301518482036020860152613a748282613631565b91505060408301518482036040860152613a8e8282613631565b9150506060830151613aa3606086018261366a565b506080830151613ab6608086018261366a565b5060a0830151613ac960a086018261366a565b508091505092915050565b60006020820190508181036000830152613aee8184613a44565b905092915050565b60008060408385031215613b0d57613b0c613198565b5b6000613b1b858286016133e5565b9250506020613b2c858286016133e5565b9150509250929050565b7f4e487b7100000000000000000000000000000000000000000000000000000000600052602260045260246000fd5b60006002820490506001821680613b7d57607f821691505b602082108103613b9057613b8f613b36565b5b50919050565b7f4552433732313a20617070726f76616c20746f2063757272656e74206f776e6560008201527f7200000000000000000000000000000000000000000000000000000000000000602082015250565b6000613bf2602183613268565b9150613bfd82613b96565b604082019050919050565b60006020820190508181036000830152613c2181613be5565b9050919050565b7f4552433732313a20617070726f76652063616c6c6572206973206e6f7420746f60008201527f6b656e206f776e6572206f7220617070726f76656420666f7220616c6c000000602082015250565b6000613c84603d83613268565b9150613c8f82613c28565b604082019050919050565b60006020820190508181036000830152613cb381613c77565b9050919050565b7f4552433732313a2063616c6c6572206973206e6f7420746f6b656e206f776e6560008201527f72206f7220617070726f76656400000000000000000000000000000000000000602082015250565b6000613d16602d83613268565b9150613d2182613cba565b604082019050919050565b60006020820190508181036000830152613d4581613d09565b9050919050565b7f4552433732313a20696e76616c696420746f6b656e2049440000000000000000600082015250565b6000613d82601883613268565b9150613d8d82613d4c565b602082019050919050565b60006020820190508181036000830152613db181613d75565b9050919050565b7f4552433732313a2061646472657373207a65726f206973206e6f74206120766160008201527f6c6964206f776e65720000000000000000000000000000000000000000000000602082015250565b6000613e14602983613268565b9150613e1f82613db8565b604082019050919050565b60006020820190508181036000830152613e4381613e07565b9050919050565b600081905092915050565b7f7b226e616d65223a202200000000000000000000000000000000000000000000600082015250565b6000613e8b600a83613e4a565b9150613e9682613e55565b600a82019050919050565b6000613eac8261325d565b613eb68185613e4a565b9350613ec6818560208601613279565b80840191505092915050565b7f202d2d204e465420233a20000000000000000000000000000000000000000000600082015250565b6000613f08600b83613e4a565b9150613f1382613ed2565b600b82019050919050565b7f222c20226465736372697074696f6e223a20225468697320697320616e204e4660008201527f542074686174206c6574732070656f706c6520706c617920696e20746865206760208201527f616d65204d657461766572736520536c6179657221222c2022696d616765223a60408201527f2022000000000000000000000000000000000000000000000000000000000000606082015250565b6000613fc6606283613e4a565b9150613fd182613f1e565b606282019050919050565b7f222c202261747472696275746573223a205b207b202274726169745f7479706560008201527f223a20224865616c746820506f696e7473222c202276616c7565223a20000000602082015250565b6000614038603d83613e4a565b915061404382613fdc565b603d82019050919050565b7f2c20226d61785f76616c7565223a000000000000000000000000000000000000600082015250565b6000614084600e83613e4a565b915061408f8261404e565b600e82019050919050565b7f7d2c207b202274726169745f74797065223a202241747461636b2044616d616760008201527f65222c202276616c7565223a2000000000000000000000000000000000000000602082015250565b60006140f6602d83613e4a565b91506141018261409a565b602d82019050919050565b7f7d205d7d00000000000000000000000000000000000000000000000000000000600082015250565b6000614142600483613e4a565b915061414d8261410c565b600482019050919050565b600061416382613e7e565b915061416f8289613ea1565b915061417a82613efb565b91506141868288613ea1565b915061419182613fb9565b915061419d8287613ea1565b91506141a88261402b565b91506141b48286613ea1565b91506141bf82614077565b91506141cb8285613ea1565b91506141d6826140e9565b91506141e28284613ea1565b91506141ed82614135565b9150819050979650505050505050565b7f646174613a6170706c69636174696f6e2f6a736f6e3b6261736536342c000000600082015250565b6000614233601d83613e4a565b915061423e826141fd565b601d82019050919050565b600061425482614226565b91506142608284613ea1565b915081905092915050565b7f4572726f723a20636861726163746572206d757374206861766520485020746f60008201527f2061747461636b20626f73732e00000000000000000000000000000000000000602082015250565b60006142c7602d83613268565b91506142d28261426b565b604082019050919050565b600060208201905081810360008301526142f6816142ba565b9050919050565b7f4572726f723a20626f7373206d757374206861766520485020746f206174746160008201527f636b206368617261637465722e00000000000000000000000000000000000000602082015250565b6000614359602d83613268565b9150614364826142fd565b604082019050919050565b600060208201905081810360008301526143888161434c565b9050919050565b7f4e487b7100000000000000000000000000000000000000000000000000000000600052601160045260246000fd5b60006143c98261330f565b91506143d48361330f565b92508282039050818111156143ec576143eb61438f565b5b92915050565b600060608201905061440760008301866133a4565b61441460208301856134ba565b61442160408301846134ba565b949350505050565b7f4e487b7100000000000000000000000000000000000000000000000000000000600052603260045260246000fd5b60008190508160005260206000209050919050565b60006020601f8301049050919050565b600082821b905092915050565b6000600883026144ba7fffffffffffffffffffffffffffffffffffffffffffffffffffffffffffffffff8261447d565b6144c4868361447d565b95508019841693508086168417925050509392505050565b6000819050919050565b60006145016144fc6144f78461330f565b6144dc565b61330f565b9050919050565b6000819050919050565b61451b836144e6565b61452f61452782614508565b84845461448a565b825550505050565b600090565b614544614537565b61454f818484614512565b505050565b5b818110156145735761456860008261453c565b600181019050614555565b5050565b601f8211156145b85761458981614458565b6145928461446d565b810160208510156145a1578190505b6145b56145ad8561446d565b830182614554565b50505b505050565b600082821c905092915050565b60006145db600019846008026145bd565b1980831691505092915050565b60006145f483836145ca565b9150826002028217905092915050565b61460d8261325d565b67ffffffffffffffff81111561462657614625613722565b5b6146308254613b65565b61463b828285614577565b600060209050601f83116001811461466e576000841561465c578287015190505b61466685826145e8565b8655506146ce565b601f19841661467c86614458565b60005b828110156146a45784890151825560018201915060208501945060208101905061467f565b868310156146c157848901516146bd601f8916826145ca565b8355505b6001600288020188555050505b505050505050565b600060808201905081810360008301526146f081876132b4565b9050818103602083015261470481866132b4565b905061471360408301856134ba565b818103606083015261472581846132b4565b905095945050505050565b7f4552433732313a207472616e736665722066726f6d20696e636f72726563742060008201527f6f776e6572000000000000000000000000000000000000000000000000000000602082015250565b600061478c602583613268565b915061479782614730565b604082019050919050565b600060208201905081810360008301526147bb8161477f565b9050919050565b7f4552433732313a207472616e7366657220746f20746865207a65726f2061646460008201527f7265737300000000000000000000000000000000000000000000000000000000602082015250565b600061481e602483613268565b9150614829826147c2565b604082019050919050565b6000602082019050818103600083015261484d81614811565b9050919050565b7f4552433732313a20617070726f766520746f2063616c6c657200000000000000600082015250565b600061488a601983613268565b915061489582614854565b602082019050919050565b600060208201905081810360008301526148b98161487d565b9050919050565b7f4552433732313a207472616e7366657220746f206e6f6e20455243373231526560008201527f63656976657220696d706c656d656e7465720000000000000000000000000000602082015250565b600061491c603283613268565b9150614927826148c0565b604082019050919050565b6000602082019050818103600083015261494b8161490f565b9050919050565b7f4e487b7100000000000000000000000000000000000000000000000000000000600052601260045260246000fd5b600061498c8261330f565b91506149978361330f565b92508282019050808211156149af576149ae61438f565b5b92915050565b60006149c08261330f565b91506149cb8361330f565b9250826149db576149da614952565b5b828204905092915050565b60006149f18261330f565b91506149fc8361330f565b9250828202614a0a8161330f565b91508282048414831517614a2157614a2061438f565b5b5092915050565b60006080820190508181036000830152614a4281876132b4565b90508181036020830152614a5681866132b4565b9050614a6560408301856134ba565b614a7260608301846134ba565b95945050505050565b60006060820190508181036000830152614a9581866132b4565b90508181036020830152614aa981856132b4565b90508181036040830152614abd81846132b4565b9050949350505050565b60006040820190508181036000830152614ae181856132b4565b9050614af060208301846134ba565b9392505050565b60006060820190508181036000830152614b1181866132b4565b9050614b2060208301856134ba565b614b2d60408301846134ba565b949350505050565b600081519050919050565b600082825260208201905092915050565b6000614b5c82614b35565b614b668185614b40565b9350614b76818560208601613279565b614b7f816132a3565b840191505092915050565b6000608082019050614b9f60008301876133a4565b614bac60208301866133a4565b614bb960408301856134ba565b8181036060830152614bcb8184614b51565b905095945050505050565b600081519050614be5816131ce565b92915050565b600060208284031215614c0157614c00613198565b5b6000614c0f84828501614bd6565b91505092915050565b7f4552433732313a206d696e7420746f20746865207a65726f2061646472657373600082015250565b6000614c4e602083613268565b9150614c5982614c18565b602082019050919050565b60006020820190508181036000830152614c7d81614c41565b9050919050565b7f4552433732313a20746f6b656e20616c7265616479206d696e74656400000000600082015250565b6000614cba601c83613268565b9150614cc582614c84565b602082019050919050565b60006020820190508181036000830152614ce981614cad565b905091905056fe506c617965722061747461636b656420626f73732e204e657720626f73732068703a2025734142434445464748494a4b4c4d4e4f505152535455565758595a6162636465666768696a6b6c6d6e6f707172737475767778797a303132333435363738392b2f426f73732061747461636b656420706c617965722e204e657720706c617965722068703a2025730a4d696e746564204e465420772f20746f6b656e496420257320616e6420636861726163746572496e6465782025730a506c6179657220772f206368617261637465722025732061626f757420746f2061747461636b2e2048617320257320485020616e64202573204144a26469706673582212209654195e7cf43126f60b26f51b82bbb7b433115463107d8ff114121cf89ea2af64736f6c63430008110033446f6e6520696e697469616c697a696e6720257320772f2048502025732c20696d67202573446f6e6520696e697469616c697a696e6720626f737320257320772f2048502025732c20696d67202573",
  "linkReferences": {},
  "deployedLinkReferences": {}
}